{
  "contractName": "BBTCRHelper",
  "abi": [
    {
      "constant": true,
      "inputs": [],
      "name": "bbo",
      "outputs": [
        {
          "name": "",
          "type": "address"
        }
      ],
      "payable": false,
      "stateMutability": "view",
      "type": "function"
    },
    {
      "constant": true,
      "inputs": [],
      "name": "bbs",
      "outputs": [
        {
          "name": "",
          "type": "address"
        }
      ],
      "payable": false,
      "stateMutability": "view",
      "type": "function"
    },
    {
      "constant": false,
      "inputs": [],
      "name": "renounceOwnership",
      "outputs": [],
      "payable": false,
      "stateMutability": "nonpayable",
      "type": "function"
    },
    {
      "constant": false,
      "inputs": [
        {
          "name": "BBOAddress",
          "type": "address"
        }
      ],
      "name": "setBBO",
      "outputs": [],
      "payable": false,
      "stateMutability": "nonpayable",
      "type": "function"
    },
    {
      "constant": true,
      "inputs": [],
      "name": "owner",
      "outputs": [
        {
          "name": "",
          "type": "address"
        }
      ],
      "payable": false,
      "stateMutability": "view",
      "type": "function"
    },
    {
      "constant": false,
      "inputs": [
        {
          "name": "anyToken",
          "type": "address"
        }
      ],
      "name": "emergencyERC20Drain",
      "outputs": [],
      "payable": false,
      "stateMutability": "nonpayable",
      "type": "function"
    },
    {
      "constant": false,
      "inputs": [
        {
          "name": "storageAddress",
          "type": "address"
        }
      ],
      "name": "setStorage",
      "outputs": [],
      "payable": false,
      "stateMutability": "nonpayable",
      "type": "function"
    },
    {
      "constant": false,
      "inputs": [
        {
          "name": "_newOwner",
          "type": "address"
        }
      ],
      "name": "transferOwnership",
      "outputs": [],
      "payable": false,
      "stateMutability": "nonpayable",
      "type": "function"
    },
    {
      "anonymous": false,
      "inputs": [
        {
          "indexed": true,
          "name": "owner",
          "type": "address"
        },
        {
          "indexed": true,
          "name": "listID",
          "type": "uint256"
        },
        {
          "indexed": true,
          "name": "tokenAddress",
          "type": "address"
        },
        {
          "indexed": false,
          "name": "nameHash",
          "type": "bytes"
        }
      ],
      "name": "CreateListID",
      "type": "event"
    },
    {
      "anonymous": false,
      "inputs": [
        {
          "indexed": true,
          "name": "previousOwner",
          "type": "address"
        }
      ],
      "name": "OwnershipRenounced",
      "type": "event"
    },
    {
      "anonymous": false,
      "inputs": [
        {
          "indexed": true,
          "name": "previousOwner",
          "type": "address"
        },
        {
          "indexed": true,
          "name": "newOwner",
          "type": "address"
        }
      ],
      "name": "OwnershipTransferred",
      "type": "event"
    },
    {
      "constant": false,
      "inputs": [
        {
          "name": "nameHash",
          "type": "bytes"
        },
        {
          "name": "tokenAddress",
          "type": "address"
        }
      ],
      "name": "createListID",
      "outputs": [],
      "payable": false,
      "stateMutability": "nonpayable",
      "type": "function"
    },
    {
      "constant": false,
      "inputs": [
        {
          "name": "listID",
          "type": "uint256"
        },
        {
          "name": "tokenAddress",
          "type": "address"
        }
      ],
      "name": "updateToken",
      "outputs": [],
      "payable": false,
      "stateMutability": "nonpayable",
      "type": "function"
    },
    {
      "constant": true,
      "inputs": [
        {
          "name": "listID",
          "type": "uint256"
        }
      ],
      "name": "getToken",
      "outputs": [
        {
          "name": "",
          "type": "address"
        }
      ],
      "payable": false,
      "stateMutability": "view",
      "type": "function"
    },
    {
      "constant": true,
      "inputs": [
        {
          "name": "pollID",
          "type": "uint256"
        }
      ],
      "name": "getListID",
      "outputs": [
        {
          "name": "",
          "type": "uint256"
        }
      ],
      "payable": false,
      "stateMutability": "view",
      "type": "function"
    },
    {
      "constant": false,
      "inputs": [
        {
          "name": "listID",
          "type": "uint256"
        },
        {
          "name": "applicationDuration",
          "type": "uint256"
        },
        {
          "name": "commitDuration",
          "type": "uint256"
        },
        {
          "name": "revealDuration",
          "type": "uint256"
        },
        {
          "name": "minStake",
          "type": "uint256"
        },
        {
          "name": "initQuorum",
          "type": "uint256"
        },
        {
          "name": "exitDuration",
          "type": "uint256"
        }
      ],
      "name": "setParams",
      "outputs": [],
      "payable": false,
      "stateMutability": "nonpayable",
      "type": "function"
    },
    {
      "constant": true,
      "inputs": [
        {
          "name": "listID",
          "type": "uint256"
        }
      ],
      "name": "getListParams",
      "outputs": [
        {
          "name": "applicationDuration",
          "type": "uint256"
        },
        {
          "name": "commitDuration",
          "type": "uint256"
        },
        {
          "name": "revealDuration",
          "type": "uint256"
        },
        {
          "name": "minStake",
          "type": "uint256"
        },
        {
          "name": "initQuorum",
          "type": "uint256"
        },
        {
          "name": "exitDuration",
          "type": "uint256"
        }
      ],
      "payable": false,
      "stateMutability": "view",
      "type": "function"
    },
    {
      "constant": true,
      "inputs": [
        {
          "name": "listID",
          "type": "uint256"
        },
        {
          "name": "itemHash",
          "type": "bytes32"
        }
      ],
      "name": "getStakedBalance",
      "outputs": [
        {
          "name": "",
          "type": "uint256"
        }
      ],
      "payable": false,
      "stateMutability": "view",
      "type": "function"
    },
    {
      "constant": true,
      "inputs": [
        {
          "name": "listID",
          "type": "uint256"
        },
        {
          "name": "itemHash",
          "type": "bytes32"
        }
      ],
      "name": "getItemStage",
      "outputs": [
        {
          "name": "",
          "type": "uint256"
        }
      ],
      "payable": false,
      "stateMutability": "view",
      "type": "function"
    },
    {
      "constant": true,
      "inputs": [
        {
          "name": "listID",
          "type": "uint256"
        },
        {
          "name": "itemHash",
          "type": "bytes32"
        },
        {
          "name": "sender",
          "type": "address"
        }
      ],
      "name": "isOwnerItem",
      "outputs": [
        {
          "name": "r",
          "type": "bool"
        }
      ],
      "payable": false,
      "stateMutability": "view",
      "type": "function"
    },
    {
      "constant": true,
      "inputs": [
        {
          "name": "listID",
          "type": "uint256"
        },
        {
          "name": "itemHash",
          "type": "bytes32"
        },
        {
          "name": "sender",
          "type": "address"
        }
      ],
      "name": "canApply",
      "outputs": [
        {
          "name": "r",
          "type": "bool"
        }
      ],
      "payable": false,
      "stateMutability": "view",
      "type": "function"
    },
    {
      "constant": true,
      "inputs": [
        {
          "name": "listID",
          "type": "uint256"
        },
        {
          "name": "stakedToken",
          "type": "uint256"
        }
      ],
      "name": "calcRewardPool",
      "outputs": [
        {
          "name": "",
          "type": "uint256"
        }
      ],
      "payable": false,
      "stateMutability": "view",
      "type": "function"
    },
    {
      "constant": true,
      "inputs": [
        {
          "name": "listID",
          "type": "uint256"
        },
        {
          "name": "itemHash",
          "type": "bytes32"
        }
      ],
      "name": "canBeWhitelisted",
      "outputs": [
        {
          "name": "",
          "type": "bool"
        }
      ],
      "payable": false,
      "stateMutability": "view",
      "type": "function"
    },
    {
      "constant": true,
      "inputs": [
        {
          "name": "listID",
          "type": "uint256"
        },
        {
          "name": "itemHash",
          "type": "bytes32"
        }
      ],
      "name": "isWhitelisted",
      "outputs": [
        {
          "name": "whitelisted",
          "type": "bool"
        }
      ],
      "payable": false,
      "stateMutability": "view",
      "type": "function"
    }
  ],
  "bytecode": "0x60806040526000600160006101000a81548173ffffffffffffffffffffffffffffffffffffffff021916908373ffffffffffffffffffffffffffffffffffffffff1602179055506000600260006101000a81548173ffffffffffffffffffffffffffffffffffffffff021916908373ffffffffffffffffffffffffffffffffffffffff160217905550336000806101000a81548173ffffffffffffffffffffffffffffffffffffffff021916908373ffffffffffffffffffffffffffffffffffffffff160217905550613715806100d76000396000f30060806040526004361061011d576000357c0100000000000000000000000000000000000000000000000000000000900463ffffffff168063093077ee146101225780631995532c1461016d5780631e89bf06146101e05780631fde23a414610237578063385d5c2e1461028e57806353dfb1be146103175780636909fd4414610364578063715018a6146103b75780637937f46d146103ce5780637a177bb1146104115780637dd16521146104525780638da5cb5b146104a157806390e8d82f146104f85780639137c1a71461053b578063ba63e25a1461057e578063ce1c4556146105d1578063e4b50cb81461063a578063e996ee88146106a7578063eea81e9d146106f6578063f2fde38b14610769578063f489d46b146107ac575b600080fd5b34801561012e57600080fd5b506101576004803603810190808035906020019092919080359060200190929190505050610810565b6040518082815260200191505060405180910390f35b34801561017957600080fd5b506101c6600480360381019080803590602001909291908035600019169060200190929190803573ffffffffffffffffffffffffffffffffffffffff16906020019092919050505061099f565b604051808215151515815260200191505060405180910390f35b3480156101ec57600080fd5b506101f5610b5f565b604051808273ffffffffffffffffffffffffffffffffffffffff1673ffffffffffffffffffffffffffffffffffffffff16815260200191505060405180910390f35b34801561024357600080fd5b5061024c610b85565b604051808273ffffffffffffffffffffffffffffffffffffffff1673ffffffffffffffffffffffffffffffffffffffff16815260200191505060405180910390f35b34801561029a57600080fd5b50610315600480360381019080803590602001908201803590602001908080601f0160208091040260200160405190810160405280939291908181526020018383808284378201915050505050509192919290803573ffffffffffffffffffffffffffffffffffffffff169060200190929190505050610bab565b005b34801561032357600080fd5b5061036260048036038101908080359060200190929190803573ffffffffffffffffffffffffffffffffffffffff169060200190929190505050610ef3565b005b34801561037057600080fd5b5061039d6004803603810190808035906020019092919080356000191690602001909291905050506110d1565b604051808215151515815260200191505060405180910390f35b3480156103c357600080fd5b506103cc611224565b005b3480156103da57600080fd5b5061040f600480360381019080803573ffffffffffffffffffffffffffffffffffffffff169060200190929190505050611326565b005b34801561041d57600080fd5b5061043c600480360381019080803590602001909291905050506113c5565b6040518082815260200191505060405180910390f35b34801561045e57600080fd5b5061048b6004803603810190808035906020019092919080356000191690602001909291905050506114e0565b6040518082815260200191505060405180910390f35b3480156104ad57600080fd5b506104b6611633565b604051808273ffffffffffffffffffffffffffffffffffffffff1673ffffffffffffffffffffffffffffffffffffffff16815260200191505060405180910390f35b34801561050457600080fd5b50610539600480360381019080803573ffffffffffffffffffffffffffffffffffffffff169060200190929190505050611658565b005b34801561054757600080fd5b5061057c600480360381019080803573ffffffffffffffffffffffffffffffffffffffff16906020019092919050505061196c565b005b34801561058a57600080fd5b506105b7600480360381019080803590602001909291908035600019169060200190929190505050611a0b565b604051808215151515815260200191505060405180910390f35b3480156105dd57600080fd5b5061063860048036038101908080359060200190929190803590602001909291908035906020019092919080359060200190929190803590602001909291908035906020019092919080359060200190929190505050611cef565b005b34801561064657600080fd5b5061066560048036038101908080359060200190929190505050612461565b604051808273ffffffffffffffffffffffffffffffffffffffff1673ffffffffffffffffffffffffffffffffffffffff16815260200191505060405180910390f35b3480156106b357600080fd5b506106e06004803603810190808035906020019092919080356000191690602001909291905050506125b2565b6040518082815260200191505060405180910390f35b34801561070257600080fd5b5061074f600480360381019080803590602001909291908035600019169060200190929190803573ffffffffffffffffffffffffffffffffffffffff169060200190929190505050612705565b604051808215151515815260200191505060405180910390f35b34801561077557600080fd5b506107aa600480360381019080803573ffffffffffffffffffffffffffffffffffffffff1690602001909291905050506128c3565b005b3480156107b857600080fd5b506107d760048036038101908080359060200190929190505050612982565b60405180878152602001868152602001858152602001848152602001838152602001828152602001965050505050505060405180910390f35b6000806064905061099660646109888561097a600160009054906101000a900473ffffffffffffffffffffffffffffffffffffffff1673ffffffffffffffffffffffffffffffffffffffff1663bd02d0f56108d66040805190810160405280600381526020017f54435200000000000000000000000000000000000000000000000000000000008152508c6040805190810160405280600c81526020017f4c4f53455f50455243454e540000000000000000000000000000000000000000815250613150565b6040518263ffffffff167c0100000000000000000000000000000000000000000000000000000000028152600401808260001916600019168152602001915050602060405180830381600087803b15801561093057600080fd5b505af1158015610944573d6000803e3d6000fd5b505050506040513d602081101561095a57600080fd5b81019080805190602001909291905050508661328790919063ffffffff16565b6132a090919063ffffffff16565b6132d890919063ffffffff16565b91505092915050565b600080600160009054906101000a900473ffffffffffffffffffffffffffffffffffffffff1673ffffffffffffffffffffffffffffffffffffffff166321f8a721610a566040805190810160405280600381526020017f544352000000000000000000000000000000000000000000000000000000000081525088886040805190810160405280600581526020017f4f574e45520000000000000000000000000000000000000000000000000000008152506132ee565b6040518263ffffffff167c0100000000000000000000000000000000000000000000000000000000028152600401808260001916600019168152602001915050602060405180830381600087803b158015610ab057600080fd5b505af1158015610ac4573d6000803e3d6000fd5b505050506040513d6020811015610ada57600080fd5b810190808051906020019092919050505090508273ffffffffffffffffffffffffffffffffffffffff168173ffffffffffffffffffffffffffffffffffffffff16148015610b555750600073ffffffffffffffffffffffffffffffffffffffff168173ffffffffffffffffffffffffffffffffffffffff1614155b9150509392505050565b600260009054906101000a900473ffffffffffffffffffffffffffffffffffffffff1681565b600160009054906101000a900473ffffffffffffffffffffffffffffffffffffffff1681565b60008060009054906101000a900473ffffffffffffffffffffffffffffffffffffffff1673ffffffffffffffffffffffffffffffffffffffff163373ffffffffffffffffffffffffffffffffffffffff16141515610c0857600080fd5b600160009054906101000a900473ffffffffffffffffffffffffffffffffffffffff1673ffffffffffffffffffffffffffffffffffffffff1663bd02d0f5610c846040805190810160405280600b81526020017f5443525f4c4953545f4944000000000000000000000000000000000000000000815250613436565b6040518263ffffffff167c0100000000000000000000000000000000000000000000000000000000028152600401808260001916600019168152602001915050602060405180830381600087803b158015610cde57600080fd5b505af1158015610cf2573d6000803e3d6000fd5b505050506040513d6020811015610d0857600080fd5b810190808051906020019092919050505090508080600101915050600160009054906101000a900473ffffffffffffffffffffffffffffffffffffffff1673ffffffffffffffffffffffffffffffffffffffff1663e2a4853a610d9f6040805190810160405280600b81526020017f5443525f4c4953545f4944000000000000000000000000000000000000000000815250613436565b836040518363ffffffff167c010000000000000000000000000000000000000000000000000000000002815260040180836000191660001916815260200182815260200192505050600060405180830381600087803b158015610e0157600080fd5b505af1158015610e15573d6000803e3d6000fd5b50505050610e238183610ef3565b8173ffffffffffffffffffffffffffffffffffffffff16813373ffffffffffffffffffffffffffffffffffffffff167ffa3aba74ddbb8a0596a89ada2d707e08209725877767f34ce93595c65d9b53e8866040518080602001828103825283818151815260200191508051906020019080838360005b83811015610eb4578082015181840152602081019050610e99565b50505050905090810190601f168015610ee15780820380516001836020036101000a031916815260200191505b509250505060405180910390a4505050565b6000809054906101000a900473ffffffffffffffffffffffffffffffffffffffff1673ffffffffffffffffffffffffffffffffffffffff163373ffffffffffffffffffffffffffffffffffffffff16141515610f4e57600080fd5b60008173ffffffffffffffffffffffffffffffffffffffff1614151515610f7457600080fd5b600160009054906101000a900473ffffffffffffffffffffffffffffffffffffffff1673ffffffffffffffffffffffffffffffffffffffff1663ca446dd96110276040805190810160405280600381526020017f5443520000000000000000000000000000000000000000000000000000000000815250856040805190810160405280600581526020017f544f4b454e000000000000000000000000000000000000000000000000000000815250613150565b836040518363ffffffff167c01000000000000000000000000000000000000000000000000000000000281526004018083600019166000191681526020018273ffffffffffffffffffffffffffffffffffffffff1673ffffffffffffffffffffffffffffffffffffffff16815260200192505050600060405180830381600087803b1580156110b557600080fd5b505af11580156110c9573d6000803e3d6000fd5b505050505050565b6000600160009054906101000a900473ffffffffffffffffffffffffffffffffffffffff1673ffffffffffffffffffffffffffffffffffffffff16637ae1cfca6111876040805190810160405280600381526020017f544352000000000000000000000000000000000000000000000000000000000081525086866040805190810160405280600c81526020017f57484954455f4c495354454400000000000000000000000000000000000000008152506132ee565b6040518263ffffffff167c0100000000000000000000000000000000000000000000000000000000028152600401808260001916600019168152602001915050602060405180830381600087803b1580156111e157600080fd5b505af11580156111f5573d6000803e3d6000fd5b505050506040513d602081101561120b57600080fd5b8101908080519060200190929190505050905092915050565b6000809054906101000a900473ffffffffffffffffffffffffffffffffffffffff1673ffffffffffffffffffffffffffffffffffffffff163373ffffffffffffffffffffffffffffffffffffffff1614151561127f57600080fd5b6000809054906101000a900473ffffffffffffffffffffffffffffffffffffffff1673ffffffffffffffffffffffffffffffffffffffff167ff8df31144d9c2f0f6b59d69b8b98abd5459d07f2742c4df920b25aae33c6482060405160405180910390a260008060006101000a81548173ffffffffffffffffffffffffffffffffffffffff021916908373ffffffffffffffffffffffffffffffffffffffff160217905550565b6000809054906101000a900473ffffffffffffffffffffffffffffffffffffffff1673ffffffffffffffffffffffffffffffffffffffff163373ffffffffffffffffffffffffffffffffffffffff1614151561138157600080fd5b80600260006101000a81548173ffffffffffffffffffffffffffffffffffffffff021916908373ffffffffffffffffffffffffffffffffffffffff16021790555050565b6000600160009054906101000a900473ffffffffffffffffffffffffffffffffffffffff1673ffffffffffffffffffffffffffffffffffffffff1663bd02d0f56114446040805190810160405280601581526020017f5443525f4d415050494e475f504f4c4c5f4c49535400000000000000000000008152508561350e565b6040518263ffffffff167c0100000000000000000000000000000000000000000000000000000000028152600401808260001916600019168152602001915050602060405180830381600087803b15801561149e57600080fd5b505af11580156114b2573d6000803e3d6000fd5b505050506040513d60208110156114c857600080fd5b81019080805190602001909291905050509050919050565b6000600160009054906101000a900473ffffffffffffffffffffffffffffffffffffffff1673ffffffffffffffffffffffffffffffffffffffff1663bd02d0f56115966040805190810160405280600381526020017f544352000000000000000000000000000000000000000000000000000000000081525086866040805190810160405280600681526020017f5354414b454400000000000000000000000000000000000000000000000000008152506132ee565b6040518263ffffffff167c0100000000000000000000000000000000000000000000000000000000028152600401808260001916600019168152602001915050602060405180830381600087803b1580156115f057600080fd5b505af1158015611604573d6000803e3d6000fd5b505050506040513d602081101561161a57600080fd5b8101908080519060200190929190505050905092915050565b6000809054906101000a900473ffffffffffffffffffffffffffffffffffffffff1681565b6000809054906101000a900473ffffffffffffffffffffffffffffffffffffffff1673ffffffffffffffffffffffffffffffffffffffff163373ffffffffffffffffffffffffffffffffffffffff161415156116b357600080fd5b60003073ffffffffffffffffffffffffffffffffffffffff16311115611753576000809054906101000a900473ffffffffffffffffffffffffffffffffffffffff1673ffffffffffffffffffffffffffffffffffffffff166108fc3073ffffffffffffffffffffffffffffffffffffffff16319081150290604051600060405180830381858888f19350505050158015611751573d6000803e3d6000fd5b505b600073ffffffffffffffffffffffffffffffffffffffff168173ffffffffffffffffffffffffffffffffffffffff16141515611969578073ffffffffffffffffffffffffffffffffffffffff1663a9059cbb6000809054906101000a900473ffffffffffffffffffffffffffffffffffffffff168373ffffffffffffffffffffffffffffffffffffffff166370a08231306040518263ffffffff167c0100000000000000000000000000000000000000000000000000000000028152600401808273ffffffffffffffffffffffffffffffffffffffff1673ffffffffffffffffffffffffffffffffffffffff168152602001915050602060405180830381600087803b15801561186257600080fd5b505af1158015611876573d6000803e3d6000fd5b505050506040513d602081101561188c57600080fd5b81019080805190602001909291905050506040518363ffffffff167c0100000000000000000000000000000000000000000000000000000000028152600401808373ffffffffffffffffffffffffffffffffffffffff1673ffffffffffffffffffffffffffffffffffffffff16815260200182815260200192505050602060405180830381600087803b15801561192257600080fd5b505af1158015611936573d6000803e3d6000fd5b505050506040513d602081101561194c57600080fd5b8101908080519060200190929190505050151561196857600080fd5b5b50565b6000809054906101000a900473ffffffffffffffffffffffffffffffffffffffff1673ffffffffffffffffffffffffffffffffffffffff163373ffffffffffffffffffffffffffffffffffffffff161415156119c757600080fd5b80600160006101000a81548173ffffffffffffffffffffffffffffffffffffffff021916908373ffffffffffffffffffffffffffffffffffffffff16021790555050565b6000806000600160009054906101000a900473ffffffffffffffffffffffffffffffffffffffff1673ffffffffffffffffffffffffffffffffffffffff1663bd02d0f5611ac46040805190810160405280600381526020017f544352000000000000000000000000000000000000000000000000000000000081525088886040805190810160405280601381526020017f4150504c49434154494f4e5f454e4454494d45000000000000000000000000008152506132ee565b6040518263ffffffff167c0100000000000000000000000000000000000000000000000000000000028152600401808260001916600019168152602001915050602060405180830381600087803b158015611b1e57600080fd5b505af1158015611b32573d6000803e3d6000fd5b505050506040513d6020811015611b4857600080fd5b81019080805190602001909291905050509150600160009054906101000a900473ffffffffffffffffffffffffffffffffffffffff1673ffffffffffffffffffffffffffffffffffffffff1663bd02d0f5611c0f6040805190810160405280600381526020017f544352000000000000000000000000000000000000000000000000000000000081525088886040805190810160405280600581526020017f53544147450000000000000000000000000000000000000000000000000000008152506132ee565b6040518263ffffffff167c0100000000000000000000000000000000000000000000000000000000028152600401808260001916600019168152602001915050602060405180830381600087803b158015611c6957600080fd5b505af1158015611c7d573d6000803e3d6000fd5b505050506040513d6020811015611c9357600080fd5b81019080805190602001909291905050509050600082118015611cb557504282105b8015611cc15750600181145b8015611cd45750611cd285856110d1565b155b15611ce25760019250611ce7565b600092505b505092915050565b6000809054906101000a900473ffffffffffffffffffffffffffffffffffffffff1673ffffffffffffffffffffffffffffffffffffffff163373ffffffffffffffffffffffffffffffffffffffff16141515611d4a57600080fd5b600160009054906101000a900473ffffffffffffffffffffffffffffffffffffffff1673ffffffffffffffffffffffffffffffffffffffff1663e2a4853a611dfd6040805190810160405280600381526020017f54435200000000000000000000000000000000000000000000000000000000008152508a6040805190810160405280601481526020017f4150504c49434154494f4e5f4455524154494f4e000000000000000000000000815250613150565b886040518363ffffffff167c010000000000000000000000000000000000000000000000000000000002815260040180836000191660001916815260200182815260200192505050600060405180830381600087803b158015611e5f57600080fd5b505af1158015611e73573d6000803e3d6000fd5b50505050600160009054906101000a900473ffffffffffffffffffffffffffffffffffffffff1673ffffffffffffffffffffffffffffffffffffffff1663e2a4853a611f2a6040805190810160405280600381526020017f54435200000000000000000000000000000000000000000000000000000000008152508a6040805190810160405280600f81526020017f434f4d4d49545f4455524154494f4e0000000000000000000000000000000000815250613150565b876040518363ffffffff167c010000000000000000000000000000000000000000000000000000000002815260040180836000191660001916815260200182815260200192505050600060405180830381600087803b158015611f8c57600080fd5b505af1158015611fa0573d6000803e3d6000fd5b50505050600160009054906101000a900473ffffffffffffffffffffffffffffffffffffffff1673ffffffffffffffffffffffffffffffffffffffff1663e2a4853a6120576040805190810160405280600381526020017f54435200000000000000000000000000000000000000000000000000000000008152508a6040805190810160405280600f81526020017f52455645414c5f4455524154494f4e0000000000000000000000000000000000815250613150565b866040518363ffffffff167c010000000000000000000000000000000000000000000000000000000002815260040180836000191660001916815260200182815260200192505050600060405180830381600087803b1580156120b957600080fd5b505af11580156120cd573d6000803e3d6000fd5b50505050600160009054906101000a900473ffffffffffffffffffffffffffffffffffffffff1673ffffffffffffffffffffffffffffffffffffffff1663e2a4853a6121846040805190810160405280600381526020017f54435200000000000000000000000000000000000000000000000000000000008152508a6040805190810160405280600981526020017f4d494e5f5354414b450000000000000000000000000000000000000000000000815250613150565b856040518363ffffffff167c010000000000000000000000000000000000000000000000000000000002815260040180836000191660001916815260200182815260200192505050600060405180830381600087803b1580156121e657600080fd5b505af11580156121fa573d6000803e3d6000fd5b50505050600160009054906101000a900473ffffffffffffffffffffffffffffffffffffffff1673ffffffffffffffffffffffffffffffffffffffff1663e2a4853a6122b16040805190810160405280600381526020017f54435200000000000000000000000000000000000000000000000000000000008152508a6040805190810160405280600681526020017f51554f52554d0000000000000000000000000000000000000000000000000000815250613150565b846040518363ffffffff167c010000000000000000000000000000000000000000000000000000000002815260040180836000191660001916815260200182815260200192505050600060405180830381600087803b15801561231357600080fd5b505af1158015612327573d6000803e3d6000fd5b50505050600160009054906101000a900473ffffffffffffffffffffffffffffffffffffffff1673ffffffffffffffffffffffffffffffffffffffff1663e2a4853a6123de6040805190810160405280600381526020017f54435200000000000000000000000000000000000000000000000000000000008152508a6040805190810160405280600c81526020017f455849544455524154494f4e0000000000000000000000000000000000000000815250613150565b836040518363ffffffff167c010000000000000000000000000000000000000000000000000000000002815260040180836000191660001916815260200182815260200192505050600060405180830381600087803b15801561244057600080fd5b505af1158015612454573d6000803e3d6000fd5b5050505050505050505050565b6000600160009054906101000a900473ffffffffffffffffffffffffffffffffffffffff1673ffffffffffffffffffffffffffffffffffffffff166321f8a7216125166040805190810160405280600381526020017f5443520000000000000000000000000000000000000000000000000000000000815250856040805190810160405280600581526020017f544f4b454e000000000000000000000000000000000000000000000000000000815250613150565b6040518263ffffffff167c0100000000000000000000000000000000000000000000000000000000028152600401808260001916600019168152602001915050602060405180830381600087803b15801561257057600080fd5b505af1158015612584573d6000803e3d6000fd5b505050506040513d602081101561259a57600080fd5b81019080805190602001909291905050509050919050565b6000600160009054906101000a900473ffffffffffffffffffffffffffffffffffffffff1673ffffffffffffffffffffffffffffffffffffffff1663bd02d0f56126686040805190810160405280600381526020017f544352000000000000000000000000000000000000000000000000000000000081525086866040805190810160405280600581526020017f53544147450000000000000000000000000000000000000000000000000000008152506132ee565b6040518263ffffffff167c0100000000000000000000000000000000000000000000000000000000028152600401808260001916600019168152602001915050602060405180830381600087803b1580156126c257600080fd5b505af11580156126d6573d6000803e3d6000fd5b505050506040513d60208110156126ec57600080fd5b8101908080519060200190929190505050905092915050565b600080600160009054906101000a900473ffffffffffffffffffffffffffffffffffffffff1673ffffffffffffffffffffffffffffffffffffffff166321f8a7216127bc6040805190810160405280600381526020017f544352000000000000000000000000000000000000000000000000000000000081525088886040805190810160405280600581526020017f4f574e45520000000000000000000000000000000000000000000000000000008152506132ee565b6040518263ffffffff167c0100000000000000000000000000000000000000000000000000000000028152600401808260001916600019168152602001915050602060405180830381600087803b15801561281657600080fd5b505af115801561282a573d6000803e3d6000fd5b505050506040513d602081101561284057600080fd5b810190808051906020019092919050505090508273ffffffffffffffffffffffffffffffffffffffff168173ffffffffffffffffffffffffffffffffffffffff1614806128b95750600073ffffffffffffffffffffffffffffffffffffffff168173ffffffffffffffffffffffffffffffffffffffff16145b9150509392505050565b600073ffffffffffffffffffffffffffffffffffffffff166000809054906101000a900473ffffffffffffffffffffffffffffffffffffffff1673ffffffffffffffffffffffffffffffffffffffff16141515612976576000809054906101000a900473ffffffffffffffffffffffffffffffffffffffff1673ffffffffffffffffffffffffffffffffffffffff163373ffffffffffffffffffffffffffffffffffffffff1614151561297557600080fd5b5b61297f816135ef565b50565b600080600080600080600160009054906101000a900473ffffffffffffffffffffffffffffffffffffffff1673ffffffffffffffffffffffffffffffffffffffff1663bd02d0f5612a3e6040805190810160405280600381526020017f54435200000000000000000000000000000000000000000000000000000000008152508a6040805190810160405280601481526020017f4150504c49434154494f4e5f4455524154494f4e000000000000000000000000815250613150565b6040518263ffffffff167c0100000000000000000000000000000000000000000000000000000000028152600401808260001916600019168152602001915050602060405180830381600087803b158015612a9857600080fd5b505af1158015612aac573d6000803e3d6000fd5b505050506040513d6020811015612ac257600080fd5b81019080805190602001909291905050509550600160009054906101000a900473ffffffffffffffffffffffffffffffffffffffff1673ffffffffffffffffffffffffffffffffffffffff1663bd02d0f5612b886040805190810160405280600381526020017f54435200000000000000000000000000000000000000000000000000000000008152508a6040805190810160405280600f81526020017f434f4d4d49545f4455524154494f4e0000000000000000000000000000000000815250613150565b6040518263ffffffff167c0100000000000000000000000000000000000000000000000000000000028152600401808260001916600019168152602001915050602060405180830381600087803b158015612be257600080fd5b505af1158015612bf6573d6000803e3d6000fd5b505050506040513d6020811015612c0c57600080fd5b81019080805190602001909291905050509450600160009054906101000a900473ffffffffffffffffffffffffffffffffffffffff1673ffffffffffffffffffffffffffffffffffffffff1663bd02d0f5612cd26040805190810160405280600381526020017f54435200000000000000000000000000000000000000000000000000000000008152508a6040805190810160405280600f81526020017f52455645414c5f4455524154494f4e0000000000000000000000000000000000815250613150565b6040518263ffffffff167c0100000000000000000000000000000000000000000000000000000000028152600401808260001916600019168152602001915050602060405180830381600087803b158015612d2c57600080fd5b505af1158015612d40573d6000803e3d6000fd5b505050506040513d6020811015612d5657600080fd5b81019080805190602001909291905050509350600160009054906101000a900473ffffffffffffffffffffffffffffffffffffffff1673ffffffffffffffffffffffffffffffffffffffff1663bd02d0f5612e1c6040805190810160405280600381526020017f54435200000000000000000000000000000000000000000000000000000000008152508a6040805190810160405280600981526020017f4d494e5f5354414b450000000000000000000000000000000000000000000000815250613150565b6040518263ffffffff167c0100000000000000000000000000000000000000000000000000000000028152600401808260001916600019168152602001915050602060405180830381600087803b158015612e7657600080fd5b505af1158015612e8a573d6000803e3d6000fd5b505050506040513d6020811015612ea057600080fd5b81019080805190602001909291905050509250600160009054906101000a900473ffffffffffffffffffffffffffffffffffffffff1673ffffffffffffffffffffffffffffffffffffffff1663bd02d0f5612f666040805190810160405280600381526020017f54435200000000000000000000000000000000000000000000000000000000008152508a6040805190810160405280600681526020017f51554f52554d0000000000000000000000000000000000000000000000000000815250613150565b6040518263ffffffff167c0100000000000000000000000000000000000000000000000000000000028152600401808260001916600019168152602001915050602060405180830381600087803b158015612fc057600080fd5b505af1158015612fd4573d6000803e3d6000fd5b505050506040513d6020811015612fea57600080fd5b81019080805190602001909291905050509150600160009054906101000a900473ffffffffffffffffffffffffffffffffffffffff1673ffffffffffffffffffffffffffffffffffffffff1663bd02d0f56130b06040805190810160405280600381526020017f54435200000000000000000000000000000000000000000000000000000000008152508a6040805190810160405280600c81526020017f455849544455524154494f4e0000000000000000000000000000000000000000815250613150565b6040518263ffffffff167c0100000000000000000000000000000000000000000000000000000000028152600401808260001916600019168152602001915050602060405180830381600087803b15801561310a57600080fd5b505af115801561311e573d6000803e3d6000fd5b505050506040513d602081101561313457600080fd5b8101908080519060200190929190505050905091939550919395565b60008383836040516020018084805190602001908083835b60208310151561318d5780518252602082019150602081019050602083039250613168565b6001836020036101000a03801982511681845116808217855250505050505090500183815260200182805190602001908083835b6020831015156131e657805182526020820191506020810190506020830392506131c1565b6001836020036101000a03801982511681845116808217855250505050505090500193505050506040516020818303038152906040526040518082805190602001908083835b602083101515613251578051825260208201915060208101905060208303925061322c565b6001836020036101000a038019825116818451168082178552505050505050905001915050604051809103902090509392505050565b600082821115151561329557fe5b818303905092915050565b6000808314156132b357600090506132d2565b81830290508183828115156132c457fe5b041415156132ce57fe5b8090505b92915050565b600081838115156132e557fe5b04905092915050565b6000848484846040516020018085805190602001908083835b60208310151561332c5780518252602082019150602081019050602083039250613307565b6001836020036101000a038019825116818451168082178552505050505050905001848152602001836000191660001916815260200182805190602001908083835b602083101515613393578051825260208201915060208101905060208303925061336e565b6001836020036101000a0380198251168184511680821785525050505050509050019450505050506040516020818303038152906040526040518082805190602001908083835b6020831015156133ff57805182526020820191506020810190506020830392506133da565b6001836020036101000a03801982511681845116808217855250505050505090500191505060405180910390209050949350505050565b6000816040516020018082805190602001908083835b602083101515613471578051825260208201915060208101905060208303925061344c565b6001836020036101000a0380198251168184511680821785525050505050509050019150506040516020818303038152906040526040518082805190602001908083835b6020831015156134da57805182526020820191506020810190506020830392506134b5565b6001836020036101000a03801982511681845116808217855250505050505090500191505060405180910390209050919050565b600082826040516020018083805190602001908083835b60208310151561354a5780518252602082019150602081019050602083039250613525565b6001836020036101000a038019825116818451168082178552505050505050905001828152602001925050506040516020818303038152906040526040518082805190602001908083835b6020831015156135ba5780518252602082019150602081019050602083039250613595565b6001836020036101000a0380198251168184511680821785525050505050509050019150506040518091039020905092915050565b600073ffffffffffffffffffffffffffffffffffffffff168173ffffffffffffffffffffffffffffffffffffffff161415151561362b57600080fd5b8073ffffffffffffffffffffffffffffffffffffffff166000809054906101000a900473ffffffffffffffffffffffffffffffffffffffff1673ffffffffffffffffffffffffffffffffffffffff167f8be0079c531659141344cd1fd0a4f28419497f9722a3daafe3b4186f6b6457e060405160405180910390a3806000806101000a81548173ffffffffffffffffffffffffffffffffffffffff021916908373ffffffffffffffffffffffffffffffffffffffff160217905550505600a165627a7a7230582091081bd21cc2e6fcff1d657d8d7624d2ce67f891b3e84763cddd628226beced20029",
  "source": "pragma solidity ^0.4.24;\n\nimport './BBStandard.sol';\nimport './BBLib.sol';\n\n\n\ncontract BBTCRHelper is BBStandard {\n\n    event CreateListID(address indexed owner, uint256 indexed listID, address indexed tokenAddress, bytes nameHash);\n\n    function createListID(bytes nameHash, address tokenAddress) onlyOwner public {\n        uint256 listID = bbs.getUint(BBLib.toB32('TCR_LIST_ID'));\n        listID++;\n        bbs.setUint(BBLib.toB32('TCR_LIST_ID'), listID);\n        updateToken(listID,tokenAddress);\n\n        emit CreateListID(msg.sender, listID, tokenAddress, nameHash);\n    }\n\n    function updateToken(uint256 listID, address tokenAddress)  onlyOwner public { \n        require(tokenAddress != 0x0);\n        bbs.setAddress(BBLib.toB32('TCR', listID, 'TOKEN'),tokenAddress);\n    }\n\n    function getToken(uint256 listID) public constant returns (address) {\n        return bbs.getAddress(BBLib.toB32('TCR', listID, 'TOKEN'));\n    } \n\n    function getListID(uint256 pollID) public constant returns(uint256){\n        return bbs.getUint(BBLib.toB32('TCR_MAPPING_POLL_LIST', pollID));\n    }\n\n\n    function setParams(uint256 listID, uint256 applicationDuration, uint256 commitDuration, uint256 revealDuration, uint256 minStake, uint256 initQuorum, uint256 exitDuration) onlyOwner public  {\n        bbs.setUint(BBLib.toB32('TCR', listID, 'APPLICATION_DURATION'), applicationDuration);\n        bbs.setUint(BBLib.toB32('TCR', listID, 'COMMIT_DURATION'), commitDuration);\n        bbs.setUint(BBLib.toB32('TCR', listID, 'REVEAL_DURATION'), revealDuration);\n        bbs.setUint(BBLib.toB32('TCR', listID, 'MIN_STAKE'), minStake);\n        bbs.setUint(BBLib.toB32('TCR', listID, 'QUORUM'), initQuorum);\n        bbs.setUint(BBLib.toB32('TCR', listID, 'EXITDURATION'), exitDuration);\n    }\n\n\n    function getListParams(uint256 listID) public view returns(uint256 applicationDuration, uint256 commitDuration, uint256 revealDuration, uint256 minStake, uint256 initQuorum, uint256 exitDuration){\n        applicationDuration = bbs.getUint(BBLib.toB32('TCR', listID, 'APPLICATION_DURATION'));\n        commitDuration = bbs.getUint(BBLib.toB32('TCR', listID, 'COMMIT_DURATION'));\n        revealDuration = bbs.getUint(BBLib.toB32('TCR', listID, 'REVEAL_DURATION'));\n        minStake = bbs.getUint(BBLib.toB32('TCR', listID, 'MIN_STAKE'));\n        initQuorum = bbs.getUint(BBLib.toB32('TCR', listID, 'QUORUM'));\n        exitDuration = bbs.getUint(BBLib.toB32('TCR', listID, 'EXITDURATION'));\n    }\n\n    function getStakedBalance(uint256 listID, bytes32 itemHash) public constant returns (uint256) {\n        return  bbs.getUint(BBLib.toB32('TCR', listID, itemHash, 'STAKED'));\n    }\n\n    function getItemStage(uint256 listID, bytes32 itemHash) public constant returns (uint256) {\n        return  bbs.getUint(BBLib.toB32('TCR',listID, itemHash,'STAGE'));\n    }\n\n    function isOwnerItem(uint256 listID, bytes32 itemHash, address sender) public constant returns (bool r){\n        address owner = bbs.getAddress(BBLib.toB32('TCR',listID, itemHash, 'OWNER'));\n         r = (owner == sender && owner != address(0x0));\n    }\n\n    function canApply(uint256 listID, bytes32 itemHash, address sender) public constant returns (bool r){\n        address owner = bbs.getAddress(BBLib.toB32('TCR',listID, itemHash, 'OWNER'));\n         r = (owner == sender || owner == address(0x0));\n    }\n    function calcRewardPool(uint256 listID, uint256 stakedToken) public constant returns(uint256){\n        uint oneHundred = 100; \n        return (oneHundred.sub(bbs.getUint(BBLib.toB32('TCR', listID, 'LOSE_PERCENT')))\n            .mul(stakedToken)).div(100);\n    }\n    function canBeWhitelisted(uint256 listID, bytes32 itemHash) view public returns (bool) {\n        uint256 applicationEndtime = bbs.getUint(BBLib.toB32('TCR', listID, itemHash, 'APPLICATION_ENDTIME'));\n        uint256 stage = bbs.getUint(BBLib.toB32('TCR',listID, itemHash,'STAGE'));\n        if(applicationEndtime > 0 && applicationEndtime < now && stage == 1 && !isWhitelisted(listID, itemHash)){\n            return true;\n        }\n        return false;\n    }\n    function isWhitelisted(uint256 listID, bytes32 itemHash) view public returns (bool whitelisted) {\n        return bbs.getBool(BBLib.toB32('TCR',listID, itemHash,'WHITE_LISTED'));\n    }\n\n}\n",
  "sourcePath": "/Users/trantho/Code/SmartContract/digital-contracts/src/contracts/BBTCRHelper.sol",
  "compiler": {
    "name": "solc",
    "version": "0.4.24+commit.e67f0147.Emscripten.clang"
  },
  "schemaVersion": "2.0.1",
  "updatedAt": "2018-11-26T04:41:18.795Z"
}