{
  "contractName": "BBVoting",
  "abi": [
    {
      "constant": true,
      "inputs": [],
      "name": "bbo",
      "outputs": [
        {
          "name": "",
          "type": "address"
        }
      ],
      "payable": false,
      "stateMutability": "view",
      "type": "function"
    },
    {
      "constant": true,
      "inputs": [],
      "name": "bbs",
      "outputs": [
        {
          "name": "",
          "type": "address"
        }
      ],
      "payable": false,
      "stateMutability": "view",
      "type": "function"
    },
    {
      "constant": true,
      "inputs": [],
      "name": "helper",
      "outputs": [
        {
          "name": "",
          "type": "address"
        }
      ],
      "payable": false,
      "stateMutability": "view",
      "type": "function"
    },
    {
      "constant": false,
      "inputs": [],
      "name": "renounceOwnership",
      "outputs": [],
      "payable": false,
      "stateMutability": "nonpayable",
      "type": "function"
    },
    {
      "constant": false,
      "inputs": [
        {
          "name": "BBOAddress",
          "type": "address"
        }
      ],
      "name": "setBBO",
      "outputs": [],
      "payable": false,
      "stateMutability": "nonpayable",
      "type": "function"
    },
    {
      "constant": true,
      "inputs": [],
      "name": "owner",
      "outputs": [
        {
          "name": "",
          "type": "address"
        }
      ],
      "payable": false,
      "stateMutability": "view",
      "type": "function"
    },
    {
      "constant": false,
      "inputs": [
        {
          "name": "anyToken",
          "type": "address"
        }
      ],
      "name": "emergencyERC20Drain",
      "outputs": [],
      "payable": false,
      "stateMutability": "nonpayable",
      "type": "function"
    },
    {
      "constant": false,
      "inputs": [
        {
          "name": "storageAddress",
          "type": "address"
        }
      ],
      "name": "setStorage",
      "outputs": [],
      "payable": false,
      "stateMutability": "nonpayable",
      "type": "function"
    },
    {
      "constant": false,
      "inputs": [
        {
          "name": "_newOwner",
          "type": "address"
        }
      ],
      "name": "transferOwnership",
      "outputs": [],
      "payable": false,
      "stateMutability": "nonpayable",
      "type": "function"
    },
    {
      "anonymous": false,
      "inputs": [
        {
          "indexed": true,
          "name": "pollID",
          "type": "uint256"
        },
        {
          "indexed": true,
          "name": "creator",
          "type": "address"
        }
      ],
      "name": "PollStarted",
      "type": "event"
    },
    {
      "anonymous": false,
      "inputs": [
        {
          "indexed": true,
          "name": "pollID",
          "type": "uint256"
        },
        {
          "indexed": true,
          "name": "isCancel",
          "type": "bool"
        }
      ],
      "name": "PollUpdated",
      "type": "event"
    },
    {
      "anonymous": false,
      "inputs": [
        {
          "indexed": true,
          "name": "pollID",
          "type": "uint256"
        },
        {
          "indexed": false,
          "name": "optionID",
          "type": "uint256"
        }
      ],
      "name": "PollOptionAdded",
      "type": "event"
    },
    {
      "anonymous": false,
      "inputs": [
        {
          "indexed": true,
          "name": "voter",
          "type": "address"
        },
        {
          "indexed": false,
          "name": "numTokens",
          "type": "uint256"
        }
      ],
      "name": "VotingRightsGranted",
      "type": "event"
    },
    {
      "anonymous": false,
      "inputs": [
        {
          "indexed": true,
          "name": "voter",
          "type": "address"
        },
        {
          "indexed": false,
          "name": "numTokens",
          "type": "uint256"
        }
      ],
      "name": "VotingRightsWithdrawn",
      "type": "event"
    },
    {
      "anonymous": false,
      "inputs": [
        {
          "indexed": true,
          "name": "voter",
          "type": "address"
        },
        {
          "indexed": true,
          "name": "pollID",
          "type": "uint256"
        }
      ],
      "name": "VoteCommitted",
      "type": "event"
    },
    {
      "anonymous": false,
      "inputs": [
        {
          "indexed": true,
          "name": "voter",
          "type": "address"
        },
        {
          "indexed": true,
          "name": "pollID",
          "type": "uint256"
        }
      ],
      "name": "VoteRevealed",
      "type": "event"
    },
    {
      "anonymous": false,
      "inputs": [
        {
          "indexed": true,
          "name": "previousOwner",
          "type": "address"
        }
      ],
      "name": "OwnershipRenounced",
      "type": "event"
    },
    {
      "anonymous": false,
      "inputs": [
        {
          "indexed": true,
          "name": "previousOwner",
          "type": "address"
        },
        {
          "indexed": true,
          "name": "newOwner",
          "type": "address"
        }
      ],
      "name": "OwnershipTransferred",
      "type": "event"
    },
    {
      "constant": false,
      "inputs": [
        {
          "name": "_helper",
          "type": "address"
        }
      ],
      "name": "setHelper",
      "outputs": [],
      "payable": false,
      "stateMutability": "nonpayable",
      "type": "function"
    },
    {
      "constant": false,
      "inputs": [
        {
          "name": "numTokens",
          "type": "uint256"
        }
      ],
      "name": "requestVotingRights",
      "outputs": [],
      "payable": false,
      "stateMutability": "nonpayable",
      "type": "function"
    },
    {
      "constant": false,
      "inputs": [
        {
          "name": "numTokens",
          "type": "uint256"
        }
      ],
      "name": "withdrawVotingRights",
      "outputs": [],
      "payable": false,
      "stateMutability": "nonpayable",
      "type": "function"
    },
    {
      "constant": false,
      "inputs": [
        {
          "name": "pollID",
          "type": "uint256"
        },
        {
          "name": "secretHash",
          "type": "bytes32"
        },
        {
          "name": "tokens",
          "type": "uint256"
        }
      ],
      "name": "commitVote",
      "outputs": [],
      "payable": false,
      "stateMutability": "nonpayable",
      "type": "function"
    },
    {
      "constant": false,
      "inputs": [
        {
          "name": "pollID",
          "type": "uint256"
        },
        {
          "name": "choice",
          "type": "uint256"
        },
        {
          "name": "salt",
          "type": "uint256"
        }
      ],
      "name": "revealVote",
      "outputs": [],
      "payable": false,
      "stateMutability": "nonpayable",
      "type": "function"
    },
    {
      "constant": false,
      "inputs": [
        {
          "name": "pollID",
          "type": "uint256"
        },
        {
          "name": "isCancel",
          "type": "bool"
        },
        {
          "name": "commitDuration",
          "type": "uint256"
        },
        {
          "name": "revealDuration",
          "type": "uint256"
        }
      ],
      "name": "updatePoll",
      "outputs": [
        {
          "name": "success",
          "type": "bool"
        }
      ],
      "payable": false,
      "stateMutability": "nonpayable",
      "type": "function"
    },
    {
      "constant": false,
      "inputs": [
        {
          "name": "extraData",
          "type": "bytes"
        },
        {
          "name": "addOptionDuration",
          "type": "uint256"
        },
        {
          "name": "commitDuration",
          "type": "uint256"
        },
        {
          "name": "revealDuration",
          "type": "uint256"
        }
      ],
      "name": "startPoll",
      "outputs": [
        {
          "name": "pollID",
          "type": "uint256"
        }
      ],
      "payable": false,
      "stateMutability": "nonpayable",
      "type": "function"
    },
    {
      "constant": false,
      "inputs": [
        {
          "name": "pollID",
          "type": "uint256"
        },
        {
          "name": "pollOption",
          "type": "bytes"
        }
      ],
      "name": "addPollOption",
      "outputs": [
        {
          "name": "success",
          "type": "bool"
        }
      ],
      "payable": false,
      "stateMutability": "nonpayable",
      "type": "function"
    }
  ],
  "bytecode": "0x60806040526000600160006101000a81548173ffffffffffffffffffffffffffffffffffffffff021916908373ffffffffffffffffffffffffffffffffffffffff1602179055506000600260006101000a81548173ffffffffffffffffffffffffffffffffffffffff021916908373ffffffffffffffffffffffffffffffffffffffff1602179055506000600360006101000a81548173ffffffffffffffffffffffffffffffffffffffff021916908373ffffffffffffffffffffffffffffffffffffffff160217905550336000806101000a81548173ffffffffffffffffffffffffffffffffffffffff021916908373ffffffffffffffffffffffffffffffffffffffff16021790555061472a806101196000396000f3006080604052600436106100f1576000357c0100000000000000000000000000000000000000000000000000000000900463ffffffff1680631e89bf06146100f65780631fde23a41461014d57806363b0e66a146101a4578063715018a6146101fb5780637937f46d146102125780638da5cb5b1461025557806390e8d82f146102ac5780639137c1a7146102ef578063986ccc7f14610332578063a25236fe14610375578063b0cbea9f146103a2578063b11d8bb814610407578063bd002e1e14610448578063cbff158f146104e3578063e7b1d43c1461056e578063f2fde38b1461059b578063fa07153a146105de575b600080fd5b34801561010257600080fd5b5061010b610623565b604051808273ffffffffffffffffffffffffffffffffffffffff1673ffffffffffffffffffffffffffffffffffffffff16815260200191505060405180910390f35b34801561015957600080fd5b50610162610649565b604051808273ffffffffffffffffffffffffffffffffffffffff1673ffffffffffffffffffffffffffffffffffffffff16815260200191505060405180910390f35b3480156101b057600080fd5b506101b961066f565b604051808273ffffffffffffffffffffffffffffffffffffffff1673ffffffffffffffffffffffffffffffffffffffff16815260200191505060405180910390f35b34801561020757600080fd5b50610210610695565b005b34801561021e57600080fd5b50610253600480360381019080803573ffffffffffffffffffffffffffffffffffffffff169060200190929190505050610797565b005b34801561026157600080fd5b5061026a610836565b604051808273ffffffffffffffffffffffffffffffffffffffff1673ffffffffffffffffffffffffffffffffffffffff16815260200191505060405180910390f35b3480156102b857600080fd5b506102ed600480360381019080803573ffffffffffffffffffffffffffffffffffffffff16906020019092919050505061085b565b005b3480156102fb57600080fd5b50610330600480360381019080803573ffffffffffffffffffffffffffffffffffffffff169060200190929190505050610b6f565b005b34801561033e57600080fd5b50610373600480360381019080803573ffffffffffffffffffffffffffffffffffffffff169060200190929190505050610c0e565b005b34801561038157600080fd5b506103a060048036038101908080359060200190929190505050610cad565b005b3480156103ae57600080fd5b506103ed600480360381019080803590602001909291908035151590602001909291908035906020019092919080359060200190929190505050611163565b604051808215151515815260200191505060405180910390f35b34801561041357600080fd5b506104466004803603810190808035906020019092919080359060200190929190803590602001909291905050506112eb565b005b34801561045457600080fd5b506104cd600480360381019080803590602001908201803590602001908080601f0160208091040260200160405190810160405280939291908181526020018383808284378201915050505050509192919290803590602001909291908035906020019092919080359060200190929190505050611e8a565b6040518082815260200191505060405180910390f35b3480156104ef57600080fd5b5061055460048036038101908080359060200190929190803590602001908201803590602001908080601f016020809104026020016040519081016040528093929190818152602001838380828437820191505050505050919291929050505061264e565b604051808215151515815260200191505060405180910390f35b34801561057a57600080fd5b50610599600480360381019080803590602001909291905050506128ca565b005b3480156105a757600080fd5b506105dc600480360381019080803573ffffffffffffffffffffffffffffffffffffffff169060200190929190505050612c73565b005b3480156105ea57600080fd5b5061062160048036038101908080359060200190929190803560001916906020019092919080359060200190929190505050612d32565b005b600260009054906101000a900473ffffffffffffffffffffffffffffffffffffffff1681565b600160009054906101000a900473ffffffffffffffffffffffffffffffffffffffff1681565b600360009054906101000a900473ffffffffffffffffffffffffffffffffffffffff1681565b6000809054906101000a900473ffffffffffffffffffffffffffffffffffffffff1673ffffffffffffffffffffffffffffffffffffffff163373ffffffffffffffffffffffffffffffffffffffff161415156106f057600080fd5b6000809054906101000a900473ffffffffffffffffffffffffffffffffffffffff1673ffffffffffffffffffffffffffffffffffffffff167ff8df31144d9c2f0f6b59d69b8b98abd5459d07f2742c4df920b25aae33c6482060405160405180910390a260008060006101000a81548173ffffffffffffffffffffffffffffffffffffffff021916908373ffffffffffffffffffffffffffffffffffffffff160217905550565b6000809054906101000a900473ffffffffffffffffffffffffffffffffffffffff1673ffffffffffffffffffffffffffffffffffffffff163373ffffffffffffffffffffffffffffffffffffffff161415156107f257600080fd5b80600260006101000a81548173ffffffffffffffffffffffffffffffffffffffff021916908373ffffffffffffffffffffffffffffffffffffffff16021790555050565b6000809054906101000a900473ffffffffffffffffffffffffffffffffffffffff1681565b6000809054906101000a900473ffffffffffffffffffffffffffffffffffffffff1673ffffffffffffffffffffffffffffffffffffffff163373ffffffffffffffffffffffffffffffffffffffff161415156108b657600080fd5b60003073ffffffffffffffffffffffffffffffffffffffff16311115610956576000809054906101000a900473ffffffffffffffffffffffffffffffffffffffff1673ffffffffffffffffffffffffffffffffffffffff166108fc3073ffffffffffffffffffffffffffffffffffffffff16319081150290604051600060405180830381858888f19350505050158015610954573d6000803e3d6000fd5b505b600073ffffffffffffffffffffffffffffffffffffffff168173ffffffffffffffffffffffffffffffffffffffff16141515610b6c578073ffffffffffffffffffffffffffffffffffffffff1663a9059cbb6000809054906101000a900473ffffffffffffffffffffffffffffffffffffffff168373ffffffffffffffffffffffffffffffffffffffff166370a08231306040518263ffffffff167c0100000000000000000000000000000000000000000000000000000000028152600401808273ffffffffffffffffffffffffffffffffffffffff1673ffffffffffffffffffffffffffffffffffffffff168152602001915050602060405180830381600087803b158015610a6557600080fd5b505af1158015610a79573d6000803e3d6000fd5b505050506040513d6020811015610a8f57600080fd5b81019080805190602001909291905050506040518363ffffffff167c0100000000000000000000000000000000000000000000000000000000028152600401808373ffffffffffffffffffffffffffffffffffffffff1673ffffffffffffffffffffffffffffffffffffffff16815260200182815260200192505050602060405180830381600087803b158015610b2557600080fd5b505af1158015610b39573d6000803e3d6000fd5b505050506040513d6020811015610b4f57600080fd5b81019080805190602001909291905050501515610b6b57600080fd5b5b50565b6000809054906101000a900473ffffffffffffffffffffffffffffffffffffffff1673ffffffffffffffffffffffffffffffffffffffff163373ffffffffffffffffffffffffffffffffffffffff16141515610bca57600080fd5b80600160006101000a81548173ffffffffffffffffffffffffffffffffffffffff021916908373ffffffffffffffffffffffffffffffffffffffff16021790555050565b6000809054906101000a900473ffffffffffffffffffffffffffffffffffffffff1673ffffffffffffffffffffffffffffffffffffffff163373ffffffffffffffffffffffffffffffffffffffff16141515610c6957600080fd5b80600360006101000a81548173ffffffffffffffffffffffffffffffffffffffff021916908373ffffffffffffffffffffffffffffffffffffffff16021790555050565b600081600260009054906101000a900473ffffffffffffffffffffffffffffffffffffffff1673ffffffffffffffffffffffffffffffffffffffff166370a08231336040518263ffffffff167c0100000000000000000000000000000000000000000000000000000000028152600401808273ffffffffffffffffffffffffffffffffffffffff1673ffffffffffffffffffffffffffffffffffffffff168152602001915050602060405180830381600087803b158015610d6d57600080fd5b505af1158015610d81573d6000803e3d6000fd5b505050506040513d6020811015610d9757600080fd5b810190808051906020019092919050505010151515610db557600080fd5b600160009054906101000a900473ffffffffffffffffffffffffffffffffffffffff1673ffffffffffffffffffffffffffffffffffffffff1663bd02d0f5610e32336040805190810160405280600b81526020017f5354414b45445f564f54450000000000000000000000000000000000000000008152506134aa565b6040518263ffffffff167c0100000000000000000000000000000000000000000000000000000000028152600401808260001916600019168152602001915050602060405180830381600087803b158015610e8c57600080fd5b505af1158015610ea0573d6000803e3d6000fd5b505050506040513d6020811015610eb657600080fd5b81019080805190602001909291905050509050600260009054906101000a900473ffffffffffffffffffffffffffffffffffffffff1673ffffffffffffffffffffffffffffffffffffffff166323b872dd3330856040518463ffffffff167c0100000000000000000000000000000000000000000000000000000000028152600401808473ffffffffffffffffffffffffffffffffffffffff1673ffffffffffffffffffffffffffffffffffffffff1681526020018373ffffffffffffffffffffffffffffffffffffffff1673ffffffffffffffffffffffffffffffffffffffff1681526020018281526020019350505050602060405180830381600087803b158015610fc257600080fd5b505af1158015610fd6573d6000803e3d6000fd5b505050506040513d6020811015610fec57600080fd5b8101908080519060200190929190505050151561100857600080fd5b600160009054906101000a900473ffffffffffffffffffffffffffffffffffffffff1673ffffffffffffffffffffffffffffffffffffffff1663e2a4853a611085336040805190810160405280600b81526020017f5354414b45445f564f54450000000000000000000000000000000000000000008152506134aa565b61109885856135c690919063ffffffff16565b6040518363ffffffff167c010000000000000000000000000000000000000000000000000000000002815260040180836000191660001916815260200182815260200192505050600060405180830381600087803b1580156110f957600080fd5b505af115801561110d573d6000803e3d6000fd5b505050503373ffffffffffffffffffffffffffffffffffffffff167f4bdec44a53feb3aabedf51c989ff2b6aebe7369d3974f57c304758a8537281e1836040518082815260200191505060405180910390a25050565b600080600080600360009054906101000a900473ffffffffffffffffffffffffffffffffffffffff1673ffffffffffffffffffffffffffffffffffffffff1663b85fb20f896040518263ffffffff167c01000000000000000000000000000000000000000000000000000000000281526004018082815260200191505060a060405180830381600087803b1580156111fa57600080fd5b505af115801561120e573d6000803e3d6000fd5b505050506040513d60a081101561122457600080fd5b810190808051906020019092919080519060200190929190805190602001909291908051906020019092919080519060200190929190505050945050509250925060018314151561127457600080fd5b428110151561128257600080fd5b3373ffffffffffffffffffffffffffffffffffffffff168273ffffffffffffffffffffffffffffffffffffffff161415156112bc57600080fd5b86156112d2576112cb886135e2565b93506112e0565b6112dd888787613716565b93505b505050949350505050565b600080600080600080600080600360009054906101000a900473ffffffffffffffffffffffffffffffffffffffff1673ffffffffffffffffffffffffffffffffffffffff1663b85fb20f8c6040518263ffffffff167c01000000000000000000000000000000000000000000000000000000000281526004018082815260200191505060a060405180830381600087803b15801561138857600080fd5b505af115801561139c573d6000803e3d6000fd5b505050506040513d60a08110156113b257600080fd5b8101908080519060200190929190805190602001909291908051906020019092919080519060200190929190805190602001909291905050509a509a50505050428810151561140057600080fd5b428711151561140e57600080fd5b600160009054906101000a900473ffffffffffffffffffffffffffffffffffffffff1673ffffffffffffffffffffffffffffffffffffffff1663bd02d0f561148b8d6040805190810160405280600681526020017f5354415455530000000000000000000000000000000000000000000000000000815250613978565b6040518263ffffffff167c0100000000000000000000000000000000000000000000000000000000028152600401808260001916600019168152602001915050602060405180830381600087803b1580156114e557600080fd5b505af11580156114f9573d6000803e3d6000fd5b505050506040513d602081101561150f57600080fd5b810190808051906020019092919050505095506001861015151561153257600080fd5b600160009054906101000a900473ffffffffffffffffffffffffffffffffffffffff1673ffffffffffffffffffffffffffffffffffffffff1663bd02d0f56115af336040805190810160405280600b81526020017f5354414b45445f564f54450000000000000000000000000000000000000000008152506134aa565b6040518263ffffffff167c0100000000000000000000000000000000000000000000000000000000028152600401808260001916600019168152602001915050602060405180830381600087803b15801561160957600080fd5b505af115801561161d573d6000803e3d6000fd5b505050506040513d602081101561163357600080fd5b81019080805190602001909291905050509450600160009054906101000a900473ffffffffffffffffffffffffffffffffffffffff1673ffffffffffffffffffffffffffffffffffffffff1663bd02d0f56116c48d6040805190810160405280600581526020017f564f54455300000000000000000000000000000000000000000000000000000081525033613a59565b6040518263ffffffff167c0100000000000000000000000000000000000000000000000000000000028152600401808260001916600019168152602001915050602060405180830381600087803b15801561171e57600080fd5b505af1158015611732573d6000803e3d6000fd5b505050506040513d602081101561174857600080fd5b8101908080519060200190929190505050935083851015151561176a57600080fd5b6117748a8a613b7e565b92506118e7600160009054906101000a900473ffffffffffffffffffffffffffffffffffffffff1673ffffffffffffffffffffffffffffffffffffffff1663c031a1806117f78e6040805190810160405280600b81526020017f5345435245545f4841534800000000000000000000000000000000000000000081525033613a59565b6040518263ffffffff167c0100000000000000000000000000000000000000000000000000000000028152600401808260001916600019168152602001915050600060405180830381600087803b15801561185157600080fd5b505af1158015611865573d6000803e3d6000fd5b505050506040513d6000823e3d601f19601f82011682018060405250602081101561188f57600080fd5b8101908080516401000000008111156118a757600080fd5b828101905060208101848111156118bd57600080fd5b81518560018202830111640100000000821117156118da57600080fd5b5050929190505050613c12565b9150816000191683600019161415156118ff57600080fd5b6000600160009054906101000a900473ffffffffffffffffffffffffffffffffffffffff1673ffffffffffffffffffffffffffffffffffffffff1663bd02d0f561197f8e6040805190810160405280600681526020017f43484f494345000000000000000000000000000000000000000000000000000081525033613a59565b6040518263ffffffff167c0100000000000000000000000000000000000000000000000000000000028152600401808260001916600019168152602001915050602060405180830381600087803b1580156119d957600080fd5b505af11580156119ed573d6000803e3d6000fd5b505050506040513d6020811015611a0357600080fd5b8101908080519060200190929190505050141515611a2057600080fd5b600160009054906101000a900473ffffffffffffffffffffffffffffffffffffffff1673ffffffffffffffffffffffffffffffffffffffff1663bd02d0f5611a9e8d6040805190810160405280600881526020017f564f54455f464f520000000000000000000000000000000000000000000000008152508e613ced565b6040518263ffffffff167c0100000000000000000000000000000000000000000000000000000000028152600401808260001916600019168152602001915050602060405180830381600087803b158015611af857600080fd5b505af1158015611b0c573d6000803e3d6000fd5b505050506040513d6020811015611b2257600080fd5b81019080805190602001909291905050509050600160009054906101000a900473ffffffffffffffffffffffffffffffffffffffff1673ffffffffffffffffffffffffffffffffffffffff1663e2a4853a611bb38d6040805190810160405280600881526020017f564f54455f464f520000000000000000000000000000000000000000000000008152508e613ced565b611bc687856135c690919063ffffffff16565b6040518363ffffffff167c010000000000000000000000000000000000000000000000000000000002815260040180836000191660001916815260200182815260200192505050600060405180830381600087803b158015611c2757600080fd5b505af1158015611c3b573d6000803e3d6000fd5b50505050600160009054906101000a900473ffffffffffffffffffffffffffffffffffffffff1673ffffffffffffffffffffffffffffffffffffffff1663e2a4853a611cbd8d6040805190810160405280600681526020017f43484f494345000000000000000000000000000000000000000000000000000081525033613a59565b8c6040518363ffffffff167c010000000000000000000000000000000000000000000000000000000002815260040180836000191660001916815260200182815260200192505050600060405180830381600087803b158015611d1f57600080fd5b505af1158015611d33573d6000803e3d6000fd5b505050506001861415611e3957600160009054906101000a900473ffffffffffffffffffffffffffffffffffffffff1673ffffffffffffffffffffffffffffffffffffffff1663e2a4853a611dbd8d6040805190810160405280600681526020017f5354415455530000000000000000000000000000000000000000000000000000815250613978565b60026040518363ffffffff167c010000000000000000000000000000000000000000000000000000000002815260040180836000191660001916815260200182815260200192505050600060405180830381600087803b158015611e2057600080fd5b505af1158015611e34573d6000803e3d6000fd5b505050505b8a3373ffffffffffffffffffffffffffffffffffffffff167f522b45c661375abb939dc17b4b600412c93af64fcbe24859a73539d01bb4eec860405160405180910390a35050505050505050505050565b6000806000806000600160009054906101000a900473ffffffffffffffffffffffffffffffffffffffff1673ffffffffffffffffffffffffffffffffffffffff1663bd02d0f5611f0e6040805190810160405280600c81526020017f504f4c4c5f434f554e5445520000000000000000000000000000000000000000815250613dd7565b6040518263ffffffff167c0100000000000000000000000000000000000000000000000000000000028152600401808260001916600019168152602001915050602060405180830381600087803b158015611f6857600080fd5b505af1158015611f7c573d6000803e3d6000fd5b505050506040513d6020811015611f9257600080fd5b81019080805190602001909291905050509350611fb96001856135c690919063ffffffff16565b9450600160009054906101000a900473ffffffffffffffffffffffffffffffffffffffff1673ffffffffffffffffffffffffffffffffffffffff1663e2a4853a6120376040805190810160405280600c81526020017f504f4c4c5f434f554e5445520000000000000000000000000000000000000000815250613dd7565b876040518363ffffffff167c010000000000000000000000000000000000000000000000000000000002815260040180836000191660001916815260200182815260200192505050600060405180830381600087803b15801561209957600080fd5b505af11580156120ad573d6000803e3d6000fd5b50505050600160009054906101000a900473ffffffffffffffffffffffffffffffffffffffff1673ffffffffffffffffffffffffffffffffffffffff1663ca446dd961212e876040805190810160405280600581526020017f4f574e4552000000000000000000000000000000000000000000000000000000815250613978565b336040518363ffffffff167c01000000000000000000000000000000000000000000000000000000000281526004018083600019166000191681526020018273ffffffffffffffffffffffffffffffffffffffff1673ffffffffffffffffffffffffffffffffffffffff16815260200192505050600060405180830381600087803b1580156121bc57600080fd5b505af11580156121d0573d6000803e3d6000fd5b505050506121e788426135c690919063ffffffff16565b92506121fc87846135c690919063ffffffff16565b915061221186836135c690919063ffffffff16565b9050600160009054906101000a900473ffffffffffffffffffffffffffffffffffffffff1673ffffffffffffffffffffffffffffffffffffffff1663e2a4853a612290876040805190810160405280600681526020017f5354415455530000000000000000000000000000000000000000000000000000815250613978565b60016040518363ffffffff167c010000000000000000000000000000000000000000000000000000000002815260040180836000191660001916815260200182815260200192505050600060405180830381600087803b1580156122f357600080fd5b505af1158015612307573d6000803e3d6000fd5b50505050600160009054906101000a900473ffffffffffffffffffffffffffffffffffffffff1673ffffffffffffffffffffffffffffffffffffffff1663e2a4853a612388876040805190810160405280601181526020017f4144444f5054494f4e5f454e4444415445000000000000000000000000000000815250613978565b856040518363ffffffff167c010000000000000000000000000000000000000000000000000000000002815260040180836000191660001916815260200182815260200192505050600060405180830381600087803b1580156123ea57600080fd5b505af11580156123fe573d6000803e3d6000fd5b50505050600160009054906101000a900473ffffffffffffffffffffffffffffffffffffffff1673ffffffffffffffffffffffffffffffffffffffff1663e2a4853a61247f876040805190810160405280600e81526020017f434f4d4d49545f454e4444415445000000000000000000000000000000000000815250613978565b846040518363ffffffff167c010000000000000000000000000000000000000000000000000000000002815260040180836000191660001916815260200182815260200192505050600060405180830381600087803b1580156124e157600080fd5b505af11580156124f5573d6000803e3d6000fd5b50505050600160009054906101000a900473ffffffffffffffffffffffffffffffffffffffff1673ffffffffffffffffffffffffffffffffffffffff1663e2a4853a612576876040805190810160405280600e81526020017f52455645414c5f454e4444415445000000000000000000000000000000000000815250613978565b836040518363ffffffff167c010000000000000000000000000000000000000000000000000000000002815260040180836000191660001916815260200182815260200192505050600060405180830381600087803b1580156125d857600080fd5b505af11580156125ec573d6000803e3d6000fd5b505050506125fa858a613eaf565b503373ffffffffffffffffffffffffffffffffffffffff16857f2ee249e80f49d04a4beade589f2f9f21eef3aeda8f13fab333d1ab92b4869e3a60405160405180910390a384945050505050949350505050565b6000806000600360009054906101000a900473ffffffffffffffffffffffffffffffffffffffff1673ffffffffffffffffffffffffffffffffffffffff1663b85fb20f866040518263ffffffff167c01000000000000000000000000000000000000000000000000000000000281526004018082815260200191505060a060405180830381600087803b1580156126e457600080fd5b505af11580156126f8573d6000803e3d6000fd5b505050506040513d60a081101561270e57600080fd5b8101908080519060200190929190805190602001909291908051906020019092919080519060200190929190805190602001909291905050505050509150915060018214151561275d57600080fd5b3373ffffffffffffffffffffffffffffffffffffffff168173ffffffffffffffffffffffffffffffffffffffff1614151561279757600080fd5b42600160009054906101000a900473ffffffffffffffffffffffffffffffffffffffff1673ffffffffffffffffffffffffffffffffffffffff1663bd02d0f5612815886040805190810160405280601181526020017f4144444f5054494f4e5f454e4444415445000000000000000000000000000000815250613978565b6040518263ffffffff167c0100000000000000000000000000000000000000000000000000000000028152600401808260001916600019168152602001915050602060405180830381600087803b15801561286f57600080fd5b505af1158015612883573d6000803e3d6000fd5b505050506040513d602081101561289957600080fd5b81019080805190602001909291905050501115156128b657600080fd5b6128c08585613eaf565b9250505092915050565b6000600160009054906101000a900473ffffffffffffffffffffffffffffffffffffffff1673ffffffffffffffffffffffffffffffffffffffff1663bd02d0f5612949336040805190810160405280600b81526020017f5354414b45445f564f54450000000000000000000000000000000000000000008152506134aa565b6040518263ffffffff167c0100000000000000000000000000000000000000000000000000000000028152600401808260001916600019168152602001915050602060405180830381600087803b1580156129a357600080fd5b505af11580156129b7573d6000803e3d6000fd5b505050506040513d60208110156129cd57600080fd5b810190808051906020019092919050505090506000811115156129ef57600080fd5b6000821115156129fe57600080fd5b808211151515612a0d57600080fd5b600160009054906101000a900473ffffffffffffffffffffffffffffffffffffffff1673ffffffffffffffffffffffffffffffffffffffff1663e2a4853a612a8a336040805190810160405280600b81526020017f5354414b45445f564f54450000000000000000000000000000000000000000008152506134aa565b612a9d85856144b490919063ffffffff16565b6040518363ffffffff167c010000000000000000000000000000000000000000000000000000000002815260040180836000191660001916815260200182815260200192505050600060405180830381600087803b158015612afe57600080fd5b505af1158015612b12573d6000803e3d6000fd5b50505050600260009054906101000a900473ffffffffffffffffffffffffffffffffffffffff1673ffffffffffffffffffffffffffffffffffffffff1663a9059cbb33846040518363ffffffff167c0100000000000000000000000000000000000000000000000000000000028152600401808373ffffffffffffffffffffffffffffffffffffffff1673ffffffffffffffffffffffffffffffffffffffff16815260200182815260200192505050602060405180830381600087803b158015612bdb57600080fd5b505af1158015612bef573d6000803e3d6000fd5b505050506040513d6020811015612c0557600080fd5b81019080805190602001909291905050501515612c2157600080fd5b3373ffffffffffffffffffffffffffffffffffffffff167f2c88837e03c4eee367d64fb379bbf7dad76a371c52622230bcf8b79728b9c532836040518082815260200191505060405180910390a25050565b600073ffffffffffffffffffffffffffffffffffffffff166000809054906101000a900473ffffffffffffffffffffffffffffffffffffffff1673ffffffffffffffffffffffffffffffffffffffff16141515612d26576000809054906101000a900473ffffffffffffffffffffffffffffffffffffffff1673ffffffffffffffffffffffffffffffffffffffff163373ffffffffffffffffffffffffffffffffffffffff16141515612d2557600080fd5b5b612d2f816144cd565b50565b600080600080600160009054906101000a900473ffffffffffffffffffffffffffffffffffffffff1673ffffffffffffffffffffffffffffffffffffffff1663bd02d0f5612db5896040805190810160405280600681526020017f5354415455530000000000000000000000000000000000000000000000000000815250613978565b6040518263ffffffff167c0100000000000000000000000000000000000000000000000000000000028152600401808260001916600019168152602001915050602060405180830381600087803b158015612e0f57600080fd5b505af1158015612e23573d6000803e3d6000fd5b505050506040513d6020811015612e3957600080fd5b81019080805190602001909291905050509350600184141515612e5b57600080fd5b600360009054906101000a900473ffffffffffffffffffffffffffffffffffffffff1673ffffffffffffffffffffffffffffffffffffffff1663b85fb20f886040518263ffffffff167c01000000000000000000000000000000000000000000000000000000000281526004018082815260200191505060a060405180830381600087803b158015612eec57600080fd5b505af1158015612f00573d6000803e3d6000fd5b505050506040513d60a0811015612f1657600080fd5b810190808051906020019092919080519060200190929190805190602001909291908051906020019092919080519060200190929190505050509450945050504283101515612f6457600080fd5b4282111515612f7257600080fd5b6000600102866000191614151515612f8957600080fd5b600160009054906101000a900473ffffffffffffffffffffffffffffffffffffffff1673ffffffffffffffffffffffffffffffffffffffff1663bd02d0f5613006336040805190810160405280600b81526020017f5354414b45445f564f54450000000000000000000000000000000000000000008152506134aa565b6040518263ffffffff167c0100000000000000000000000000000000000000000000000000000000028152600401808260001916600019168152602001915050602060405180830381600087803b15801561306057600080fd5b505af1158015613074573d6000803e3d6000fd5b505050506040513d602081101561308a57600080fd5b81019080805190602001909291905050509050848110156130c1576130c06130bb82876144b490919063ffffffff16565b610cad565b5b84600160009054906101000a900473ffffffffffffffffffffffffffffffffffffffff1673ffffffffffffffffffffffffffffffffffffffff1663bd02d0f561313f336040805190810160405280600b81526020017f5354414b45445f564f54450000000000000000000000000000000000000000008152506134aa565b6040518263ffffffff167c0100000000000000000000000000000000000000000000000000000000028152600401808260001916600019168152602001915050602060405180830381600087803b15801561319957600080fd5b505af11580156131ad573d6000803e3d6000fd5b505050506040513d60208110156131c357600080fd5b8101908080519060200190929190505050101515156131e157600080fd5b600160009054906101000a900473ffffffffffffffffffffffffffffffffffffffff1673ffffffffffffffffffffffffffffffffffffffff16632e28d08461325f896040805190810160405280600b81526020017f5345435245545f4841534800000000000000000000000000000000000000000081525033613a59565b886040516020018082600019166000191681526020019150506040516020818303038152906040526040518363ffffffff167c010000000000000000000000000000000000000000000000000000000002815260040180836000191660001916815260200180602001828103825283818151815260200191508051906020019080838360005b838110156133005780820151818401526020810190506132e5565b50505050905090810190601f16801561332d5780820380516001836020036101000a031916815260200191505b509350505050600060405180830381600087803b15801561334d57600080fd5b505af1158015613361573d6000803e3d6000fd5b50505050600160009054906101000a900473ffffffffffffffffffffffffffffffffffffffff1673ffffffffffffffffffffffffffffffffffffffff1663e2a4853a6133e3896040805190810160405280600581526020017f564f54455300000000000000000000000000000000000000000000000000000081525033613a59565b876040518363ffffffff167c010000000000000000000000000000000000000000000000000000000002815260040180836000191660001916815260200182815260200192505050600060405180830381600087803b15801561344557600080fd5b505af1158015613459573d6000803e3d6000fd5b50505050863373ffffffffffffffffffffffffffffffffffffffff167f3046f96b48725cd236ed445f0652eaf510e9be81e3dbdc79e65a143b6c89ae0460405160405180910390a350505050505050565b60008282604051602001808373ffffffffffffffffffffffffffffffffffffffff1673ffffffffffffffffffffffffffffffffffffffff166c0100000000000000000000000002815260140182805190602001908083835b6020831015156135275780518252602082019150602081019050602083039250613502565b6001836020036101000a038019825116818451168082178552505050505050905001925050506040516020818303038152906040526040518082805190602001908083835b602083101515613591578051825260208201915060208101905060208303925061356c565b6001836020036101000a0380198251168184511680821785525050505050509050019150506040518091039020905092915050565b600081830190508281101515156135d957fe5b80905092915050565b6000600160009054906101000a900473ffffffffffffffffffffffffffffffffffffffff1673ffffffffffffffffffffffffffffffffffffffff1663e2a4853a613661846040805190810160405280600681526020017f5354415455530000000000000000000000000000000000000000000000000000815250613978565b60006040518363ffffffff167c010000000000000000000000000000000000000000000000000000000002815260040180836000191660001916815260200182815260200192505050600060405180830381600087803b1580156136c457600080fd5b505af11580156136d8573d6000803e3d6000fd5b505050506001905060011515827f29cbd7f82d79fd179310d3da16de50c62c2972294874de79c07bb06b05deb74960405160405180910390a3919050565b6000600160009054906101000a900473ffffffffffffffffffffffffffffffffffffffff1673ffffffffffffffffffffffffffffffffffffffff1663e2a4853a613795866040805190810160405280600e81526020017f434f4d4d49545f454e4444415445000000000000000000000000000000000000815250613978565b6137a886426135c690919063ffffffff16565b6040518363ffffffff167c010000000000000000000000000000000000000000000000000000000002815260040180836000191660001916815260200182815260200192505050600060405180830381600087803b15801561380957600080fd5b505af115801561381d573d6000803e3d6000fd5b50505050600160009054906101000a900473ffffffffffffffffffffffffffffffffffffffff1673ffffffffffffffffffffffffffffffffffffffff1663e2a4853a61389e866040805190810160405280600e81526020017f52455645414c5f454e4444415445000000000000000000000000000000000000815250613978565b6138c3856138b588426135c690919063ffffffff16565b6135c690919063ffffffff16565b6040518363ffffffff167c010000000000000000000000000000000000000000000000000000000002815260040180836000191660001916815260200182815260200192505050600060405180830381600087803b15801561392457600080fd5b505af1158015613938573d6000803e3d6000fd5b505050506001905060001515847f29cbd7f82d79fd179310d3da16de50c62c2972294874de79c07bb06b05deb74960405160405180910390a39392505050565b600082826040516020018083815260200182805190602001908083835b6020831015156139ba5780518252602082019150602081019050602083039250613995565b6001836020036101000a038019825116818451168082178552505050505050905001925050506040516020818303038152906040526040518082805190602001908083835b602083101515613a2457805182526020820191506020810190506020830392506139ff565b6001836020036101000a0380198251168184511680821785525050505050509050019150506040518091039020905092915050565b60008383836040516020018084815260200183805190602001908083835b602083101515613a9c5780518252602082019150602081019050602083039250613a77565b6001836020036101000a0380198251168184511680821785525050505050509050018273ffffffffffffffffffffffffffffffffffffffff1673ffffffffffffffffffffffffffffffffffffffff166c0100000000000000000000000002815260140193505050506040516020818303038152906040526040518082805190602001908083835b602083101515613b485780518252602082019150602081019050602083039250613b23565b6001836020036101000a038019825116818451168082178552505050505050905001915050604051809103902090509392505050565b6000828260405160200180838152602001828152602001925050506040516020818303038152906040526040518082805190602001908083835b602083101515613bdd5780518252602082019150602081019050602083039250613bb8565b6001836020036101000a0380198251168184511680821785525050505050509050019150506040518091039020905092915050565b60008060008090505b6020811015613ce3576008810260ff7f0100000000000000000000000000000000000000000000000000000000000000028583815181101515613c5a57fe5b9060200101517f010000000000000000000000000000000000000000000000000000000000000090047f010000000000000000000000000000000000000000000000000000000000000002167effffffffffffffffffffffffffffffffffffffffffffffffffffffffffffff1916600019169060020a9004821791508080600101915050613c1b565b8192505050919050565b60008383836040516020018084815260200183805190602001908083835b602083101515613d305780518252602082019150602081019050602083039250613d0b565b6001836020036101000a03801982511681845116808217855250505050505090500182815260200193505050506040516020818303038152906040526040518082805190602001908083835b602083101515613da15780518252602082019150602081019050602083039250613d7c565b6001836020036101000a038019825116818451168082178552505050505050905001915050604051809103902090509392505050565b6000816040516020018082805190602001908083835b602083101515613e125780518252602082019150602081019050602083039250613ded565b6001836020036101000a0380198251168184511680821785525050505050509050019150506040516020818303038152906040526040518082805190602001908083835b602083101515613e7b5780518252602082019150602081019050602083039250613e56565b6001836020036101000a03801982511681845116808217855250505050505090500191505060405180910390209050919050565b6000806000600160009054906101000a900473ffffffffffffffffffffffffffffffffffffffff1673ffffffffffffffffffffffffffffffffffffffff1663bd02d0f5613f32876040805190810160405280600681526020017f4f5054494f4e0000000000000000000000000000000000000000000000000000815250886145c7565b6040518263ffffffff167c0100000000000000000000000000000000000000000000000000000000028152600401808260001916600019168152602001915050602060405180830381600087803b158015613f8c57600080fd5b505af1158015613fa0573d6000803e3d6000fd5b505050506040513d6020811015613fb657600080fd5b8101908080519060200190929190505050141515613fd357600080fd5b6140f760018060009054906101000a900473ffffffffffffffffffffffffffffffffffffffff1673ffffffffffffffffffffffffffffffffffffffff1663bd02d0f5614054886040805190810160405280600e81526020017f4f5054494f4e5f434f554e544552000000000000000000000000000000000000815250613978565b6040518263ffffffff167c0100000000000000000000000000000000000000000000000000000000028152600401808260001916600019168152602001915050602060405180830381600087803b1580156140ae57600080fd5b505af11580156140c2573d6000803e3d6000fd5b505050506040513d60208110156140d857600080fd5b81019080805190602001909291905050506135c690919063ffffffff16565b9050600160009054906101000a900473ffffffffffffffffffffffffffffffffffffffff1673ffffffffffffffffffffffffffffffffffffffff1663e2a4853a614176866040805190810160405280600e81526020017f4f5054494f4e5f434f554e544552000000000000000000000000000000000000815250613978565b836040518363ffffffff167c010000000000000000000000000000000000000000000000000000000002815260040180836000191660001916815260200182815260200192505050600060405180830381600087803b1580156141d857600080fd5b505af11580156141ec573d6000803e3d6000fd5b50505050600160009054906101000a900473ffffffffffffffffffffffffffffffffffffffff1673ffffffffffffffffffffffffffffffffffffffff16632e28d08461426e866040805190810160405280600981526020017f495046535f48415348000000000000000000000000000000000000000000000081525085613ced565b856040518363ffffffff167c010000000000000000000000000000000000000000000000000000000002815260040180836000191660001916815260200180602001828103825283818151815260200191508051906020019080838360005b838110156142e85780820151818401526020810190506142cd565b50505050905090810190601f1680156143155780820380516001836020036101000a031916815260200191505b509350505050600060405180830381600087803b15801561433557600080fd5b505af1158015614349573d6000803e3d6000fd5b50505050600160009054906101000a900473ffffffffffffffffffffffffffffffffffffffff1673ffffffffffffffffffffffffffffffffffffffff1663ca446dd96143cb866040805190810160405280600781526020017f43524541544f520000000000000000000000000000000000000000000000000081525085613ced565b336040518363ffffffff167c01000000000000000000000000000000000000000000000000000000000281526004018083600019166000191681526020018273ffffffffffffffffffffffffffffffffffffffff1673ffffffffffffffffffffffffffffffffffffffff16815260200192505050600060405180830381600087803b15801561445957600080fd5b505af115801561446d573d6000803e3d6000fd5b5050505060019150837f43cd2b17fba6147abb930490d08cc7aa4cc51ac3a89b5166e909f60841dfa836826040518082815260200191505060405180910390a25092915050565b60008282111515156144c257fe5b818303905092915050565b600073ffffffffffffffffffffffffffffffffffffffff168173ffffffffffffffffffffffffffffffffffffffff161415151561450957600080fd5b8073ffffffffffffffffffffffffffffffffffffffff166000809054906101000a900473ffffffffffffffffffffffffffffffffffffffff1673ffffffffffffffffffffffffffffffffffffffff167f8be0079c531659141344cd1fd0a4f28419497f9722a3daafe3b4186f6b6457e060405160405180910390a3806000806101000a81548173ffffffffffffffffffffffffffffffffffffffff021916908373ffffffffffffffffffffffffffffffffffffffff16021790555050565b60008383836040516020018084815260200183805190602001908083835b60208310151561460a57805182526020820191506020810190506020830392506145e5565b6001836020036101000a03801982511681845116808217855250505050505090500182805190602001908083835b60208310151561465d5780518252602082019150602081019050602083039250614638565b6001836020036101000a03801982511681845116808217855250505050505090500193505050506040516020818303038152906040526040518082805190602001908083835b6020831015156146c857805182526020820191506020810190506020830392506146a3565b6001836020036101000a0380198251168184511680821785525050505050509050019150506040518091039020905093925050505600a165627a7a72305820647ea1527e564b29dfa8e85eeec55b8031b1c44c7aad5d44d1cfde9bb0d8e0f80029",
  "source": "  /**\n * Created on 2018-08-13 10:20\n * @summary: \n * @author: Chris Nguyen\n */\npragma solidity ^0.4.24;\n\nimport './BBStandard.sol';\nimport './BBLib.sol';\nimport './BBVotingHelper.sol';\n/**\n * @title BBVoting contract \n */\ncontract BBVoting is BBStandard{\n  BBVotingHelper public helper = BBVotingHelper(0x0);\n  function setHelper(address _helper) onlyOwner public {\n    helper = BBVotingHelper(_helper);\n  }\n\n  event PollStarted(uint256 indexed pollID, address indexed creator);\n  event PollUpdated(uint256 indexed pollID,bool indexed isCancel);\n  event PollOptionAdded(uint256 indexed pollID, uint256 optionID);\n\n  event VotingRightsGranted(address indexed voter, uint256 numTokens);\n  event VotingRightsWithdrawn(address indexed voter, uint256 numTokens);\n\n  event VoteCommitted(address indexed voter, uint256 indexed pollID);\n  event VoteRevealed(address indexed voter, uint256 indexed pollID);\n  \n  /**\n   * @dev request voting rights\n   * \n   */\n  function requestVotingRights(uint256 numTokens) public {\n    require(bbo.balanceOf(msg.sender) >= numTokens);\n    uint256 voteTokenBalance = bbs.getUint(BBLib.toB32(msg.sender,'STAKED_VOTE'));\n    require(bbo.transferFrom(msg.sender, address(this), numTokens));\n    bbs.setUint(BBLib.toB32(msg.sender,'STAKED_VOTE'), voteTokenBalance.add(numTokens));\n    emit VotingRightsGranted(msg.sender, numTokens);\n  }\n  \n  /**\n   * @dev withdraw voting rights\n   * \n   */\n  function withdrawVotingRights(uint256 numTokens) public \n  {\n    uint256 voteTokenBalance = bbs.getUint(BBLib.toB32(msg.sender,'STAKED_VOTE'));\n    require (voteTokenBalance > 0);\n    require (numTokens > 0);\n    require (numTokens<= voteTokenBalance);\n    bbs.setUint(BBLib.toB32(msg.sender,'STAKED_VOTE'), voteTokenBalance.sub(numTokens));\n    require(bbo.transfer(msg.sender, numTokens));\n    emit VotingRightsWithdrawn(msg.sender, numTokens);\n  }\n\n\n  /**\n   * @dev commitVote for poll\n   * @param pollID Job Hash\n   * @param secretHash Hash of Choice address and salt uint\n   */\n  function commitVote(uint256 pollID, bytes32 secretHash, uint256 tokens) public \n  {\n    //uint256 minVotes = bbs.getUint(keccak256('MIN_VOTES'));\n    //uint256 maxVotes = bbs.getUint(keccak256('MAX_VOTES'));\n    uint256 pollStatus = bbs.getUint(BBLib.toB32(pollID,'STATUS'));\n    require(pollStatus == 1);\n    //require(tokens >= minVotes);\n    //require(tokens <= maxVotes);\n    (,,uint256 addPollOptionEndDate,uint256 commitEndDate,) = helper.getPollStage(pollID);\n    \n    require(addPollOptionEndDate<now);\n    require(commitEndDate>now);\n    require(secretHash != 0);\n    \n    uint256 voteTokenBalance = bbs.getUint(BBLib.toB32(msg.sender,'STAKED_VOTE'));\n    if(voteTokenBalance<tokens){\n      requestVotingRights(tokens.sub(voteTokenBalance));\n    }\n    require(bbs.getUint(BBLib.toB32(msg.sender,'STAKED_VOTE')) >= tokens);\n    // add secretHash\n\n    bbs.setBytes(BBLib.toB32(pollID ,'SECRET_HASH',msg.sender), abi.encodePacked(secretHash));\n    bbs.setUint(BBLib.toB32(pollID ,'VOTES', msg.sender), tokens);\n    \n    emit VoteCommitted(msg.sender, pollID);\n  }\n\n\n  /**\n  * @dev revealVote for poll\n  * @param pollID Job Hash\n  * @param choice uint \n  * @param salt salt\n  */\n  function revealVote(uint256 pollID, uint choice, uint salt) public \n  {\n    (,,,uint256 commitEndDate, uint256 revealEndDate) = helper.getPollStage(pollID);\n    require(commitEndDate<now);\n    require(revealEndDate>now);\n    uint256 pollStatus = bbs.getUint(BBLib.toB32(pollID,'STATUS'));\n    require(pollStatus >= 1);\n    uint256 voteTokenBalance = bbs.getUint(BBLib.toB32(msg.sender,'STAKED_VOTE'));\n    uint256 votes = bbs.getUint(BBLib.toB32(pollID,'VOTES',msg.sender));\n    // check staked vote\n    require(voteTokenBalance>= votes);\n\n    bytes32 choiceHash = BBLib.toB32(choice,salt);\n\n    bytes32 secretHash = BBLib.bytesToBytes32(bbs.getBytes(BBLib.toB32(pollID,'SECRET_HASH',msg.sender)));\n    require(choiceHash == secretHash);\n    // make sure not reveal yet\n    require(bbs.getUint(BBLib.toB32(pollID,'CHOICE',msg.sender)) == 0x0);\n    uint256 numVote = bbs.getUint(BBLib.toB32(pollID,'VOTE_FOR',choice));\n    //save result poll\n    bbs.setUint(BBLib.toB32(pollID,'VOTE_FOR',choice), numVote.add(votes));\n    // save voter choice\n    bbs.setUint(BBLib.toB32(pollID,'CHOICE',msg.sender), choice);\n    // set has vote flag \n    if(pollStatus == 1)\n      bbs.setUint(BBLib.toB32(pollID,'STATUS'), 2);\n    emit VoteRevealed(msg.sender, pollID);\n  }\n\n\n  function updatePoll(uint256 pollID, bool isCancel, uint256 commitDuration,uint256 revealDuration) public returns(bool success) {\n    (uint256 pollStatus, address creator,,,uint256 revealEndDate) = helper.getPollStage(pollID);\n    require(pollStatus == 1);\n    require(revealEndDate < now);\n    require(creator == msg.sender);\n    if(isCancel){\n      return _doCancel(pollID);\n    }else{\n      return _doExtendPoll(pollID, commitDuration, revealDuration);\n    }\n  }\n\n  function _doCancel(uint256 pollID) private returns(bool success){\n    // TODO here\n    // set status to 0\n    bbs.setUint(BBLib.toB32(pollID,'STATUS'), 0);\n    success = true;\n    emit PollUpdated(pollID, true );\n\n  }\n\n  function _doExtendPoll(uint256 pollID, uint256 commitDuration,uint256 revealDuration) private returns(bool success){\n    bbs.setUint(BBLib.toB32(pollID,'COMMIT_ENDDATE'), block.timestamp.add(commitDuration));\n    bbs.setUint(BBLib.toB32(pollID,'REVEAL_ENDDATE'), block.timestamp.add(commitDuration).add(revealDuration));\n    success = true;\n    emit PollUpdated(pollID, false);\n  }\n\n  function startPoll(bytes extraData, uint256 addOptionDuration, uint256 commitDuration,uint256 revealDuration) public returns(uint256 pollID) {    \n    uint256 latestID  = bbs.getUint(BBLib.toB32('POLL_COUNTER'));\n    pollID = latestID.add(1);\n    bbs.setUint(BBLib.toB32('POLL_COUNTER'), pollID);\n    // save startPoll address\n    bbs.setAddress(BBLib.toB32(pollID, 'OWNER'), msg.sender);\n    // addPollOptionEndDate\n    uint256 addPollOptionEndDate = block.timestamp.add(addOptionDuration);\n    // commitEndDate\n    uint256 commitEndDate = addPollOptionEndDate.add(commitDuration);\n    // revealEndDate\n    uint256 revealEndDate = commitEndDate.add(revealDuration);\n    // save addPollOption, commit, reveal EndDate\n    bbs.setUint(BBLib.toB32(pollID,'STATUS'), 1);\n    bbs.setUint(BBLib.toB32(pollID,'ADDOPTION_ENDDATE'), addPollOptionEndDate);\n    bbs.setUint(BBLib.toB32(pollID,'COMMIT_ENDDATE'), commitEndDate);\n    bbs.setUint(BBLib.toB32(pollID,'REVEAL_ENDDATE'), revealEndDate);\n\n    _doAddPollOption(pollID, extraData);\n\n    emit PollStarted(pollID, msg.sender);\n    return pollID;\n  }\n  \n  function addPollOption(uint256 pollID, bytes pollOption) public returns(bool success){\n    (uint256 pollStatus, address creator,,,) = helper.getPollStage(pollID);\n    require(pollStatus == 1);\n    require(creator == msg.sender);\n    //todo check msg.sender\n    require(bbs.getUint(BBLib.toB32(pollID,'ADDOPTION_ENDDATE')) > now);\n    return _doAddPollOption(pollID, pollOption);\n  }\n  \n  function _doAddPollOption(uint256 pollID, bytes optionHashIPFS) private  returns(bool success){\n    // check optionID make sure this hash not saved yet\n    require(bbs.getUint(BBLib.toB32(pollID, 'OPTION', optionHashIPFS))== 0x0);\n    // get latestID + 1 for new ID\n    uint256 optionID = bbs.getUint(BBLib.toB32(pollID, 'OPTION_COUNTER')).add(1);\n    // save latestID\n    bbs.setUint(BBLib.toB32(pollID, 'OPTION_COUNTER'), optionID);\n    // save option\n    bbs.setBytes(BBLib.toB32(pollID, 'IPFS_HASH', optionID), optionHashIPFS);\n    bbs.setAddress(BBLib.toB32(pollID, 'CREATOR', optionID), msg.sender);\n    success = true;\n    emit PollOptionAdded(pollID, optionID);\n  }\n  \n}\n",
  "sourcePath": "/Users/trantho/Code/SmartContract/digital-contracts/src/contracts/BBVoting.sol",
  "compiler": {
    "name": "solc",
    "version": "0.4.24+commit.e67f0147.Emscripten.clang"
  },
  "schemaVersion": "2.0.1",
  "updatedAt": "2018-11-26T04:41:21.022Z"
}