{
  "contractName": "BBOHoldingContract",
  "abi": [
    {
      "constant": true,
      "inputs": [],
      "name": "WITHDRAWAL_DELAY",
      "outputs": [
        {
          "name": "",
          "type": "uint256"
        }
      ],
      "payable": false,
      "stateMutability": "view",
      "type": "function"
    },
    {
      "constant": true,
      "inputs": [],
      "name": "withdrawId",
      "outputs": [
        {
          "name": "",
          "type": "uint256"
        }
      ],
      "payable": false,
      "stateMutability": "view",
      "type": "function"
    },
    {
      "constant": true,
      "inputs": [],
      "name": "depositStartTime",
      "outputs": [
        {
          "name": "",
          "type": "uint256"
        }
      ],
      "payable": false,
      "stateMutability": "view",
      "type": "function"
    },
    {
      "constant": true,
      "inputs": [],
      "name": "bboDeposited",
      "outputs": [
        {
          "name": "",
          "type": "uint256"
        }
      ],
      "payable": false,
      "stateMutability": "view",
      "type": "function"
    },
    {
      "constant": true,
      "inputs": [],
      "name": "depositStopTime",
      "outputs": [
        {
          "name": "",
          "type": "uint256"
        }
      ],
      "payable": false,
      "stateMutability": "view",
      "type": "function"
    },
    {
      "constant": true,
      "inputs": [],
      "name": "owner",
      "outputs": [
        {
          "name": "",
          "type": "address"
        }
      ],
      "payable": false,
      "stateMutability": "view",
      "type": "function"
    },
    {
      "constant": true,
      "inputs": [],
      "name": "depositId",
      "outputs": [
        {
          "name": "",
          "type": "uint256"
        }
      ],
      "payable": false,
      "stateMutability": "view",
      "type": "function"
    },
    {
      "constant": true,
      "inputs": [],
      "name": "WITHDRAWAL_SCALE",
      "outputs": [
        {
          "name": "",
          "type": "uint256"
        }
      ],
      "payable": false,
      "stateMutability": "view",
      "type": "function"
    },
    {
      "constant": true,
      "inputs": [],
      "name": "DRAIN_DELAY",
      "outputs": [
        {
          "name": "",
          "type": "uint256"
        }
      ],
      "payable": false,
      "stateMutability": "view",
      "type": "function"
    },
    {
      "constant": true,
      "inputs": [],
      "name": "bboTokenAddress",
      "outputs": [
        {
          "name": "",
          "type": "address"
        }
      ],
      "payable": false,
      "stateMutability": "view",
      "type": "function"
    },
    {
      "constant": true,
      "inputs": [],
      "name": "DEPOSIT_PERIOD",
      "outputs": [
        {
          "name": "",
          "type": "uint256"
        }
      ],
      "payable": false,
      "stateMutability": "view",
      "type": "function"
    },
    {
      "inputs": [
        {
          "name": "_bboTokenAddress",
          "type": "address"
        },
        {
          "name": "_owner",
          "type": "address"
        }
      ],
      "payable": false,
      "stateMutability": "nonpayable",
      "type": "constructor"
    },
    {
      "payable": true,
      "stateMutability": "payable",
      "type": "fallback"
    },
    {
      "anonymous": false,
      "inputs": [
        {
          "indexed": false,
          "name": "_time",
          "type": "uint256"
        }
      ],
      "name": "Started",
      "type": "event"
    },
    {
      "anonymous": false,
      "inputs": [
        {
          "indexed": false,
          "name": "_bboAmount",
          "type": "uint256"
        }
      ],
      "name": "Drained",
      "type": "event"
    },
    {
      "anonymous": false,
      "inputs": [
        {
          "indexed": false,
          "name": "_depositId",
          "type": "uint256"
        },
        {
          "indexed": true,
          "name": "_addr",
          "type": "address"
        },
        {
          "indexed": false,
          "name": "_bboAmount",
          "type": "uint256"
        }
      ],
      "name": "Deposit",
      "type": "event"
    },
    {
      "anonymous": false,
      "inputs": [
        {
          "indexed": false,
          "name": "_withdrawId",
          "type": "uint256"
        },
        {
          "indexed": true,
          "name": "_addr",
          "type": "address"
        },
        {
          "indexed": false,
          "name": "_bboAmount",
          "type": "uint256"
        }
      ],
      "name": "Withdrawal",
      "type": "event"
    },
    {
      "constant": false,
      "inputs": [],
      "name": "start",
      "outputs": [],
      "payable": false,
      "stateMutability": "nonpayable",
      "type": "function"
    },
    {
      "constant": false,
      "inputs": [],
      "name": "drain",
      "outputs": [],
      "payable": false,
      "stateMutability": "nonpayable",
      "type": "function"
    },
    {
      "constant": true,
      "inputs": [],
      "name": "bboBalance",
      "outputs": [
        {
          "name": "",
          "type": "uint256"
        }
      ],
      "payable": false,
      "stateMutability": "view",
      "type": "function"
    },
    {
      "constant": true,
      "inputs": [],
      "name": "holdBalance",
      "outputs": [
        {
          "name": "",
          "type": "uint256"
        }
      ],
      "payable": false,
      "stateMutability": "view",
      "type": "function"
    },
    {
      "constant": true,
      "inputs": [],
      "name": "lastDeposit",
      "outputs": [
        {
          "name": "",
          "type": "uint256"
        }
      ],
      "payable": false,
      "stateMutability": "view",
      "type": "function"
    },
    {
      "constant": false,
      "inputs": [],
      "name": "depositBBO",
      "outputs": [],
      "payable": true,
      "stateMutability": "payable",
      "type": "function"
    },
    {
      "constant": false,
      "inputs": [],
      "name": "withdrawBBO",
      "outputs": [],
      "payable": true,
      "stateMutability": "payable",
      "type": "function"
    },
    {
      "constant": true,
      "inputs": [
        {
          "name": "_bboWithdrawalBase",
          "type": "uint256"
        }
      ],
      "name": "getBonus",
      "outputs": [
        {
          "name": "",
          "type": "uint256"
        }
      ],
      "payable": false,
      "stateMutability": "view",
      "type": "function"
    },
    {
      "constant": true,
      "inputs": [
        {
          "name": "_totalBonusRemaining",
          "type": "uint256"
        },
        {
          "name": "_bboDeposited",
          "type": "uint256"
        },
        {
          "name": "_bboWithdrawalBase",
          "type": "uint256"
        }
      ],
      "name": "internalCalculateBonus",
      "outputs": [
        {
          "name": "",
          "type": "uint256"
        }
      ],
      "payable": false,
      "stateMutability": "view",
      "type": "function"
    }
  ],
  "bytecode": "0x608060405260008060006101000a81548173ffffffffffffffffffffffffffffffffffffffff021916908373ffffffffffffffffffffffffffffffffffffffff1602179055506000600160006101000a81548173ffffffffffffffffffffffffffffffffffffffff021916908373ffffffffffffffffffffffffffffffffffffffff160217905550600060025560006003556000600455600060065560006007553480156100ac57600080fd5b506040516040806116438339810180604052810190808051906020019092919080519060200190929190505050600073ffffffffffffffffffffffffffffffffffffffff168273ffffffffffffffffffffffffffffffffffffffff161415151561011557600080fd5b600073ffffffffffffffffffffffffffffffffffffffff168173ffffffffffffffffffffffffffffffffffffffff161415151561015157600080fd5b816000806101000a81548173ffffffffffffffffffffffffffffffffffffffff021916908373ffffffffffffffffffffffffffffffffffffffff16021790555080600160006101000a81548173ffffffffffffffffffffffffffffffffffffffff021916908373ffffffffffffffffffffffffffffffffffffffff1602179055505050611460806101e36000396000f300608060405260043610610112576000357c0100000000000000000000000000000000000000000000000000000000900463ffffffff1680630ebb172a146101685780631648371d1461019357806326c989df146101be578063298d3567146101e957806336b77107146101f357806336d43c241461021e5780634aa66b2814610249578063587419d51461028a5780636abab2fd146102b557806373c4942a146102e05780638da5cb5b1461030b5780639852099c146103625780639890220b1461038d578063ab4b4def146103a4578063be9a6555146103cf578063c99f3357146103e6578063dd4f5f0f14610411578063ef4277761461041b578063f3ddf15914610470578063fd090e47146104c7575b600060035411151561012357600080fd5b600354421015801561013757506004544211155b15610149576101446104f2565b610166565b6004544211156101605761015b6109b9565b610165565b600080fd5b5b005b34801561017457600080fd5b5061017d610d74565b6040518082815260200191505060405180910390f35b34801561019f57600080fd5b506101a8610d7c565b6040518082815260200191505060405180910390f35b3480156101ca57600080fd5b506101d3610e7a565b6040518082815260200191505060405180910390f35b6101f16104f2565b005b3480156101ff57600080fd5b50610208610ec4565b6040518082815260200191505060405180910390f35b34801561022a57600080fd5b50610233610f0e565b6040518082815260200191505060405180910390f35b34801561025557600080fd5b5061027460048036038101908080359060200190929190505050610f14565b6040518082815260200191505060405180910390f35b34801561029657600080fd5b5061029f610f35565b6040518082815260200191505060405180910390f35b3480156102c157600080fd5b506102ca610f3b565b6040518082815260200191505060405180910390f35b3480156102ec57600080fd5b506102f5610f41565b6040518082815260200191505060405180910390f35b34801561031757600080fd5b50610320610f47565b604051808273ffffffffffffffffffffffffffffffffffffffff1673ffffffffffffffffffffffffffffffffffffffff16815260200191505060405180910390f35b34801561036e57600080fd5b50610377610f6d565b6040518082815260200191505060405180910390f35b34801561039957600080fd5b506103a2610f73565b005b3480156103b057600080fd5b506103b9611175565b6040518082815260200191505060405180910390f35b3480156103db57600080fd5b506103e461117c565b005b3480156103f257600080fd5b506103fb611238565b6040518082815260200191505060405180910390f35b6104196109b9565b005b34801561042757600080fd5b5061045a600480360381019080803590602001909291908035906020019092919080359060200190929190505050611240565b6040518082815260200191505060405180910390f35b34801561047c57600080fd5b506104856112f2565b604051808273ffffffffffffffffffffffffffffffffffffffff1673ffffffffffffffffffffffffffffffffffffffff16815260200191505060405180910390f35b3480156104d357600080fd5b506104dc611317565b6040518082815260200191505060405180910390f35b60008060008060035411151561050757600080fd5b60003414151561051657600080fd5b600354421015801561052a57506004544211155b151561053557600080fd5b6000809054906101000a900473ffffffffffffffffffffffffffffffffffffffff16925061074a8373ffffffffffffffffffffffffffffffffffffffff1663dd62ed3e33306040518363ffffffff167c0100000000000000000000000000000000000000000000000000000000028152600401808373ffffffffffffffffffffffffffffffffffffffff1673ffffffffffffffffffffffffffffffffffffffff1681526020018273ffffffffffffffffffffffffffffffffffffffff1673ffffffffffffffffffffffffffffffffffffffff16815260200192505050602060405180830381600087803b15801561062b57600080fd5b505af115801561063f573d6000803e3d6000fd5b505050506040513d602081101561065557600080fd5b81019080805190602001909291905050508473ffffffffffffffffffffffffffffffffffffffff166370a08231336040518263ffffffff167c0100000000000000000000000000000000000000000000000000000000028152600401808273ffffffffffffffffffffffffffffffffffffffff1673ffffffffffffffffffffffffffffffffffffffff168152602001915050602060405180830381600087803b15801561070157600080fd5b505af1158015610715573d6000803e3d6000fd5b505050506040513d602081101561072b57600080fd5b810190808051906020019092919050505061131e90919063ffffffff16565b915060008211156109b4578273ffffffffffffffffffffffffffffffffffffffff166323b872dd3330856040518463ffffffff167c0100000000000000000000000000000000000000000000000000000000028152600401808473ffffffffffffffffffffffffffffffffffffffff1673ffffffffffffffffffffffffffffffffffffffff1681526020018373ffffffffffffffffffffffffffffffffffffffff1673ffffffffffffffffffffffffffffffffffffffff1681526020018281526020019350505050602060405180830381600087803b15801561082c57600080fd5b505af1158015610840573d6000803e3d6000fd5b505050506040513d602081101561085657600080fd5b8101908080519060200190929190505050151561087257600080fd5b600560003373ffffffffffffffffffffffffffffffffffffffff1673ffffffffffffffffffffffffffffffffffffffff16815260200190815260200160002090506108ca82826000015461133790919063ffffffff16565b816000018190555042816001018190555080600560003373ffffffffffffffffffffffffffffffffffffffff1673ffffffffffffffffffffffffffffffffffffffff16815260200190815260200160002060008201548160000155600182015481600101559050506109478260025461133790919063ffffffff16565b6002819055503373ffffffffffffffffffffffffffffffffffffffff167feaa18152488ce5959073c9c79c88ca90b3d96c00de1f118cfaad664c3dab06b9600660008154809291906001019190505584604051808381526020018281526020019250505060405180910390a25b505050565b6000806000806000806003541115156109d157600080fd5b60006002541115156109e257600080fd5b600560003373ffffffffffffffffffffffffffffffffffffffff1673ffffffffffffffffffffffffffffffffffffffff16815260200190815260200160002094506301da9c008560010154014210151515610a3c57600080fd5b60008560000154111515610a4f57600080fd5b846000015493506000341115610a8a57610a87610a78629896803461135390919063ffffffff16565b8561131e90919063ffffffff16565b93505b610a9384610f14565b9250610a9d610d7c565b9150610ab48385018361131e90919063ffffffff16565b9050610acb8460025461138b90919063ffffffff16565b600281905550610ae884866000015461138b90919063ffffffff16565b8560000181905550600085600001541415610b5457600560003373ffffffffffffffffffffffffffffffffffffffff1673ffffffffffffffffffffffffffffffffffffffff16815260200190815260200160002060008082016000905560018201600090555050610bac565b84600560003373ffffffffffffffffffffffffffffffffffffffff1673ffffffffffffffffffffffffffffffffffffffff16815260200190815260200160002060008201548160000155600182015481600101559050505b3373ffffffffffffffffffffffffffffffffffffffff167f37e8063b72a944a76de602f32b82fd8c2a1c6f99564c727ffaf913c7762cd420600760008154809291906001019190505583604051808381526020018281526020019250505060405180910390a26000809054906101000a900473ffffffffffffffffffffffffffffffffffffffff1673ffffffffffffffffffffffffffffffffffffffff1663a9059cbb33836040518363ffffffff167c0100000000000000000000000000000000000000000000000000000000028152600401808373ffffffffffffffffffffffffffffffffffffffff1673ffffffffffffffffffffffffffffffffffffffff16815260200182815260200192505050602060405180830381600087803b158015610cd657600080fd5b505af1158015610cea573d6000803e3d6000fd5b505050506040513d6020811015610d0057600080fd5b81019080805190602001909291905050501515610d1c57600080fd5b6000341115610d6d573373ffffffffffffffffffffffffffffffffffffffff166108fc349081150290604051600060405180830381858888f19350505050158015610d6b573d6000803e3d6000fd5b505b5050505050565b6301da9c0081565b60008060009054906101000a900473ffffffffffffffffffffffffffffffffffffffff1673ffffffffffffffffffffffffffffffffffffffff166370a08231306040518263ffffffff167c0100000000000000000000000000000000000000000000000000000000028152600401808273ffffffffffffffffffffffffffffffffffffffff1673ffffffffffffffffffffffffffffffffffffffff168152602001915050602060405180830381600087803b158015610e3a57600080fd5b505af1158015610e4e573d6000803e3d6000fd5b505050506040513d6020811015610e6457600080fd5b8101908080519060200190929190505050905090565b6000600560003373ffffffffffffffffffffffffffffffffffffffff1673ffffffffffffffffffffffffffffffffffffffff16815260200190815260200160002060000154905090565b6000600560003373ffffffffffffffffffffffffffffffffffffffff1673ffffffffffffffffffffffffffffffffffffffff16815260200190815260200160002060010154905090565b60075481565b6000610f2e600254610f24610d7c565b0360025484611240565b9050919050565b60035481565b60025481565b60045481565b600160009054906101000a900473ffffffffffffffffffffffffffffffffffffffff1681565b60065481565b6000600160009054906101000a900473ffffffffffffffffffffffffffffffffffffffff1673ffffffffffffffffffffffffffffffffffffffff163373ffffffffffffffffffffffffffffffffffffffff16141515610fd157600080fd5b6000600354118015610feb57506303b53800600354014210155b1515610ff657600080fd5b610ffe610d7c565b905060008111151561100f57600080fd5b6000809054906101000a900473ffffffffffffffffffffffffffffffffffffffff1673ffffffffffffffffffffffffffffffffffffffff1663a9059cbb600160009054906101000a900473ffffffffffffffffffffffffffffffffffffffff16836040518363ffffffff167c0100000000000000000000000000000000000000000000000000000000028152600401808373ffffffffffffffffffffffffffffffffffffffff1673ffffffffffffffffffffffffffffffffffffffff16815260200182815260200192505050602060405180830381600087803b1580156110f557600080fd5b505af1158015611109573d6000803e3d6000fd5b505050506040513d602081101561111f57600080fd5b8101908080519060200190929190505050151561113b57600080fd5b7fdef931299fe61d176f949118058530c1f3f539dcb6950b4e372c9b835c33ca07816040518082815260200191505060405180910390a150565b6298968081565b600160009054906101000a900473ffffffffffffffffffffffffffffffffffffffff1673ffffffffffffffffffffffffffffffffffffffff163373ffffffffffffffffffffffffffffffffffffffff161415156111d857600080fd5b60006003541415156111e957600080fd5b42600381905550624f1a00600354016004819055507e6e0c97de781a7389d44ba8fd35d1467cabb17ed04d038d166d34ab819213f36003546040518082815260200191505060405180910390a1565b6303b5380081565b6000808311151561125057600080fd5b6000841015151561126057600080fd5b6112e961129661128761128261127d611278886113a4565b6113a4565b6113a4565b6113a4565b8561135390919063ffffffff16565b6112db6112cc6112bd6112b86112b36112ae896113a4565b6113a4565b6113a4565b6113a4565b8661135390919063ffffffff16565b8761135390919063ffffffff16565b61141e90919063ffffffff16565b90509392505050565b6000809054906101000a900473ffffffffffffffffffffffffffffffffffffffff1681565b624f1a0081565b600081831061132d578161132f565b825b905092915050565b6000818301905082811015151561134a57fe5b80905092915050565b6000808314156113665760009050611385565b818302905081838281151561137757fe5b0414151561138157fe5b8090505b92915050565b600082821115151561139957fe5b818303905092915050565b6000806000808492505b60011561141557600283868115156113c257fe5b0484018115156113ce57fe5b049150600282868115156113de57fe5b0483018115156113ea57fe5b0490508281141561140d578281101561140557809350611416565b829350611416565b8092506113ae565b5b505050919050565b6000818381151561142b57fe5b049050929150505600a165627a7a72305820efab3743eeec8fda9fd0f1fdbc046627ac2b7b095db23766a7df1f496ca2a7a00029",
  "source": "\npragma solidity ^0.4.24;\n\nimport './zeppelin/math/SafeMath.sol';\nimport './zeppelin/math/Math.sol';\nimport './zeppelin/token/ERC20/ERC20.sol';\n\n/// @title BibBom Token Holding Incentive Program\n/// @author TranTho - <thoff@bigbom.com>.\n/// For more information, please visit https://bigbom.com.\ncontract BBOHoldingContract {\n    using SafeMath for uint;\n    using Math for uint;\n   \n    // During the first 60 days of deployment, this contract opens for deposit of BBO.\n    uint public constant DEPOSIT_PERIOD             = 60 days; // = 2 months\n\n    // 18 months after deposit, user can withdrawal all or part of his/her BBO with bonus.\n    // The bonus is this contract's initial BBO balance.\n    uint public constant WITHDRAWAL_DELAY           = 360 days; // = 1 year \n\n    // Send 0.001ETH per 10000 BBO partial withdrawal, or 0 for a once-for-all withdrawal.\n    // All ETH will be returned.\n    uint public constant WITHDRAWAL_SCALE           = 1E7; // 1ETH for withdrawal of 10,000,000 BBO.\n\n    // Ower can drain all remaining BBO after 3 years.\n    uint public constant DRAIN_DELAY                = 720 days; // = 2 years.\n    \n    address public bboTokenAddress  = 0x0;\n    address public owner            = 0x0;\n\n    uint public bboDeposited        = 0;\n    uint public depositStartTime    = 0;\n    uint public depositStopTime     = 0;\n\n    struct Record {\n        uint bboAmount;\n        uint timestamp;\n    }\n\n    mapping (address => Record) records;\n    \n    /* \n     * EVENTS\n     */\n\n    /// Emitted when program starts.\n    event Started(uint _time);\n\n    /// Emitted when all BBO are drained.\n    event Drained(uint _bboAmount);\n\n    /// Emitted for each sucuessful deposit.\n    uint public depositId = 0;\n    event Deposit(uint _depositId, address indexed _addr, uint _bboAmount);\n\n    /// Emitted for each sucuessful deposit.\n    uint public withdrawId = 0;\n    event Withdrawal(uint _withdrawId, address indexed _addr, uint _bboAmount);\n\n    /// @dev Initialize the contract\n    /// @param _bboTokenAddress BBO ERC20 token address\n    constructor (address _bboTokenAddress, address _owner) public {\n        require(_bboTokenAddress != address(0));\n        require(_owner != address(0));\n\n        bboTokenAddress = _bboTokenAddress;\n        owner = _owner;\n    }\n\n    /*\n     * PUBLIC FUNCTIONS\n     */\n\n    /// @dev start the program.\n    function start() public {\n        require(msg.sender == owner);\n        require(depositStartTime == 0);\n\n        depositStartTime = now;\n        depositStopTime  = depositStartTime + DEPOSIT_PERIOD;\n\n        emit Started(depositStartTime);\n    }\n\n\n    /// @dev drain BBO.\n    function drain() public {\n        require(msg.sender == owner);\n        require(depositStartTime > 0 && now >= depositStartTime + DRAIN_DELAY);\n\n        uint balance = bboBalance();\n        require(balance > 0);\n\n        require(ERC20(bboTokenAddress).transfer(owner, balance));\n\n        emit Drained(balance);\n    }\n\n    function () payable {\n        require(depositStartTime > 0);\n\n        if (now >= depositStartTime && now <= depositStopTime) {\n            depositBBO();\n        } else if (now > depositStopTime){\n            withdrawBBO();\n        } else {\n            revert();\n        }\n    }\n\n    /// @return Current BBO balance.\n    function bboBalance() public constant returns (uint) {\n        return ERC20(bboTokenAddress).balanceOf(address(this));\n    }\n    function holdBalance() public constant returns (uint) {\n        return records[msg.sender].bboAmount;\n    }\n    function lastDeposit() public constant returns (uint) {\n        return records[msg.sender].timestamp;\n    }\n    /// @dev Deposit BBO.\n    function depositBBO() payable {\n        require(depositStartTime > 0);\n        require(msg.value == 0);\n        require(now >= depositStartTime && now <= depositStopTime);\n        \n        ERC20 bboToken = ERC20(bboTokenAddress);\n        uint bboAmount = bboToken\n            .balanceOf(msg.sender)\n            .min256(bboToken.allowance(msg.sender, address(this)));\n\n        if(bboAmount > 0){\n            require(bboToken.transferFrom(msg.sender, address(this), bboAmount));\n            Record storage record = records[msg.sender];\n            record.bboAmount = record.bboAmount.add(bboAmount);\n            record.timestamp = now;\n            records[msg.sender] = record;\n\n            bboDeposited = bboDeposited.add(bboAmount);\n            emit Deposit(depositId++, msg.sender, bboAmount);\n        }\n    }\n\n    /// @dev Withdrawal BBO.\n    function withdrawBBO() payable {\n        require(depositStartTime > 0);\n        require(bboDeposited > 0);\n\n        Record storage record = records[msg.sender];\n        require(now >= record.timestamp + WITHDRAWAL_DELAY);\n        require(record.bboAmount > 0);\n\n        uint bboWithdrawalBase = record.bboAmount;\n        if (msg.value > 0) {\n            bboWithdrawalBase = bboWithdrawalBase\n                .min256(msg.value.mul(WITHDRAWAL_SCALE));\n        }\n\n        uint bboBonus = getBonus(bboWithdrawalBase);\n        uint balance = bboBalance();\n        uint bboAmount = balance.min256(bboWithdrawalBase + bboBonus);\n        \n        bboDeposited = bboDeposited.sub(bboWithdrawalBase);\n        record.bboAmount = record.bboAmount.sub(bboWithdrawalBase);\n\n        if (record.bboAmount == 0) {\n            delete records[msg.sender];\n        } else {\n            records[msg.sender] = record;\n        }\n\n        emit Withdrawal(withdrawId++, msg.sender, bboAmount);\n\n        require(ERC20(bboTokenAddress).transfer(msg.sender, bboAmount));\n        if (msg.value > 0) {\n            msg.sender.transfer(msg.value);\n        }\n    }\n\n    function getBonus(uint _bboWithdrawalBase) constant returns (uint) {\n        return internalCalculateBonus(bboBalance() - bboDeposited,bboDeposited, _bboWithdrawalBase);\n    }\n\n    function internalCalculateBonus(uint _totalBonusRemaining, uint _bboDeposited, uint _bboWithdrawalBase) constant returns (uint) {\n        require(_bboDeposited > 0);\n        require(_totalBonusRemaining >= 0);\n\n        // The bonus is non-linear function to incentivize later withdrawal.\n        // bonus = _totalBonusRemaining * power(_bboWithdrawalBase/_bboDeposited, 1.0625)\n        return _totalBonusRemaining\n            .mul(_bboWithdrawalBase.mul(sqrt(sqrt(sqrt(sqrt(_bboWithdrawalBase))))))\n            .div(_bboDeposited.mul(sqrt(sqrt(sqrt(sqrt(_bboDeposited))))));\n    }\n\n    function sqrt(uint x) internal constant returns (uint) {\n        uint y = x;\n        while (true) {\n            uint z = (y + (x / y)) / 2;\n            uint w = (z + (x / z)) / 2;\n            if (w == y) {\n                if (w < y) return w;\n                else return y;\n            }\n            y = w;\n        }\n    }\n}",
  "sourcePath": "/Users/trantho/Code/SmartContract/tcr-demo/contracts/BBOHoldingContract.sol",
  "compiler": {
    "name": "solc",
    "version": "0.4.24+commit.e67f0147.Emscripten.clang"
  },
  "schemaVersion": "2.0.1",
  "updatedAt": "2018-11-19T10:30:29.019Z"
}