{
  "contractName": "BBVotingHelper",
  "abi": [
    {
      "constant": true,
      "inputs": [],
      "name": "bbo",
      "outputs": [
        {
          "name": "",
          "type": "address"
        }
      ],
      "payable": false,
      "stateMutability": "view",
      "type": "function"
    },
    {
      "constant": true,
      "inputs": [],
      "name": "bbs",
      "outputs": [
        {
          "name": "",
          "type": "address"
        }
      ],
      "payable": false,
      "stateMutability": "view",
      "type": "function"
    },
    {
      "constant": false,
      "inputs": [],
      "name": "renounceOwnership",
      "outputs": [],
      "payable": false,
      "stateMutability": "nonpayable",
      "type": "function"
    },
    {
      "constant": false,
      "inputs": [
        {
          "name": "BBOAddress",
          "type": "address"
        }
      ],
      "name": "setBBO",
      "outputs": [],
      "payable": false,
      "stateMutability": "nonpayable",
      "type": "function"
    },
    {
      "constant": true,
      "inputs": [],
      "name": "owner",
      "outputs": [
        {
          "name": "",
          "type": "address"
        }
      ],
      "payable": false,
      "stateMutability": "view",
      "type": "function"
    },
    {
      "constant": false,
      "inputs": [
        {
          "name": "anyToken",
          "type": "address"
        }
      ],
      "name": "emergencyERC20Drain",
      "outputs": [],
      "payable": false,
      "stateMutability": "nonpayable",
      "type": "function"
    },
    {
      "constant": false,
      "inputs": [
        {
          "name": "storageAddress",
          "type": "address"
        }
      ],
      "name": "setStorage",
      "outputs": [],
      "payable": false,
      "stateMutability": "nonpayable",
      "type": "function"
    },
    {
      "constant": false,
      "inputs": [
        {
          "name": "_newOwner",
          "type": "address"
        }
      ],
      "name": "transferOwnership",
      "outputs": [],
      "payable": false,
      "stateMutability": "nonpayable",
      "type": "function"
    },
    {
      "anonymous": false,
      "inputs": [
        {
          "indexed": true,
          "name": "previousOwner",
          "type": "address"
        }
      ],
      "name": "OwnershipRenounced",
      "type": "event"
    },
    {
      "anonymous": false,
      "inputs": [
        {
          "indexed": true,
          "name": "previousOwner",
          "type": "address"
        },
        {
          "indexed": true,
          "name": "newOwner",
          "type": "address"
        }
      ],
      "name": "OwnershipTransferred",
      "type": "event"
    },
    {
      "constant": true,
      "inputs": [
        {
          "name": "pollID",
          "type": "uint256"
        }
      ],
      "name": "getPollResult",
      "outputs": [
        {
          "name": "",
          "type": "uint256[]"
        },
        {
          "name": "",
          "type": "uint256[]"
        }
      ],
      "payable": false,
      "stateMutability": "view",
      "type": "function"
    },
    {
      "constant": true,
      "inputs": [
        {
          "name": "pollType",
          "type": "uint256"
        },
        {
          "name": "relatedTo",
          "type": "uint256"
        }
      ],
      "name": "getPollID",
      "outputs": [
        {
          "name": "pollID",
          "type": "uint256"
        }
      ],
      "payable": false,
      "stateMutability": "view",
      "type": "function"
    },
    {
      "constant": true,
      "inputs": [
        {
          "name": "pollID",
          "type": "uint256"
        }
      ],
      "name": "getPollStage",
      "outputs": [
        {
          "name": "",
          "type": "uint256"
        },
        {
          "name": "",
          "type": "address"
        },
        {
          "name": "",
          "type": "uint256"
        },
        {
          "name": "",
          "type": "uint256"
        },
        {
          "name": "",
          "type": "uint256"
        }
      ],
      "payable": false,
      "stateMutability": "view",
      "type": "function"
    },
    {
      "constant": true,
      "inputs": [
        {
          "name": "pollID",
          "type": "uint256"
        },
        {
          "name": "choice",
          "type": "uint256"
        },
        {
          "name": "salt",
          "type": "uint256"
        }
      ],
      "name": "checkHash",
      "outputs": [
        {
          "name": "",
          "type": "bool"
        }
      ],
      "payable": false,
      "stateMutability": "view",
      "type": "function"
    },
    {
      "constant": true,
      "inputs": [],
      "name": "checkStakeBalance",
      "outputs": [
        {
          "name": "tokens",
          "type": "uint256"
        }
      ],
      "payable": false,
      "stateMutability": "view",
      "type": "function"
    },
    {
      "constant": true,
      "inputs": [
        {
          "name": "pollType",
          "type": "uint256"
        },
        {
          "name": "relatedTo",
          "type": "uint256"
        }
      ],
      "name": "hasVoting",
      "outputs": [
        {
          "name": "r",
          "type": "bool"
        }
      ],
      "payable": false,
      "stateMutability": "view",
      "type": "function"
    },
    {
      "constant": true,
      "inputs": [
        {
          "name": "pollID",
          "type": "uint256"
        },
        {
          "name": "optID",
          "type": "uint256"
        }
      ],
      "name": "getPollOption",
      "outputs": [
        {
          "name": "opt",
          "type": "bytes"
        }
      ],
      "payable": false,
      "stateMutability": "view",
      "type": "function"
    },
    {
      "constant": true,
      "inputs": [
        {
          "name": "pollID",
          "type": "uint256"
        }
      ],
      "name": "getPollWinner",
      "outputs": [
        {
          "name": "isFinished",
          "type": "bool"
        },
        {
          "name": "winner",
          "type": "uint256"
        },
        {
          "name": "winnerVotes",
          "type": "uint256"
        },
        {
          "name": "hasVote",
          "type": "bool"
        },
        {
          "name": "quorum",
          "type": "uint256"
        }
      ],
      "payable": false,
      "stateMutability": "view",
      "type": "function"
    },
    {
      "constant": true,
      "inputs": [
        {
          "name": "voter",
          "type": "address"
        },
        {
          "name": "pollID",
          "type": "uint256"
        }
      ],
      "name": "getNumPassingTokens",
      "outputs": [
        {
          "name": "correctVotes",
          "type": "uint256"
        }
      ],
      "payable": false,
      "stateMutability": "view",
      "type": "function"
    }
  ],
  "bytecode": "0x60806040526000600160006101000a81548173ffffffffffffffffffffffffffffffffffffffff021916908373ffffffffffffffffffffffffffffffffffffffff1602179055506000600260006101000a81548173ffffffffffffffffffffffffffffffffffffffff021916908373ffffffffffffffffffffffffffffffffffffffff160217905550336000806101000a81548173ffffffffffffffffffffffffffffffffffffffff021916908373ffffffffffffffffffffffffffffffffffffffff16021790555061297b806100d76000396000f3006080604052600436106100f1576000357c0100000000000000000000000000000000000000000000000000000000900463ffffffff1680630c03fbd7146100f65780631e89bf06146101575780631fde23a4146101ae5780635a5a433b14610205578063715018a61461025e5780637937f46d14610275578063862f4517146102b85780638da5cb5b1461030757806390e8d82f1461035e5780639137c1a7146103a1578063a7aaf58c146103e4578063b6990ee11461042f578063b85fb20f14610494578063c4bd10d91461051d578063c888fcc3146105cd578063e9733b2714610697578063f2fde38b146106c2575b600080fd5b34801561010257600080fd5b50610141600480360381019080803573ffffffffffffffffffffffffffffffffffffffff16906020019092919080359060200190929190505050610705565b6040518082815260200191505060405180910390f35b34801561016357600080fd5b5061016c610979565b604051808273ffffffffffffffffffffffffffffffffffffffff1673ffffffffffffffffffffffffffffffffffffffff16815260200191505060405180910390f35b3480156101ba57600080fd5b506101c361099f565b604051808273ffffffffffffffffffffffffffffffffffffffff1673ffffffffffffffffffffffffffffffffffffffff16815260200191505060405180910390f35b34801561021157600080fd5b506102446004803603810190808035906020019092919080359060200190929190803590602001909291905050506109c5565b604051808215151515815260200191505060405180910390f35b34801561026a57600080fd5b50610273610b5f565b005b34801561028157600080fd5b506102b6600480360381019080803573ffffffffffffffffffffffffffffffffffffffff169060200190929190505050610c61565b005b3480156102c457600080fd5b506102ed6004803603810190808035906020019092919080359060200190929190505050610d00565b604051808215151515815260200191505060405180910390f35b34801561031357600080fd5b5061031c610f5f565b604051808273ffffffffffffffffffffffffffffffffffffffff1673ffffffffffffffffffffffffffffffffffffffff16815260200191505060405180910390f35b34801561036a57600080fd5b5061039f600480360381019080803573ffffffffffffffffffffffffffffffffffffffff169060200190929190505050610f84565b005b3480156103ad57600080fd5b506103e2600480360381019080803573ffffffffffffffffffffffffffffffffffffffff169060200190929190505050611298565b005b3480156103f057600080fd5b506104196004803603810190808035906020019092919080359060200190929190505050611337565b6040518082815260200191505060405180910390f35b34801561043b57600080fd5b5061045a60048036038101908080359060200190929190505050611454565b6040518086151515158152602001858152602001848152602001831515151581526020018281526020019550505050505060405180910390f35b3480156104a057600080fd5b506104bf60048036038101908080359060200190929190505050611576565b604051808681526020018573ffffffffffffffffffffffffffffffffffffffff1673ffffffffffffffffffffffffffffffffffffffff1681526020018481526020018381526020018281526020019550505050505060405180910390f35b34801561052957600080fd5b506105526004803603810190808035906020019092919080359060200190929190505050611b06565b6040518080602001828103825283818151815260200191508051906020019080838360005b83811015610592578082015181840152602081019050610577565b50505050905090810190601f1680156105bf5780820380516001836020036101000a031916815260200191505b509250505060405180910390f35b3480156105d957600080fd5b506105f860048036038101908080359060200190929190505050611c79565b604051808060200180602001838103835285818151815260200191508051906020019060200280838360005b8381101561063f578082015181840152602081019050610624565b50505050905001838103825284818151815260200191508051906020019060200280838360005b83811015610681578082015181840152602081019050610666565b5050505090500194505050505060405180910390f35b3480156106a357600080fd5b506106ac611fae565b6040518082815260200191505060405180910390f35b3480156106ce57600080fd5b50610703600480360381019080803573ffffffffffffffffffffffffffffffffffffffff1690602001909291905050506120c7565b005b600080600080600061071686611454565b509450509350935060011515841515148015610736575060011515821515145b1561096f57600160009054906101000a900473ffffffffffffffffffffffffffffffffffffffff1673ffffffffffffffffffffffffffffffffffffffff1663bd02d0f56107b9886040805190810160405280600681526020017f43484f49434500000000000000000000000000000000000000000000000000008152508b612186565b6040518263ffffffff167c0100000000000000000000000000000000000000000000000000000000028152600401808260001916600019168152602001915050602060405180830381600087803b15801561081357600080fd5b505af1158015610827573d6000803e3d6000fd5b505050506040513d602081101561083d57600080fd5b810190808051906020019092919050505090508083141561096e57600160009054906101000a900473ffffffffffffffffffffffffffffffffffffffff1673ffffffffffffffffffffffffffffffffffffffff1663bd02d0f56108d6886040805190810160405280600581526020017f564f5445530000000000000000000000000000000000000000000000000000008152508b612186565b6040518263ffffffff167c0100000000000000000000000000000000000000000000000000000000028152600401808260001916600019168152602001915050602060405180830381600087803b15801561093057600080fd5b505af1158015610944573d6000803e3d6000fd5b505050506040513d602081101561095a57600080fd5b810190808051906020019092919050505094505b5b5050505092915050565b600260009054906101000a900473ffffffffffffffffffffffffffffffffffffffff1681565b600160009054906101000a900473ffffffffffffffffffffffffffffffffffffffff1681565b60008060006109d485856122ab565b9150610b47600160009054906101000a900473ffffffffffffffffffffffffffffffffffffffff1673ffffffffffffffffffffffffffffffffffffffff1663c031a180610a57896040805190810160405280600b81526020017f5345435245545f4841534800000000000000000000000000000000000000000081525033612186565b6040518263ffffffff167c0100000000000000000000000000000000000000000000000000000000028152600401808260001916600019168152602001915050600060405180830381600087803b158015610ab157600080fd5b505af1158015610ac5573d6000803e3d6000fd5b505050506040513d6000823e3d601f19601f820116820180604052506020811015610aef57600080fd5b810190808051640100000000811115610b0757600080fd5b82810190506020810184811115610b1d57600080fd5b8151856001820283011164010000000082111715610b3a57600080fd5b505092919050505061233f565b90508060001916826000191614925050509392505050565b6000809054906101000a900473ffffffffffffffffffffffffffffffffffffffff1673ffffffffffffffffffffffffffffffffffffffff163373ffffffffffffffffffffffffffffffffffffffff16141515610bba57600080fd5b6000809054906101000a900473ffffffffffffffffffffffffffffffffffffffff1673ffffffffffffffffffffffffffffffffffffffff167ff8df31144d9c2f0f6b59d69b8b98abd5459d07f2742c4df920b25aae33c6482060405160405180910390a260008060006101000a81548173ffffffffffffffffffffffffffffffffffffffff021916908373ffffffffffffffffffffffffffffffffffffffff160217905550565b6000809054906101000a900473ffffffffffffffffffffffffffffffffffffffff1673ffffffffffffffffffffffffffffffffffffffff163373ffffffffffffffffffffffffffffffffffffffff16141515610cbc57600080fd5b80600260006101000a81548173ffffffffffffffffffffffffffffffffffffffff021916908373ffffffffffffffffffffffffffffffffffffffff16021790555050565b600080600080610d108686611337565b92506000831115610f5657600160009054906101000a900473ffffffffffffffffffffffffffffffffffffffff1673ffffffffffffffffffffffffffffffffffffffff1663bd02d0f5610d98856040805190810160405280600681526020017f535441545553000000000000000000000000000000000000000000000000000081525061241a565b6040518263ffffffff167c0100000000000000000000000000000000000000000000000000000000028152600401808260001916600019168152602001915050602060405180830381600087803b158015610df257600080fd5b505af1158015610e06573d6000803e3d6000fd5b505050506040513d6020811015610e1c57600080fd5b81019080805190602001909291905050509150600160009054906101000a900473ffffffffffffffffffffffffffffffffffffffff1673ffffffffffffffffffffffffffffffffffffffff1663bd02d0f5610eac856040805190810160405280600e81526020017f52455645414c5f454e444441544500000000000000000000000000000000000081525061241a565b6040518263ffffffff167c0100000000000000000000000000000000000000000000000000000000028152600401808260001916600019168152602001915050602060405180830381600087803b158015610f0657600080fd5b505af1158015610f1a573d6000803e3d6000fd5b505050506040513d6020811015610f3057600080fd5b8101908080519060200190929190505050905060018210158015610f5357504281105b93505b50505092915050565b6000809054906101000a900473ffffffffffffffffffffffffffffffffffffffff1681565b6000809054906101000a900473ffffffffffffffffffffffffffffffffffffffff1673ffffffffffffffffffffffffffffffffffffffff163373ffffffffffffffffffffffffffffffffffffffff16141515610fdf57600080fd5b60003073ffffffffffffffffffffffffffffffffffffffff1631111561107f576000809054906101000a900473ffffffffffffffffffffffffffffffffffffffff1673ffffffffffffffffffffffffffffffffffffffff166108fc3073ffffffffffffffffffffffffffffffffffffffff16319081150290604051600060405180830381858888f1935050505015801561107d573d6000803e3d6000fd5b505b600073ffffffffffffffffffffffffffffffffffffffff168173ffffffffffffffffffffffffffffffffffffffff16141515611295578073ffffffffffffffffffffffffffffffffffffffff1663a9059cbb6000809054906101000a900473ffffffffffffffffffffffffffffffffffffffff168373ffffffffffffffffffffffffffffffffffffffff166370a08231306040518263ffffffff167c0100000000000000000000000000000000000000000000000000000000028152600401808273ffffffffffffffffffffffffffffffffffffffff1673ffffffffffffffffffffffffffffffffffffffff168152602001915050602060405180830381600087803b15801561118e57600080fd5b505af11580156111a2573d6000803e3d6000fd5b505050506040513d60208110156111b857600080fd5b81019080805190602001909291905050506040518363ffffffff167c0100000000000000000000000000000000000000000000000000000000028152600401808373ffffffffffffffffffffffffffffffffffffffff1673ffffffffffffffffffffffffffffffffffffffff16815260200182815260200192505050602060405180830381600087803b15801561124e57600080fd5b505af1158015611262573d6000803e3d6000fd5b505050506040513d602081101561127857600080fd5b8101908080519060200190929190505050151561129457600080fd5b5b50565b6000809054906101000a900473ffffffffffffffffffffffffffffffffffffffff1673ffffffffffffffffffffffffffffffffffffffff163373ffffffffffffffffffffffffffffffffffffffff161415156112f357600080fd5b80600160006101000a81548173ffffffffffffffffffffffffffffffffffffffff021916908373ffffffffffffffffffffffffffffffffffffffff16021790555050565b6000600160009054906101000a900473ffffffffffffffffffffffffffffffffffffffff1673ffffffffffffffffffffffffffffffffffffffff1663bd02d0f56113b784866040805190810160405280600481526020017f504f4c4c000000000000000000000000000000000000000000000000000000008152506124fb565b6040518263ffffffff167c0100000000000000000000000000000000000000000000000000000000028152600401808260001916600019168152602001915050602060405180830381600087803b15801561141157600080fd5b505af1158015611425573d6000803e3d6000fd5b505050506040513d602081101561143b57600080fd5b8101908080519060200190929190505050905092915050565b600080600080600080600080606080600061146e8c611576565b98505050509550428511159a5060028614156115675760019750600093506114958c611c79565b92509250600090505b8251811015611534576114d182828151811015156114b857fe5b90602001906020020151856125e590919063ffffffff16565b935081818151811015156114e157fe5b9060200190602002015189101561152757818181518110151561150057fe5b906020019060200201519850828181518110151561151a57fe5b9060200190602002015199505b808060010191505061149e565b6000841115611566576115638461155560648c61260190919063ffffffff16565b61263990919063ffffffff16565b96505b5b50505050505091939590929450565b600080600080600080600080600080600160009054906101000a900473ffffffffffffffffffffffffffffffffffffffff1673ffffffffffffffffffffffffffffffffffffffff1663bd02d0f56116028d6040805190810160405280600681526020017f535441545553000000000000000000000000000000000000000000000000000081525061241a565b6040518263ffffffff167c0100000000000000000000000000000000000000000000000000000000028152600401808260001916600019168152602001915050602060405180830381600087803b15801561165c57600080fd5b505af1158015611670573d6000803e3d6000fd5b505050506040513d602081101561168657600080fd5b81019080805190602001909291905050509450600160009054906101000a900473ffffffffffffffffffffffffffffffffffffffff1673ffffffffffffffffffffffffffffffffffffffff166321f8a7216117168d6040805190810160405280600581526020017f4f574e455200000000000000000000000000000000000000000000000000000081525061241a565b6040518263ffffffff167c0100000000000000000000000000000000000000000000000000000000028152600401808260001916600019168152602001915050602060405180830381600087803b15801561177057600080fd5b505af1158015611784573d6000803e3d6000fd5b505050506040513d602081101561179a57600080fd5b81019080805190602001909291905050509350600160009054906101000a900473ffffffffffffffffffffffffffffffffffffffff1673ffffffffffffffffffffffffffffffffffffffff1663bd02d0f561182a8d6040805190810160405280601181526020017f4144444f5054494f4e5f454e444441544500000000000000000000000000000081525061241a565b6040518263ffffffff167c0100000000000000000000000000000000000000000000000000000000028152600401808260001916600019168152602001915050602060405180830381600087803b15801561188457600080fd5b505af1158015611898573d6000803e3d6000fd5b505050506040513d60208110156118ae57600080fd5b81019080805190602001909291905050509250600160009054906101000a900473ffffffffffffffffffffffffffffffffffffffff1673ffffffffffffffffffffffffffffffffffffffff1663bd02d0f561193e8d6040805190810160405280600e81526020017f434f4d4d49545f454e444441544500000000000000000000000000000000000081525061241a565b6040518263ffffffff167c0100000000000000000000000000000000000000000000000000000000028152600401808260001916600019168152602001915050602060405180830381600087803b15801561199857600080fd5b505af11580156119ac573d6000803e3d6000fd5b505050506040513d60208110156119c257600080fd5b81019080805190602001909291905050509150600160009054906101000a900473ffffffffffffffffffffffffffffffffffffffff1673ffffffffffffffffffffffffffffffffffffffff1663bd02d0f5611a528d6040805190810160405280600e81526020017f52455645414c5f454e444441544500000000000000000000000000000000000081525061241a565b6040518263ffffffff167c0100000000000000000000000000000000000000000000000000000000028152600401808260001916600019168152602001915050602060405180830381600087803b158015611aac57600080fd5b505af1158015611ac0573d6000803e3d6000fd5b505050506040513d6020811015611ad657600080fd5b81019080805190602001909291905050509050848484848499509950995099509950505050505091939590929450565b6060600160009054906101000a900473ffffffffffffffffffffffffffffffffffffffff1673ffffffffffffffffffffffffffffffffffffffff1663c031a180611b86856040805190810160405280600981526020017f495046535f4841534800000000000000000000000000000000000000000000008152508661264f565b6040518263ffffffff167c0100000000000000000000000000000000000000000000000000000000028152600401808260001916600019168152602001915050600060405180830381600087803b158015611be057600080fd5b505af1158015611bf4573d6000803e3d6000fd5b505050506040513d6000823e3d601f19601f820116820180604052506020811015611c1e57600080fd5b810190808051640100000000811115611c3657600080fd5b82810190506020810184811115611c4c57600080fd5b8151856001820283011164010000000082111715611c6957600080fd5b5050929190505050905092915050565b60608060006060806000600160009054906101000a900473ffffffffffffffffffffffffffffffffffffffff1673ffffffffffffffffffffffffffffffffffffffff1663bd02d0f5611d00896040805190810160405280600e81526020017f4f5054494f4e5f434f554e54455200000000000000000000000000000000000081525061241a565b6040518263ffffffff167c0100000000000000000000000000000000000000000000000000000000028152600401808260001916600019168152602001915050602060405180830381600087803b158015611d5a57600080fd5b505af1158015611d6e573d6000803e3d6000fd5b505050506040513d6020811015611d8457600080fd5b81019080805190602001909291905050509350611dab6001856125e590919063ffffffff16565b604051908082528060200260200182016040528015611dd95781602001602082028038833980820191505090505b509250611df06001856125e590919063ffffffff16565b604051908082528060200260200182016040528015611e1e5781602001602082028038833980820191505090505b509150600090505b8381111515611f9f57808382815181101515611e3e57fe5b9060200190602002018181525050600160009054906101000a900473ffffffffffffffffffffffffffffffffffffffff1673ffffffffffffffffffffffffffffffffffffffff1663bd02d0f5611ee1896040805190810160405280600881526020017f564f54455f464f520000000000000000000000000000000000000000000000008152508786815181101515611ed257fe5b9060200190602002015161264f565b6040518263ffffffff167c0100000000000000000000000000000000000000000000000000000000028152600401808260001916600019168152602001915050602060405180830381600087803b158015611f3b57600080fd5b505af1158015611f4f573d6000803e3d6000fd5b505050506040513d6020811015611f6557600080fd5b81019080805190602001909291905050508282815181101515611f8457fe5b90602001906020020181815250508080600101915050611e26565b82829550955050505050915091565b6000600160009054906101000a900473ffffffffffffffffffffffffffffffffffffffff1673ffffffffffffffffffffffffffffffffffffffff1663bd02d0f561202d336040805190810160405280600b81526020017f5354414b45445f564f5445000000000000000000000000000000000000000000815250612739565b6040518263ffffffff167c0100000000000000000000000000000000000000000000000000000000028152600401808260001916600019168152602001915050602060405180830381600087803b15801561208757600080fd5b505af115801561209b573d6000803e3d6000fd5b505050506040513d60208110156120b157600080fd5b8101908080519060200190929190505050905090565b600073ffffffffffffffffffffffffffffffffffffffff166000809054906101000a900473ffffffffffffffffffffffffffffffffffffffff1673ffffffffffffffffffffffffffffffffffffffff1614151561217a576000809054906101000a900473ffffffffffffffffffffffffffffffffffffffff1673ffffffffffffffffffffffffffffffffffffffff163373ffffffffffffffffffffffffffffffffffffffff1614151561217957600080fd5b5b61218381612855565b50565b60008383836040516020018084815260200183805190602001908083835b6020831015156121c957805182526020820191506020810190506020830392506121a4565b6001836020036101000a0380198251168184511680821785525050505050509050018273ffffffffffffffffffffffffffffffffffffffff1673ffffffffffffffffffffffffffffffffffffffff166c0100000000000000000000000002815260140193505050506040516020818303038152906040526040518082805190602001908083835b6020831015156122755780518252602082019150602081019050602083039250612250565b6001836020036101000a038019825116818451168082178552505050505050905001915050604051809103902090509392505050565b6000828260405160200180838152602001828152602001925050506040516020818303038152906040526040518082805190602001908083835b60208310151561230a57805182526020820191506020810190506020830392506122e5565b6001836020036101000a0380198251168184511680821785525050505050509050019150506040518091039020905092915050565b60008060008090505b6020811015612410576008810260ff7f010000000000000000000000000000000000000000000000000000000000000002858381518110151561238757fe5b9060200101517f010000000000000000000000000000000000000000000000000000000000000090047f010000000000000000000000000000000000000000000000000000000000000002167effffffffffffffffffffffffffffffffffffffffffffffffffffffffffffff1916600019169060020a9004821791508080600101915050612348565b8192505050919050565b600082826040516020018083815260200182805190602001908083835b60208310151561245c5780518252602082019150602081019050602083039250612437565b6001836020036101000a038019825116818451168082178552505050505050905001925050506040516020818303038152906040526040518082805190602001908083835b6020831015156124c657805182526020820191506020810190506020830392506124a1565b6001836020036101000a0380198251168184511680821785525050505050509050019150506040518091039020905092915050565b60008383836040516020018084815260200183815260200182805190602001908083835b602083101515612544578051825260208201915060208101905060208303925061251f565b6001836020036101000a03801982511681845116808217855250505050505090500193505050506040516020818303038152906040526040518082805190602001908083835b6020831015156125af578051825260208201915060208101905060208303925061258a565b6001836020036101000a038019825116818451168082178552505050505050905001915050604051809103902090509392505050565b600081830190508281101515156125f857fe5b80905092915050565b6000808314156126145760009050612633565b818302905081838281151561262557fe5b0414151561262f57fe5b8090505b92915050565b6000818381151561264657fe5b04905092915050565b60008383836040516020018084815260200183805190602001908083835b602083101515612692578051825260208201915060208101905060208303925061266d565b6001836020036101000a03801982511681845116808217855250505050505090500182815260200193505050506040516020818303038152906040526040518082805190602001908083835b60208310151561270357805182526020820191506020810190506020830392506126de565b6001836020036101000a038019825116818451168082178552505050505050905001915050604051809103902090509392505050565b60008282604051602001808373ffffffffffffffffffffffffffffffffffffffff1673ffffffffffffffffffffffffffffffffffffffff166c0100000000000000000000000002815260140182805190602001908083835b6020831015156127b65780518252602082019150602081019050602083039250612791565b6001836020036101000a038019825116818451168082178552505050505050905001925050506040516020818303038152906040526040518082805190602001908083835b60208310151561282057805182526020820191506020810190506020830392506127fb565b6001836020036101000a0380198251168184511680821785525050505050509050019150506040518091039020905092915050565b600073ffffffffffffffffffffffffffffffffffffffff168173ffffffffffffffffffffffffffffffffffffffff161415151561289157600080fd5b8073ffffffffffffffffffffffffffffffffffffffff166000809054906101000a900473ffffffffffffffffffffffffffffffffffffffff1673ffffffffffffffffffffffffffffffffffffffff167f8be0079c531659141344cd1fd0a4f28419497f9722a3daafe3b4186f6b6457e060405160405180910390a3806000806101000a81548173ffffffffffffffffffffffffffffffffffffffff021916908373ffffffffffffffffffffffffffffffffffffffff160217905550505600a165627a7a72305820adf388e5cd4f885d78d4b75504f82793d69dd20a130d86167245689819c300160029",
  "source": "  /**\n * Created on 2018-08-13 10:20\n * @summary: \n * @author: Chris Nguyen\n */\npragma solidity ^0.4.24;\n\nimport './BBStandard.sol';\nimport './BBLib.sol';\n\n/**\n * @title BBVoting contract \n */\ncontract BBVotingHelper is BBStandard{\n\n  function getPollResult(uint256 pollID) public view returns(uint256[], uint256[]){\n    uint256 numOption = bbs.getUint(BBLib.toB32(pollID, 'OPTION_COUNTER'));\n    uint256[] memory opts = new uint256[](numOption.add(1));\n    uint256[] memory votes = new uint256[](numOption.add(1));\n    for(uint256 i = 0; i <= numOption ; i++){\n      opts[i] = i;\n      votes[i] = (bbs.getUint(BBLib.toB32(pollID,'VOTE_FOR',opts[i])));\n    }\n\n    return (opts, votes);\n  }\n  function getPollID(uint256 pollType, uint256 relatedTo) public view returns(uint256 pollID){\n    pollID = bbs.getUint(BBLib.toB32(relatedTo, pollType,'POLL'));\n  }\n\n  function getPollStage(uint256 pollID) public view returns(uint256, address, uint256, uint256, uint256){\n    uint256 pollStatus = bbs.getUint(BBLib.toB32(pollID,'STATUS'));\n    address creator = bbs.getAddress(BBLib.toB32(pollID, 'OWNER'));\n    uint256 addPollOptionEndDate = bbs.getUint(BBLib.toB32(pollID,'ADDOPTION_ENDDATE'));\n    uint256 commitEndDate = bbs.getUint(BBLib.toB32(pollID,'COMMIT_ENDDATE'));\n    uint256 revealEndDate = bbs.getUint(BBLib.toB32(pollID,'REVEAL_ENDDATE'));\n    return (pollStatus, creator, addPollOptionEndDate, commitEndDate, revealEndDate); \n  }\n    /**\n  * @dev check Hash for poll\n  * @param pollID Job Hash\n  * @param choice uint256 \n  * @param salt salt\n  */\n  function checkHash(uint256 pollID, uint256 choice, uint salt) public view returns(bool){\n    bytes32 choiceHash = BBLib.toB32(choice,salt);\n    bytes32 secretHash = BBLib.bytesToBytes32(bbs.getBytes(BBLib.toB32(pollID,'SECRET_HASH',msg.sender)));\n    return (choiceHash==secretHash);\n  }\n  function checkStakeBalance() public view returns(uint256 tokens){\n    tokens = bbs.getUint(BBLib.toB32(msg.sender,'STAKED_VOTE'));\n  }\n  function hasVoting(uint256 pollType, uint256 relatedTo) public view returns(bool r){\n    uint256 pollID = getPollID(pollType, relatedTo);\n    if(pollID > 0) {\n      uint256 pollStatus = bbs.getUint(BBLib.toB32(pollID,'STATUS'));\n      uint256 revealEndDate = bbs.getUint(BBLib.toB32(pollID,'REVEAL_ENDDATE'));\n      r = (pollStatus >= 1 && revealEndDate < now);\n    }\n  }\n  function getPollOption(uint256 pollID, uint256 optID) public view returns(bytes opt){\n    opt = bbs.getBytes(BBLib.toB32(pollID, 'IPFS_HASH', optID));\n  }\n  \n  function getPollWinner(uint256 pollID)public constant returns(bool isFinished, uint256 winner, uint256 winnerVotes , bool hasVote, uint256 quorum) {\n    (uint256 pollStatus,,,,uint256 revealEndDate) = getPollStage(pollID);\n    isFinished = (revealEndDate <= now);\n    if(pollStatus==2){\n      hasVote = true;\n      uint256 totalVotes = 0;\n      (uint256[] memory addrs,uint256[] memory votes) = getPollResult(pollID);\n      for(uint256 i=0; i< addrs.length ;i++){\n        totalVotes = totalVotes.add(votes[i]);\n        if(winnerVotes<votes[i]){\n          winnerVotes = votes[i];\n          winner = addrs[i];\n        }\n      }\n      if(totalVotes > 0)\n        quorum = winnerVotes.mul(100).div(totalVotes);\n    }\n  }\n  /**\n  @param voter           Address of voter who voted in the majority bloc\n  @param pollID          Integer identifier associated with target poll\n  @return correctVotes    Number of tokens voted for winning option\n  */\n  function getNumPassingTokens(address voter, uint256 pollID) public constant returns (uint256 correctVotes) {\n      (bool isFinished, uint256 winner,, bool hasVote,) = getPollWinner(pollID);\n      if(isFinished==true && hasVote == true){\n        uint256 userChoice = bbs.getUint(BBLib.toB32(pollID,'CHOICE', voter));\n        if (winner == userChoice){\n          correctVotes = bbs.getUint(BBLib.toB32(pollID ,'VOTES', voter));\n        }\n      }\n  }\n}",
  "sourcePath": "/Users/trantho/Code/SmartContract/digital-contracts/src/contracts/BBVotingHelper.sol",
  "compiler": {
    "name": "solc",
    "version": "0.4.24+commit.e67f0147.Emscripten.clang"
  },
  "schemaVersion": "2.0.1",
  "updatedAt": "2018-11-19T06:45:56.339Z"
}