{
  "contractName": "BBFreelancer",
  "abi": [
    {
      "constant": true,
      "inputs": [],
      "name": "bbo",
      "outputs": [
        {
          "name": "",
          "type": "address"
        }
      ],
      "payable": false,
      "stateMutability": "view",
      "type": "function"
    },
    {
      "constant": true,
      "inputs": [],
      "name": "bbs",
      "outputs": [
        {
          "name": "",
          "type": "address"
        }
      ],
      "payable": false,
      "stateMutability": "view",
      "type": "function"
    },
    {
      "constant": false,
      "inputs": [],
      "name": "renounceOwnership",
      "outputs": [],
      "payable": false,
      "stateMutability": "nonpayable",
      "type": "function"
    },
    {
      "constant": false,
      "inputs": [
        {
          "name": "BBOAddress",
          "type": "address"
        }
      ],
      "name": "setBBO",
      "outputs": [],
      "payable": false,
      "stateMutability": "nonpayable",
      "type": "function"
    },
    {
      "constant": true,
      "inputs": [],
      "name": "owner",
      "outputs": [
        {
          "name": "",
          "type": "address"
        }
      ],
      "payable": false,
      "stateMutability": "view",
      "type": "function"
    },
    {
      "constant": false,
      "inputs": [
        {
          "name": "anyToken",
          "type": "address"
        }
      ],
      "name": "emergencyERC20Drain",
      "outputs": [],
      "payable": false,
      "stateMutability": "nonpayable",
      "type": "function"
    },
    {
      "constant": false,
      "inputs": [
        {
          "name": "storageAddress",
          "type": "address"
        }
      ],
      "name": "setStorage",
      "outputs": [],
      "payable": false,
      "stateMutability": "nonpayable",
      "type": "function"
    },
    {
      "constant": false,
      "inputs": [
        {
          "name": "_newOwner",
          "type": "address"
        }
      ],
      "name": "transferOwnership",
      "outputs": [],
      "payable": false,
      "stateMutability": "nonpayable",
      "type": "function"
    },
    {
      "anonymous": false,
      "inputs": [
        {
          "indexed": true,
          "name": "previousOwner",
          "type": "address"
        }
      ],
      "name": "OwnershipRenounced",
      "type": "event"
    },
    {
      "anonymous": false,
      "inputs": [
        {
          "indexed": true,
          "name": "previousOwner",
          "type": "address"
        },
        {
          "indexed": true,
          "name": "newOwner",
          "type": "address"
        }
      ],
      "name": "OwnershipTransferred",
      "type": "event"
    },
    {
      "constant": true,
      "inputs": [
        {
          "name": "sender",
          "type": "address"
        },
        {
          "name": "jobID",
          "type": "uint256"
        }
      ],
      "name": "isOwnerOfJob",
      "outputs": [
        {
          "name": "",
          "type": "bool"
        }
      ],
      "payable": false,
      "stateMutability": "view",
      "type": "function"
    },
    {
      "constant": true,
      "inputs": [
        {
          "name": "jobID",
          "type": "uint256"
        }
      ],
      "name": "isJobStart",
      "outputs": [
        {
          "name": "",
          "type": "bool"
        }
      ],
      "payable": false,
      "stateMutability": "view",
      "type": "function"
    },
    {
      "constant": true,
      "inputs": [
        {
          "name": "jobID",
          "type": "uint256"
        }
      ],
      "name": "isJobCancel",
      "outputs": [
        {
          "name": "",
          "type": "bool"
        }
      ],
      "payable": false,
      "stateMutability": "view",
      "type": "function"
    },
    {
      "constant": true,
      "inputs": [
        {
          "name": "jobID",
          "type": "uint256"
        }
      ],
      "name": "isJobExpired",
      "outputs": [
        {
          "name": "",
          "type": "bool"
        }
      ],
      "payable": false,
      "stateMutability": "view",
      "type": "function"
    },
    {
      "constant": true,
      "inputs": [
        {
          "name": "jobID",
          "type": "uint256"
        }
      ],
      "name": "isJobHasFreelancer",
      "outputs": [
        {
          "name": "",
          "type": "bool"
        }
      ],
      "payable": false,
      "stateMutability": "view",
      "type": "function"
    }
  ],
  "bytecode": "0x60806040526000600160006101000a81548173ffffffffffffffffffffffffffffffffffffffff021916908373ffffffffffffffffffffffffffffffffffffffff1602179055506000600260006101000a81548173ffffffffffffffffffffffffffffffffffffffff021916908373ffffffffffffffffffffffffffffffffffffffff160217905550336000806101000a81548173ffffffffffffffffffffffffffffffffffffffff021916908373ffffffffffffffffffffffffffffffffffffffff1602179055506113ea806100d76000396000f3006080604052600436106100c5576000357c0100000000000000000000000000000000000000000000000000000000900463ffffffff1680631e89bf06146100ca5780631fde23a414610121578063715018a6146101785780637937f46d1461018f5780638b01bcc3146101d25780638da5cb5b1461021757806390e8d82f1461026e5780639137c1a7146102b1578063b191f79d146102f4578063b8edcd1f14610339578063dad788d91461039e578063ebe5f590146103e3578063f2fde38b14610428575b600080fd5b3480156100d657600080fd5b506100df61046b565b604051808273ffffffffffffffffffffffffffffffffffffffff1673ffffffffffffffffffffffffffffffffffffffff16815260200191505060405180910390f35b34801561012d57600080fd5b50610136610491565b604051808273ffffffffffffffffffffffffffffffffffffffff1673ffffffffffffffffffffffffffffffffffffffff16815260200191505060405180910390f35b34801561018457600080fd5b5061018d6104b7565b005b34801561019b57600080fd5b506101d0600480360381019080803573ffffffffffffffffffffffffffffffffffffffff1690602001909291905050506105b9565b005b3480156101de57600080fd5b506101fd60048036038101908080359060200190929190505050610658565b604051808215151515815260200191505060405180910390f35b34801561022357600080fd5b5061022c6107de565b604051808273ffffffffffffffffffffffffffffffffffffffff1673ffffffffffffffffffffffffffffffffffffffff16815260200191505060405180910390f35b34801561027a57600080fd5b506102af600480360381019080803573ffffffffffffffffffffffffffffffffffffffff169060200190929190505050610803565b005b3480156102bd57600080fd5b506102f2600480360381019080803573ffffffffffffffffffffffffffffffffffffffff169060200190929190505050610b17565b005b34801561030057600080fd5b5061031f60048036038101908080359060200190929190505050610bb6565b604051808215151515815260200191505060405180910390f35b34801561034557600080fd5b50610384600480360381019080803573ffffffffffffffffffffffffffffffffffffffff16906020019092919080359060200190929190505050610d3f565b604051808215151515815260200191505060405180910390f35b3480156103aa57600080fd5b506103c960048036038101908080359060200190929190505050610e53565b604051808215151515815260200191505060405180910390f35b3480156103ef57600080fd5b5061040e60048036038101908080359060200190929190505050610fdb565b604051808215151515815260200191505060405180910390f35b34801561043457600080fd5b50610469600480360381019080803573ffffffffffffffffffffffffffffffffffffffff16906020019092919050505061117a565b005b600260009054906101000a900473ffffffffffffffffffffffffffffffffffffffff1681565b600160009054906101000a900473ffffffffffffffffffffffffffffffffffffffff1681565b6000809054906101000a900473ffffffffffffffffffffffffffffffffffffffff1673ffffffffffffffffffffffffffffffffffffffff163373ffffffffffffffffffffffffffffffffffffffff1614151561051257600080fd5b6000809054906101000a900473ffffffffffffffffffffffffffffffffffffffff1673ffffffffffffffffffffffffffffffffffffffff167ff8df31144d9c2f0f6b59d69b8b98abd5459d07f2742c4df920b25aae33c6482060405160405180910390a260008060006101000a81548173ffffffffffffffffffffffffffffffffffffffff021916908373ffffffffffffffffffffffffffffffffffffffff160217905550565b6000809054906101000a900473ffffffffffffffffffffffffffffffffffffffff1673ffffffffffffffffffffffffffffffffffffffff163373ffffffffffffffffffffffffffffffffffffffff1614151561061457600080fd5b80600260006101000a81548173ffffffffffffffffffffffffffffffffffffffff021916908373ffffffffffffffffffffffffffffffffffffffff16021790555050565b6000600160009054906101000a900473ffffffffffffffffffffffffffffffffffffffff1673ffffffffffffffffffffffffffffffffffffffff16637ae1cfca8360405160200180828152602001807f4a4f425f43414e43454c00000000000000000000000000000000000000000000815250600a019150506040516020818303038152906040526040518082805190602001908083835b60208310151561071557805182526020820191506020810190506020830392506106f0565b6001836020036101000a03801982511681845116808217855250505050505090500191505060405180910390206040518263ffffffff167c0100000000000000000000000000000000000000000000000000000000028152600401808260001916600019168152602001915050602060405180830381600087803b15801561079c57600080fd5b505af11580156107b0573d6000803e3d6000fd5b505050506040513d60208110156107c657600080fd5b81019080805190602001909291905050509050919050565b6000809054906101000a900473ffffffffffffffffffffffffffffffffffffffff1681565b6000809054906101000a900473ffffffffffffffffffffffffffffffffffffffff1673ffffffffffffffffffffffffffffffffffffffff163373ffffffffffffffffffffffffffffffffffffffff1614151561085e57600080fd5b60003073ffffffffffffffffffffffffffffffffffffffff163111156108fe576000809054906101000a900473ffffffffffffffffffffffffffffffffffffffff1673ffffffffffffffffffffffffffffffffffffffff166108fc3073ffffffffffffffffffffffffffffffffffffffff16319081150290604051600060405180830381858888f193505050501580156108fc573d6000803e3d6000fd5b505b600073ffffffffffffffffffffffffffffffffffffffff168173ffffffffffffffffffffffffffffffffffffffff16141515610b14578073ffffffffffffffffffffffffffffffffffffffff1663a9059cbb6000809054906101000a900473ffffffffffffffffffffffffffffffffffffffff168373ffffffffffffffffffffffffffffffffffffffff166370a08231306040518263ffffffff167c0100000000000000000000000000000000000000000000000000000000028152600401808273ffffffffffffffffffffffffffffffffffffffff1673ffffffffffffffffffffffffffffffffffffffff168152602001915050602060405180830381600087803b158015610a0d57600080fd5b505af1158015610a21573d6000803e3d6000fd5b505050506040513d6020811015610a3757600080fd5b81019080805190602001909291905050506040518363ffffffff167c0100000000000000000000000000000000000000000000000000000000028152600401808373ffffffffffffffffffffffffffffffffffffffff1673ffffffffffffffffffffffffffffffffffffffff16815260200182815260200192505050602060405180830381600087803b158015610acd57600080fd5b505af1158015610ae1573d6000803e3d6000fd5b505050506040513d6020811015610af757600080fd5b81019080805190602001909291905050501515610b1357600080fd5b5b50565b6000809054906101000a900473ffffffffffffffffffffffffffffffffffffffff1673ffffffffffffffffffffffffffffffffffffffff163373ffffffffffffffffffffffffffffffffffffffff16141515610b7257600080fd5b80600160006101000a81548173ffffffffffffffffffffffffffffffffffffffff021916908373ffffffffffffffffffffffffffffffffffffffff16021790555050565b600080600160009054906101000a900473ffffffffffffffffffffffffffffffffffffffff1673ffffffffffffffffffffffffffffffffffffffff1663bd02d0f58460405160200180828152602001807f4a4f425f53544154555300000000000000000000000000000000000000000000815250600a019150506040516020818303038152906040526040518082805190602001908083835b602083101515610c745780518252602082019150602081019050602083039250610c4f565b6001836020036101000a03801982511681845116808217855250505050505090500191505060405180910390206040518263ffffffff167c0100000000000000000000000000000000000000000000000000000000028152600401808260001916600019168152602001915050602060405180830381600087803b158015610cfb57600080fd5b505af1158015610d0f573d6000803e3d6000fd5b505050506040513d6020811015610d2557600080fd5b810190808051906020019092919050505014159050919050565b60008273ffffffffffffffffffffffffffffffffffffffff16600160009054906101000a900473ffffffffffffffffffffffffffffffffffffffff1673ffffffffffffffffffffffffffffffffffffffff166321f8a721610d9f85611239565b6040518263ffffffff167c0100000000000000000000000000000000000000000000000000000000028152600401808260001916600019168152602001915050602060405180830381600087803b158015610df957600080fd5b505af1158015610e0d573d6000803e3d6000fd5b505050506040513d6020811015610e2357600080fd5b810190808051906020019092919050505073ffffffffffffffffffffffffffffffffffffffff1614905092915050565b6000600160009054906101000a900473ffffffffffffffffffffffffffffffffffffffff1673ffffffffffffffffffffffffffffffffffffffff1663bd02d0f58360405160200180828152602001807f4a4f425f45585049524544000000000000000000000000000000000000000000815250600b019150506040516020818303038152906040526040518082805190602001908083835b602083101515610f105780518252602082019150602081019050602083039250610eeb565b6001836020036101000a03801982511681845116808217855250505050505090500191505060405180910390206040518263ffffffff167c0100000000000000000000000000000000000000000000000000000000028152600401808260001916600019168152602001915050602060405180830381600087803b158015610f9757600080fd5b505af1158015610fab573d6000803e3d6000fd5b505050506040513d6020811015610fc157600080fd5b810190808051906020019092919050505042119050919050565b600080600160009054906101000a900473ffffffffffffffffffffffffffffffffffffffff1673ffffffffffffffffffffffffffffffffffffffff166321f8a7218460405160200180828152602001807f465245454c414e43455200000000000000000000000000000000000000000000815250600a019150506040516020818303038152906040526040518082805190602001908083835b6020831015156110995780518252602082019150602081019050602083039250611074565b6001836020036101000a03801982511681845116808217855250505050505090500191505060405180910390206040518263ffffffff167c0100000000000000000000000000000000000000000000000000000000028152600401808260001916600019168152602001915050602060405180830381600087803b15801561112057600080fd5b505af1158015611134573d6000803e3d6000fd5b505050506040513d602081101561114a57600080fd5b810190808051906020019092919050505073ffffffffffffffffffffffffffffffffffffffff1614159050919050565b600073ffffffffffffffffffffffffffffffffffffffff166000809054906101000a900473ffffffffffffffffffffffffffffffffffffffff1673ffffffffffffffffffffffffffffffffffffffff1614151561122d576000809054906101000a900473ffffffffffffffffffffffffffffffffffffffff1673ffffffffffffffffffffffffffffffffffffffff163373ffffffffffffffffffffffffffffffffffffffff1614151561122c57600080fd5b5b611236816112c4565b50565b600081604051602001808281526020019150506040516020818303038152906040526040518082805190602001908083835b602083101515611290578051825260208201915060208101905060208303925061126b565b6001836020036101000a03801982511681845116808217855250505050505090500191505060405180910390209050919050565b600073ffffffffffffffffffffffffffffffffffffffff168173ffffffffffffffffffffffffffffffffffffffff161415151561130057600080fd5b8073ffffffffffffffffffffffffffffffffffffffff166000809054906101000a900473ffffffffffffffffffffffffffffffffffffffff1673ffffffffffffffffffffffffffffffffffffffff167f8be0079c531659141344cd1fd0a4f28419497f9722a3daafe3b4186f6b6457e060405160405180910390a3806000806101000a81548173ffffffffffffffffffffffffffffffffffffffff021916908373ffffffffffffffffffffffffffffffffffffffff160217905550505600a165627a7a723058204bc59ea17a410bae5386884c2d26d57c03b3e4305b927faaaaff867abd3f4c370029",
  "source": "/**\n * Created on 2018-08-13 10:20\n * @summary: \n * @author: Chris Nguyen\n */\npragma solidity ^0.4.24;\n\nimport './BBStandard.sol';\nimport './BBLib.sol';\n\n/**\n * @title Freelancer contract \n */\ncontract BBFreelancer is BBStandard{\n\n  modifier jobNotExist(bytes jobHash){\n    require(bbs.getAddress(keccak256(jobHash)) == 0x0);\n    _;\n  }\n  modifier isFreelancerOfJob(uint256 jobID){\n    require(bbs.getAddress(keccak256(abi.encodePacked(jobID,'FREELANCER'))) == msg.sender);\n    _;\n  }\n  modifier isNotOwnerJob(uint256 jobID){\n    address jobOwner = bbs.getAddress(BBLib.toB32(jobID));\n    // not owner\n    require(jobOwner!=0x0);\n    // not owner\n    require(msg.sender != jobOwner);\n    _;\n  }\n  modifier isOwnerJob(uint256 jobID){\n    require(bbs.getAddress(BBLib.toB32(jobID))==msg.sender);\n    _;\n  }\n\n  modifier jobNotStarted(uint256 jobID){\n    require(bbs.getUint(keccak256(abi.encodePacked(jobID, 'JOB_STATUS'))) == 0x0);\n    _;\n  }\n  modifier isNotCanceled(uint256 jobID){\n    require(bbs.getBool(keccak256(abi.encodePacked(jobID, 'JOB_CANCEL'))) !=true);\n    _;\n  }\n  \n  function isOwnerOfJob(address sender, uint256 jobID) public view returns (bool) {\n      return (bbs.getAddress(BBLib.toB32(jobID)) == sender);\n  }\n  function isJobStart(uint256 jobID) public view returns (bool) {\n      return (bbs.getUint(keccak256(abi.encodePacked(jobID, 'JOB_STATUS'))) != 0x0);\n  }\n  function isJobCancel(uint256 jobID) public view returns (bool) {\n      return bbs.getBool(keccak256(abi.encodePacked(jobID, 'JOB_CANCEL')));\n  }\n  function isJobExpired(uint256 jobID) public view returns (bool) {\n      return (now > bbs.getUint(keccak256(abi.encodePacked(jobID, 'JOB_EXPIRED'))));\n  }\n  function isJobHasFreelancer(uint256 jobID) public view returns (bool) {\n      return (bbs.getAddress(keccak256(abi.encodePacked(jobID,'FREELANCER'))) != 0x0);\n  }\n  \n}",
  "sourcePath": "/Users/yena/Documents/tuongnguyen/bigbom-digital-contract/src/contracts/BBFreelancer.sol",
  "compiler": {
    "name": "solc",
    "version": "0.4.24+commit.e67f0147.Emscripten.clang"
  },
  "schemaVersion": "2.0.1",
  "updatedAt": "2018-11-27T00:55:19.601Z"
}