{
  "contractName": "BBStorage",
  "abi": [
    {
      "constant": false,
      "inputs": [],
      "name": "renounceOwnership",
      "outputs": [],
      "payable": false,
      "stateMutability": "nonpayable",
      "type": "function"
    },
    {
      "constant": true,
      "inputs": [],
      "name": "owner",
      "outputs": [
        {
          "name": "",
          "type": "address"
        }
      ],
      "payable": false,
      "stateMutability": "view",
      "type": "function"
    },
    {
      "constant": false,
      "inputs": [
        {
          "name": "_newOwner",
          "type": "address"
        }
      ],
      "name": "transferOwnership",
      "outputs": [],
      "payable": false,
      "stateMutability": "nonpayable",
      "type": "function"
    },
    {
      "anonymous": false,
      "inputs": [
        {
          "indexed": true,
          "name": "admin",
          "type": "address"
        },
        {
          "indexed": false,
          "name": "add",
          "type": "bool"
        }
      ],
      "name": "AdminAdded",
      "type": "event"
    },
    {
      "anonymous": false,
      "inputs": [
        {
          "indexed": true,
          "name": "previousOwner",
          "type": "address"
        }
      ],
      "name": "OwnershipRenounced",
      "type": "event"
    },
    {
      "anonymous": false,
      "inputs": [
        {
          "indexed": true,
          "name": "previousOwner",
          "type": "address"
        },
        {
          "indexed": true,
          "name": "newOwner",
          "type": "address"
        }
      ],
      "name": "OwnershipTransferred",
      "type": "event"
    },
    {
      "constant": false,
      "inputs": [
        {
          "name": "admin",
          "type": "address"
        },
        {
          "name": "add",
          "type": "bool"
        }
      ],
      "name": "addAdmin",
      "outputs": [],
      "payable": false,
      "stateMutability": "nonpayable",
      "type": "function"
    },
    {
      "constant": true,
      "inputs": [
        {
          "name": "_key",
          "type": "bytes32"
        }
      ],
      "name": "getAddress",
      "outputs": [
        {
          "name": "",
          "type": "address"
        }
      ],
      "payable": false,
      "stateMutability": "view",
      "type": "function"
    },
    {
      "constant": true,
      "inputs": [
        {
          "name": "_key",
          "type": "bytes32"
        }
      ],
      "name": "getUint",
      "outputs": [
        {
          "name": "",
          "type": "uint256"
        }
      ],
      "payable": false,
      "stateMutability": "view",
      "type": "function"
    },
    {
      "constant": true,
      "inputs": [
        {
          "name": "_key",
          "type": "bytes32"
        }
      ],
      "name": "getString",
      "outputs": [
        {
          "name": "",
          "type": "string"
        }
      ],
      "payable": false,
      "stateMutability": "view",
      "type": "function"
    },
    {
      "constant": true,
      "inputs": [
        {
          "name": "_key",
          "type": "bytes32"
        }
      ],
      "name": "getBytes",
      "outputs": [
        {
          "name": "",
          "type": "bytes"
        }
      ],
      "payable": false,
      "stateMutability": "view",
      "type": "function"
    },
    {
      "constant": true,
      "inputs": [
        {
          "name": "_key",
          "type": "bytes32"
        }
      ],
      "name": "getBool",
      "outputs": [
        {
          "name": "",
          "type": "bool"
        }
      ],
      "payable": false,
      "stateMutability": "view",
      "type": "function"
    },
    {
      "constant": true,
      "inputs": [
        {
          "name": "_key",
          "type": "bytes32"
        }
      ],
      "name": "getInt",
      "outputs": [
        {
          "name": "",
          "type": "int256"
        }
      ],
      "payable": false,
      "stateMutability": "view",
      "type": "function"
    },
    {
      "constant": false,
      "inputs": [
        {
          "name": "_key",
          "type": "bytes32"
        },
        {
          "name": "_value",
          "type": "address"
        }
      ],
      "name": "setAddress",
      "outputs": [],
      "payable": false,
      "stateMutability": "nonpayable",
      "type": "function"
    },
    {
      "constant": false,
      "inputs": [
        {
          "name": "_key",
          "type": "bytes32"
        },
        {
          "name": "_value",
          "type": "uint256"
        }
      ],
      "name": "setUint",
      "outputs": [],
      "payable": false,
      "stateMutability": "nonpayable",
      "type": "function"
    },
    {
      "constant": false,
      "inputs": [
        {
          "name": "_key",
          "type": "bytes32"
        },
        {
          "name": "_value",
          "type": "string"
        }
      ],
      "name": "setString",
      "outputs": [],
      "payable": false,
      "stateMutability": "nonpayable",
      "type": "function"
    },
    {
      "constant": false,
      "inputs": [
        {
          "name": "_key",
          "type": "bytes32"
        },
        {
          "name": "_value",
          "type": "bytes"
        }
      ],
      "name": "setBytes",
      "outputs": [],
      "payable": false,
      "stateMutability": "nonpayable",
      "type": "function"
    },
    {
      "constant": false,
      "inputs": [
        {
          "name": "_key",
          "type": "bytes32"
        },
        {
          "name": "_value",
          "type": "bool"
        }
      ],
      "name": "setBool",
      "outputs": [],
      "payable": false,
      "stateMutability": "nonpayable",
      "type": "function"
    },
    {
      "constant": false,
      "inputs": [
        {
          "name": "_key",
          "type": "bytes32"
        },
        {
          "name": "_value",
          "type": "int256"
        }
      ],
      "name": "setInt",
      "outputs": [],
      "payable": false,
      "stateMutability": "nonpayable",
      "type": "function"
    },
    {
      "constant": false,
      "inputs": [
        {
          "name": "_key",
          "type": "bytes32"
        }
      ],
      "name": "deleteAddress",
      "outputs": [],
      "payable": false,
      "stateMutability": "nonpayable",
      "type": "function"
    },
    {
      "constant": false,
      "inputs": [
        {
          "name": "_key",
          "type": "bytes32"
        }
      ],
      "name": "deleteUint",
      "outputs": [],
      "payable": false,
      "stateMutability": "nonpayable",
      "type": "function"
    },
    {
      "constant": false,
      "inputs": [
        {
          "name": "_key",
          "type": "bytes32"
        }
      ],
      "name": "deleteString",
      "outputs": [],
      "payable": false,
      "stateMutability": "nonpayable",
      "type": "function"
    },
    {
      "constant": false,
      "inputs": [
        {
          "name": "_key",
          "type": "bytes32"
        }
      ],
      "name": "deleteBytes",
      "outputs": [],
      "payable": false,
      "stateMutability": "nonpayable",
      "type": "function"
    },
    {
      "constant": false,
      "inputs": [
        {
          "name": "_key",
          "type": "bytes32"
        }
      ],
      "name": "deleteBool",
      "outputs": [],
      "payable": false,
      "stateMutability": "nonpayable",
      "type": "function"
    },
    {
      "constant": false,
      "inputs": [
        {
          "name": "_key",
          "type": "bytes32"
        }
      ],
      "name": "deleteInt",
      "outputs": [],
      "payable": false,
      "stateMutability": "nonpayable",
      "type": "function"
    }
  ],
  "bytecode": "0x6080604052336000806101000a81548173ffffffffffffffffffffffffffffffffffffffff021916908373ffffffffffffffffffffffffffffffffffffffff160217905550612039806100536000396000f300608060405260043610610128576000357c0100000000000000000000000000000000000000000000000000000000900463ffffffff1680630e14a3761461012d57806321f8a7211461015e5780632c62ff2d146101cf5780632e28d084146102005780633e49bed014610249578063616b59f6146102845780636e899550146102b5578063715018a6146102fe5780637ae1cfca146103155780638c1600951461035e5780638da5cb5b1461038f578063986e791a146103e6578063a4230bd514610490578063abfdcced146104df578063bd02d0f51461051c578063c031a18014610561578063ca446dd91461060b578063dc97d9621461065c578063e2a4853a146106a1578063e2b202bf146106dc578063f2fde38b1461070d578063f6bb3cc414610750575b600080fd5b34801561013957600080fd5b5061015c6004803603810190808035600019169060200190929190505050610781565b005b34801561016a57600080fd5b5061018d60048036038101908080356000191690602001909291905050506108e1565b604051808273ffffffffffffffffffffffffffffffffffffffff1673ffffffffffffffffffffffffffffffffffffffff16815260200191505060405180910390f35b3480156101db57600080fd5b506101fe6004803603810190808035600019169060200190929190505050610926565b005b34801561020c57600080fd5b506102476004803603810190808035600019169060200190929190803590602001908201803590602001919091929391929390505050610a73565b005b34801561025557600080fd5b50610282600480360381019080803560001916906020019092919080359060200190929190505050610bc2565b005b34801561029057600080fd5b506102b36004803603810190808035600019169060200190929190505050610d05565b005b3480156102c157600080fd5b506102fc6004803603810190808035600019169060200190929190803590602001908201803590602001919091929391929390505050610e4e565b005b34801561030a57600080fd5b50610313610f9d565b005b34801561032157600080fd5b50610344600480360381019080803560001916906020019092919050505061109f565b604051808215151515815260200191505060405180910390f35b34801561036a57600080fd5b5061038d60048036038101908080356000191690602001909291905050506110d1565b005b34801561039b57600080fd5b506103a4611212565b604051808273ffffffffffffffffffffffffffffffffffffffff1673ffffffffffffffffffffffffffffffffffffffff16815260200191505060405180910390f35b3480156103f257600080fd5b506104156004803603810190808035600019169060200190929190505050611237565b6040518080602001828103825283818151815260200191508051906020019080838360005b8381101561045557808201518184015260208101905061043a565b50505050905090810190601f1680156104825780820380516001836020036101000a031916815260200191505b509250505060405180910390f35b34801561049c57600080fd5b506104dd600480360381019080803573ffffffffffffffffffffffffffffffffffffffff1690602001909291908035151590602001909291905050506112f4565b005b3480156104eb57600080fd5b5061051a60048036038101908080356000191690602001909291908035151590602001909291905050506114f8565b005b34801561052857600080fd5b5061054b600480360381019080803560001916906020019092919050505061164e565b6040518082815260200191505060405180910390f35b34801561056d57600080fd5b506105906004803603810190808035600019169060200190929190505050611673565b6040518080602001828103825283818151815260200191508051906020019080838360005b838110156105d05780820151818401526020810190506105b5565b50505050905090810190601f1680156105fd5780820380516001836020036101000a031916815260200191505b509250505060405180910390f35b34801561061757600080fd5b5061065a6004803603810190808035600019169060200190929190803573ffffffffffffffffffffffffffffffffffffffff169060200190929190505050611730565b005b34801561066857600080fd5b5061068b60048036038101908080356000191690602001909291905050506118ad565b6040518082815260200191505060405180910390f35b3480156106ad57600080fd5b506106da6004803603810190808035600019169060200190929190803590602001909291905050506118d2565b005b3480156106e857600080fd5b5061070b6004803603810190808035600019169060200190929190505050611a15565b005b34801561071957600080fd5b5061074e600480360381019080803573ffffffffffffffffffffffffffffffffffffffff169060200190929190505050611b56565b005b34801561075c57600080fd5b5061077f6004803603810190808035600019169060200190929190505050611c15565b005b60011515600760003360405160200180807f61646d696e3a00000000000000000000000000000000000000000000000000008152506006018273ffffffffffffffffffffffffffffffffffffffff1673ffffffffffffffffffffffffffffffffffffffff166c010000000000000000000000000281526014019150506040516020818303038152906040526040518082805190602001908083835b602083101515610841578051825260208201915060208101905060208303925061081c565b6001836020036101000a03801982511681845116808217855250505050505090500191505060405180910390206000191660001916815260200190815260200160002060009054906101000a900460ff1615151415156108a057600080fd5b60036000826000191660001916815260200190815260200160002060006101000a81549073ffffffffffffffffffffffffffffffffffffffff021916905550565b600060036000836000191660001916815260200190815260200160002060009054906101000a900473ffffffffffffffffffffffffffffffffffffffff169050919050565b60011515600760003360405160200180807f61646d696e3a00000000000000000000000000000000000000000000000000008152506006018273ffffffffffffffffffffffffffffffffffffffff1673ffffffffffffffffffffffffffffffffffffffff166c010000000000000000000000000281526014019150506040516020818303038152906040526040518082805190602001908083835b6020831015156109e657805182526020820191506020810190506020830392506109c1565b6001836020036101000a03801982511681845116808217855250505050505090500191505060405180910390206000191660001916815260200190815260200160002060009054906101000a900460ff161515141515610a4557600080fd5b60056000826000191660001916815260200190815260200160002060006101000a81549060ff021916905550565b60011515600760003360405160200180807f61646d696e3a00000000000000000000000000000000000000000000000000008152506006018273ffffffffffffffffffffffffffffffffffffffff1673ffffffffffffffffffffffffffffffffffffffff166c010000000000000000000000000281526014019150506040516020818303038152906040526040518082805190602001908083835b602083101515610b335780518252602082019150602081019050602083039250610b0e565b6001836020036101000a03801982511681845116808217855250505050505090500191505060405180910390206000191660001916815260200190815260200160002060009054906101000a900460ff161515141515610b9257600080fd5b81816004600086600019166000191681526020019081526020016000209190610bbc929190611e58565b50505050565b60011515600760003360405160200180807f61646d696e3a00000000000000000000000000000000000000000000000000008152506006018273ffffffffffffffffffffffffffffffffffffffff1673ffffffffffffffffffffffffffffffffffffffff166c010000000000000000000000000281526014019150506040516020818303038152906040526040518082805190602001908083835b602083101515610c825780518252602082019150602081019050602083039250610c5d565b6001836020036101000a03801982511681845116808217855250505050505090500191505060405180910390206000191660001916815260200190815260200160002060009054906101000a900460ff161515141515610ce157600080fd5b80600660008460001916600019168152602001908152602001600020819055505050565b60011515600760003360405160200180807f61646d696e3a00000000000000000000000000000000000000000000000000008152506006018273ffffffffffffffffffffffffffffffffffffffff1673ffffffffffffffffffffffffffffffffffffffff166c010000000000000000000000000281526014019150506040516020818303038152906040526040518082805190602001908083835b602083101515610dc55780518252602082019150602081019050602083039250610da0565b6001836020036101000a03801982511681845116808217855250505050505090500191505060405180910390206000191660001916815260200190815260200160002060009054906101000a900460ff161515141515610e2457600080fd5b6004600082600019166000191681526020019081526020016000206000610e4b9190611ed8565b50565b60011515600760003360405160200180807f61646d696e3a00000000000000000000000000000000000000000000000000008152506006018273ffffffffffffffffffffffffffffffffffffffff1673ffffffffffffffffffffffffffffffffffffffff166c010000000000000000000000000281526014019150506040516020818303038152906040526040518082805190602001908083835b602083101515610f0e5780518252602082019150602081019050602083039250610ee9565b6001836020036101000a03801982511681845116808217855250505050505090500191505060405180910390206000191660001916815260200190815260200160002060009054906101000a900460ff161515141515610f6d57600080fd5b81816002600086600019166000191681526020019081526020016000209190610f97929190611f20565b50505050565b6000809054906101000a900473ffffffffffffffffffffffffffffffffffffffff1673ffffffffffffffffffffffffffffffffffffffff163373ffffffffffffffffffffffffffffffffffffffff16141515610ff857600080fd5b6000809054906101000a900473ffffffffffffffffffffffffffffffffffffffff1673ffffffffffffffffffffffffffffffffffffffff167ff8df31144d9c2f0f6b59d69b8b98abd5459d07f2742c4df920b25aae33c6482060405160405180910390a260008060006101000a81548173ffffffffffffffffffffffffffffffffffffffff021916908373ffffffffffffffffffffffffffffffffffffffff160217905550565b600060056000836000191660001916815260200190815260200160002060009054906101000a900460ff169050919050565b60011515600760003360405160200180807f61646d696e3a00000000000000000000000000000000000000000000000000008152506006018273ffffffffffffffffffffffffffffffffffffffff1673ffffffffffffffffffffffffffffffffffffffff166c010000000000000000000000000281526014019150506040516020818303038152906040526040518082805190602001908083835b602083101515611191578051825260208201915060208101905060208303925061116c565b6001836020036101000a03801982511681845116808217855250505050505090500191505060405180910390206000191660001916815260200190815260200160002060009054906101000a900460ff1615151415156111f057600080fd5b6006600082600019166000191681526020019081526020016000206000905550565b6000809054906101000a900473ffffffffffffffffffffffffffffffffffffffff1681565b60606002600083600019166000191681526020019081526020016000208054600181600116156101000203166002900480601f0160208091040260200160405190810160405280929190818152602001828054600181600116156101000203166002900480156112e85780601f106112bd576101008083540402835291602001916112e8565b820191906000526020600020905b8154815290600101906020018083116112cb57829003601f168201915b50505050509050919050565b6000809054906101000a900473ffffffffffffffffffffffffffffffffffffffff1673ffffffffffffffffffffffffffffffffffffffff163373ffffffffffffffffffffffffffffffffffffffff1614151561134f57600080fd5b600073ffffffffffffffffffffffffffffffffffffffff168273ffffffffffffffffffffffffffffffffffffffff161415151561138b57600080fd5b80600760008460405160200180807f61646d696e3a00000000000000000000000000000000000000000000000000008152506006018273ffffffffffffffffffffffffffffffffffffffff1673ffffffffffffffffffffffffffffffffffffffff166c010000000000000000000000000281526014019150506040516020818303038152906040526040518082805190602001908083835b6020831015156114485780518252602082019150602081019050602083039250611423565b6001836020036101000a03801982511681845116808217855250505050505090500191505060405180910390206000191660001916815260200190815260200160002060006101000a81548160ff0219169083151502179055508173ffffffffffffffffffffffffffffffffffffffff167f8a7039f4ea6f86a6a98d9c1efb0ea9d190f6b3fa37c32627cf48f767f51e36d582604051808215151515815260200191505060405180910390a25050565b60011515600760003360405160200180807f61646d696e3a00000000000000000000000000000000000000000000000000008152506006018273ffffffffffffffffffffffffffffffffffffffff1673ffffffffffffffffffffffffffffffffffffffff166c010000000000000000000000000281526014019150506040516020818303038152906040526040518082805190602001908083835b6020831015156115b85780518252602082019150602081019050602083039250611593565b6001836020036101000a03801982511681845116808217855250505050505090500191505060405180910390206000191660001916815260200190815260200160002060009054906101000a900460ff16151514151561161757600080fd5b8060056000846000191660001916815260200190815260200160002060006101000a81548160ff0219169083151502179055505050565b6000600160008360001916600019168152602001908152602001600020549050919050565b60606004600083600019166000191681526020019081526020016000208054600181600116156101000203166002900480601f0160208091040260200160405190810160405280929190818152602001828054600181600116156101000203166002900480156117245780601f106116f957610100808354040283529160200191611724565b820191906000526020600020905b81548152906001019060200180831161170757829003601f168201915b50505050509050919050565b60011515600760003360405160200180807f61646d696e3a00000000000000000000000000000000000000000000000000008152506006018273ffffffffffffffffffffffffffffffffffffffff1673ffffffffffffffffffffffffffffffffffffffff166c010000000000000000000000000281526014019150506040516020818303038152906040526040518082805190602001908083835b6020831015156117f057805182526020820191506020810190506020830392506117cb565b6001836020036101000a03801982511681845116808217855250505050505090500191505060405180910390206000191660001916815260200190815260200160002060009054906101000a900460ff16151514151561184f57600080fd5b8060036000846000191660001916815260200190815260200160002060006101000a81548173ffffffffffffffffffffffffffffffffffffffff021916908373ffffffffffffffffffffffffffffffffffffffff1602179055505050565b6000600660008360001916600019168152602001908152602001600020549050919050565b60011515600760003360405160200180807f61646d696e3a00000000000000000000000000000000000000000000000000008152506006018273ffffffffffffffffffffffffffffffffffffffff1673ffffffffffffffffffffffffffffffffffffffff166c010000000000000000000000000281526014019150506040516020818303038152906040526040518082805190602001908083835b602083101515611992578051825260208201915060208101905060208303925061196d565b6001836020036101000a03801982511681845116808217855250505050505090500191505060405180910390206000191660001916815260200190815260200160002060009054906101000a900460ff1615151415156119f157600080fd5b80600160008460001916600019168152602001908152602001600020819055505050565b60011515600760003360405160200180807f61646d696e3a00000000000000000000000000000000000000000000000000008152506006018273ffffffffffffffffffffffffffffffffffffffff1673ffffffffffffffffffffffffffffffffffffffff166c010000000000000000000000000281526014019150506040516020818303038152906040526040518082805190602001908083835b602083101515611ad55780518252602082019150602081019050602083039250611ab0565b6001836020036101000a03801982511681845116808217855250505050505090500191505060405180910390206000191660001916815260200190815260200160002060009054906101000a900460ff161515141515611b3457600080fd5b6001600082600019166000191681526020019081526020016000206000905550565b600073ffffffffffffffffffffffffffffffffffffffff166000809054906101000a900473ffffffffffffffffffffffffffffffffffffffff1673ffffffffffffffffffffffffffffffffffffffff16141515611c09576000809054906101000a900473ffffffffffffffffffffffffffffffffffffffff1673ffffffffffffffffffffffffffffffffffffffff163373ffffffffffffffffffffffffffffffffffffffff16141515611c0857600080fd5b5b611c1281611d5e565b50565b60011515600760003360405160200180807f61646d696e3a00000000000000000000000000000000000000000000000000008152506006018273ffffffffffffffffffffffffffffffffffffffff1673ffffffffffffffffffffffffffffffffffffffff166c010000000000000000000000000281526014019150506040516020818303038152906040526040518082805190602001908083835b602083101515611cd55780518252602082019150602081019050602083039250611cb0565b6001836020036101000a03801982511681845116808217855250505050505090500191505060405180910390206000191660001916815260200190815260200160002060009054906101000a900460ff161515141515611d3457600080fd5b6002600082600019166000191681526020019081526020016000206000611d5b9190611fa0565b50565b600073ffffffffffffffffffffffffffffffffffffffff168173ffffffffffffffffffffffffffffffffffffffff1614151515611d9a57600080fd5b8073ffffffffffffffffffffffffffffffffffffffff166000809054906101000a900473ffffffffffffffffffffffffffffffffffffffff1673ffffffffffffffffffffffffffffffffffffffff167f8be0079c531659141344cd1fd0a4f28419497f9722a3daafe3b4186f6b6457e060405160405180910390a3806000806101000a81548173ffffffffffffffffffffffffffffffffffffffff021916908373ffffffffffffffffffffffffffffffffffffffff16021790555050565b828054600181600116156101000203166002900490600052602060002090601f016020900481019282601f10611e9957803560ff1916838001178555611ec7565b82800160010185558215611ec7579182015b82811115611ec6578235825591602001919060010190611eab565b5b509050611ed49190611fe8565b5090565b50805460018160011615610100020316600290046000825580601f10611efe5750611f1d565b601f016020900490600052602060002090810190611f1c9190611fe8565b5b50565b828054600181600116156101000203166002900490600052602060002090601f016020900481019282601f10611f6157803560ff1916838001178555611f8f565b82800160010185558215611f8f579182015b82811115611f8e578235825591602001919060010190611f73565b5b509050611f9c9190611fe8565b5090565b50805460018160011615610100020316600290046000825580601f10611fc65750611fe5565b601f016020900490600052602060002090810190611fe49190611fe8565b5b50565b61200a91905b80821115612006576000816000905550600101611fee565b5090565b905600a165627a7a72305820f7deea4bde9dda2eca8dadba7fa0deab61c5b56f615650b00444c065141887700029",
  "source": "/**\n * Created on 2018-08-13 10:14\n * @summary: key-value storage\n * @author: Chris Nguyen\n */\npragma solidity 0.4.24;\n\nimport \"./zeppelin/ownership/Ownable.sol\";\n\n\n/**\n * @title key-value storage contract\n */\ncontract BBStorage is Ownable {\n\n\n    /**** Storage Types *******/\n\n    mapping(bytes32 => uint256)    private uIntStorage;\n    mapping(bytes32 => string)     private stringStorage;\n    mapping(bytes32 => address)    private addressStorage;\n    mapping(bytes32 => bytes)      private bytesStorage;\n    mapping(bytes32 => bool)       private boolStorage;\n    mapping(bytes32 => int256)     private intStorage;\n\n    mapping(bytes32 => bool)       private admins;\n\n    event AdminAdded(address indexed admin, bool add);\n    /*** Modifiers ************/\n   \n    /// @dev Only allow access from the latest version of a contract in the network after deployment\n    modifier onlyAdminStorage() {\n        // // The owner is only allowed to set the storage upon deployment to register the initial contracts, afterwards their direct access is disabled\n        require(admins[keccak256(abi.encodePacked('admin:',msg.sender))] == true);\n        _;\n    }\n\n    /**\n     * @dev \n     * @param admin Admin of the contract\n     * @param add is true/false\n     */\n    function addAdmin(address admin, bool add) public onlyOwner {\n        require(admin!=address(0x0));\n        admins[keccak256(abi.encodePacked('admin:',admin))] = add;\n        emit AdminAdded(admin, add);\n    }\n    \n    /**** Get Methods ***********/\n\n    /// @param _key The key for the record\n    function getAddress(bytes32 _key) external view returns (address) {\n        return addressStorage[_key];\n    }\n\n    /// @param _key The key for the record\n    function getUint(bytes32 _key) external view returns (uint256) {\n        return uIntStorage[_key];\n    }\n\n    /// @param _key The key for the record\n    function getString(bytes32 _key) external view returns (string) {\n        return stringStorage[_key];\n    }\n\n    /// @param _key The key for the record\n    function getBytes(bytes32 _key) external view returns (bytes) {\n        return bytesStorage[_key];\n    }\n\n    /// @param _key The key for the record\n    function getBool(bytes32 _key) external view returns (bool) {\n        return boolStorage[_key];\n    }\n\n    /// @param _key The key for the record\n    function getInt(bytes32 _key) external view returns (int) {\n        return intStorage[_key];\n    }\n\n\n    /**** Set Methods ***********/\n\n\n    /// @param _key The key for the record\n    function setAddress(bytes32 _key, address _value) onlyAdminStorage external {\n        addressStorage[_key] = _value;\n    }\n\n    /// @param _key The key for the record\n    function setUint(bytes32 _key, uint256 _value) onlyAdminStorage external {\n        uIntStorage[_key] = _value;\n    }\n\n    /// @param _key The key for the record\n    function setString(bytes32 _key, string _value) onlyAdminStorage external {\n        stringStorage[_key] = _value;\n    }\n\n    /// @param _key The key for the record\n    function setBytes(bytes32 _key, bytes _value) onlyAdminStorage external {\n        bytesStorage[_key] = _value;\n    }\n    \n    /// @param _key The key for the record\n    function setBool(bytes32 _key, bool _value) onlyAdminStorage external {\n        boolStorage[_key] = _value;\n    }\n    \n    /// @param _key The key for the record\n    function setInt(bytes32 _key, int _value) onlyAdminStorage external {\n        intStorage[_key] = _value;\n    }\n\n\n    /**** Delete Methods ***********/\n    \n    /// @param _key The key for the record\n    function deleteAddress(bytes32 _key) onlyAdminStorage external {\n        delete addressStorage[_key];\n    }\n\n    /// @param _key The key for the record\n    function deleteUint(bytes32 _key) onlyAdminStorage external {\n        delete uIntStorage[_key];\n    }\n\n    /// @param _key The key for the record\n    function deleteString(bytes32 _key) onlyAdminStorage external {\n        delete stringStorage[_key];\n    }\n\n    /// @param _key The key for the record\n    function deleteBytes(bytes32 _key) onlyAdminStorage external {\n        delete bytesStorage[_key];\n    }\n    \n    /// @param _key The key for the record\n    function deleteBool(bytes32 _key) onlyAdminStorage external {\n        delete boolStorage[_key];\n    }\n    \n    /// @param _key The key for the record\n    function deleteInt(bytes32 _key) onlyAdminStorage external {\n        delete intStorage[_key];\n    }\n\n}",
  "sourcePath": "/Users/trantho/Code/SmartContract/tcr-demo/contracts/BBStorage.sol",
  "compiler": {
    "name": "solc",
    "version": "0.4.24+commit.e67f0147.Emscripten.clang"
  },
  "schemaVersion": "2.0.1",
  "updatedAt": "2018-11-19T06:49:12.426Z"
}