{
  "contractName": "BBTCRHelper",
  "abi": [
    {
      "constant": true,
      "inputs": [],
      "name": "bbo",
      "outputs": [
        {
          "name": "",
          "type": "address"
        }
      ],
      "payable": false,
      "stateMutability": "view",
      "type": "function"
    },
    {
      "constant": true,
      "inputs": [],
      "name": "bbs",
      "outputs": [
        {
          "name": "",
          "type": "address"
        }
      ],
      "payable": false,
      "stateMutability": "view",
      "type": "function"
    },
    {
      "constant": false,
      "inputs": [],
      "name": "renounceOwnership",
      "outputs": [],
      "payable": false,
      "stateMutability": "nonpayable",
      "type": "function"
    },
    {
      "constant": false,
      "inputs": [
        {
          "name": "BBOAddress",
          "type": "address"
        }
      ],
      "name": "setBBO",
      "outputs": [],
      "payable": false,
      "stateMutability": "nonpayable",
      "type": "function"
    },
    {
      "constant": true,
      "inputs": [],
      "name": "owner",
      "outputs": [
        {
          "name": "",
          "type": "address"
        }
      ],
      "payable": false,
      "stateMutability": "view",
      "type": "function"
    },
    {
      "constant": false,
      "inputs": [
        {
          "name": "anyToken",
          "type": "address"
        }
      ],
      "name": "emergencyERC20Drain",
      "outputs": [],
      "payable": false,
      "stateMutability": "nonpayable",
      "type": "function"
    },
    {
      "constant": false,
      "inputs": [
        {
          "name": "storageAddress",
          "type": "address"
        }
      ],
      "name": "setStorage",
      "outputs": [],
      "payable": false,
      "stateMutability": "nonpayable",
      "type": "function"
    },
    {
      "constant": false,
      "inputs": [
        {
          "name": "_newOwner",
          "type": "address"
        }
      ],
      "name": "transferOwnership",
      "outputs": [],
      "payable": false,
      "stateMutability": "nonpayable",
      "type": "function"
    },
    {
      "anonymous": false,
      "inputs": [
        {
          "indexed": true,
          "name": "owner",
          "type": "address"
        },
        {
          "indexed": true,
          "name": "listID",
          "type": "uint256"
        },
        {
          "indexed": true,
          "name": "tokenAddress",
          "type": "address"
        },
        {
          "indexed": false,
          "name": "nameHash",
          "type": "bytes"
        }
      ],
      "name": "CreateListID",
      "type": "event"
    },
    {
      "anonymous": false,
      "inputs": [
        {
          "indexed": true,
          "name": "previousOwner",
          "type": "address"
        }
      ],
      "name": "OwnershipRenounced",
      "type": "event"
    },
    {
      "anonymous": false,
      "inputs": [
        {
          "indexed": true,
          "name": "previousOwner",
          "type": "address"
        },
        {
          "indexed": true,
          "name": "newOwner",
          "type": "address"
        }
      ],
      "name": "OwnershipTransferred",
      "type": "event"
    },
    {
      "constant": false,
      "inputs": [
        {
          "name": "nameHash",
          "type": "bytes"
        },
        {
          "name": "tokenAddress",
          "type": "address"
        }
      ],
      "name": "createListID",
      "outputs": [],
      "payable": false,
      "stateMutability": "nonpayable",
      "type": "function"
    },
    {
      "constant": false,
      "inputs": [
        {
          "name": "listID",
          "type": "uint256"
        },
        {
          "name": "tokenAddress",
          "type": "address"
        }
      ],
      "name": "updateToken",
      "outputs": [],
      "payable": false,
      "stateMutability": "nonpayable",
      "type": "function"
    },
    {
      "constant": true,
      "inputs": [
        {
          "name": "listID",
          "type": "uint256"
        }
      ],
      "name": "getToken",
      "outputs": [
        {
          "name": "",
          "type": "address"
        }
      ],
      "payable": false,
      "stateMutability": "view",
      "type": "function"
    },
    {
      "constant": true,
      "inputs": [
        {
          "name": "pollID",
          "type": "uint256"
        }
      ],
      "name": "getListID",
      "outputs": [
        {
          "name": "",
          "type": "uint256"
        }
      ],
      "payable": false,
      "stateMutability": "view",
      "type": "function"
    },
    {
      "constant": false,
      "inputs": [
        {
          "name": "listID",
          "type": "uint256"
        },
        {
          "name": "applicationDuration",
          "type": "uint256"
        },
        {
          "name": "commitDuration",
          "type": "uint256"
        },
        {
          "name": "revealDuration",
          "type": "uint256"
        },
        {
          "name": "minStake",
          "type": "uint256"
        },
        {
          "name": "initQuorum",
          "type": "uint256"
        },
        {
          "name": "exitDuration",
          "type": "uint256"
        }
      ],
      "name": "setParams",
      "outputs": [],
      "payable": false,
      "stateMutability": "nonpayable",
      "type": "function"
    },
    {
      "constant": true,
      "inputs": [
        {
          "name": "listID",
          "type": "uint256"
        }
      ],
      "name": "getListParams",
      "outputs": [
        {
          "name": "applicationDuration",
          "type": "uint256"
        },
        {
          "name": "commitDuration",
          "type": "uint256"
        },
        {
          "name": "revealDuration",
          "type": "uint256"
        },
        {
          "name": "minStake",
          "type": "uint256"
        }
      ],
      "payable": false,
      "stateMutability": "view",
      "type": "function"
    },
    {
      "constant": true,
      "inputs": [
        {
          "name": "listID",
          "type": "uint256"
        },
        {
          "name": "itemHash",
          "type": "bytes32"
        }
      ],
      "name": "getStakedBalance",
      "outputs": [
        {
          "name": "",
          "type": "uint256"
        }
      ],
      "payable": false,
      "stateMutability": "view",
      "type": "function"
    },
    {
      "constant": true,
      "inputs": [
        {
          "name": "listID",
          "type": "uint256"
        },
        {
          "name": "itemHash",
          "type": "bytes32"
        }
      ],
      "name": "getItemStage",
      "outputs": [
        {
          "name": "",
          "type": "uint256"
        }
      ],
      "payable": false,
      "stateMutability": "view",
      "type": "function"
    },
    {
      "constant": true,
      "inputs": [
        {
          "name": "listID",
          "type": "uint256"
        },
        {
          "name": "itemHash",
          "type": "bytes32"
        },
        {
          "name": "sender",
          "type": "address"
        }
      ],
      "name": "isOwnerItem",
      "outputs": [
        {
          "name": "r",
          "type": "bool"
        }
      ],
      "payable": false,
      "stateMutability": "view",
      "type": "function"
    },
    {
      "constant": true,
      "inputs": [
        {
          "name": "listID",
          "type": "uint256"
        },
        {
          "name": "itemHash",
          "type": "bytes32"
        },
        {
          "name": "sender",
          "type": "address"
        }
      ],
      "name": "canApply",
      "outputs": [
        {
          "name": "r",
          "type": "bool"
        }
      ],
      "payable": false,
      "stateMutability": "view",
      "type": "function"
    },
    {
      "constant": true,
      "inputs": [
        {
          "name": "listID",
          "type": "uint256"
        },
        {
          "name": "stakedToken",
          "type": "uint256"
        }
      ],
      "name": "calcRewardPool",
      "outputs": [
        {
          "name": "",
          "type": "uint256"
        }
      ],
      "payable": false,
      "stateMutability": "view",
      "type": "function"
    },
    {
      "constant": true,
      "inputs": [
        {
          "name": "listID",
          "type": "uint256"
        },
        {
          "name": "itemHash",
          "type": "bytes32"
        }
      ],
      "name": "canBeWhitelisted",
      "outputs": [
        {
          "name": "",
          "type": "bool"
        }
      ],
      "payable": false,
      "stateMutability": "view",
      "type": "function"
    },
    {
      "constant": true,
      "inputs": [
        {
          "name": "listID",
          "type": "uint256"
        },
        {
          "name": "itemHash",
          "type": "bytes32"
        }
      ],
      "name": "isWhitelisted",
      "outputs": [
        {
          "name": "whitelisted",
          "type": "bool"
        }
      ],
      "payable": false,
      "stateMutability": "view",
      "type": "function"
    }
  ],
  "bytecode": "0x60806040526000600160006101000a81548173ffffffffffffffffffffffffffffffffffffffff021916908373ffffffffffffffffffffffffffffffffffffffff1602179055506000600260006101000a81548173ffffffffffffffffffffffffffffffffffffffff021916908373ffffffffffffffffffffffffffffffffffffffff160217905550336000806101000a81548173ffffffffffffffffffffffffffffffffffffffff021916908373ffffffffffffffffffffffffffffffffffffffff16021790555061346e806100d76000396000f30060806040526004361061011d576000357c0100000000000000000000000000000000000000000000000000000000900463ffffffff168063093077ee146101225780631995532c1461016d5780631e89bf06146101e05780631fde23a414610237578063385d5c2e1461028e57806353dfb1be146103175780636909fd4414610364578063715018a6146103b75780637937f46d146103ce5780637a177bb1146104115780637dd16521146104525780638da5cb5b146104a157806390e8d82f146104f85780639137c1a71461053b578063ba63e25a1461057e578063ce1c4556146105d1578063e4b50cb81461063a578063e996ee88146106a7578063eea81e9d146106f6578063f2fde38b14610769578063f489d46b146107ac575b600080fd5b34801561012e57600080fd5b506101576004803603810190808035906020019092919080359060200190929190505050610802565b6040518082815260200191505060405180910390f35b34801561017957600080fd5b506101c6600480360381019080803590602001909291908035600019169060200190929190803573ffffffffffffffffffffffffffffffffffffffff169060200190929190505050610991565b604051808215151515815260200191505060405180910390f35b3480156101ec57600080fd5b506101f5610b51565b604051808273ffffffffffffffffffffffffffffffffffffffff1673ffffffffffffffffffffffffffffffffffffffff16815260200191505060405180910390f35b34801561024357600080fd5b5061024c610b77565b604051808273ffffffffffffffffffffffffffffffffffffffff1673ffffffffffffffffffffffffffffffffffffffff16815260200191505060405180910390f35b34801561029a57600080fd5b50610315600480360381019080803590602001908201803590602001908080601f0160208091040260200160405190810160405280939291908181526020018383808284378201915050505050509192919290803573ffffffffffffffffffffffffffffffffffffffff169060200190929190505050610b9d565b005b34801561032357600080fd5b5061036260048036038101908080359060200190929190803573ffffffffffffffffffffffffffffffffffffffff169060200190929190505050610ee5565b005b34801561037057600080fd5b5061039d6004803603810190808035906020019092919080356000191690602001909291905050506110c3565b604051808215151515815260200191505060405180910390f35b3480156103c357600080fd5b506103cc611216565b005b3480156103da57600080fd5b5061040f600480360381019080803573ffffffffffffffffffffffffffffffffffffffff169060200190929190505050611318565b005b34801561041d57600080fd5b5061043c600480360381019080803590602001909291905050506113b7565b6040518082815260200191505060405180910390f35b34801561045e57600080fd5b5061048b6004803603810190808035906020019092919080356000191690602001909291905050506114d2565b6040518082815260200191505060405180910390f35b3480156104ad57600080fd5b506104b6611625565b604051808273ffffffffffffffffffffffffffffffffffffffff1673ffffffffffffffffffffffffffffffffffffffff16815260200191505060405180910390f35b34801561050457600080fd5b50610539600480360381019080803573ffffffffffffffffffffffffffffffffffffffff16906020019092919050505061164a565b005b34801561054757600080fd5b5061057c600480360381019080803573ffffffffffffffffffffffffffffffffffffffff16906020019092919050505061195e565b005b34801561058a57600080fd5b506105b76004803603810190808035906020019092919080356000191690602001909291905050506119fd565b604051808215151515815260200191505060405180910390f35b3480156105dd57600080fd5b5061063860048036038101908080359060200190929190803590602001909291908035906020019092919080359060200190929190803590602001909291908035906020019092919080359060200190929190505050611ce1565b005b34801561064657600080fd5b5061066560048036038101908080359060200190929190505050612453565b604051808273ffffffffffffffffffffffffffffffffffffffff1673ffffffffffffffffffffffffffffffffffffffff16815260200191505060405180910390f35b3480156106b357600080fd5b506106e06004803603810190808035906020019092919080356000191690602001909291905050506125a4565b6040518082815260200191505060405180910390f35b34801561070257600080fd5b5061074f600480360381019080803590602001909291908035600019169060200190929190803573ffffffffffffffffffffffffffffffffffffffff1690602001909291905050506126f7565b604051808215151515815260200191505060405180910390f35b34801561077557600080fd5b506107aa600480360381019080803573ffffffffffffffffffffffffffffffffffffffff1690602001909291905050506128b5565b005b3480156107b857600080fd5b506107d760048036038101908080359060200190929190505050612974565b6040518085815260200184815260200183815260200182815260200194505050505060405180910390f35b60008060649050610988606461097a8561096c600160009054906101000a900473ffffffffffffffffffffffffffffffffffffffff1673ffffffffffffffffffffffffffffffffffffffff1663bd02d0f56108c86040805190810160405280600381526020017f54435200000000000000000000000000000000000000000000000000000000008152508c6040805190810160405280600c81526020017f4c4f53455f50455243454e540000000000000000000000000000000000000000815250612ea9565b6040518263ffffffff167c0100000000000000000000000000000000000000000000000000000000028152600401808260001916600019168152602001915050602060405180830381600087803b15801561092257600080fd5b505af1158015610936573d6000803e3d6000fd5b505050506040513d602081101561094c57600080fd5b810190808051906020019092919050505086612fe090919063ffffffff16565b612ff990919063ffffffff16565b61303190919063ffffffff16565b91505092915050565b600080600160009054906101000a900473ffffffffffffffffffffffffffffffffffffffff1673ffffffffffffffffffffffffffffffffffffffff166321f8a721610a486040805190810160405280600381526020017f544352000000000000000000000000000000000000000000000000000000000081525088886040805190810160405280600581526020017f4f574e4552000000000000000000000000000000000000000000000000000000815250613047565b6040518263ffffffff167c0100000000000000000000000000000000000000000000000000000000028152600401808260001916600019168152602001915050602060405180830381600087803b158015610aa257600080fd5b505af1158015610ab6573d6000803e3d6000fd5b505050506040513d6020811015610acc57600080fd5b810190808051906020019092919050505090508273ffffffffffffffffffffffffffffffffffffffff168173ffffffffffffffffffffffffffffffffffffffff16148015610b475750600073ffffffffffffffffffffffffffffffffffffffff168173ffffffffffffffffffffffffffffffffffffffff1614155b9150509392505050565b600260009054906101000a900473ffffffffffffffffffffffffffffffffffffffff1681565b600160009054906101000a900473ffffffffffffffffffffffffffffffffffffffff1681565b60008060009054906101000a900473ffffffffffffffffffffffffffffffffffffffff1673ffffffffffffffffffffffffffffffffffffffff163373ffffffffffffffffffffffffffffffffffffffff16141515610bfa57600080fd5b600160009054906101000a900473ffffffffffffffffffffffffffffffffffffffff1673ffffffffffffffffffffffffffffffffffffffff1663bd02d0f5610c766040805190810160405280600b81526020017f5443525f4c4953545f494400000000000000000000000000000000000000000081525061318f565b6040518263ffffffff167c0100000000000000000000000000000000000000000000000000000000028152600401808260001916600019168152602001915050602060405180830381600087803b158015610cd057600080fd5b505af1158015610ce4573d6000803e3d6000fd5b505050506040513d6020811015610cfa57600080fd5b810190808051906020019092919050505090508080600101915050600160009054906101000a900473ffffffffffffffffffffffffffffffffffffffff1673ffffffffffffffffffffffffffffffffffffffff1663e2a4853a610d916040805190810160405280600b81526020017f5443525f4c4953545f494400000000000000000000000000000000000000000081525061318f565b836040518363ffffffff167c010000000000000000000000000000000000000000000000000000000002815260040180836000191660001916815260200182815260200192505050600060405180830381600087803b158015610df357600080fd5b505af1158015610e07573d6000803e3d6000fd5b50505050610e158183610ee5565b8173ffffffffffffffffffffffffffffffffffffffff16813373ffffffffffffffffffffffffffffffffffffffff167ffa3aba74ddbb8a0596a89ada2d707e08209725877767f34ce93595c65d9b53e8866040518080602001828103825283818151815260200191508051906020019080838360005b83811015610ea6578082015181840152602081019050610e8b565b50505050905090810190601f168015610ed35780820380516001836020036101000a031916815260200191505b509250505060405180910390a4505050565b6000809054906101000a900473ffffffffffffffffffffffffffffffffffffffff1673ffffffffffffffffffffffffffffffffffffffff163373ffffffffffffffffffffffffffffffffffffffff16141515610f4057600080fd5b60008173ffffffffffffffffffffffffffffffffffffffff1614151515610f6657600080fd5b600160009054906101000a900473ffffffffffffffffffffffffffffffffffffffff1673ffffffffffffffffffffffffffffffffffffffff1663ca446dd96110196040805190810160405280600381526020017f5443520000000000000000000000000000000000000000000000000000000000815250856040805190810160405280600581526020017f544f4b454e000000000000000000000000000000000000000000000000000000815250612ea9565b836040518363ffffffff167c01000000000000000000000000000000000000000000000000000000000281526004018083600019166000191681526020018273ffffffffffffffffffffffffffffffffffffffff1673ffffffffffffffffffffffffffffffffffffffff16815260200192505050600060405180830381600087803b1580156110a757600080fd5b505af11580156110bb573d6000803e3d6000fd5b505050505050565b6000600160009054906101000a900473ffffffffffffffffffffffffffffffffffffffff1673ffffffffffffffffffffffffffffffffffffffff16637ae1cfca6111796040805190810160405280600381526020017f544352000000000000000000000000000000000000000000000000000000000081525086866040805190810160405280600c81526020017f57484954455f4c49535445440000000000000000000000000000000000000000815250613047565b6040518263ffffffff167c0100000000000000000000000000000000000000000000000000000000028152600401808260001916600019168152602001915050602060405180830381600087803b1580156111d357600080fd5b505af11580156111e7573d6000803e3d6000fd5b505050506040513d60208110156111fd57600080fd5b8101908080519060200190929190505050905092915050565b6000809054906101000a900473ffffffffffffffffffffffffffffffffffffffff1673ffffffffffffffffffffffffffffffffffffffff163373ffffffffffffffffffffffffffffffffffffffff1614151561127157600080fd5b6000809054906101000a900473ffffffffffffffffffffffffffffffffffffffff1673ffffffffffffffffffffffffffffffffffffffff167ff8df31144d9c2f0f6b59d69b8b98abd5459d07f2742c4df920b25aae33c6482060405160405180910390a260008060006101000a81548173ffffffffffffffffffffffffffffffffffffffff021916908373ffffffffffffffffffffffffffffffffffffffff160217905550565b6000809054906101000a900473ffffffffffffffffffffffffffffffffffffffff1673ffffffffffffffffffffffffffffffffffffffff163373ffffffffffffffffffffffffffffffffffffffff1614151561137357600080fd5b80600260006101000a81548173ffffffffffffffffffffffffffffffffffffffff021916908373ffffffffffffffffffffffffffffffffffffffff16021790555050565b6000600160009054906101000a900473ffffffffffffffffffffffffffffffffffffffff1673ffffffffffffffffffffffffffffffffffffffff1663bd02d0f56114366040805190810160405280601581526020017f5443525f4d415050494e475f504f4c4c5f4c495354000000000000000000000081525085613267565b6040518263ffffffff167c0100000000000000000000000000000000000000000000000000000000028152600401808260001916600019168152602001915050602060405180830381600087803b15801561149057600080fd5b505af11580156114a4573d6000803e3d6000fd5b505050506040513d60208110156114ba57600080fd5b81019080805190602001909291905050509050919050565b6000600160009054906101000a900473ffffffffffffffffffffffffffffffffffffffff1673ffffffffffffffffffffffffffffffffffffffff1663bd02d0f56115886040805190810160405280600381526020017f544352000000000000000000000000000000000000000000000000000000000081525086866040805190810160405280600681526020017f5354414b45440000000000000000000000000000000000000000000000000000815250613047565b6040518263ffffffff167c0100000000000000000000000000000000000000000000000000000000028152600401808260001916600019168152602001915050602060405180830381600087803b1580156115e257600080fd5b505af11580156115f6573d6000803e3d6000fd5b505050506040513d602081101561160c57600080fd5b8101908080519060200190929190505050905092915050565b6000809054906101000a900473ffffffffffffffffffffffffffffffffffffffff1681565b6000809054906101000a900473ffffffffffffffffffffffffffffffffffffffff1673ffffffffffffffffffffffffffffffffffffffff163373ffffffffffffffffffffffffffffffffffffffff161415156116a557600080fd5b60003073ffffffffffffffffffffffffffffffffffffffff16311115611745576000809054906101000a900473ffffffffffffffffffffffffffffffffffffffff1673ffffffffffffffffffffffffffffffffffffffff166108fc3073ffffffffffffffffffffffffffffffffffffffff16319081150290604051600060405180830381858888f19350505050158015611743573d6000803e3d6000fd5b505b600073ffffffffffffffffffffffffffffffffffffffff168173ffffffffffffffffffffffffffffffffffffffff1614151561195b578073ffffffffffffffffffffffffffffffffffffffff1663a9059cbb6000809054906101000a900473ffffffffffffffffffffffffffffffffffffffff168373ffffffffffffffffffffffffffffffffffffffff166370a08231306040518263ffffffff167c0100000000000000000000000000000000000000000000000000000000028152600401808273ffffffffffffffffffffffffffffffffffffffff1673ffffffffffffffffffffffffffffffffffffffff168152602001915050602060405180830381600087803b15801561185457600080fd5b505af1158015611868573d6000803e3d6000fd5b505050506040513d602081101561187e57600080fd5b81019080805190602001909291905050506040518363ffffffff167c0100000000000000000000000000000000000000000000000000000000028152600401808373ffffffffffffffffffffffffffffffffffffffff1673ffffffffffffffffffffffffffffffffffffffff16815260200182815260200192505050602060405180830381600087803b15801561191457600080fd5b505af1158015611928573d6000803e3d6000fd5b505050506040513d602081101561193e57600080fd5b8101908080519060200190929190505050151561195a57600080fd5b5b50565b6000809054906101000a900473ffffffffffffffffffffffffffffffffffffffff1673ffffffffffffffffffffffffffffffffffffffff163373ffffffffffffffffffffffffffffffffffffffff161415156119b957600080fd5b80600160006101000a81548173ffffffffffffffffffffffffffffffffffffffff021916908373ffffffffffffffffffffffffffffffffffffffff16021790555050565b6000806000600160009054906101000a900473ffffffffffffffffffffffffffffffffffffffff1673ffffffffffffffffffffffffffffffffffffffff1663bd02d0f5611ab66040805190810160405280600381526020017f544352000000000000000000000000000000000000000000000000000000000081525088886040805190810160405280601381526020017f4150504c49434154494f4e5f454e4454494d4500000000000000000000000000815250613047565b6040518263ffffffff167c0100000000000000000000000000000000000000000000000000000000028152600401808260001916600019168152602001915050602060405180830381600087803b158015611b1057600080fd5b505af1158015611b24573d6000803e3d6000fd5b505050506040513d6020811015611b3a57600080fd5b81019080805190602001909291905050509150600160009054906101000a900473ffffffffffffffffffffffffffffffffffffffff1673ffffffffffffffffffffffffffffffffffffffff1663bd02d0f5611c016040805190810160405280600381526020017f544352000000000000000000000000000000000000000000000000000000000081525088886040805190810160405280600581526020017f5354414745000000000000000000000000000000000000000000000000000000815250613047565b6040518263ffffffff167c0100000000000000000000000000000000000000000000000000000000028152600401808260001916600019168152602001915050602060405180830381600087803b158015611c5b57600080fd5b505af1158015611c6f573d6000803e3d6000fd5b505050506040513d6020811015611c8557600080fd5b81019080805190602001909291905050509050600082118015611ca757504282105b8015611cb35750600181145b8015611cc65750611cc485856110c3565b155b15611cd45760019250611cd9565b600092505b505092915050565b6000809054906101000a900473ffffffffffffffffffffffffffffffffffffffff1673ffffffffffffffffffffffffffffffffffffffff163373ffffffffffffffffffffffffffffffffffffffff16141515611d3c57600080fd5b600160009054906101000a900473ffffffffffffffffffffffffffffffffffffffff1673ffffffffffffffffffffffffffffffffffffffff1663e2a4853a611def6040805190810160405280600381526020017f54435200000000000000000000000000000000000000000000000000000000008152508a6040805190810160405280601481526020017f4150504c49434154494f4e5f4455524154494f4e000000000000000000000000815250612ea9565b886040518363ffffffff167c010000000000000000000000000000000000000000000000000000000002815260040180836000191660001916815260200182815260200192505050600060405180830381600087803b158015611e5157600080fd5b505af1158015611e65573d6000803e3d6000fd5b50505050600160009054906101000a900473ffffffffffffffffffffffffffffffffffffffff1673ffffffffffffffffffffffffffffffffffffffff1663e2a4853a611f1c6040805190810160405280600381526020017f54435200000000000000000000000000000000000000000000000000000000008152508a6040805190810160405280600f81526020017f434f4d4d49545f4455524154494f4e0000000000000000000000000000000000815250612ea9565b876040518363ffffffff167c010000000000000000000000000000000000000000000000000000000002815260040180836000191660001916815260200182815260200192505050600060405180830381600087803b158015611f7e57600080fd5b505af1158015611f92573d6000803e3d6000fd5b50505050600160009054906101000a900473ffffffffffffffffffffffffffffffffffffffff1673ffffffffffffffffffffffffffffffffffffffff1663e2a4853a6120496040805190810160405280600381526020017f54435200000000000000000000000000000000000000000000000000000000008152508a6040805190810160405280600f81526020017f52455645414c5f4455524154494f4e0000000000000000000000000000000000815250612ea9565b866040518363ffffffff167c010000000000000000000000000000000000000000000000000000000002815260040180836000191660001916815260200182815260200192505050600060405180830381600087803b1580156120ab57600080fd5b505af11580156120bf573d6000803e3d6000fd5b50505050600160009054906101000a900473ffffffffffffffffffffffffffffffffffffffff1673ffffffffffffffffffffffffffffffffffffffff1663e2a4853a6121766040805190810160405280600381526020017f54435200000000000000000000000000000000000000000000000000000000008152508a6040805190810160405280600981526020017f4d494e5f5354414b450000000000000000000000000000000000000000000000815250612ea9565b856040518363ffffffff167c010000000000000000000000000000000000000000000000000000000002815260040180836000191660001916815260200182815260200192505050600060405180830381600087803b1580156121d857600080fd5b505af11580156121ec573d6000803e3d6000fd5b50505050600160009054906101000a900473ffffffffffffffffffffffffffffffffffffffff1673ffffffffffffffffffffffffffffffffffffffff1663e2a4853a6122a36040805190810160405280600381526020017f54435200000000000000000000000000000000000000000000000000000000008152508a6040805190810160405280600681526020017f51554f52554d0000000000000000000000000000000000000000000000000000815250612ea9565b846040518363ffffffff167c010000000000000000000000000000000000000000000000000000000002815260040180836000191660001916815260200182815260200192505050600060405180830381600087803b15801561230557600080fd5b505af1158015612319573d6000803e3d6000fd5b50505050600160009054906101000a900473ffffffffffffffffffffffffffffffffffffffff1673ffffffffffffffffffffffffffffffffffffffff1663e2a4853a6123d06040805190810160405280600381526020017f54435200000000000000000000000000000000000000000000000000000000008152508a6040805190810160405280600c81526020017f455849544455524154494f4e0000000000000000000000000000000000000000815250612ea9565b836040518363ffffffff167c010000000000000000000000000000000000000000000000000000000002815260040180836000191660001916815260200182815260200192505050600060405180830381600087803b15801561243257600080fd5b505af1158015612446573d6000803e3d6000fd5b5050505050505050505050565b6000600160009054906101000a900473ffffffffffffffffffffffffffffffffffffffff1673ffffffffffffffffffffffffffffffffffffffff166321f8a7216125086040805190810160405280600381526020017f5443520000000000000000000000000000000000000000000000000000000000815250856040805190810160405280600581526020017f544f4b454e000000000000000000000000000000000000000000000000000000815250612ea9565b6040518263ffffffff167c0100000000000000000000000000000000000000000000000000000000028152600401808260001916600019168152602001915050602060405180830381600087803b15801561256257600080fd5b505af1158015612576573d6000803e3d6000fd5b505050506040513d602081101561258c57600080fd5b81019080805190602001909291905050509050919050565b6000600160009054906101000a900473ffffffffffffffffffffffffffffffffffffffff1673ffffffffffffffffffffffffffffffffffffffff1663bd02d0f561265a6040805190810160405280600381526020017f544352000000000000000000000000000000000000000000000000000000000081525086866040805190810160405280600581526020017f5354414745000000000000000000000000000000000000000000000000000000815250613047565b6040518263ffffffff167c0100000000000000000000000000000000000000000000000000000000028152600401808260001916600019168152602001915050602060405180830381600087803b1580156126b457600080fd5b505af11580156126c8573d6000803e3d6000fd5b505050506040513d60208110156126de57600080fd5b8101908080519060200190929190505050905092915050565b600080600160009054906101000a900473ffffffffffffffffffffffffffffffffffffffff1673ffffffffffffffffffffffffffffffffffffffff166321f8a7216127ae6040805190810160405280600381526020017f544352000000000000000000000000000000000000000000000000000000000081525088886040805190810160405280600581526020017f4f574e4552000000000000000000000000000000000000000000000000000000815250613047565b6040518263ffffffff167c0100000000000000000000000000000000000000000000000000000000028152600401808260001916600019168152602001915050602060405180830381600087803b15801561280857600080fd5b505af115801561281c573d6000803e3d6000fd5b505050506040513d602081101561283257600080fd5b810190808051906020019092919050505090508273ffffffffffffffffffffffffffffffffffffffff168173ffffffffffffffffffffffffffffffffffffffff1614806128ab5750600073ffffffffffffffffffffffffffffffffffffffff168173ffffffffffffffffffffffffffffffffffffffff16145b9150509392505050565b600073ffffffffffffffffffffffffffffffffffffffff166000809054906101000a900473ffffffffffffffffffffffffffffffffffffffff1673ffffffffffffffffffffffffffffffffffffffff16141515612968576000809054906101000a900473ffffffffffffffffffffffffffffffffffffffff1673ffffffffffffffffffffffffffffffffffffffff163373ffffffffffffffffffffffffffffffffffffffff1614151561296757600080fd5b5b61297181613348565b50565b600080600080600160009054906101000a900473ffffffffffffffffffffffffffffffffffffffff1673ffffffffffffffffffffffffffffffffffffffff1663bd02d0f5612a2d6040805190810160405280600381526020017f5443520000000000000000000000000000000000000000000000000000000000815250886040805190810160405280601481526020017f4150504c49434154494f4e5f4455524154494f4e000000000000000000000000815250612ea9565b6040518263ffffffff167c0100000000000000000000000000000000000000000000000000000000028152600401808260001916600019168152602001915050602060405180830381600087803b158015612a8757600080fd5b505af1158015612a9b573d6000803e3d6000fd5b505050506040513d6020811015612ab157600080fd5b81019080805190602001909291905050509350600160009054906101000a900473ffffffffffffffffffffffffffffffffffffffff1673ffffffffffffffffffffffffffffffffffffffff1663bd02d0f5612b776040805190810160405280600381526020017f5443520000000000000000000000000000000000000000000000000000000000815250886040805190810160405280600f81526020017f434f4d4d49545f4455524154494f4e0000000000000000000000000000000000815250612ea9565b6040518263ffffffff167c0100000000000000000000000000000000000000000000000000000000028152600401808260001916600019168152602001915050602060405180830381600087803b158015612bd157600080fd5b505af1158015612be5573d6000803e3d6000fd5b505050506040513d6020811015612bfb57600080fd5b81019080805190602001909291905050509250600160009054906101000a900473ffffffffffffffffffffffffffffffffffffffff1673ffffffffffffffffffffffffffffffffffffffff1663bd02d0f5612cc16040805190810160405280600381526020017f5443520000000000000000000000000000000000000000000000000000000000815250886040805190810160405280600f81526020017f52455645414c5f4455524154494f4e0000000000000000000000000000000000815250612ea9565b6040518263ffffffff167c0100000000000000000000000000000000000000000000000000000000028152600401808260001916600019168152602001915050602060405180830381600087803b158015612d1b57600080fd5b505af1158015612d2f573d6000803e3d6000fd5b505050506040513d6020811015612d4557600080fd5b81019080805190602001909291905050509150600160009054906101000a900473ffffffffffffffffffffffffffffffffffffffff1673ffffffffffffffffffffffffffffffffffffffff1663bd02d0f5612e0b6040805190810160405280600381526020017f5443520000000000000000000000000000000000000000000000000000000000815250886040805190810160405280600981526020017f4d494e5f5354414b450000000000000000000000000000000000000000000000815250612ea9565b6040518263ffffffff167c0100000000000000000000000000000000000000000000000000000000028152600401808260001916600019168152602001915050602060405180830381600087803b158015612e6557600080fd5b505af1158015612e79573d6000803e3d6000fd5b505050506040513d6020811015612e8f57600080fd5b810190808051906020019092919050505090509193509193565b60008383836040516020018084805190602001908083835b602083101515612ee65780518252602082019150602081019050602083039250612ec1565b6001836020036101000a03801982511681845116808217855250505050505090500183815260200182805190602001908083835b602083101515612f3f5780518252602082019150602081019050602083039250612f1a565b6001836020036101000a03801982511681845116808217855250505050505090500193505050506040516020818303038152906040526040518082805190602001908083835b602083101515612faa5780518252602082019150602081019050602083039250612f85565b6001836020036101000a038019825116818451168082178552505050505050905001915050604051809103902090509392505050565b6000828211151515612fee57fe5b818303905092915050565b60008083141561300c576000905061302b565b818302905081838281151561301d57fe5b0414151561302757fe5b8090505b92915050565b6000818381151561303e57fe5b04905092915050565b6000848484846040516020018085805190602001908083835b6020831015156130855780518252602082019150602081019050602083039250613060565b6001836020036101000a038019825116818451168082178552505050505050905001848152602001836000191660001916815260200182805190602001908083835b6020831015156130ec57805182526020820191506020810190506020830392506130c7565b6001836020036101000a0380198251168184511680821785525050505050509050019450505050506040516020818303038152906040526040518082805190602001908083835b6020831015156131585780518252602082019150602081019050602083039250613133565b6001836020036101000a03801982511681845116808217855250505050505090500191505060405180910390209050949350505050565b6000816040516020018082805190602001908083835b6020831015156131ca57805182526020820191506020810190506020830392506131a5565b6001836020036101000a0380198251168184511680821785525050505050509050019150506040516020818303038152906040526040518082805190602001908083835b602083101515613233578051825260208201915060208101905060208303925061320e565b6001836020036101000a03801982511681845116808217855250505050505090500191505060405180910390209050919050565b600082826040516020018083805190602001908083835b6020831015156132a3578051825260208201915060208101905060208303925061327e565b6001836020036101000a038019825116818451168082178552505050505050905001828152602001925050506040516020818303038152906040526040518082805190602001908083835b60208310151561331357805182526020820191506020810190506020830392506132ee565b6001836020036101000a0380198251168184511680821785525050505050509050019150506040518091039020905092915050565b600073ffffffffffffffffffffffffffffffffffffffff168173ffffffffffffffffffffffffffffffffffffffff161415151561338457600080fd5b8073ffffffffffffffffffffffffffffffffffffffff166000809054906101000a900473ffffffffffffffffffffffffffffffffffffffff1673ffffffffffffffffffffffffffffffffffffffff167f8be0079c531659141344cd1fd0a4f28419497f9722a3daafe3b4186f6b6457e060405160405180910390a3806000806101000a81548173ffffffffffffffffffffffffffffffffffffffff021916908373ffffffffffffffffffffffffffffffffffffffff160217905550505600a165627a7a7230582042783213b2c278cbed49a289f04f3f1bd69b4a38a2216f38aa62c18a70861add0029",
  "source": "pragma solidity ^0.4.24;\n\nimport './BBStandard.sol';\nimport './BBLib.sol';\n\n\n\ncontract BBTCRHelper is BBStandard {\n\n    event CreateListID(address indexed owner, uint256 indexed listID, address indexed tokenAddress, bytes nameHash);\n\n    function createListID(bytes nameHash, address tokenAddress) onlyOwner public {\n        uint256 listID = bbs.getUint(BBLib.toB32('TCR_LIST_ID'));\n        listID++;\n        bbs.setUint(BBLib.toB32('TCR_LIST_ID'), listID);\n        updateToken(listID,tokenAddress);\n\n        emit CreateListID(msg.sender, listID, tokenAddress, nameHash);\n    }\n\n    function updateToken(uint256 listID, address tokenAddress)  onlyOwner public { \n        require(tokenAddress != 0x0);\n        bbs.setAddress(BBLib.toB32('TCR', listID, 'TOKEN'),tokenAddress);\n    }\n\n    function getToken(uint256 listID) public constant returns (address) {\n        return bbs.getAddress(BBLib.toB32('TCR', listID, 'TOKEN'));\n    } \n\n    function getListID(uint256 pollID) public constant returns(uint256){\n        return bbs.getUint(BBLib.toB32('TCR_MAPPING_POLL_LIST', pollID));\n    }\n\n\n    function setParams(uint256 listID, uint256 applicationDuration, uint256 commitDuration, uint256 revealDuration, uint256 minStake, uint256 initQuorum, uint256 exitDuration) onlyOwner public  {\n        bbs.setUint(BBLib.toB32('TCR', listID, 'APPLICATION_DURATION'), applicationDuration);\n        bbs.setUint(BBLib.toB32('TCR', listID, 'COMMIT_DURATION'), commitDuration);\n        bbs.setUint(BBLib.toB32('TCR', listID, 'REVEAL_DURATION'), revealDuration);\n        bbs.setUint(BBLib.toB32('TCR', listID, 'MIN_STAKE'), minStake);\n        bbs.setUint(BBLib.toB32('TCR', listID, 'QUORUM'), initQuorum);\n        bbs.setUint(BBLib.toB32('TCR', listID, 'EXITDURATION'), exitDuration);\n    }\n\n\n    function getListParams(uint256 listID) public view returns(uint256 applicationDuration, uint256 commitDuration, uint256 revealDuration, uint256 minStake){\n        applicationDuration = bbs.getUint(BBLib.toB32('TCR', listID, 'APPLICATION_DURATION'));\n        commitDuration = bbs.getUint(BBLib.toB32('TCR', listID, 'COMMIT_DURATION'));\n        revealDuration = bbs.getUint(BBLib.toB32('TCR', listID, 'REVEAL_DURATION'));\n        minStake = bbs.getUint(BBLib.toB32('TCR', listID, 'MIN_STAKE'));\n    }\n\n    function getStakedBalance(uint256 listID, bytes32 itemHash) public constant returns (uint256) {\n        return  bbs.getUint(BBLib.toB32('TCR', listID, itemHash, 'STAKED'));\n    }\n\n    function getItemStage(uint256 listID, bytes32 itemHash) public constant returns (uint256) {\n        return  bbs.getUint(BBLib.toB32('TCR',listID, itemHash,'STAGE'));\n    }\n\n    function isOwnerItem(uint256 listID, bytes32 itemHash, address sender) public constant returns (bool r){\n        address owner = bbs.getAddress(BBLib.toB32('TCR',listID, itemHash, 'OWNER'));\n         r = (owner == sender && owner != address(0x0));\n    }\n\n    function canApply(uint256 listID, bytes32 itemHash, address sender) public constant returns (bool r){\n        address owner = bbs.getAddress(BBLib.toB32('TCR',listID, itemHash, 'OWNER'));\n         r = (owner == sender || owner == address(0x0));\n    }\n    function calcRewardPool(uint256 listID, uint256 stakedToken) public constant returns(uint256){\n        uint oneHundred = 100; \n        return (oneHundred.sub(bbs.getUint(BBLib.toB32('TCR', listID, 'LOSE_PERCENT')))\n            .mul(stakedToken)).div(100);\n    }\n    function canBeWhitelisted(uint256 listID, bytes32 itemHash) view public returns (bool) {\n        uint256 applicationEndtime = bbs.getUint(BBLib.toB32('TCR', listID, itemHash, 'APPLICATION_ENDTIME'));\n        uint256 stage = bbs.getUint(BBLib.toB32('TCR',listID, itemHash,'STAGE'));\n        if(applicationEndtime > 0 && applicationEndtime < now && stage == 1 && !isWhitelisted(listID, itemHash)){\n            return true;\n        }\n        return false;\n    }\n    function isWhitelisted(uint256 listID, bytes32 itemHash) view public returns (bool whitelisted) {\n        return bbs.getBool(BBLib.toB32('TCR',listID, itemHash,'WHITE_LISTED'));\n    }\n\n}\n",
  "sourcePath": "/Users/yena/Documents/tuongnguyen/bigbom-digital-contract/src/contracts/BBTCRHelper.sol",
  "compiler": {
    "name": "solc",
    "version": "0.4.24+commit.e67f0147.Emscripten.clang"
  },
  "schemaVersion": "2.0.1",
  "updatedAt": "2018-11-27T01:20:59.963Z"
}