{
  "contractName": "BBTCRHelper",
  "abi": [
    {
      "constant": true,
      "inputs": [],
      "name": "bbo",
      "outputs": [
        {
          "name": "",
          "type": "address"
        }
      ],
      "payable": false,
      "stateMutability": "view",
      "type": "function"
    },
    {
      "constant": true,
      "inputs": [],
      "name": "bbs",
      "outputs": [
        {
          "name": "",
          "type": "address"
        }
      ],
      "payable": false,
      "stateMutability": "view",
      "type": "function"
    },
    {
      "constant": false,
      "inputs": [],
      "name": "renounceOwnership",
      "outputs": [],
      "payable": false,
      "stateMutability": "nonpayable",
      "type": "function"
    },
    {
      "constant": false,
      "inputs": [
        {
          "name": "BBOAddress",
          "type": "address"
        }
      ],
      "name": "setBBO",
      "outputs": [],
      "payable": false,
      "stateMutability": "nonpayable",
      "type": "function"
    },
    {
      "constant": true,
      "inputs": [],
      "name": "owner",
      "outputs": [
        {
          "name": "",
          "type": "address"
        }
      ],
      "payable": false,
      "stateMutability": "view",
      "type": "function"
    },
    {
      "constant": false,
      "inputs": [
        {
          "name": "anyToken",
          "type": "address"
        }
      ],
      "name": "emergencyERC20Drain",
      "outputs": [],
      "payable": false,
      "stateMutability": "nonpayable",
      "type": "function"
    },
    {
      "constant": false,
      "inputs": [
        {
          "name": "storageAddress",
          "type": "address"
        }
      ],
      "name": "setStorage",
      "outputs": [],
      "payable": false,
      "stateMutability": "nonpayable",
      "type": "function"
    },
    {
      "constant": false,
      "inputs": [
        {
          "name": "_newOwner",
          "type": "address"
        }
      ],
      "name": "transferOwnership",
      "outputs": [],
      "payable": false,
      "stateMutability": "nonpayable",
      "type": "function"
    },
    {
      "anonymous": false,
      "inputs": [
        {
          "indexed": true,
          "name": "previousOwner",
          "type": "address"
        }
      ],
      "name": "OwnershipRenounced",
      "type": "event"
    },
    {
      "anonymous": false,
      "inputs": [
        {
          "indexed": true,
          "name": "previousOwner",
          "type": "address"
        },
        {
          "indexed": true,
          "name": "newOwner",
          "type": "address"
        }
      ],
      "name": "OwnershipTransferred",
      "type": "event"
    },
    {
      "constant": false,
      "inputs": [
        {
          "name": "listID",
          "type": "uint256"
        },
        {
          "name": "applicationDuration",
          "type": "uint256"
        },
        {
          "name": "commitDuration",
          "type": "uint256"
        },
        {
          "name": "revealDuration",
          "type": "uint256"
        },
        {
          "name": "minStake",
          "type": "uint256"
        },
        {
          "name": "initQuorum",
          "type": "uint256"
        },
        {
          "name": "exitDuration",
          "type": "uint256"
        }
      ],
      "name": "setParamsUnOrdered",
      "outputs": [],
      "payable": false,
      "stateMutability": "nonpayable",
      "type": "function"
    },
    {
      "constant": true,
      "inputs": [
        {
          "name": "listID",
          "type": "uint256"
        }
      ],
      "name": "getListParamsUnOrdered",
      "outputs": [
        {
          "name": "applicationDuration",
          "type": "uint256"
        },
        {
          "name": "commitDuration",
          "type": "uint256"
        },
        {
          "name": "revealDuration",
          "type": "uint256"
        },
        {
          "name": "minStake",
          "type": "uint256"
        }
      ],
      "payable": false,
      "stateMutability": "view",
      "type": "function"
    },
    {
      "constant": true,
      "inputs": [
        {
          "name": "listID",
          "type": "uint256"
        },
        {
          "name": "itemHash",
          "type": "bytes32"
        }
      ],
      "name": "getStakedBalanceUnOrdered",
      "outputs": [
        {
          "name": "",
          "type": "uint256"
        }
      ],
      "payable": false,
      "stateMutability": "view",
      "type": "function"
    }
  ],
  "bytecode": "0x60806040526000600160006101000a81548173ffffffffffffffffffffffffffffffffffffffff021916908373ffffffffffffffffffffffffffffffffffffffff1602179055506000600260006101000a81548173ffffffffffffffffffffffffffffffffffffffff021916908373ffffffffffffffffffffffffffffffffffffffff160217905550336000806101000a81548173ffffffffffffffffffffffffffffffffffffffff021916908373ffffffffffffffffffffffffffffffffffffffff160217905550611d3a806100d76000396000f3006080604052600436106100af576000357c0100000000000000000000000000000000000000000000000000000000900463ffffffff1680631e89bf06146100b45780631fde23a41461010b57806344ab7e6f14610162578063715018a6146101cb5780637937f46d146101e25780638da5cb5b1461022557806390e8d82f1461027c5780639137c1a7146102bf578063e092e85f14610302578063e40cc35914610351578063f2fde38b146103a7575b600080fd5b3480156100c057600080fd5b506100c96103ea565b604051808273ffffffffffffffffffffffffffffffffffffffff1673ffffffffffffffffffffffffffffffffffffffff16815260200191505060405180910390f35b34801561011757600080fd5b50610120610410565b604051808273ffffffffffffffffffffffffffffffffffffffff1673ffffffffffffffffffffffffffffffffffffffff16815260200191505060405180910390f35b34801561016e57600080fd5b506101c960048036038101908080359060200190929190803590602001909291908035906020019092919080359060200190929190803590602001909291908035906020019092919080359060200190929190505050610436565b005b3480156101d757600080fd5b506101e0610cd5565b005b3480156101ee57600080fd5b50610223600480360381019080803573ffffffffffffffffffffffffffffffffffffffff169060200190929190505050610dd7565b005b34801561023157600080fd5b5061023a610e76565b604051808273ffffffffffffffffffffffffffffffffffffffff1673ffffffffffffffffffffffffffffffffffffffff16815260200191505060405180910390f35b34801561028857600080fd5b506102bd600480360381019080803573ffffffffffffffffffffffffffffffffffffffff169060200190929190505050610e9b565b005b3480156102cb57600080fd5b50610300600480360381019080803573ffffffffffffffffffffffffffffffffffffffff1690602001909291905050506111af565b005b34801561030e57600080fd5b5061033b60048036038101908080359060200190929190803560001916906020019092919050505061124e565b6040518082815260200191505060405180910390f35b34801561035d57600080fd5b5061037c600480360381019080803590602001909291905050506113a1565b6040518085815260200184815260200183815260200182815260200194505050505060405180910390f35b3480156103b357600080fd5b506103e8600480360381019080803573ffffffffffffffffffffffffffffffffffffffff1690602001909291905050506118d6565b005b600260009054906101000a900473ffffffffffffffffffffffffffffffffffffffff1681565b600160009054906101000a900473ffffffffffffffffffffffffffffffffffffffff1681565b6000809054906101000a900473ffffffffffffffffffffffffffffffffffffffff1673ffffffffffffffffffffffffffffffffffffffff163373ffffffffffffffffffffffffffffffffffffffff1614151561049157600080fd5b600160009054906101000a900473ffffffffffffffffffffffffffffffffffffffff1673ffffffffffffffffffffffffffffffffffffffff1663e2a4853a6105446040805190810160405280600381526020017f54435200000000000000000000000000000000000000000000000000000000008152508a6040805190810160405280601481526020017f4150504c49434154494f4e5f4455524154494f4e000000000000000000000000815250611995565b886040518363ffffffff167c010000000000000000000000000000000000000000000000000000000002815260040180836000191660001916815260200182815260200192505050600060405180830381600087803b1580156105a657600080fd5b505af11580156105ba573d6000803e3d6000fd5b50505050600160009054906101000a900473ffffffffffffffffffffffffffffffffffffffff1673ffffffffffffffffffffffffffffffffffffffff1663e2a4853a6106716040805190810160405280600381526020017f54435200000000000000000000000000000000000000000000000000000000008152508a6040805190810160405280600f81526020017f434f4d4d49545f4455524154494f4e0000000000000000000000000000000000815250611995565b876040518363ffffffff167c010000000000000000000000000000000000000000000000000000000002815260040180836000191660001916815260200182815260200192505050600060405180830381600087803b1580156106d357600080fd5b505af11580156106e7573d6000803e3d6000fd5b50505050600160009054906101000a900473ffffffffffffffffffffffffffffffffffffffff1673ffffffffffffffffffffffffffffffffffffffff1663e2a4853a61079e6040805190810160405280600381526020017f54435200000000000000000000000000000000000000000000000000000000008152508a6040805190810160405280600f81526020017f52455645414c5f4455524154494f4e0000000000000000000000000000000000815250611995565b866040518363ffffffff167c010000000000000000000000000000000000000000000000000000000002815260040180836000191660001916815260200182815260200192505050600060405180830381600087803b15801561080057600080fd5b505af1158015610814573d6000803e3d6000fd5b50505050600160009054906101000a900473ffffffffffffffffffffffffffffffffffffffff1673ffffffffffffffffffffffffffffffffffffffff1663e2a4853a6108cb6040805190810160405280600381526020017f54435200000000000000000000000000000000000000000000000000000000008152508a6040805190810160405280600981526020017f4d494e5f5354414b450000000000000000000000000000000000000000000000815250611995565b856040518363ffffffff167c010000000000000000000000000000000000000000000000000000000002815260040180836000191660001916815260200182815260200192505050600060405180830381600087803b15801561092d57600080fd5b505af1158015610941573d6000803e3d6000fd5b50505050600160009054906101000a900473ffffffffffffffffffffffffffffffffffffffff1673ffffffffffffffffffffffffffffffffffffffff1663e2a4853a6109f86040805190810160405280600381526020017f54435200000000000000000000000000000000000000000000000000000000008152508a6040805190810160405280600981526020017f4d494e5f5354414b450000000000000000000000000000000000000000000000815250611995565b856040518363ffffffff167c010000000000000000000000000000000000000000000000000000000002815260040180836000191660001916815260200182815260200192505050600060405180830381600087803b158015610a5a57600080fd5b505af1158015610a6e573d6000803e3d6000fd5b50505050600160009054906101000a900473ffffffffffffffffffffffffffffffffffffffff1673ffffffffffffffffffffffffffffffffffffffff1663e2a4853a610b256040805190810160405280600381526020017f54435200000000000000000000000000000000000000000000000000000000008152508a6040805190810160405280600681526020017f51554f52554d0000000000000000000000000000000000000000000000000000815250611995565b846040518363ffffffff167c010000000000000000000000000000000000000000000000000000000002815260040180836000191660001916815260200182815260200192505050600060405180830381600087803b158015610b8757600080fd5b505af1158015610b9b573d6000803e3d6000fd5b50505050600160009054906101000a900473ffffffffffffffffffffffffffffffffffffffff1673ffffffffffffffffffffffffffffffffffffffff1663e2a4853a610c526040805190810160405280600381526020017f54435200000000000000000000000000000000000000000000000000000000008152508a6040805190810160405280600c81526020017f455849544455524154494f4e0000000000000000000000000000000000000000815250611995565b836040518363ffffffff167c010000000000000000000000000000000000000000000000000000000002815260040180836000191660001916815260200182815260200192505050600060405180830381600087803b158015610cb457600080fd5b505af1158015610cc8573d6000803e3d6000fd5b5050505050505050505050565b6000809054906101000a900473ffffffffffffffffffffffffffffffffffffffff1673ffffffffffffffffffffffffffffffffffffffff163373ffffffffffffffffffffffffffffffffffffffff16141515610d3057600080fd5b6000809054906101000a900473ffffffffffffffffffffffffffffffffffffffff1673ffffffffffffffffffffffffffffffffffffffff167ff8df31144d9c2f0f6b59d69b8b98abd5459d07f2742c4df920b25aae33c6482060405160405180910390a260008060006101000a81548173ffffffffffffffffffffffffffffffffffffffff021916908373ffffffffffffffffffffffffffffffffffffffff160217905550565b6000809054906101000a900473ffffffffffffffffffffffffffffffffffffffff1673ffffffffffffffffffffffffffffffffffffffff163373ffffffffffffffffffffffffffffffffffffffff16141515610e3257600080fd5b80600260006101000a81548173ffffffffffffffffffffffffffffffffffffffff021916908373ffffffffffffffffffffffffffffffffffffffff16021790555050565b6000809054906101000a900473ffffffffffffffffffffffffffffffffffffffff1681565b6000809054906101000a900473ffffffffffffffffffffffffffffffffffffffff1673ffffffffffffffffffffffffffffffffffffffff163373ffffffffffffffffffffffffffffffffffffffff16141515610ef657600080fd5b60003073ffffffffffffffffffffffffffffffffffffffff16311115610f96576000809054906101000a900473ffffffffffffffffffffffffffffffffffffffff1673ffffffffffffffffffffffffffffffffffffffff166108fc3073ffffffffffffffffffffffffffffffffffffffff16319081150290604051600060405180830381858888f19350505050158015610f94573d6000803e3d6000fd5b505b600073ffffffffffffffffffffffffffffffffffffffff168173ffffffffffffffffffffffffffffffffffffffff161415156111ac578073ffffffffffffffffffffffffffffffffffffffff1663a9059cbb6000809054906101000a900473ffffffffffffffffffffffffffffffffffffffff168373ffffffffffffffffffffffffffffffffffffffff166370a08231306040518263ffffffff167c0100000000000000000000000000000000000000000000000000000000028152600401808273ffffffffffffffffffffffffffffffffffffffff1673ffffffffffffffffffffffffffffffffffffffff168152602001915050602060405180830381600087803b1580156110a557600080fd5b505af11580156110b9573d6000803e3d6000fd5b505050506040513d60208110156110cf57600080fd5b81019080805190602001909291905050506040518363ffffffff167c0100000000000000000000000000000000000000000000000000000000028152600401808373ffffffffffffffffffffffffffffffffffffffff1673ffffffffffffffffffffffffffffffffffffffff16815260200182815260200192505050602060405180830381600087803b15801561116557600080fd5b505af1158015611179573d6000803e3d6000fd5b505050506040513d602081101561118f57600080fd5b810190808051906020019092919050505015156111ab57600080fd5b5b50565b6000809054906101000a900473ffffffffffffffffffffffffffffffffffffffff1673ffffffffffffffffffffffffffffffffffffffff163373ffffffffffffffffffffffffffffffffffffffff1614151561120a57600080fd5b80600160006101000a81548173ffffffffffffffffffffffffffffffffffffffff021916908373ffffffffffffffffffffffffffffffffffffffff16021790555050565b6000600160009054906101000a900473ffffffffffffffffffffffffffffffffffffffff1673ffffffffffffffffffffffffffffffffffffffff1663bd02d0f56113046040805190810160405280600381526020017f544352000000000000000000000000000000000000000000000000000000000081525086866040805190810160405280600681526020017f5354414b45440000000000000000000000000000000000000000000000000000815250611acc565b6040518263ffffffff167c0100000000000000000000000000000000000000000000000000000000028152600401808260001916600019168152602001915050602060405180830381600087803b15801561135e57600080fd5b505af1158015611372573d6000803e3d6000fd5b505050506040513d602081101561138857600080fd5b8101908080519060200190929190505050905092915050565b600080600080600160009054906101000a900473ffffffffffffffffffffffffffffffffffffffff1673ffffffffffffffffffffffffffffffffffffffff1663bd02d0f561145a6040805190810160405280600381526020017f5443520000000000000000000000000000000000000000000000000000000000815250886040805190810160405280601481526020017f4150504c49434154494f4e5f4455524154494f4e000000000000000000000000815250611995565b6040518263ffffffff167c0100000000000000000000000000000000000000000000000000000000028152600401808260001916600019168152602001915050602060405180830381600087803b1580156114b457600080fd5b505af11580156114c8573d6000803e3d6000fd5b505050506040513d60208110156114de57600080fd5b81019080805190602001909291905050509350600160009054906101000a900473ffffffffffffffffffffffffffffffffffffffff1673ffffffffffffffffffffffffffffffffffffffff1663bd02d0f56115a46040805190810160405280600381526020017f5443520000000000000000000000000000000000000000000000000000000000815250886040805190810160405280600f81526020017f434f4d4d49545f4455524154494f4e0000000000000000000000000000000000815250611995565b6040518263ffffffff167c0100000000000000000000000000000000000000000000000000000000028152600401808260001916600019168152602001915050602060405180830381600087803b1580156115fe57600080fd5b505af1158015611612573d6000803e3d6000fd5b505050506040513d602081101561162857600080fd5b81019080805190602001909291905050509250600160009054906101000a900473ffffffffffffffffffffffffffffffffffffffff1673ffffffffffffffffffffffffffffffffffffffff1663bd02d0f56116ee6040805190810160405280600381526020017f5443520000000000000000000000000000000000000000000000000000000000815250886040805190810160405280600f81526020017f52455645414c5f4455524154494f4e0000000000000000000000000000000000815250611995565b6040518263ffffffff167c0100000000000000000000000000000000000000000000000000000000028152600401808260001916600019168152602001915050602060405180830381600087803b15801561174857600080fd5b505af115801561175c573d6000803e3d6000fd5b505050506040513d602081101561177257600080fd5b81019080805190602001909291905050509150600160009054906101000a900473ffffffffffffffffffffffffffffffffffffffff1673ffffffffffffffffffffffffffffffffffffffff1663bd02d0f56118386040805190810160405280600381526020017f5443520000000000000000000000000000000000000000000000000000000000815250886040805190810160405280600981526020017f4d494e5f5354414b450000000000000000000000000000000000000000000000815250611995565b6040518263ffffffff167c0100000000000000000000000000000000000000000000000000000000028152600401808260001916600019168152602001915050602060405180830381600087803b15801561189257600080fd5b505af11580156118a6573d6000803e3d6000fd5b505050506040513d60208110156118bc57600080fd5b810190808051906020019092919050505090509193509193565b600073ffffffffffffffffffffffffffffffffffffffff166000809054906101000a900473ffffffffffffffffffffffffffffffffffffffff1673ffffffffffffffffffffffffffffffffffffffff16141515611989576000809054906101000a900473ffffffffffffffffffffffffffffffffffffffff1673ffffffffffffffffffffffffffffffffffffffff163373ffffffffffffffffffffffffffffffffffffffff1614151561198857600080fd5b5b61199281611c14565b50565b60008383836040516020018084805190602001908083835b6020831015156119d257805182526020820191506020810190506020830392506119ad565b6001836020036101000a03801982511681845116808217855250505050505090500183815260200182805190602001908083835b602083101515611a2b5780518252602082019150602081019050602083039250611a06565b6001836020036101000a03801982511681845116808217855250505050505090500193505050506040516020818303038152906040526040518082805190602001908083835b602083101515611a965780518252602082019150602081019050602083039250611a71565b6001836020036101000a038019825116818451168082178552505050505050905001915050604051809103902090509392505050565b6000848484846040516020018085805190602001908083835b602083101515611b0a5780518252602082019150602081019050602083039250611ae5565b6001836020036101000a038019825116818451168082178552505050505050905001848152602001836000191660001916815260200182805190602001908083835b602083101515611b715780518252602082019150602081019050602083039250611b4c565b6001836020036101000a0380198251168184511680821785525050505050509050019450505050506040516020818303038152906040526040518082805190602001908083835b602083101515611bdd5780518252602082019150602081019050602083039250611bb8565b6001836020036101000a03801982511681845116808217855250505050505090500191505060405180910390209050949350505050565b600073ffffffffffffffffffffffffffffffffffffffff168173ffffffffffffffffffffffffffffffffffffffff1614151515611c5057600080fd5b8073ffffffffffffffffffffffffffffffffffffffff166000809054906101000a900473ffffffffffffffffffffffffffffffffffffffff1673ffffffffffffffffffffffffffffffffffffffff167f8be0079c531659141344cd1fd0a4f28419497f9722a3daafe3b4186f6b6457e060405160405180910390a3806000806101000a81548173ffffffffffffffffffffffffffffffffffffffff021916908373ffffffffffffffffffffffffffffffffffffffff160217905550505600a165627a7a7230582007ec96aa1e172f09406eebd20972586464b8c5aa7cd6a6bfa9db251de7a734400029",
  "source": "pragma solidity ^0.4.24;\n\nimport './BBStandard.sol';\nimport './BBLib.sol';\n\n\n\ncontract BBTCRHelper is BBStandard {\n\n    function setParamsUnOrdered(uint256 listID, uint256 applicationDuration, uint256 commitDuration, uint256 revealDuration, uint256 minStake, uint256 initQuorum, uint256 exitDuration) onlyOwner public  {\n        bbs.setUint(BBLib.toB32('TCR', listID, 'APPLICATION_DURATION'), applicationDuration);\n        bbs.setUint(BBLib.toB32('TCR', listID, 'COMMIT_DURATION'), commitDuration);\n        bbs.setUint(BBLib.toB32('TCR', listID, 'REVEAL_DURATION'), revealDuration);\n        bbs.setUint(BBLib.toB32('TCR', listID, 'MIN_STAKE'), minStake);\n        bbs.setUint(BBLib.toB32('TCR', listID, 'MIN_STAKE'), minStake);\n        bbs.setUint(BBLib.toB32('TCR', listID, 'QUORUM'), initQuorum);\n        bbs.setUint(BBLib.toB32('TCR', listID, 'EXITDURATION'), exitDuration);\n\n    }\n\n    function getListParamsUnOrdered(uint256 listID) public view returns(uint256 applicationDuration, uint256 commitDuration, uint256 revealDuration, uint256 minStake){\n        applicationDuration = bbs.getUint(BBLib.toB32('TCR', listID, 'APPLICATION_DURATION'));\n        commitDuration = bbs.getUint(BBLib.toB32('TCR', listID, 'COMMIT_DURATION'));\n        revealDuration = bbs.getUint(BBLib.toB32('TCR', listID, 'REVEAL_DURATION'));\n        minStake = bbs.getUint(BBLib.toB32('TCR', listID, 'MIN_STAKE'));\n    }\n\n    function getStakedBalanceUnOrdered(uint256 listID, bytes32 itemHash) public constant returns (uint256) {\n        return  bbs.getUint(BBLib.toB32('TCR', listID, itemHash, 'STAKED'));\n    }\n\n}\n",
  "sourcePath": "/Users/trantho/Code/SmartContract/digital-contracts/src/contracts/BBTCRHelper.sol",
  "compiler": {
    "name": "solc",
    "version": "0.4.24+commit.e67f0147.Emscripten.clang"
  },
  "schemaVersion": "2.0.1",
  "updatedAt": "2018-11-13T03:47:25.643Z"
}