{
  "contractName": "BBUnOrderedTCR",
  "abi": [
    {
      "constant": true,
      "inputs": [],
      "name": "tcrHelper",
      "outputs": [
        {
          "name": "",
          "type": "address"
        }
      ],
      "payable": false,
      "stateMutability": "view",
      "type": "function"
    },
    {
      "constant": true,
      "inputs": [],
      "name": "bbo",
      "outputs": [
        {
          "name": "",
          "type": "address"
        }
      ],
      "payable": false,
      "stateMutability": "view",
      "type": "function"
    },
    {
      "constant": true,
      "inputs": [],
      "name": "bbs",
      "outputs": [
        {
          "name": "",
          "type": "address"
        }
      ],
      "payable": false,
      "stateMutability": "view",
      "type": "function"
    },
    {
      "constant": true,
      "inputs": [],
      "name": "votingHelper",
      "outputs": [
        {
          "name": "",
          "type": "address"
        }
      ],
      "payable": false,
      "stateMutability": "view",
      "type": "function"
    },
    {
      "constant": false,
      "inputs": [],
      "name": "renounceOwnership",
      "outputs": [],
      "payable": false,
      "stateMutability": "nonpayable",
      "type": "function"
    },
    {
      "constant": false,
      "inputs": [
        {
          "name": "BBOAddress",
          "type": "address"
        }
      ],
      "name": "setBBO",
      "outputs": [],
      "payable": false,
      "stateMutability": "nonpayable",
      "type": "function"
    },
    {
      "constant": true,
      "inputs": [],
      "name": "owner",
      "outputs": [
        {
          "name": "",
          "type": "address"
        }
      ],
      "payable": false,
      "stateMutability": "view",
      "type": "function"
    },
    {
      "constant": false,
      "inputs": [
        {
          "name": "anyToken",
          "type": "address"
        }
      ],
      "name": "emergencyERC20Drain",
      "outputs": [],
      "payable": false,
      "stateMutability": "nonpayable",
      "type": "function"
    },
    {
      "constant": false,
      "inputs": [
        {
          "name": "storageAddress",
          "type": "address"
        }
      ],
      "name": "setStorage",
      "outputs": [],
      "payable": false,
      "stateMutability": "nonpayable",
      "type": "function"
    },
    {
      "constant": false,
      "inputs": [
        {
          "name": "_newOwner",
          "type": "address"
        }
      ],
      "name": "transferOwnership",
      "outputs": [],
      "payable": false,
      "stateMutability": "nonpayable",
      "type": "function"
    },
    {
      "constant": true,
      "inputs": [],
      "name": "voting",
      "outputs": [
        {
          "name": "",
          "type": "address"
        }
      ],
      "payable": false,
      "stateMutability": "view",
      "type": "function"
    },
    {
      "anonymous": false,
      "inputs": [
        {
          "indexed": true,
          "name": "listID",
          "type": "uint256"
        },
        {
          "indexed": true,
          "name": "itemHash",
          "type": "bytes32"
        },
        {
          "indexed": false,
          "name": "data",
          "type": "bytes"
        }
      ],
      "name": "ItemApplied",
      "type": "event"
    },
    {
      "anonymous": false,
      "inputs": [
        {
          "indexed": true,
          "name": "listID",
          "type": "uint256"
        },
        {
          "indexed": true,
          "name": "itemHash",
          "type": "bytes32"
        },
        {
          "indexed": false,
          "name": "pollID",
          "type": "uint256"
        },
        {
          "indexed": false,
          "name": "sender",
          "type": "address"
        }
      ],
      "name": "Challenge",
      "type": "event"
    },
    {
      "anonymous": false,
      "inputs": [
        {
          "indexed": true,
          "name": "previousOwner",
          "type": "address"
        }
      ],
      "name": "OwnershipRenounced",
      "type": "event"
    },
    {
      "anonymous": false,
      "inputs": [
        {
          "indexed": true,
          "name": "previousOwner",
          "type": "address"
        },
        {
          "indexed": true,
          "name": "newOwner",
          "type": "address"
        }
      ],
      "name": "OwnershipTransferred",
      "type": "event"
    },
    {
      "constant": false,
      "inputs": [
        {
          "name": "p",
          "type": "address"
        }
      ],
      "name": "setVoting",
      "outputs": [],
      "payable": false,
      "stateMutability": "nonpayable",
      "type": "function"
    },
    {
      "constant": false,
      "inputs": [
        {
          "name": "p",
          "type": "address"
        }
      ],
      "name": "setVotingHelper",
      "outputs": [],
      "payable": false,
      "stateMutability": "nonpayable",
      "type": "function"
    },
    {
      "constant": false,
      "inputs": [
        {
          "name": "p",
          "type": "address"
        }
      ],
      "name": "setTCRHelper",
      "outputs": [],
      "payable": false,
      "stateMutability": "nonpayable",
      "type": "function"
    },
    {
      "constant": true,
      "inputs": [
        {
          "name": "listID",
          "type": "uint256"
        }
      ],
      "name": "getERC20",
      "outputs": [
        {
          "name": "",
          "type": "address"
        }
      ],
      "payable": false,
      "stateMutability": "view",
      "type": "function"
    },
    {
      "constant": false,
      "inputs": [
        {
          "name": "listID",
          "type": "uint256"
        },
        {
          "name": "itemHash",
          "type": "bytes32"
        },
        {
          "name": "amount",
          "type": "uint256"
        }
      ],
      "name": "depositToken",
      "outputs": [
        {
          "name": "",
          "type": "bool"
        }
      ],
      "payable": false,
      "stateMutability": "nonpayable",
      "type": "function"
    },
    {
      "constant": false,
      "inputs": [
        {
          "name": "listID",
          "type": "uint256"
        },
        {
          "name": "amount",
          "type": "uint256"
        },
        {
          "name": "itemHash",
          "type": "bytes32"
        },
        {
          "name": "data",
          "type": "bytes"
        }
      ],
      "name": "apply",
      "outputs": [],
      "payable": false,
      "stateMutability": "nonpayable",
      "type": "function"
    },
    {
      "constant": false,
      "inputs": [
        {
          "name": "listID",
          "type": "uint256"
        },
        {
          "name": "itemHash",
          "type": "bytes32"
        },
        {
          "name": "_amount",
          "type": "uint256"
        }
      ],
      "name": "withdraw",
      "outputs": [],
      "payable": false,
      "stateMutability": "nonpayable",
      "type": "function"
    },
    {
      "constant": false,
      "inputs": [
        {
          "name": "listID",
          "type": "uint256"
        },
        {
          "name": "itemHash",
          "type": "bytes32"
        }
      ],
      "name": "initExit",
      "outputs": [],
      "payable": false,
      "stateMutability": "nonpayable",
      "type": "function"
    },
    {
      "constant": false,
      "inputs": [
        {
          "name": "listID",
          "type": "uint256"
        },
        {
          "name": "itemHash",
          "type": "bytes32"
        }
      ],
      "name": "finalizeExit",
      "outputs": [],
      "payable": false,
      "stateMutability": "nonpayable",
      "type": "function"
    },
    {
      "constant": false,
      "inputs": [
        {
          "name": "listID",
          "type": "uint256"
        },
        {
          "name": "itemHash",
          "type": "bytes32"
        },
        {
          "name": "_data",
          "type": "bytes"
        }
      ],
      "name": "challenge",
      "outputs": [
        {
          "name": "pollID",
          "type": "uint256"
        }
      ],
      "payable": false,
      "stateMutability": "nonpayable",
      "type": "function"
    },
    {
      "constant": false,
      "inputs": [
        {
          "name": "listID",
          "type": "uint256"
        },
        {
          "name": "itemHash",
          "type": "bytes32"
        }
      ],
      "name": "updateStatus",
      "outputs": [],
      "payable": false,
      "stateMutability": "nonpayable",
      "type": "function"
    },
    {
      "constant": false,
      "inputs": [
        {
          "name": "pollID",
          "type": "uint256"
        }
      ],
      "name": "claimReward",
      "outputs": [],
      "payable": false,
      "stateMutability": "nonpayable",
      "type": "function"
    },
    {
      "constant": true,
      "inputs": [
        {
          "name": "voter",
          "type": "address"
        },
        {
          "name": "pollID",
          "type": "uint256"
        }
      ],
      "name": "voterReward",
      "outputs": [
        {
          "name": "numReward",
          "type": "uint256"
        }
      ],
      "payable": false,
      "stateMutability": "view",
      "type": "function"
    },
    {
      "constant": true,
      "inputs": [
        {
          "name": "listID",
          "type": "uint256"
        },
        {
          "name": "itemHash",
          "type": "bytes32"
        }
      ],
      "name": "challengeCanBeResolved",
      "outputs": [
        {
          "name": "",
          "type": "bool"
        }
      ],
      "payable": false,
      "stateMutability": "view",
      "type": "function"
    },
    {
      "constant": true,
      "inputs": [
        {
          "name": "pollID",
          "type": "uint256"
        }
      ],
      "name": "determineReward",
      "outputs": [
        {
          "name": "",
          "type": "uint256"
        }
      ],
      "payable": false,
      "stateMutability": "view",
      "type": "function"
    }
  ],
  "bytecode": "0x60806040526000600160006101000a81548173ffffffffffffffffffffffffffffffffffffffff021916908373ffffffffffffffffffffffffffffffffffffffff1602179055506000600260006101000a81548173ffffffffffffffffffffffffffffffffffffffff021916908373ffffffffffffffffffffffffffffffffffffffff1602179055506000600360006101000a81548173ffffffffffffffffffffffffffffffffffffffff021916908373ffffffffffffffffffffffffffffffffffffffff1602179055506000600460006101000a81548173ffffffffffffffffffffffffffffffffffffffff021916908373ffffffffffffffffffffffffffffffffffffffff1602179055506000600560006101000a81548173ffffffffffffffffffffffffffffffffffffffff021916908373ffffffffffffffffffffffffffffffffffffffff160217905550336000806101000a81548173ffffffffffffffffffffffffffffffffffffffff021916908373ffffffffffffffffffffffffffffffffffffffff160217905550615dc48061019d6000396000f300608060405260043610610154576000357c0100000000000000000000000000000000000000000000000000000000900463ffffffff1680630149ae4b1461015957806306ab34cf146101945780631b9680f1146101cf5780631e89bf06146102265780631fde23a41461027d57806343dc798b146102d457806344d1ef3b1461032b57806345e971bf1461036e578063536e2c75146103a95780636b095ca1146103fc5780636fd3db8614610487578063715018a6146104cc5780637937f46d146104e357806382f72858146105265780638da5cb5b1461059357806390e8d82f146105ea5780639137c1a71461062d578063a0fcd16114610670578063ab0ba5d4146106cd578063ae169a5014610734578063bd0ae40514610761578063c4d07951146107c2578063c8187cf114610805578063e193289f14610846578063f2fde38b14610889578063fce1ccca146108cc575b600080fd5b34801561016557600080fd5b50610192600480360381019080803590602001909291908035600019169060200190929190505050610923565b005b3480156101a057600080fd5b506101cd600480360381019080803590602001909291908035600019169060200190929190505050610e24565b005b3480156101db57600080fd5b506101e4611328565b604051808273ffffffffffffffffffffffffffffffffffffffff1673ffffffffffffffffffffffffffffffffffffffff16815260200191505060405180910390f35b34801561023257600080fd5b5061023b61134e565b604051808273ffffffffffffffffffffffffffffffffffffffff1673ffffffffffffffffffffffffffffffffffffffff16815260200191505060405180910390f35b34801561028957600080fd5b50610292611374565b604051808273ffffffffffffffffffffffffffffffffffffffff1673ffffffffffffffffffffffffffffffffffffffff16815260200191505060405180910390f35b3480156102e057600080fd5b506102e961139a565b604051808273ffffffffffffffffffffffffffffffffffffffff1673ffffffffffffffffffffffffffffffffffffffff16815260200191505060405180910390f35b34801561033757600080fd5b5061036c600480360381019080803573ffffffffffffffffffffffffffffffffffffffff1690602001909291905050506113c0565b005b34801561037a57600080fd5b506103a760048036038101908080359060200190929190803560001916906020019092919050505061145f565b005b3480156103b557600080fd5b506103e2600480360381019080803590602001909291908035600019169060200190929190505050611577565b604051808215151515815260200191505060405180910390f35b34801561040857600080fd5b5061048560048036038101908080359060200190929190803590602001909291908035600019169060200190929190803590602001908201803590602001908080601f0160208091040260200160405190810160405280939291908181526020018383808284378201915050505050509192919290505050611928565b005b34801561049357600080fd5b506104ca60048036038101908080359060200190929190803560001916906020019092919080359060200190929190505050611fbc565b005b3480156104d857600080fd5b506104e161255a565b005b3480156104ef57600080fd5b50610524600480360381019080803573ffffffffffffffffffffffffffffffffffffffff16906020019092919050505061265c565b005b34801561053257600080fd5b50610551600480360381019080803590602001909291905050506126fb565b604051808273ffffffffffffffffffffffffffffffffffffffff1673ffffffffffffffffffffffffffffffffffffffff16815260200191505060405180910390f35b34801561059f57600080fd5b506105a86127d0565b604051808273ffffffffffffffffffffffffffffffffffffffff1673ffffffffffffffffffffffffffffffffffffffff16815260200191505060405180910390f35b3480156105f657600080fd5b5061062b600480360381019080803573ffffffffffffffffffffffffffffffffffffffff1690602001909291905050506127f5565b005b34801561063957600080fd5b5061066e600480360381019080803573ffffffffffffffffffffffffffffffffffffffff169060200190929190505050612b09565b005b34801561067c57600080fd5b506106b360048036038101908080359060200190929190803560001916906020019092919080359060200190929190505050612ba8565b604051808215151515815260200191505060405180910390f35b3480156106d957600080fd5b5061071e60048036038101908080359060200190929190803560001916906020019092919080359060200190820180359060200191909192939192939050505061307a565b6040518082815260200191505060405180910390f35b34801561074057600080fd5b5061075f60048036038101908080359060200190929190505050613d1f565b005b34801561076d57600080fd5b506107ac600480360381019080803573ffffffffffffffffffffffffffffffffffffffff16906020019092919080359060200190929190505050614120565b6040518082815260200191505060405180910390f35b3480156107ce57600080fd5b50610803600480360381019080803573ffffffffffffffffffffffffffffffffffffffff1690602001909291905050506145b3565b005b34801561081157600080fd5b5061083060048036038101908080359060200190929190505050614652565b6040518082815260200191505060405180910390f35b34801561085257600080fd5b50610887600480360381019080803573ffffffffffffffffffffffffffffffffffffffff1690602001909291905050506149d5565b005b34801561089557600080fd5b506108ca600480360381019080803573ffffffffffffffffffffffffffffffffffffffff169060200190929190505050614a74565b005b3480156108d857600080fd5b506108e1614b33565b604051808273ffffffffffffffffffffffffffffffffffffffff1673ffffffffffffffffffffffffffffffffffffffff16815260200191505060405180910390f35b6000600560009054906101000a900473ffffffffffffffffffffffffffffffffffffffff1673ffffffffffffffffffffffffffffffffffffffff16631995532c8484336040518463ffffffff167c01000000000000000000000000000000000000000000000000000000000281526004018084815260200183600019166000191681526020018273ffffffffffffffffffffffffffffffffffffffff1673ffffffffffffffffffffffffffffffffffffffff1681526020019350505050602060405180830381600087803b1580156109fa57600080fd5b505af1158015610a0e573d6000803e3d6000fd5b505050506040513d6020811015610a2457600080fd5b81019080805190602001909291905050501515610a4057600080fd5b6003600160009054906101000a900473ffffffffffffffffffffffffffffffffffffffff1673ffffffffffffffffffffffffffffffffffffffff1663bd02d0f5610af66040805190810160405280600381526020017f544352000000000000000000000000000000000000000000000000000000000081525087876040805190810160405280600581526020017f5354414745000000000000000000000000000000000000000000000000000000815250614b59565b6040518263ffffffff167c0100000000000000000000000000000000000000000000000000000000028152600401808260001916600019168152602001915050602060405180830381600087803b158015610b5057600080fd5b505af1158015610b64573d6000803e3d6000fd5b505050506040513d6020811015610b7a57600080fd5b8101908080519060200190929190505050141515610b9757600080fd5b600160009054906101000a900473ffffffffffffffffffffffffffffffffffffffff1673ffffffffffffffffffffffffffffffffffffffff1663bd02d0f5610c4b6040805190810160405280600381526020017f544352000000000000000000000000000000000000000000000000000000000081525086866040805190810160405280600881526020017f4558495454494d45000000000000000000000000000000000000000000000000815250614b59565b6040518263ffffffff167c0100000000000000000000000000000000000000000000000000000000028152600401808260001916600019168152602001915050602060405180830381600087803b158015610ca557600080fd5b505af1158015610cb9573d6000803e3d6000fd5b505050506040513d6020811015610ccf57600080fd5b810190808051906020019092919050505090508042111515610cf057600080fd5b600160009054906101000a900473ffffffffffffffffffffffffffffffffffffffff1673ffffffffffffffffffffffffffffffffffffffff1663e2a4853a610da46040805190810160405280600381526020017f544352000000000000000000000000000000000000000000000000000000000081525086866040805190810160405280600581526020017f5354414745000000000000000000000000000000000000000000000000000000815250614b59565b60006040518363ffffffff167c010000000000000000000000000000000000000000000000000000000002815260040180836000191660001916815260200182815260200192505050600060405180830381600087803b158015610e0757600080fd5b505af1158015610e1b573d6000803e3d6000fd5b50505050505050565b6000600560009054906101000a900473ffffffffffffffffffffffffffffffffffffffff1673ffffffffffffffffffffffffffffffffffffffff16631995532c8484336040518463ffffffff167c01000000000000000000000000000000000000000000000000000000000281526004018084815260200183600019166000191681526020018273ffffffffffffffffffffffffffffffffffffffff1673ffffffffffffffffffffffffffffffffffffffff1681526020019350505050602060405180830381600087803b158015610efb57600080fd5b505af1158015610f0f573d6000803e3d6000fd5b505050506040513d6020811015610f2557600080fd5b81019080805190602001909291905050501515610f4157600080fd5b6003600160009054906101000a900473ffffffffffffffffffffffffffffffffffffffff1673ffffffffffffffffffffffffffffffffffffffff1663bd02d0f5610ff76040805190810160405280600381526020017f544352000000000000000000000000000000000000000000000000000000000081525087876040805190810160405280600581526020017f5354414745000000000000000000000000000000000000000000000000000000815250614b59565b6040518263ffffffff167c0100000000000000000000000000000000000000000000000000000000028152600401808260001916600019168152602001915050602060405180830381600087803b15801561105157600080fd5b505af1158015611065573d6000803e3d6000fd5b505050506040513d602081101561107b57600080fd5b810190808051906020019092919050505014151561109857600080fd5b600160009054906101000a900473ffffffffffffffffffffffffffffffffffffffff1673ffffffffffffffffffffffffffffffffffffffff1663bd02d0f561114c6040805190810160405280600381526020017f544352000000000000000000000000000000000000000000000000000000000081525086866040805190810160405280600c81526020017f455849544455524154494f4e0000000000000000000000000000000000000000815250614b59565b6040518263ffffffff167c0100000000000000000000000000000000000000000000000000000000028152600401808260001916600019168152602001915050602060405180830381600087803b1580156111a657600080fd5b505af11580156111ba573d6000803e3d6000fd5b505050506040513d60208110156111d057600080fd5b81019080805190602001909291905050509050600160009054906101000a900473ffffffffffffffffffffffffffffffffffffffff1673ffffffffffffffffffffffffffffffffffffffff1663e2a4853a6112976040805190810160405280600381526020017f544352000000000000000000000000000000000000000000000000000000000081525086866040805190810160405280600881526020017f4558495454494d45000000000000000000000000000000000000000000000000815250614b59565b6112aa8442614ca190919063ffffffff16565b6040518363ffffffff167c010000000000000000000000000000000000000000000000000000000002815260040180836000191660001916815260200182815260200192505050600060405180830381600087803b15801561130b57600080fd5b505af115801561131f573d6000803e3d6000fd5b50505050505050565b600560009054906101000a900473ffffffffffffffffffffffffffffffffffffffff1681565b600260009054906101000a900473ffffffffffffffffffffffffffffffffffffffff1681565b600160009054906101000a900473ffffffffffffffffffffffffffffffffffffffff1681565b600460009054906101000a900473ffffffffffffffffffffffffffffffffffffffff1681565b6000809054906101000a900473ffffffffffffffffffffffffffffffffffffffff1673ffffffffffffffffffffffffffffffffffffffff163373ffffffffffffffffffffffffffffffffffffffff1614151561141b57600080fd5b80600560006101000a81548173ffffffffffffffffffffffffffffffffffffffff021916908373ffffffffffffffffffffffffffffffffffffffff16021790555050565b600560009054906101000a900473ffffffffffffffffffffffffffffffffffffffff1673ffffffffffffffffffffffffffffffffffffffff1663ba63e25a83836040518363ffffffff167c010000000000000000000000000000000000000000000000000000000002815260040180838152602001826000191660001916815260200192505050602060405180830381600087803b15801561150057600080fd5b505af1158015611514573d6000803e3d6000fd5b505050506040513d602081101561152a57600080fd5b81019080805190602001909291905050501561154f5761154a8282614cbd565b611573565b6115598282611577565b1561156d576115688282614f23565b611572565b600080fd5b5b5050565b600080600080600160009054906101000a900473ffffffffffffffffffffffffffffffffffffffff1673ffffffffffffffffffffffffffffffffffffffff1663bd02d0f56116316040805190810160405280600381526020017f544352000000000000000000000000000000000000000000000000000000000081525089896040805190810160405280600781526020017f504f4c4c5f494400000000000000000000000000000000000000000000000000815250614b59565b6040518263ffffffff167c0100000000000000000000000000000000000000000000000000000000028152600401808260001916600019168152602001915050602060405180830381600087803b15801561168b57600080fd5b505af115801561169f573d6000803e3d6000fd5b505050506040513d60208110156116b557600080fd5b81019080805190602001909291905050509250600160009054906101000a900473ffffffffffffffffffffffffffffffffffffffff1673ffffffffffffffffffffffffffffffffffffffff1663bd02d0f561177c6040805190810160405280600381526020017f544352000000000000000000000000000000000000000000000000000000000081525089896040805190810160405280600581526020017f5354414745000000000000000000000000000000000000000000000000000000815250614b59565b6040518263ffffffff167c0100000000000000000000000000000000000000000000000000000000028152600401808260001916600019168152602001915050602060405180830381600087803b1580156117d657600080fd5b505af11580156117ea573d6000803e3d6000fd5b505050506040513d602081101561180057600080fd5b8101908080519060200190929190505050915060028214151561182257600080fd5b600460009054906101000a900473ffffffffffffffffffffffffffffffffffffffff1673ffffffffffffffffffffffffffffffffffffffff1663b6990ee1846040518263ffffffff167c01000000000000000000000000000000000000000000000000000000000281526004018082815260200191505060a060405180830381600087803b1580156118b357600080fd5b505af11580156118c7573d6000803e3d6000fd5b505050506040513d60a08110156118dd57600080fd5b81019080805190602001909291908051906020019092919080519060200190929190805190602001909291908051906020019092919050505050505050905080935050505092915050565b6000600560009054906101000a900473ffffffffffffffffffffffffffffffffffffffff1673ffffffffffffffffffffffffffffffffffffffff1663eea81e9d8685336040518463ffffffff167c01000000000000000000000000000000000000000000000000000000000281526004018084815260200183600019166000191681526020018273ffffffffffffffffffffffffffffffffffffffff1673ffffffffffffffffffffffffffffffffffffffff1681526020019350505050602060405180830381600087803b1580156119ff57600080fd5b505af1158015611a13573d6000803e3d6000fd5b505050506040513d6020811015611a2957600080fd5b81019080805190602001909291905050501515611a4557600080fd5b600560009054906101000a900473ffffffffffffffffffffffffffffffffffffffff1673ffffffffffffffffffffffffffffffffffffffff1663f489d46b866040518263ffffffff167c010000000000000000000000000000000000000000000000000000000002815260040180828152602001915050608060405180830381600087803b158015611ad657600080fd5b505af1158015611aea573d6000803e3d6000fd5b505050506040513d6080811015611b0057600080fd5b81019080805190602001909291908051906020019092919080519060200190929190805190602001909291905050505050509050611b3f858486612ba8565b1515611b4a57600080fd5b600160009054906101000a900473ffffffffffffffffffffffffffffffffffffffff1673ffffffffffffffffffffffffffffffffffffffff1663ca446dd9611bfe6040805190810160405280600381526020017f544352000000000000000000000000000000000000000000000000000000000081525088876040805190810160405280600581526020017f4f574e4552000000000000000000000000000000000000000000000000000000815250614b59565b336040518363ffffffff167c01000000000000000000000000000000000000000000000000000000000281526004018083600019166000191681526020018273ffffffffffffffffffffffffffffffffffffffff1673ffffffffffffffffffffffffffffffffffffffff16815260200192505050600060405180830381600087803b158015611c8c57600080fd5b505af1158015611ca0573d6000803e3d6000fd5b50505050600160009054906101000a900473ffffffffffffffffffffffffffffffffffffffff1673ffffffffffffffffffffffffffffffffffffffff1663e2a4853a611d586040805190810160405280600381526020017f544352000000000000000000000000000000000000000000000000000000000081525088876040805190810160405280601381526020017f4150504c49434154494f4e5f454e4454494d4500000000000000000000000000815250614b59565b611d6b8442614ca190919063ffffffff16565b6040518363ffffffff167c010000000000000000000000000000000000000000000000000000000002815260040180836000191660001916815260200182815260200192505050600060405180830381600087803b158015611dcc57600080fd5b505af1158015611de0573d6000803e3d6000fd5b50505050600160009054906101000a900473ffffffffffffffffffffffffffffffffffffffff1673ffffffffffffffffffffffffffffffffffffffff1663e2a4853a611e986040805190810160405280600381526020017f544352000000000000000000000000000000000000000000000000000000000081525088876040805190810160405280600581526020017f5354414745000000000000000000000000000000000000000000000000000000815250614b59565b60016040518363ffffffff167c010000000000000000000000000000000000000000000000000000000002815260040180836000191660001916815260200182815260200192505050600060405180830381600087803b158015611efb57600080fd5b505af1158015611f0f573d6000803e3d6000fd5b505050508260001916857f90bb7ffc3fe9af5712e4592590b22bf8db78ad5ced326d0ea4297d46a4467ee2846040518080602001828103825283818151815260200191508051906020019080838360005b83811015611f7b578082015181840152602081019050611f60565b50505050905090810190601f168015611fa85780820380516001836020036101000a031916815260200191505b509250505060405180910390a35050505050565b600080600560009054906101000a900473ffffffffffffffffffffffffffffffffffffffff1673ffffffffffffffffffffffffffffffffffffffff16631995532c8686336040518463ffffffff167c01000000000000000000000000000000000000000000000000000000000281526004018084815260200183600019166000191681526020018273ffffffffffffffffffffffffffffffffffffffff1673ffffffffffffffffffffffffffffffffffffffff1681526020019350505050602060405180830381600087803b15801561209457600080fd5b505af11580156120a8573d6000803e3d6000fd5b505050506040513d60208110156120be57600080fd5b810190808051906020019092919050505015156120da57600080fd5b600560009054906101000a900473ffffffffffffffffffffffffffffffffffffffff1673ffffffffffffffffffffffffffffffffffffffff1663f489d46b866040518263ffffffff167c010000000000000000000000000000000000000000000000000000000002815260040180828152602001915050608060405180830381600087803b15801561216b57600080fd5b505af115801561217f573d6000803e3d6000fd5b505050506040513d608081101561219557600080fd5b81019080805190602001909291908051906020019092919080519060200190929190805190602001909291905050509450505050600160009054906101000a900473ffffffffffffffffffffffffffffffffffffffff1673ffffffffffffffffffffffffffffffffffffffff1663bd02d0f561227d6040805190810160405280600381526020017f544352000000000000000000000000000000000000000000000000000000000081525088886040805190810160405280600681526020017f5354414b45440000000000000000000000000000000000000000000000000000815250614b59565b6040518263ffffffff167c0100000000000000000000000000000000000000000000000000000000028152600401808260001916600019168152602001915050602060405180830381600087803b1580156122d757600080fd5b505af11580156122eb573d6000803e3d6000fd5b505050506040513d602081101561230157600080fd5b81019080805190602001909291905050509050828282031015151561232557600080fd5b600160009054906101000a900473ffffffffffffffffffffffffffffffffffffffff1673ffffffffffffffffffffffffffffffffffffffff1663e2a4853a6123d96040805190810160405280600381526020017f544352000000000000000000000000000000000000000000000000000000000081525088886040805190810160405280600681526020017f5354414b45440000000000000000000000000000000000000000000000000000815250614b59565b6123ec86856158fa90919063ffffffff16565b6040518363ffffffff167c010000000000000000000000000000000000000000000000000000000002815260040180836000191660001916815260200182815260200192505050600060405180830381600087803b15801561244d57600080fd5b505af1158015612461573d6000803e3d6000fd5b5050505061246e856126fb565b73ffffffffffffffffffffffffffffffffffffffff1663a9059cbb33856040518363ffffffff167c0100000000000000000000000000000000000000000000000000000000028152600401808373ffffffffffffffffffffffffffffffffffffffff1673ffffffffffffffffffffffffffffffffffffffff16815260200182815260200192505050602060405180830381600087803b15801561251057600080fd5b505af1158015612524573d6000803e3d6000fd5b505050506040513d602081101561253a57600080fd5b8101908080519060200190929190505050151561255357fe5b5050505050565b6000809054906101000a900473ffffffffffffffffffffffffffffffffffffffff1673ffffffffffffffffffffffffffffffffffffffff163373ffffffffffffffffffffffffffffffffffffffff161415156125b557600080fd5b6000809054906101000a900473ffffffffffffffffffffffffffffffffffffffff1673ffffffffffffffffffffffffffffffffffffffff167ff8df31144d9c2f0f6b59d69b8b98abd5459d07f2742c4df920b25aae33c6482060405160405180910390a260008060006101000a81548173ffffffffffffffffffffffffffffffffffffffff021916908373ffffffffffffffffffffffffffffffffffffffff160217905550565b6000809054906101000a900473ffffffffffffffffffffffffffffffffffffffff1673ffffffffffffffffffffffffffffffffffffffff163373ffffffffffffffffffffffffffffffffffffffff161415156126b757600080fd5b80600260006101000a81548173ffffffffffffffffffffffffffffffffffffffff021916908373ffffffffffffffffffffffffffffffffffffffff16021790555050565b6000600560009054906101000a900473ffffffffffffffffffffffffffffffffffffffff1673ffffffffffffffffffffffffffffffffffffffff1663e4b50cb8836040518263ffffffff167c010000000000000000000000000000000000000000000000000000000002815260040180828152602001915050602060405180830381600087803b15801561278e57600080fd5b505af11580156127a2573d6000803e3d6000fd5b505050506040513d60208110156127b857600080fd5b81019080805190602001909291905050509050919050565b6000809054906101000a900473ffffffffffffffffffffffffffffffffffffffff1681565b6000809054906101000a900473ffffffffffffffffffffffffffffffffffffffff1673ffffffffffffffffffffffffffffffffffffffff163373ffffffffffffffffffffffffffffffffffffffff1614151561285057600080fd5b60003073ffffffffffffffffffffffffffffffffffffffff163111156128f0576000809054906101000a900473ffffffffffffffffffffffffffffffffffffffff1673ffffffffffffffffffffffffffffffffffffffff166108fc3073ffffffffffffffffffffffffffffffffffffffff16319081150290604051600060405180830381858888f193505050501580156128ee573d6000803e3d6000fd5b505b600073ffffffffffffffffffffffffffffffffffffffff168173ffffffffffffffffffffffffffffffffffffffff16141515612b06578073ffffffffffffffffffffffffffffffffffffffff1663a9059cbb6000809054906101000a900473ffffffffffffffffffffffffffffffffffffffff168373ffffffffffffffffffffffffffffffffffffffff166370a08231306040518263ffffffff167c0100000000000000000000000000000000000000000000000000000000028152600401808273ffffffffffffffffffffffffffffffffffffffff1673ffffffffffffffffffffffffffffffffffffffff168152602001915050602060405180830381600087803b1580156129ff57600080fd5b505af1158015612a13573d6000803e3d6000fd5b505050506040513d6020811015612a2957600080fd5b81019080805190602001909291905050506040518363ffffffff167c0100000000000000000000000000000000000000000000000000000000028152600401808373ffffffffffffffffffffffffffffffffffffffff1673ffffffffffffffffffffffffffffffffffffffff16815260200182815260200192505050602060405180830381600087803b158015612abf57600080fd5b505af1158015612ad3573d6000803e3d6000fd5b505050506040513d6020811015612ae957600080fd5b81019080805190602001909291905050501515612b0557600080fd5b5b50565b6000809054906101000a900473ffffffffffffffffffffffffffffffffffffffff1673ffffffffffffffffffffffffffffffffffffffff163373ffffffffffffffffffffffffffffffffffffffff16141515612b6457600080fd5b80600160006101000a81548173ffffffffffffffffffffffffffffffffffffffff021916908373ffffffffffffffffffffffffffffffffffffffff16021790555050565b6000806000600560009054906101000a900473ffffffffffffffffffffffffffffffffffffffff1673ffffffffffffffffffffffffffffffffffffffff1663f489d46b876040518263ffffffff167c010000000000000000000000000000000000000000000000000000000002815260040180828152602001915050608060405180830381600087803b158015612c3e57600080fd5b505af1158015612c52573d6000803e3d6000fd5b505050506040513d6080811015612c6857600080fd5b81019080805190602001909291908051906020019092919080519060200190929190805190602001909291905050509450505050600160009054906101000a900473ffffffffffffffffffffffffffffffffffffffff1673ffffffffffffffffffffffffffffffffffffffff1663bd02d0f5612d506040805190810160405280600381526020017f544352000000000000000000000000000000000000000000000000000000000081525089896040805190810160405280600681526020017f5354414b45440000000000000000000000000000000000000000000000000000815250614b59565b6040518263ffffffff167c0100000000000000000000000000000000000000000000000000000000028152600401808260001916600019168152602001915050602060405180830381600087803b158015612daa57600080fd5b505af1158015612dbe573d6000803e3d6000fd5b505050506040513d6020811015612dd457600080fd5b8101908080519060200190929190505050905081612dfb8583614ca190919063ffffffff16565b10151515612e0857600080fd5b612e11866126fb565b73ffffffffffffffffffffffffffffffffffffffff166323b872dd3330876040518463ffffffff167c0100000000000000000000000000000000000000000000000000000000028152600401808473ffffffffffffffffffffffffffffffffffffffff1673ffffffffffffffffffffffffffffffffffffffff1681526020018373ffffffffffffffffffffffffffffffffffffffff1673ffffffffffffffffffffffffffffffffffffffff1681526020018281526020019350505050602060405180830381600087803b158015612ee757600080fd5b505af1158015612efb573d6000803e3d6000fd5b505050506040513d6020811015612f1157600080fd5b81019080805190602001909291905050501515612f2d57600080fd5b600160009054906101000a900473ffffffffffffffffffffffffffffffffffffffff1673ffffffffffffffffffffffffffffffffffffffff1663e2a4853a612fe16040805190810160405280600381526020017f544352000000000000000000000000000000000000000000000000000000000081525089896040805190810160405280600681526020017f5354414b45440000000000000000000000000000000000000000000000000000815250614b59565b612ff48785614ca190919063ffffffff16565b6040518363ffffffff167c010000000000000000000000000000000000000000000000000000000002815260040180836000191660001916815260200182815260200192505050600060405180830381600087803b15801561305557600080fd5b505af1158015613069573d6000803e3d6000fd5b505050506001925050509392505050565b6000806000806002600160009054906101000a900473ffffffffffffffffffffffffffffffffffffffff1673ffffffffffffffffffffffffffffffffffffffff1663bd02d0f56131366040805190810160405280600381526020017f54435200000000000000000000000000000000000000000000000000000000008152508c8c6040805190810160405280600581526020017f5354414745000000000000000000000000000000000000000000000000000000815250614b59565b6040518263ffffffff167c0100000000000000000000000000000000000000000000000000000000028152600401808260001916600019168152602001915050602060405180830381600087803b15801561319057600080fd5b505af11580156131a4573d6000803e3d6000fd5b505050506040513d60208110156131ba57600080fd5b8101908080519060200190929190505050141515156131d857600080fd5b600560009054906101000a900473ffffffffffffffffffffffffffffffffffffffff1673ffffffffffffffffffffffffffffffffffffffff1663f489d46b896040518263ffffffff167c010000000000000000000000000000000000000000000000000000000002815260040180828152602001915050608060405180830381600087803b15801561326957600080fd5b505af115801561327d573d6000803e3d6000fd5b505050506040513d608081101561329357600080fd5b8101908080519060200190929190805190602001909291908051906020019092919080519060200190929190505050935093509350506132d2886126fb565b73ffffffffffffffffffffffffffffffffffffffff166323b872dd3330846040518463ffffffff167c0100000000000000000000000000000000000000000000000000000000028152600401808473ffffffffffffffffffffffffffffffffffffffff1673ffffffffffffffffffffffffffffffffffffffff1681526020018373ffffffffffffffffffffffffffffffffffffffff1673ffffffffffffffffffffffffffffffffffffffff1681526020018281526020019350505050602060405180830381600087803b1580156133a857600080fd5b505af11580156133bc573d6000803e3d6000fd5b505050506040513d60208110156133d257600080fd5b810190808051906020019092919050505015156133ee57600080fd5b600360009054906101000a900473ffffffffffffffffffffffffffffffffffffffff1673ffffffffffffffffffffffffffffffffffffffff1663bd002e1e8787600087876040518663ffffffff167c01000000000000000000000000000000000000000000000000000000000281526004018080602001858152602001848152602001838152602001828103825287878281815260200192508082843782019150509650505050505050602060405180830381600087803b1580156134b257600080fd5b505af11580156134c6573d6000803e3d6000fd5b505050506040513d60208110156134dc57600080fd5b810190808051906020019092919050505093506000841115156134fe57600080fd5b600160009054906101000a900473ffffffffffffffffffffffffffffffffffffffff1673ffffffffffffffffffffffffffffffffffffffff1663e2a4853a6135b16040805190810160405280600381526020017f5443520000000000000000000000000000000000000000000000000000000000815250876040805190810160405280601181526020017f4348414c4c454e4745525f5354414b4544000000000000000000000000000000815250615913565b836040518363ffffffff167c010000000000000000000000000000000000000000000000000000000002815260040180836000191660001916815260200182815260200192505050600060405180830381600087803b15801561361357600080fd5b505af1158015613627573d6000803e3d6000fd5b50505050600160009054906101000a900473ffffffffffffffffffffffffffffffffffffffff1673ffffffffffffffffffffffffffffffffffffffff1663e2a4853a6136df6040805190810160405280600381526020017f54435200000000000000000000000000000000000000000000000000000000008152508b8b6040805190810160405280600781526020017f504f4c4c5f494400000000000000000000000000000000000000000000000000815250614b59565b866040518363ffffffff167c010000000000000000000000000000000000000000000000000000000002815260040180836000191660001916815260200182815260200192505050600060405180830381600087803b15801561374157600080fd5b505af1158015613755573d6000803e3d6000fd5b50505050600160009054906101000a900473ffffffffffffffffffffffffffffffffffffffff1673ffffffffffffffffffffffffffffffffffffffff1663e2a4853a6137d66040805190810160405280601581526020017f5443525f4d415050494e475f504f4c4c5f4c495354000000000000000000000081525087615a4a565b8a6040518363ffffffff167c010000000000000000000000000000000000000000000000000000000002815260040180836000191660001916815260200182815260200192505050600060405180830381600087803b15801561383857600080fd5b505af115801561384c573d6000803e3d6000fd5b50505050600160009054906101000a900473ffffffffffffffffffffffffffffffffffffffff1673ffffffffffffffffffffffffffffffffffffffff1663e2a4853a6138cd6040805190810160405280600b81526020017f5443525f504f4c4c5f494400000000000000000000000000000000000000000081525087615a4a565b600560009054906101000a900473ffffffffffffffffffffffffffffffffffffffff1673ffffffffffffffffffffffffffffffffffffffff1663093077ee8c866040518363ffffffff167c01000000000000000000000000000000000000000000000000000000000281526004018083815260200182815260200192505050602060405180830381600087803b15801561396657600080fd5b505af115801561397a573d6000803e3d6000fd5b505050506040513d602081101561399057600080fd5b81019080805190602001909291905050506040518363ffffffff167c010000000000000000000000000000000000000000000000000000000002815260040180836000191660001916815260200182815260200192505050600060405180830381600087803b158015613a0257600080fd5b505af1158015613a16573d6000803e3d6000fd5b50505050600160009054906101000a900473ffffffffffffffffffffffffffffffffffffffff1673ffffffffffffffffffffffffffffffffffffffff1663ca446dd9613ace6040805190810160405280600381526020017f54435200000000000000000000000000000000000000000000000000000000008152508b8b6040805190810160405280600a81526020017f4348414c4c454e47455200000000000000000000000000000000000000000000815250614b59565b336040518363ffffffff167c01000000000000000000000000000000000000000000000000000000000281526004018083600019166000191681526020018273ffffffffffffffffffffffffffffffffffffffff1673ffffffffffffffffffffffffffffffffffffffff16815260200192505050600060405180830381600087803b158015613b5c57600080fd5b505af1158015613b70573d6000803e3d6000fd5b50505050600160009054906101000a900473ffffffffffffffffffffffffffffffffffffffff1673ffffffffffffffffffffffffffffffffffffffff1663e2a4853a613c286040805190810160405280600381526020017f54435200000000000000000000000000000000000000000000000000000000008152508b8b6040805190810160405280600581526020017f5354414745000000000000000000000000000000000000000000000000000000815250614b59565b60026040518363ffffffff167c010000000000000000000000000000000000000000000000000000000002815260040180836000191660001916815260200182815260200192505050600060405180830381600087803b158015613c8b57600080fd5b505af1158015613c9f573d6000803e3d6000fd5b505050508660001916887f30c164cbd3e88f862f716336a0358e8aad9421f4054fa07be59d1703738f32168633604051808381526020018273ffffffffffffffffffffffffffffffffffffffff1673ffffffffffffffffffffffffffffffffffffffff1681526020019250505060405180910390a3505050949350505050565b60008060001515600160009054906101000a900473ffffffffffffffffffffffffffffffffffffffff1673ffffffffffffffffffffffffffffffffffffffff16637ae1cfca613da46040805190810160405280601181526020017f5443525f564f5445525f434c41494d45440000000000000000000000000000008152508733615b2b565b6040518263ffffffff167c0100000000000000000000000000000000000000000000000000000000028152600401808260001916600019168152602001915050602060405180830381600087803b158015613dfe57600080fd5b505af1158015613e12573d6000803e3d6000fd5b505050506040513d6020811015613e2857600080fd5b81019080805190602001909291905050501515141515613e4757600080fd5b613e513384614120565b9150600082111515613e6257600080fd5b600560009054906101000a900473ffffffffffffffffffffffffffffffffffffffff1673ffffffffffffffffffffffffffffffffffffffff16637a177bb1846040518263ffffffff167c010000000000000000000000000000000000000000000000000000000002815260040180828152602001915050602060405180830381600087803b158015613ef357600080fd5b505af1158015613f07573d6000803e3d6000fd5b505050506040513d6020811015613f1d57600080fd5b81019080805190602001909291905050509050613f39816126fb565b73ffffffffffffffffffffffffffffffffffffffff1663a9059cbb33846040518363ffffffff167c0100000000000000000000000000000000000000000000000000000000028152600401808373ffffffffffffffffffffffffffffffffffffffff1673ffffffffffffffffffffffffffffffffffffffff16815260200182815260200192505050602060405180830381600087803b158015613fdb57600080fd5b505af1158015613fef573d6000803e3d6000fd5b505050506040513d602081101561400557600080fd5b8101908080519060200190929190505050151561401e57fe5b600160009054906101000a900473ffffffffffffffffffffffffffffffffffffffff1673ffffffffffffffffffffffffffffffffffffffff1663abfdcced61409c6040805190810160405280601181526020017f5443525f564f5445525f434c41494d45440000000000000000000000000000008152508633615b2b565b60016040518363ffffffff167c01000000000000000000000000000000000000000000000000000000000281526004018083600019166000191681526020018215151515815260200192505050600060405180830381600087803b15801561410357600080fd5b505af1158015614117573d6000803e3d6000fd5b50505050505050565b60008060008060008060001515600160009054906101000a900473ffffffffffffffffffffffffffffffffffffffff1673ffffffffffffffffffffffffffffffffffffffff16637ae1cfca6141ab6040805190810160405280601181526020017f5443525f564f5445525f434c41494d45440000000000000000000000000000008152508b8d615b2b565b6040518263ffffffff167c0100000000000000000000000000000000000000000000000000000000028152600401808260001916600019168152602001915050602060405180830381600087803b15801561420557600080fd5b505af1158015614219573d6000803e3d6000fd5b505050506040513d602081101561422f57600080fd5b8101908080519060200190929190505050151514156145a857600460009054906101000a900473ffffffffffffffffffffffffffffffffffffffff1673ffffffffffffffffffffffffffffffffffffffff16630c03fbd789896040518363ffffffff167c0100000000000000000000000000000000000000000000000000000000028152600401808373ffffffffffffffffffffffffffffffffffffffff1673ffffffffffffffffffffffffffffffffffffffff16815260200182815260200192505050602060405180830381600087803b15801561430d57600080fd5b505af1158015614321573d6000803e3d6000fd5b505050506040513d602081101561433757600080fd5b81019080805190602001909291905050509450600460009054906101000a900473ffffffffffffffffffffffffffffffffffffffff1673ffffffffffffffffffffffffffffffffffffffff1663b6990ee1886040518263ffffffff167c01000000000000000000000000000000000000000000000000000000000281526004018082815260200191505060a060405180830381600087803b1580156143db57600080fd5b505af11580156143ef573d6000803e3d6000fd5b505050506040513d60a081101561440557600080fd5b81019080805190602001909291908051906020019092919080519060200190929190805190602001909291908051906020019092919050505095505094505093506001151584151514801561445a5750600085115b80156144665750603282115b156145a757600160009054906101000a900473ffffffffffffffffffffffffffffffffffffffff1673ffffffffffffffffffffffffffffffffffffffff1663bd02d0f56144e86040805190810160405280600b81526020017f5443525f504f4c4c5f49440000000000000000000000000000000000000000008152508a615a4a565b6040518263ffffffff167c0100000000000000000000000000000000000000000000000000000000028152600401808260001916600019168152602001915050602060405180830381600087803b15801561454257600080fd5b505af1158015614556573d6000803e3d6000fd5b505050506040513d602081101561456c57600080fd5b810190808051906020019092919050505090506145a4836145968388615c5090919063ffffffff16565b615c8890919063ffffffff16565b95505b5b505050505092915050565b6000809054906101000a900473ffffffffffffffffffffffffffffffffffffffff1673ffffffffffffffffffffffffffffffffffffffff163373ffffffffffffffffffffffffffffffffffffffff1614151561460e57600080fd5b80600360006101000a81548173ffffffffffffffffffffffffffffffffffffffff021916908373ffffffffffffffffffffffffffffffffffffffff16021790555050565b6000806000600160009054906101000a900473ffffffffffffffffffffffffffffffffffffffff1673ffffffffffffffffffffffffffffffffffffffff1663bd02d0f561470a6040805190810160405280600381526020017f5443520000000000000000000000000000000000000000000000000000000000815250876040805190810160405280601181526020017f4348414c4c454e4745525f5354414b4544000000000000000000000000000000815250615913565b6040518263ffffffff167c0100000000000000000000000000000000000000000000000000000000028152600401808260001916600019168152602001915050602060405180830381600087803b15801561476457600080fd5b505af1158015614778573d6000803e3d6000fd5b505050506040513d602081101561478e57600080fd5b81019080805190602001909291905050509150600460009054906101000a900473ffffffffffffffffffffffffffffffffffffffff1673ffffffffffffffffffffffffffffffffffffffff1663b6990ee1856040518263ffffffff167c01000000000000000000000000000000000000000000000000000000000281526004018082815260200191505060a060405180830381600087803b15801561483257600080fd5b505af1158015614846573d6000803e3d6000fd5b505050506040513d60a081101561485c57600080fd5b810190808051906020019092919080519060200190929190805190602001909291908051906020019092919080519060200190929190505050509350505050600115158115151415156148b4578160020292506149ce565b600160009054906101000a900473ffffffffffffffffffffffffffffffffffffffff1673ffffffffffffffffffffffffffffffffffffffff1663bd02d0f56149316040805190810160405280600b81526020017f5443525f504f4c4c5f494400000000000000000000000000000000000000000081525087615a4a565b6040518263ffffffff167c0100000000000000000000000000000000000000000000000000000000028152600401808260001916600019168152602001915050602060405180830381600087803b15801561498b57600080fd5b505af115801561499f573d6000803e3d6000fd5b505050506040513d60208110156149b557600080fd5b8101908080519060200190929190505050826002020392505b5050919050565b6000809054906101000a900473ffffffffffffffffffffffffffffffffffffffff1673ffffffffffffffffffffffffffffffffffffffff163373ffffffffffffffffffffffffffffffffffffffff16141515614a3057600080fd5b80600460006101000a81548173ffffffffffffffffffffffffffffffffffffffff021916908373ffffffffffffffffffffffffffffffffffffffff16021790555050565b600073ffffffffffffffffffffffffffffffffffffffff166000809054906101000a900473ffffffffffffffffffffffffffffffffffffffff1673ffffffffffffffffffffffffffffffffffffffff16141515614b27576000809054906101000a900473ffffffffffffffffffffffffffffffffffffffff1673ffffffffffffffffffffffffffffffffffffffff163373ffffffffffffffffffffffffffffffffffffffff16141515614b2657600080fd5b5b614b3081615c9e565b50565b600360009054906101000a900473ffffffffffffffffffffffffffffffffffffffff1681565b6000848484846040516020018085805190602001908083835b602083101515614b975780518252602082019150602081019050602083039250614b72565b6001836020036101000a038019825116818451168082178552505050505050905001848152602001836000191660001916815260200182805190602001908083835b602083101515614bfe5780518252602082019150602081019050602083039250614bd9565b6001836020036101000a0380198251168184511680821785525050505050509050019450505050506040516020818303038152906040526040518082805190602001908083835b602083101515614c6a5780518252602082019150602081019050602083039250614c45565b6001836020036101000a03801982511681845116808217855250505050505090500191505060405180910390209050949350505050565b60008183019050828110151515614cb457fe5b80905092915050565b600160009054906101000a900473ffffffffffffffffffffffffffffffffffffffff1673ffffffffffffffffffffffffffffffffffffffff1663abfdcced614d716040805190810160405280600381526020017f544352000000000000000000000000000000000000000000000000000000000081525085856040805190810160405280600c81526020017f57484954455f4c49535445440000000000000000000000000000000000000000815250614b59565b60016040518363ffffffff167c01000000000000000000000000000000000000000000000000000000000281526004018083600019166000191681526020018215151515815260200192505050600060405180830381600087803b158015614dd857600080fd5b505af1158015614dec573d6000803e3d6000fd5b50505050600160009054906101000a900473ffffffffffffffffffffffffffffffffffffffff1673ffffffffffffffffffffffffffffffffffffffff1663e2a4853a614ea46040805190810160405280600381526020017f544352000000000000000000000000000000000000000000000000000000000081525085856040805190810160405280600581526020017f5354414745000000000000000000000000000000000000000000000000000000815250614b59565b60036040518363ffffffff167c010000000000000000000000000000000000000000000000000000000002815260040180836000191660001916815260200182815260200192505050600060405180830381600087803b158015614f0757600080fd5b505af1158015614f1b573d6000803e3d6000fd5b505050505050565b6000806000806000806000600160009054906101000a900473ffffffffffffffffffffffffffffffffffffffff1673ffffffffffffffffffffffffffffffffffffffff1663bd02d0f5614fe26040805190810160405280600381526020017f54435200000000000000000000000000000000000000000000000000000000008152508c8c6040805190810160405280600781526020017f504f4c4c5f494400000000000000000000000000000000000000000000000000815250614b59565b6040518263ffffffff167c0100000000000000000000000000000000000000000000000000000000028152600401808260001916600019168152602001915050602060405180830381600087803b15801561503c57600080fd5b505af1158015615050573d6000803e3d6000fd5b505050506040513d602081101561506657600080fd5b81019080805190602001909291905050509650600460009054906101000a900473ffffffffffffffffffffffffffffffffffffffff1673ffffffffffffffffffffffffffffffffffffffff1663b6990ee1886040518263ffffffff167c01000000000000000000000000000000000000000000000000000000000281526004018082815260200191505060a060405180830381600087803b15801561510a57600080fd5b505af115801561511e573d6000803e3d6000fd5b505050506040513d60a081101561513457600080fd5b8101908080519060200190929190805190602001909291908051906020019092919080519060200190929190805190602001909291905050509750509650509550600160009054906101000a900473ffffffffffffffffffffffffffffffffffffffff1673ffffffffffffffffffffffffffffffffffffffff1663bd02d0f56152286040805190810160405280600381526020017f54435200000000000000000000000000000000000000000000000000000000008152508c6040805190810160405280600681526020017f51554f52554d0000000000000000000000000000000000000000000000000000815250615913565b6040518263ffffffff167c0100000000000000000000000000000000000000000000000000000000028152600401808260001916600019168152602001915050602060405180830381600087803b15801561528257600080fd5b505af1158015615296573d6000803e3d6000fd5b505050506040513d60208110156152ac57600080fd5b810190808051906020019092919050505092506152c887614652565b91508284101580156152de575060011515861515145b80156152ea5750600085115b15615589576152f98989614cbd565b600160009054906101000a900473ffffffffffffffffffffffffffffffffffffffff1673ffffffffffffffffffffffffffffffffffffffff1663bd02d0f56153ad6040805190810160405280600381526020017f54435200000000000000000000000000000000000000000000000000000000008152508c8c6040805190810160405280600681526020017f5354414b45440000000000000000000000000000000000000000000000000000815250614b59565b6040518263ffffffff167c0100000000000000000000000000000000000000000000000000000000028152600401808260001916600019168152602001915050602060405180830381600087803b15801561540757600080fd5b505af115801561541b573d6000803e3d6000fd5b505050506040513d602081101561543157600080fd5b81019080805190602001909291905050509050600160009054906101000a900473ffffffffffffffffffffffffffffffffffffffff1673ffffffffffffffffffffffffffffffffffffffff1663e2a4853a6154f86040805190810160405280600381526020017f54435200000000000000000000000000000000000000000000000000000000008152508c8c6040805190810160405280600681526020017f5354414b45440000000000000000000000000000000000000000000000000000815250614b59565b61550b8585614ca190919063ffffffff16565b6040518363ffffffff167c010000000000000000000000000000000000000000000000000000000002815260040180836000191660001916815260200182815260200192505050600060405180830381600087803b15801561556c57600080fd5b505af1158015615580573d6000803e3d6000fd5b505050506158ef565b600160009054906101000a900473ffffffffffffffffffffffffffffffffffffffff1673ffffffffffffffffffffffffffffffffffffffff1663e2a4853a61563d6040805190810160405280600381526020017f54435200000000000000000000000000000000000000000000000000000000008152508c8c6040805190810160405280600581526020017f5354414745000000000000000000000000000000000000000000000000000000815250614b59565b60006040518363ffffffff167c010000000000000000000000000000000000000000000000000000000002815260040180836000191660001916815260200182815260200192505050600060405180830381600087803b1580156156a057600080fd5b505af11580156156b4573d6000803e3d6000fd5b505050506156c1896126fb565b73ffffffffffffffffffffffffffffffffffffffff1663a9059cbb600160009054906101000a900473ffffffffffffffffffffffffffffffffffffffff1673ffffffffffffffffffffffffffffffffffffffff166321f8a7216157906040805190810160405280600381526020017f54435200000000000000000000000000000000000000000000000000000000008152508e8e6040805190810160405280600a81526020017f4348414c4c454e47455200000000000000000000000000000000000000000000815250614b59565b6040518263ffffffff167c0100000000000000000000000000000000000000000000000000000000028152600401808260001916600019168152602001915050602060405180830381600087803b1580156157ea57600080fd5b505af11580156157fe573d6000803e3d6000fd5b505050506040513d602081101561581457600080fd5b8101908080519060200190929190505050846040518363ffffffff167c0100000000000000000000000000000000000000000000000000000000028152600401808373ffffffffffffffffffffffffffffffffffffffff1673ffffffffffffffffffffffffffffffffffffffff16815260200182815260200192505050602060405180830381600087803b1580156158ab57600080fd5b505af11580156158bf573d6000803e3d6000fd5b505050506040513d60208110156158d557600080fd5b810190808051906020019092919050505015156158ee57fe5b5b505050505050505050565b600082821115151561590857fe5b818303905092915050565b60008383836040516020018084805190602001908083835b602083101515615950578051825260208201915060208101905060208303925061592b565b6001836020036101000a03801982511681845116808217855250505050505090500183815260200182805190602001908083835b6020831015156159a95780518252602082019150602081019050602083039250615984565b6001836020036101000a03801982511681845116808217855250505050505090500193505050506040516020818303038152906040526040518082805190602001908083835b602083101515615a1457805182526020820191506020810190506020830392506159ef565b6001836020036101000a038019825116818451168082178552505050505050905001915050604051809103902090509392505050565b600082826040516020018083805190602001908083835b602083101515615a865780518252602082019150602081019050602083039250615a61565b6001836020036101000a038019825116818451168082178552505050505050905001828152602001925050506040516020818303038152906040526040518082805190602001908083835b602083101515615af65780518252602082019150602081019050602083039250615ad1565b6001836020036101000a0380198251168184511680821785525050505050509050019150506040518091039020905092915050565b60008383836040516020018084805190602001908083835b602083101515615b685780518252602082019150602081019050602083039250615b43565b6001836020036101000a0380198251168184511680821785525050505050509050018381526020018273ffffffffffffffffffffffffffffffffffffffff1673ffffffffffffffffffffffffffffffffffffffff166c0100000000000000000000000002815260140193505050506040516020818303038152906040526040518082805190602001908083835b602083101515615c1a5780518252602082019150602081019050602083039250615bf5565b6001836020036101000a038019825116818451168082178552505050505050905001915050604051809103902090509392505050565b600080831415615c635760009050615c82565b8183029050818382811515615c7457fe5b04141515615c7e57fe5b8090505b92915050565b60008183811515615c9557fe5b04905092915050565b600073ffffffffffffffffffffffffffffffffffffffff168173ffffffffffffffffffffffffffffffffffffffff1614151515615cda57600080fd5b8073ffffffffffffffffffffffffffffffffffffffff166000809054906101000a900473ffffffffffffffffffffffffffffffffffffffff1673ffffffffffffffffffffffffffffffffffffffff167f8be0079c531659141344cd1fd0a4f28419497f9722a3daafe3b4186f6b6457e060405160405180910390a3806000806101000a81548173ffffffffffffffffffffffffffffffffffffffff021916908373ffffffffffffffffffffffffffffffffffffffff160217905550505600a165627a7a72305820987d9866ecb37f519f5210d1c376c3b3c5a31ad95814dd3a4d31f4e5e71717cf0029",
  "source": "  /**\n * Created on 2018-10-13 10:20\n * @summary: \n * @author: Chris Nguyen\n */\npragma solidity ^0.4.24;\n\nimport './BBStandard.sol';\nimport './BBLib.sol';\nimport './BBVoting.sol';\nimport './BBVotingHelper.sol';\nimport './BBTCRHelper.sol';\nimport './zeppelin/token/ERC20/ERC20.sol';\n\n\n\ncontract BBUnOrderedTCR is BBStandard{\n\t// events\n\tevent ItemApplied(uint256 indexed listID, bytes32 indexed itemHash, bytes data);\n    event Challenge(uint256 indexed listID, bytes32 indexed itemHash, uint256 pollID, address sender);\n    //\n    BBVoting public voting = BBVoting(0x0);\n    BBVotingHelper public votingHelper = BBVotingHelper(0x0);\n    BBTCRHelper public tcrHelper = BBTCRHelper(0x0);\n      \n    function setVoting(address p) onlyOwner public  {\n      voting = BBVoting(p);\n    }\n    function setVotingHelper(address p) onlyOwner public  {\n      votingHelper = BBVotingHelper(p);\n    }\n\n    function setTCRHelper(address p) onlyOwner public  {\n      tcrHelper = BBTCRHelper(p);\n    }\n\n    function getERC20(uint256 listID) public view returns(ERC20){\n        return ERC20(tcrHelper.getToken(listID));\n    }\n\n    //Lam sao user bi remove, kiem tra so deposit\n    function depositToken(uint256 listID, bytes32 itemHash, uint amount) public returns(bool) {\n        (,,, uint256 minStake) = tcrHelper.getListParams(listID);\n        uint256 staked = bbs.getUint(BBLib.toB32('TCR', listID, itemHash, 'STAKED'));\n        require(staked.add(amount) >= minStake);\n        require ( getERC20(listID).transferFrom(msg.sender, address(this), amount));\n        bbs.setUint(BBLib.toB32('TCR', listID, itemHash, 'STAKED'), staked.add(amount));\n        return true;\n    }\n    function apply(uint256 listID, uint256 amount, bytes32 itemHash, bytes data) public {\n    \t//TODO add index of item in the list\n        require(tcrHelper.canApply(listID,itemHash, msg.sender));\n        //\n    \t(uint256 applicationDuration,,,) = tcrHelper.getListParams(listID);\n        require(depositToken(listID, itemHash,amount));\n        // save creator\n        bbs.setAddress(BBLib.toB32('TCR',listID, itemHash, 'OWNER'), msg.sender);\n        // save application endtime\n        bbs.setUint(BBLib.toB32('TCR', listID, itemHash, 'APPLICATION_ENDTIME'), block.timestamp.add(applicationDuration));\n        bbs.setUint(BBLib.toB32('TCR',listID, itemHash,'STAGE'), 1);\n        // emit event\n        emit ItemApplied(listID, itemHash, data);\n    }\n    \n    // lay balance - min stake >= _amount // set lai stake\n    function withdraw(uint256 listID, bytes32 itemHash, uint _amount) external {\n    \t//TODO allow withdraw unlocked token\n        require (tcrHelper.isOwnerItem(listID, itemHash, msg.sender));\n\n        (,,, uint256 minStake) = tcrHelper.getListParams(listID);\n        uint256 staked = bbs.getUint(BBLib.toB32('TCR', listID, itemHash, 'STAKED'));\n        require(staked - minStake >= _amount);\n\n        bbs.setUint(BBLib.toB32('TCR', listID, itemHash, 'STAKED'), staked.sub(_amount));\n        assert( getERC20(listID).transfer(msg.sender, _amount));\n    \n    }\n    \n    function initExit(uint256 listID, bytes32 itemHash) external {\t\n    \t//TODO Initialize an exit timer for a listing to leave the whitelist\n        // exit timer \n        require (tcrHelper.isOwnerItem(listID, itemHash, msg.sender));\n        require(bbs.getUint(BBLib.toB32('TCR',listID, itemHash,'STAGE')) == 3);\n        uint256 applicationExitDuration = bbs.getUint(BBLib.toB32('TCR', listID, itemHash, 'EXITDURATION'));\n        // save application exittime\n        bbs.setUint(BBLib.toB32('TCR', listID, itemHash, 'EXITTIME'), block.timestamp.add(applicationExitDuration));\n    }\n    // set state = 0, tra tien so huu\n    function finalizeExit(uint256 listID, bytes32 itemHash) external {\n        // TODO Allow a listing to leave the whitelist\n        // after x timer will \n        require (tcrHelper.isOwnerItem(listID, itemHash, msg.sender));\n        require(bbs.getUint(BBLib.toB32('TCR',listID, itemHash,'STAGE')) == 3);\n        uint256 applicationExitTime= bbs.getUint(BBLib.toB32('TCR', listID, itemHash, 'EXITTIME'));\n        require(now > applicationExitTime);\n        bbs.setUint(BBLib.toB32('TCR',listID, itemHash,'STAGE'), 0);\n\n    }\n    \n    function challenge(uint256 listID, bytes32 itemHash, bytes _data) external returns (uint pollID) {\n        // not in challenge stage\n        require(bbs.getUint(BBLib.toB32('TCR',listID, itemHash,'STAGE')) != 2);\n        // require deposit token        \n\n        (, uint256 commitDuration, uint256 revealDuration, uint256 minStake) = tcrHelper.getListParams(listID);\n        require ( getERC20(listID).transferFrom(msg.sender, address(this), minStake));\n        \n        pollID = voting.startPoll(_data, 0 , commitDuration, revealDuration);\n        require(pollID > 0);\n        // save pollID \n        bbs.setUint(BBLib.toB32('TCR', pollID, 'CHALLENGER_STAKED'), minStake);\n\n        bbs.setUint(BBLib.toB32('TCR', listID, itemHash, 'POLL_ID'), pollID);\n        bbs.setUint(BBLib.toB32('TCR_MAPPING_POLL_LIST', pollID), listID);\n        \n        bbs.setUint(BBLib.toB32('TCR_POLL_ID', pollID ), tcrHelper.calcRewardPool(listID, minStake));\n        // save challenger\n        bbs.setAddress(BBLib.toB32('TCR', listID, itemHash, 'CHALLENGER'), msg.sender);\n        // in challenge stage\n        bbs.setUint(BBLib.toB32('TCR',listID, itemHash,'STAGE'), 2);\n        emit Challenge(listID, itemHash, pollID, msg.sender);\n    }\n\n    function updateStatus(uint256 listID, bytes32 itemHash) public {\n        if (tcrHelper.canBeWhitelisted(listID, itemHash)) {\n            whitelistApplication(listID, itemHash);\n        } else if (challengeCanBeResolved(listID, itemHash)) {\n            resolveChallenge(listID, itemHash);\n        } else {\n         revert();\n        }\n    }\n\n    function claimReward(uint pollID) public {\n        require(bbs.getBool(BBLib.toB32('TCR_VOTER_CLAIMED', pollID, msg.sender)) == false);\n        uint256 numReward = voterReward(msg.sender, pollID);\n        require(numReward > 0);\n        uint256 listID = tcrHelper.getListID(pollID);\n        assert(getERC20(listID).transfer(msg.sender, numReward));\n        bbs.setBool(BBLib.toB32('TCR_VOTER_CLAIMED', pollID, msg.sender), true);\n    }\n    function voterReward(address voter, uint pollID) public view returns (uint numReward) {\n        if(bbs.getBool(BBLib.toB32('TCR_VOTER_CLAIMED', pollID, voter)) == false){\n           uint256 userVotes =  votingHelper.getNumPassingTokens(voter, pollID);\n            (bool isFinished,, uint256 winnerVotes,, uint256 quorum) = votingHelper.getPollWinner(pollID);\n            if(isFinished==true && userVotes > 0 && quorum > 50){\n                uint256 rewardPool =  bbs.getUint(BBLib.toB32('TCR_POLL_ID', pollID ));\n                numReward = userVotes.mul(rewardPool).div(winnerVotes); // (vote/totalVotes) * staked\n            }\n        } \n        \n    }\n    function whitelistApplication(uint256 listID, bytes32 itemHash) private {\n        bbs.setBool(BBLib.toB32('TCR',listID, itemHash,'WHITE_LISTED'), true);\n        bbs.setUint(BBLib.toB32('TCR',listID, itemHash,'STAGE'), 3);\n    }\n    \n    function challengeCanBeResolved(uint256 listID, bytes32 itemHash) view public returns (bool) {\n        uint pollID = bbs.getUint(BBLib.toB32('TCR', listID, itemHash, 'POLL_ID'));\n        uint256 stage = bbs.getUint(BBLib.toB32('TCR',listID, itemHash,'STAGE'));\n        require(stage == 2);\n        (bool isFinished,,,,) = votingHelper.getPollWinner(pollID);\n        return isFinished;\n    }\n    function determineReward(uint pollID) public view returns (uint) {\n        uint256 minStake = bbs.getUint(BBLib.toB32('TCR', pollID, 'CHALLENGER_STAKED'));\n        // Edge case, nobody voted, give all tokens to the challenger.\n        // quorum 70 --> lose\n        // if nobody voted, ?? TODO\n        (,,, bool hasVote, ) = votingHelper.getPollWinner(pollID);\n        if (hasVote!=true) {\n            return 2 * minStake;//TODO ... should reward to voter\n        }\n\n        return (2 * minStake) - bbs.getUint(BBLib.toB32('TCR_POLL_ID', pollID ));\n    }\n    function resolveChallenge(uint256 listID, bytes32 itemHash) private {\n        uint pollID = bbs.getUint(BBLib.toB32('TCR', listID, itemHash, 'POLL_ID'));\n        (bool isFinished, , uint256 winnerVotes ,, uint256 quorum) = votingHelper.getPollWinner(pollID);\n        uint256 initQuorum = bbs.getUint(BBLib.toB32('TCR', listID, 'QUORUM'));\n        uint256 reward = determineReward(pollID);\n        if(quorum>= initQuorum && isFinished == true && winnerVotes > 0){\n            //pass vote\n            whitelistApplication(listID, itemHash);\n            uint256 staked = bbs.getUint(BBLib.toB32('TCR', listID, itemHash, 'STAKED'));\n            bbs.setUint(BBLib.toB32('TCR', listID, itemHash, 'STAKED'), staked.add(reward));\n        }else{\n            // did not pass // thang do khong pass, trang thai true -false,\n            //remove ra khoi list\n            bbs.setUint(BBLib.toB32('TCR',listID, itemHash,'STAGE'), 0);\n            assert( getERC20(listID).transfer(bbs.getAddress(BBLib.toB32('TCR', listID, itemHash, 'CHALLENGER')), reward));\n        }\n    }\n}",
  "sourcePath": "/Users/yena/Documents/tuongnguyen/bigbom-digital-contract/src/contracts/BBUnOrderedTCR.sol",
  "compiler": {
    "name": "solc",
    "version": "0.4.24+commit.e67f0147.Emscripten.clang"
  },
  "schemaVersion": "2.0.1",
  "updatedAt": "2018-11-27T01:21:00.001Z"
}