{
  "contractName": "BBUnOrderedTCR",
  "abi": [
    {
      "constant": true,
      "inputs": [],
      "name": "tcrHelper",
      "outputs": [
        {
          "name": "",
          "type": "address"
        }
      ],
      "payable": false,
      "stateMutability": "view",
      "type": "function"
    },
    {
      "constant": true,
      "inputs": [],
      "name": "bbo",
      "outputs": [
        {
          "name": "",
          "type": "address"
        }
      ],
      "payable": false,
      "stateMutability": "view",
      "type": "function"
    },
    {
      "constant": true,
      "inputs": [],
      "name": "bbs",
      "outputs": [
        {
          "name": "",
          "type": "address"
        }
      ],
      "payable": false,
      "stateMutability": "view",
      "type": "function"
    },
    {
      "constant": true,
      "inputs": [],
      "name": "votingHelper",
      "outputs": [
        {
          "name": "",
          "type": "address"
        }
      ],
      "payable": false,
      "stateMutability": "view",
      "type": "function"
    },
    {
      "constant": false,
      "inputs": [],
      "name": "renounceOwnership",
      "outputs": [],
      "payable": false,
      "stateMutability": "nonpayable",
      "type": "function"
    },
    {
      "constant": false,
      "inputs": [
        {
          "name": "BBOAddress",
          "type": "address"
        }
      ],
      "name": "setBBO",
      "outputs": [],
      "payable": false,
      "stateMutability": "nonpayable",
      "type": "function"
    },
    {
      "constant": true,
      "inputs": [],
      "name": "owner",
      "outputs": [
        {
          "name": "",
          "type": "address"
        }
      ],
      "payable": false,
      "stateMutability": "view",
      "type": "function"
    },
    {
      "constant": false,
      "inputs": [
        {
          "name": "anyToken",
          "type": "address"
        }
      ],
      "name": "emergencyERC20Drain",
      "outputs": [],
      "payable": false,
      "stateMutability": "nonpayable",
      "type": "function"
    },
    {
      "constant": false,
      "inputs": [
        {
          "name": "storageAddress",
          "type": "address"
        }
      ],
      "name": "setStorage",
      "outputs": [],
      "payable": false,
      "stateMutability": "nonpayable",
      "type": "function"
    },
    {
      "constant": false,
      "inputs": [
        {
          "name": "_newOwner",
          "type": "address"
        }
      ],
      "name": "transferOwnership",
      "outputs": [],
      "payable": false,
      "stateMutability": "nonpayable",
      "type": "function"
    },
    {
      "constant": true,
      "inputs": [],
      "name": "voting",
      "outputs": [
        {
          "name": "",
          "type": "address"
        }
      ],
      "payable": false,
      "stateMutability": "view",
      "type": "function"
    },
    {
      "anonymous": false,
      "inputs": [
        {
          "indexed": true,
          "name": "listID",
          "type": "uint256"
        },
        {
          "indexed": true,
          "name": "itemHash",
          "type": "bytes32"
        },
        {
          "indexed": false,
          "name": "data",
          "type": "bytes"
        }
      ],
      "name": "ItemApplied",
      "type": "event"
    },
    {
      "anonymous": false,
      "inputs": [
        {
          "indexed": true,
          "name": "listID",
          "type": "uint256"
        },
        {
          "indexed": true,
          "name": "itemHash",
          "type": "bytes32"
        },
        {
          "indexed": false,
          "name": "pollID",
          "type": "uint256"
        },
        {
          "indexed": false,
          "name": "sender",
          "type": "address"
        }
      ],
      "name": "Challenge",
      "type": "event"
    },
    {
      "anonymous": false,
      "inputs": [
        {
          "indexed": true,
          "name": "previousOwner",
          "type": "address"
        }
      ],
      "name": "OwnershipRenounced",
      "type": "event"
    },
    {
      "anonymous": false,
      "inputs": [
        {
          "indexed": true,
          "name": "previousOwner",
          "type": "address"
        },
        {
          "indexed": true,
          "name": "newOwner",
          "type": "address"
        }
      ],
      "name": "OwnershipTransferred",
      "type": "event"
    },
    {
      "constant": false,
      "inputs": [
        {
          "name": "p",
          "type": "address"
        }
      ],
      "name": "setVoting",
      "outputs": [],
      "payable": false,
      "stateMutability": "nonpayable",
      "type": "function"
    },
    {
      "constant": false,
      "inputs": [
        {
          "name": "p",
          "type": "address"
        }
      ],
      "name": "setVotingHelper",
      "outputs": [],
      "payable": false,
      "stateMutability": "nonpayable",
      "type": "function"
    },
    {
      "constant": false,
      "inputs": [
        {
          "name": "p",
          "type": "address"
        }
      ],
      "name": "setTCRHelper",
      "outputs": [],
      "payable": false,
      "stateMutability": "nonpayable",
      "type": "function"
    },
    {
      "constant": true,
      "inputs": [
        {
          "name": "listID",
          "type": "uint256"
        },
        {
          "name": "itemHash",
          "type": "bytes32"
        }
      ],
      "name": "isOwnerItem",
      "outputs": [
        {
          "name": "r",
          "type": "bool"
        }
      ],
      "payable": false,
      "stateMutability": "view",
      "type": "function"
    },
    {
      "constant": false,
      "inputs": [
        {
          "name": "listID",
          "type": "uint256"
        },
        {
          "name": "itemHash",
          "type": "bytes32"
        },
        {
          "name": "amount",
          "type": "uint256"
        }
      ],
      "name": "depositToken",
      "outputs": [
        {
          "name": "",
          "type": "bool"
        }
      ],
      "payable": false,
      "stateMutability": "nonpayable",
      "type": "function"
    },
    {
      "constant": false,
      "inputs": [
        {
          "name": "listID",
          "type": "uint256"
        },
        {
          "name": "amount",
          "type": "uint256"
        },
        {
          "name": "itemHash",
          "type": "bytes32"
        },
        {
          "name": "data",
          "type": "bytes"
        }
      ],
      "name": "apply",
      "outputs": [],
      "payable": false,
      "stateMutability": "nonpayable",
      "type": "function"
    },
    {
      "constant": false,
      "inputs": [
        {
          "name": "listID",
          "type": "uint256"
        },
        {
          "name": "itemHash",
          "type": "bytes32"
        },
        {
          "name": "_amount",
          "type": "uint256"
        }
      ],
      "name": "withdraw",
      "outputs": [],
      "payable": false,
      "stateMutability": "nonpayable",
      "type": "function"
    },
    {
      "constant": false,
      "inputs": [
        {
          "name": "listID",
          "type": "uint256"
        },
        {
          "name": "itemHash",
          "type": "bytes32"
        }
      ],
      "name": "initExit",
      "outputs": [],
      "payable": false,
      "stateMutability": "nonpayable",
      "type": "function"
    },
    {
      "constant": false,
      "inputs": [
        {
          "name": "listID",
          "type": "uint256"
        },
        {
          "name": "itemHash",
          "type": "bytes32"
        }
      ],
      "name": "finalizeExit",
      "outputs": [],
      "payable": false,
      "stateMutability": "nonpayable",
      "type": "function"
    },
    {
      "constant": false,
      "inputs": [
        {
          "name": "listID",
          "type": "uint256"
        },
        {
          "name": "itemHash",
          "type": "bytes32"
        },
        {
          "name": "_data",
          "type": "bytes"
        }
      ],
      "name": "challenge",
      "outputs": [
        {
          "name": "pollID",
          "type": "uint256"
        }
      ],
      "payable": false,
      "stateMutability": "nonpayable",
      "type": "function"
    },
    {
      "constant": false,
      "inputs": [
        {
          "name": "listID",
          "type": "uint256"
        },
        {
          "name": "itemHash",
          "type": "bytes32"
        }
      ],
      "name": "updateStatus",
      "outputs": [],
      "payable": false,
      "stateMutability": "nonpayable",
      "type": "function"
    },
    {
      "constant": false,
      "inputs": [
        {
          "name": "pollID",
          "type": "uint256"
        }
      ],
      "name": "claimReward",
      "outputs": [],
      "payable": false,
      "stateMutability": "nonpayable",
      "type": "function"
    },
    {
      "constant": true,
      "inputs": [
        {
          "name": "voter",
          "type": "address"
        },
        {
          "name": "pollID",
          "type": "uint256"
        }
      ],
      "name": "voterReward",
      "outputs": [
        {
          "name": "numReward",
          "type": "uint256"
        }
      ],
      "payable": false,
      "stateMutability": "view",
      "type": "function"
    },
    {
      "constant": true,
      "inputs": [
        {
          "name": "listID",
          "type": "uint256"
        },
        {
          "name": "itemHash",
          "type": "bytes32"
        }
      ],
      "name": "canBeWhitelisted",
      "outputs": [
        {
          "name": "",
          "type": "bool"
        }
      ],
      "payable": false,
      "stateMutability": "view",
      "type": "function"
    },
    {
      "constant": true,
      "inputs": [
        {
          "name": "listID",
          "type": "uint256"
        },
        {
          "name": "itemHash",
          "type": "bytes32"
        }
      ],
      "name": "isWhitelisted",
      "outputs": [
        {
          "name": "whitelisted",
          "type": "bool"
        }
      ],
      "payable": false,
      "stateMutability": "view",
      "type": "function"
    },
    {
      "constant": true,
      "inputs": [
        {
          "name": "listID",
          "type": "uint256"
        },
        {
          "name": "itemHash",
          "type": "bytes32"
        }
      ],
      "name": "challengeCanBeResolved",
      "outputs": [
        {
          "name": "",
          "type": "bool"
        }
      ],
      "payable": false,
      "stateMutability": "view",
      "type": "function"
    },
    {
      "constant": true,
      "inputs": [
        {
          "name": "pollID",
          "type": "uint256"
        }
      ],
      "name": "determineReward",
      "outputs": [
        {
          "name": "",
          "type": "uint256"
        }
      ],
      "payable": false,
      "stateMutability": "view",
      "type": "function"
    }
  ],
  "bytecode": "0x60806040526000600160006101000a81548173ffffffffffffffffffffffffffffffffffffffff021916908373ffffffffffffffffffffffffffffffffffffffff1602179055506000600260006101000a81548173ffffffffffffffffffffffffffffffffffffffff021916908373ffffffffffffffffffffffffffffffffffffffff1602179055506000600360006101000a81548173ffffffffffffffffffffffffffffffffffffffff021916908373ffffffffffffffffffffffffffffffffffffffff1602179055506000600460006101000a81548173ffffffffffffffffffffffffffffffffffffffff021916908373ffffffffffffffffffffffffffffffffffffffff1602179055506000600560006101000a81548173ffffffffffffffffffffffffffffffffffffffff021916908373ffffffffffffffffffffffffffffffffffffffff160217905550336000806101000a81548173ffffffffffffffffffffffffffffffffffffffff021916908373ffffffffffffffffffffffffffffffffffffffff160217905550615fd98061019d6000396000f30060806040526004361061016a576000357c0100000000000000000000000000000000000000000000000000000000900463ffffffff1680630149ae4b1461016f57806306ab34cf146101aa5780631b9680f1146101e55780631e89bf061461023c5780631fde23a41461029357806343dc798b146102ea57806344d1ef3b1461034157806345e971bf14610384578063536e2c75146103bf5780636909fd44146104125780636b095ca1146104655780636fd3db86146104f0578063715018a6146105355780637937f46d1461054c5780638da5cb5b1461058f57806390e8d82f146105e65780639137c1a714610629578063a0fcd1611461066c578063ab0ba5d4146106c9578063ae169a5014610730578063ba63e25a1461075d578063bd0ae405146107b0578063bf25c61d14610811578063c4d0795114610864578063c8187cf1146108a7578063e193289f146108e8578063f2fde38b1461092b578063fce1ccca1461096e575b600080fd5b34801561017b57600080fd5b506101a86004803603810190808035906020019092919080356000191690602001909291905050506109c5565b005b3480156101b657600080fd5b506101e3600480360381019080803590602001909291908035600019169060200190929190505050610dc0565b005b3480156101f157600080fd5b506101fa6111be565b604051808273ffffffffffffffffffffffffffffffffffffffff1673ffffffffffffffffffffffffffffffffffffffff16815260200191505060405180910390f35b34801561024857600080fd5b506102516111e4565b604051808273ffffffffffffffffffffffffffffffffffffffff1673ffffffffffffffffffffffffffffffffffffffff16815260200191505060405180910390f35b34801561029f57600080fd5b506102a861120a565b604051808273ffffffffffffffffffffffffffffffffffffffff1673ffffffffffffffffffffffffffffffffffffffff16815260200191505060405180910390f35b3480156102f657600080fd5b506102ff611230565b604051808273ffffffffffffffffffffffffffffffffffffffff1673ffffffffffffffffffffffffffffffffffffffff16815260200191505060405180910390f35b34801561034d57600080fd5b50610382600480360381019080803573ffffffffffffffffffffffffffffffffffffffff169060200190929190505050611256565b005b34801561039057600080fd5b506103bd6004803603810190808035906020019092919080356000191690602001909291905050506112f5565b005b3480156103cb57600080fd5b506103f860048036038101908080359060200190929190803560001916906020019092919050505061133b565b604051808215151515815260200191505060405180910390f35b34801561041e57600080fd5b5061044b6004803603810190808035906020019092919080356000191690602001909291905050506116ec565b604051808215151515815260200191505060405180910390f35b34801561047157600080fd5b506104ee60048036038101908080359060200190929190803590602001909291908035600019169060200190929190803590602001908201803590602001908080601f016020809104026020016040519081016040528093929190818152602001838380828437820191505050505050919291929050505061183f565b005b3480156104fc57600080fd5b5061053360048036038101908080359060200190929190803560001916906020019092919080359060200190929190505050611dcd565b005b34801561054157600080fd5b5061054a61227f565b005b34801561055857600080fd5b5061058d600480360381019080803573ffffffffffffffffffffffffffffffffffffffff169060200190929190505050612381565b005b34801561059b57600080fd5b506105a4612420565b604051808273ffffffffffffffffffffffffffffffffffffffff1673ffffffffffffffffffffffffffffffffffffffff16815260200191505060405180910390f35b3480156105f257600080fd5b50610627600480360381019080803573ffffffffffffffffffffffffffffffffffffffff169060200190929190505050612445565b005b34801561063557600080fd5b5061066a600480360381019080803573ffffffffffffffffffffffffffffffffffffffff169060200190929190505050612759565b005b34801561067857600080fd5b506106af600480360381019080803590602001909291908035600019169060200190929190803590602001909291905050506127f8565b604051808215151515815260200191505060405180910390f35b3480156106d557600080fd5b5061071a600480360381019080803590602001909291908035600019169060200190929190803590602001908201803590602001919091929391929390505050612ce4565b6040518082815260200191505060405180910390f35b34801561073c57600080fd5b5061075b600480360381019080803590602001909291905050506137e2565b005b34801561076957600080fd5b50610796600480360381019080803590602001909291908035600019169060200190929190505050613b2c565b604051808215151515815260200191505060405180910390f35b3480156107bc57600080fd5b506107fb600480360381019080803573ffffffffffffffffffffffffffffffffffffffff16906020019092919080359060200190929190505050613e10565b6040518082815260200191505060405180910390f35b34801561081d57600080fd5b5061084a6004803603810190808035906020019092919080356000191690602001909291905050506142a3565b604051808215151515815260200191505060405180910390f35b34801561087057600080fd5b506108a5600480360381019080803573ffffffffffffffffffffffffffffffffffffffff169060200190929190505050614462565b005b3480156108b357600080fd5b506108d260048036038101908080359060200190929190505050614501565b6040518082815260200191505060405180910390f35b3480156108f457600080fd5b50610929600480360381019080803573ffffffffffffffffffffffffffffffffffffffff169060200190929190505050614884565b005b34801561093757600080fd5b5061096c600480360381019080803573ffffffffffffffffffffffffffffffffffffffff169060200190929190505050614923565b005b34801561097a57600080fd5b506109836149e2565b604051808273ffffffffffffffffffffffffffffffffffffffff1673ffffffffffffffffffffffffffffffffffffffff16815260200191505060405180910390f35b60006109d183836142a3565b15156109dc57600080fd5b6003600160009054906101000a900473ffffffffffffffffffffffffffffffffffffffff1673ffffffffffffffffffffffffffffffffffffffff1663bd02d0f5610a926040805190810160405280600381526020017f544352000000000000000000000000000000000000000000000000000000000081525087876040805190810160405280600581526020017f5354414745000000000000000000000000000000000000000000000000000000815250614a08565b6040518263ffffffff167c0100000000000000000000000000000000000000000000000000000000028152600401808260001916600019168152602001915050602060405180830381600087803b158015610aec57600080fd5b505af1158015610b00573d6000803e3d6000fd5b505050506040513d6020811015610b1657600080fd5b8101908080519060200190929190505050141515610b3357600080fd5b600160009054906101000a900473ffffffffffffffffffffffffffffffffffffffff1673ffffffffffffffffffffffffffffffffffffffff1663bd02d0f5610be76040805190810160405280600381526020017f544352000000000000000000000000000000000000000000000000000000000081525086866040805190810160405280600881526020017f4558495454494d45000000000000000000000000000000000000000000000000815250614a08565b6040518263ffffffff167c0100000000000000000000000000000000000000000000000000000000028152600401808260001916600019168152602001915050602060405180830381600087803b158015610c4157600080fd5b505af1158015610c55573d6000803e3d6000fd5b505050506040513d6020811015610c6b57600080fd5b810190808051906020019092919050505090508042111515610c8c57600080fd5b600160009054906101000a900473ffffffffffffffffffffffffffffffffffffffff1673ffffffffffffffffffffffffffffffffffffffff1663e2a4853a610d406040805190810160405280600381526020017f544352000000000000000000000000000000000000000000000000000000000081525086866040805190810160405280600581526020017f5354414745000000000000000000000000000000000000000000000000000000815250614a08565b60006040518363ffffffff167c010000000000000000000000000000000000000000000000000000000002815260040180836000191660001916815260200182815260200192505050600060405180830381600087803b158015610da357600080fd5b505af1158015610db7573d6000803e3d6000fd5b50505050505050565b6000610dcc83836142a3565b1515610dd757600080fd5b6003600160009054906101000a900473ffffffffffffffffffffffffffffffffffffffff1673ffffffffffffffffffffffffffffffffffffffff1663bd02d0f5610e8d6040805190810160405280600381526020017f544352000000000000000000000000000000000000000000000000000000000081525087876040805190810160405280600581526020017f5354414745000000000000000000000000000000000000000000000000000000815250614a08565b6040518263ffffffff167c0100000000000000000000000000000000000000000000000000000000028152600401808260001916600019168152602001915050602060405180830381600087803b158015610ee757600080fd5b505af1158015610efb573d6000803e3d6000fd5b505050506040513d6020811015610f1157600080fd5b8101908080519060200190929190505050141515610f2e57600080fd5b600160009054906101000a900473ffffffffffffffffffffffffffffffffffffffff1673ffffffffffffffffffffffffffffffffffffffff1663bd02d0f5610fe26040805190810160405280600381526020017f544352000000000000000000000000000000000000000000000000000000000081525086866040805190810160405280600c81526020017f455849544455524154494f4e0000000000000000000000000000000000000000815250614a08565b6040518263ffffffff167c0100000000000000000000000000000000000000000000000000000000028152600401808260001916600019168152602001915050602060405180830381600087803b15801561103c57600080fd5b505af1158015611050573d6000803e3d6000fd5b505050506040513d602081101561106657600080fd5b81019080805190602001909291905050509050600160009054906101000a900473ffffffffffffffffffffffffffffffffffffffff1673ffffffffffffffffffffffffffffffffffffffff1663e2a4853a61112d6040805190810160405280600381526020017f544352000000000000000000000000000000000000000000000000000000000081525086866040805190810160405280600881526020017f4558495454494d45000000000000000000000000000000000000000000000000815250614a08565b6111408442614b5090919063ffffffff16565b6040518363ffffffff167c010000000000000000000000000000000000000000000000000000000002815260040180836000191660001916815260200182815260200192505050600060405180830381600087803b1580156111a157600080fd5b505af11580156111b5573d6000803e3d6000fd5b50505050505050565b600560009054906101000a900473ffffffffffffffffffffffffffffffffffffffff1681565b600260009054906101000a900473ffffffffffffffffffffffffffffffffffffffff1681565b600160009054906101000a900473ffffffffffffffffffffffffffffffffffffffff1681565b600460009054906101000a900473ffffffffffffffffffffffffffffffffffffffff1681565b6000809054906101000a900473ffffffffffffffffffffffffffffffffffffffff1673ffffffffffffffffffffffffffffffffffffffff163373ffffffffffffffffffffffffffffffffffffffff161415156112b157600080fd5b80600560006101000a81548173ffffffffffffffffffffffffffffffffffffffff021916908373ffffffffffffffffffffffffffffffffffffffff16021790555050565b6112ff8282613b2c565b156113135761130e8282614b6c565b611337565b61131d828261133b565b156113315761132c8282614dd2565b611336565b600080fd5b5b5050565b600080600080600160009054906101000a900473ffffffffffffffffffffffffffffffffffffffff1673ffffffffffffffffffffffffffffffffffffffff1663bd02d0f56113f56040805190810160405280600381526020017f544352000000000000000000000000000000000000000000000000000000000081525089896040805190810160405280600781526020017f504f4c4c5f494400000000000000000000000000000000000000000000000000815250614a08565b6040518263ffffffff167c0100000000000000000000000000000000000000000000000000000000028152600401808260001916600019168152602001915050602060405180830381600087803b15801561144f57600080fd5b505af1158015611463573d6000803e3d6000fd5b505050506040513d602081101561147957600080fd5b81019080805190602001909291905050509250600160009054906101000a900473ffffffffffffffffffffffffffffffffffffffff1673ffffffffffffffffffffffffffffffffffffffff1663bd02d0f56115406040805190810160405280600381526020017f544352000000000000000000000000000000000000000000000000000000000081525089896040805190810160405280600581526020017f5354414745000000000000000000000000000000000000000000000000000000815250614a08565b6040518263ffffffff167c0100000000000000000000000000000000000000000000000000000000028152600401808260001916600019168152602001915050602060405180830381600087803b15801561159a57600080fd5b505af11580156115ae573d6000803e3d6000fd5b505050506040513d60208110156115c457600080fd5b810190808051906020019092919050505091506002821415156115e657600080fd5b600460009054906101000a900473ffffffffffffffffffffffffffffffffffffffff1673ffffffffffffffffffffffffffffffffffffffff1663b6990ee1846040518263ffffffff167c01000000000000000000000000000000000000000000000000000000000281526004018082815260200191505060a060405180830381600087803b15801561167757600080fd5b505af115801561168b573d6000803e3d6000fd5b505050506040513d60a08110156116a157600080fd5b81019080805190602001909291908051906020019092919080519060200190929190805190602001909291908051906020019092919050505050505050905080935050505092915050565b6000600160009054906101000a900473ffffffffffffffffffffffffffffffffffffffff1673ffffffffffffffffffffffffffffffffffffffff16637ae1cfca6117a26040805190810160405280600381526020017f544352000000000000000000000000000000000000000000000000000000000081525086866040805190810160405280600c81526020017f57484954455f4c49535445440000000000000000000000000000000000000000815250614a08565b6040518263ffffffff167c0100000000000000000000000000000000000000000000000000000000028152600401808260001916600019168152602001915050602060405180830381600087803b1580156117fc57600080fd5b505af1158015611810573d6000803e3d6000fd5b505050506040513d602081101561182657600080fd5b8101908080519060200190929190505050905092915050565b600061184b85846157c3565b151561185657600080fd5b600560009054906101000a900473ffffffffffffffffffffffffffffffffffffffff1673ffffffffffffffffffffffffffffffffffffffff1663f489d46b866040518263ffffffff167c010000000000000000000000000000000000000000000000000000000002815260040180828152602001915050608060405180830381600087803b1580156118e757600080fd5b505af11580156118fb573d6000803e3d6000fd5b505050506040513d608081101561191157600080fd5b810190808051906020019092919080519060200190929190805190602001909291908051906020019092919050505050505090506119508584866127f8565b151561195b57600080fd5b600160009054906101000a900473ffffffffffffffffffffffffffffffffffffffff1673ffffffffffffffffffffffffffffffffffffffff1663ca446dd9611a0f6040805190810160405280600381526020017f544352000000000000000000000000000000000000000000000000000000000081525088876040805190810160405280600581526020017f4f574e4552000000000000000000000000000000000000000000000000000000815250614a08565b336040518363ffffffff167c01000000000000000000000000000000000000000000000000000000000281526004018083600019166000191681526020018273ffffffffffffffffffffffffffffffffffffffff1673ffffffffffffffffffffffffffffffffffffffff16815260200192505050600060405180830381600087803b158015611a9d57600080fd5b505af1158015611ab1573d6000803e3d6000fd5b50505050600160009054906101000a900473ffffffffffffffffffffffffffffffffffffffff1673ffffffffffffffffffffffffffffffffffffffff1663e2a4853a611b696040805190810160405280600381526020017f544352000000000000000000000000000000000000000000000000000000000081525088876040805190810160405280601381526020017f4150504c49434154494f4e5f454e4454494d4500000000000000000000000000815250614a08565b611b7c8442614b5090919063ffffffff16565b6040518363ffffffff167c010000000000000000000000000000000000000000000000000000000002815260040180836000191660001916815260200182815260200192505050600060405180830381600087803b158015611bdd57600080fd5b505af1158015611bf1573d6000803e3d6000fd5b50505050600160009054906101000a900473ffffffffffffffffffffffffffffffffffffffff1673ffffffffffffffffffffffffffffffffffffffff1663e2a4853a611ca96040805190810160405280600381526020017f544352000000000000000000000000000000000000000000000000000000000081525088876040805190810160405280600581526020017f5354414745000000000000000000000000000000000000000000000000000000815250614a08565b60016040518363ffffffff167c010000000000000000000000000000000000000000000000000000000002815260040180836000191660001916815260200182815260200192505050600060405180830381600087803b158015611d0c57600080fd5b505af1158015611d20573d6000803e3d6000fd5b505050508260001916857f90bb7ffc3fe9af5712e4592590b22bf8db78ad5ced326d0ea4297d46a4467ee2846040518080602001828103825283818151815260200191508051906020019080838360005b83811015611d8c578082015181840152602081019050611d71565b50505050905090810190601f168015611db95780820380516001836020036101000a031916815260200191505b509250505060405180910390a35050505050565b600080611dda85856142a3565b1515611de557600080fd5b600560009054906101000a900473ffffffffffffffffffffffffffffffffffffffff1673ffffffffffffffffffffffffffffffffffffffff1663f489d46b866040518263ffffffff167c010000000000000000000000000000000000000000000000000000000002815260040180828152602001915050608060405180830381600087803b158015611e7657600080fd5b505af1158015611e8a573d6000803e3d6000fd5b505050506040513d6080811015611ea057600080fd5b81019080805190602001909291908051906020019092919080519060200190929190805190602001909291905050509450505050600160009054906101000a900473ffffffffffffffffffffffffffffffffffffffff1673ffffffffffffffffffffffffffffffffffffffff1663bd02d0f5611f886040805190810160405280600381526020017f544352000000000000000000000000000000000000000000000000000000000081525088886040805190810160405280600681526020017f5354414b45440000000000000000000000000000000000000000000000000000815250614a08565b6040518263ffffffff167c0100000000000000000000000000000000000000000000000000000000028152600401808260001916600019168152602001915050602060405180830381600087803b158015611fe257600080fd5b505af1158015611ff6573d6000803e3d6000fd5b505050506040513d602081101561200c57600080fd5b81019080805190602001909291905050509050828282031015151561203057600080fd5b600160009054906101000a900473ffffffffffffffffffffffffffffffffffffffff1673ffffffffffffffffffffffffffffffffffffffff1663e2a4853a6120e46040805190810160405280600381526020017f544352000000000000000000000000000000000000000000000000000000000081525088886040805190810160405280600681526020017f5354414b45440000000000000000000000000000000000000000000000000000815250614a08565b6120f7868561598090919063ffffffff16565b6040518363ffffffff167c010000000000000000000000000000000000000000000000000000000002815260040180836000191660001916815260200182815260200192505050600060405180830381600087803b15801561215857600080fd5b505af115801561216c573d6000803e3d6000fd5b50505050600260009054906101000a900473ffffffffffffffffffffffffffffffffffffffff1673ffffffffffffffffffffffffffffffffffffffff1663a9059cbb33856040518363ffffffff167c0100000000000000000000000000000000000000000000000000000000028152600401808373ffffffffffffffffffffffffffffffffffffffff1673ffffffffffffffffffffffffffffffffffffffff16815260200182815260200192505050602060405180830381600087803b15801561223557600080fd5b505af1158015612249573d6000803e3d6000fd5b505050506040513d602081101561225f57600080fd5b8101908080519060200190929190505050151561227857fe5b5050505050565b6000809054906101000a900473ffffffffffffffffffffffffffffffffffffffff1673ffffffffffffffffffffffffffffffffffffffff163373ffffffffffffffffffffffffffffffffffffffff161415156122da57600080fd5b6000809054906101000a900473ffffffffffffffffffffffffffffffffffffffff1673ffffffffffffffffffffffffffffffffffffffff167ff8df31144d9c2f0f6b59d69b8b98abd5459d07f2742c4df920b25aae33c6482060405160405180910390a260008060006101000a81548173ffffffffffffffffffffffffffffffffffffffff021916908373ffffffffffffffffffffffffffffffffffffffff160217905550565b6000809054906101000a900473ffffffffffffffffffffffffffffffffffffffff1673ffffffffffffffffffffffffffffffffffffffff163373ffffffffffffffffffffffffffffffffffffffff161415156123dc57600080fd5b80600260006101000a81548173ffffffffffffffffffffffffffffffffffffffff021916908373ffffffffffffffffffffffffffffffffffffffff16021790555050565b6000809054906101000a900473ffffffffffffffffffffffffffffffffffffffff1681565b6000809054906101000a900473ffffffffffffffffffffffffffffffffffffffff1673ffffffffffffffffffffffffffffffffffffffff163373ffffffffffffffffffffffffffffffffffffffff161415156124a057600080fd5b60003073ffffffffffffffffffffffffffffffffffffffff16311115612540576000809054906101000a900473ffffffffffffffffffffffffffffffffffffffff1673ffffffffffffffffffffffffffffffffffffffff166108fc3073ffffffffffffffffffffffffffffffffffffffff16319081150290604051600060405180830381858888f1935050505015801561253e573d6000803e3d6000fd5b505b600073ffffffffffffffffffffffffffffffffffffffff168173ffffffffffffffffffffffffffffffffffffffff16141515612756578073ffffffffffffffffffffffffffffffffffffffff1663a9059cbb6000809054906101000a900473ffffffffffffffffffffffffffffffffffffffff168373ffffffffffffffffffffffffffffffffffffffff166370a08231306040518263ffffffff167c0100000000000000000000000000000000000000000000000000000000028152600401808273ffffffffffffffffffffffffffffffffffffffff1673ffffffffffffffffffffffffffffffffffffffff168152602001915050602060405180830381600087803b15801561264f57600080fd5b505af1158015612663573d6000803e3d6000fd5b505050506040513d602081101561267957600080fd5b81019080805190602001909291905050506040518363ffffffff167c0100000000000000000000000000000000000000000000000000000000028152600401808373ffffffffffffffffffffffffffffffffffffffff1673ffffffffffffffffffffffffffffffffffffffff16815260200182815260200192505050602060405180830381600087803b15801561270f57600080fd5b505af1158015612723573d6000803e3d6000fd5b505050506040513d602081101561273957600080fd5b8101908080519060200190929190505050151561275557600080fd5b5b50565b6000809054906101000a900473ffffffffffffffffffffffffffffffffffffffff1673ffffffffffffffffffffffffffffffffffffffff163373ffffffffffffffffffffffffffffffffffffffff161415156127b457600080fd5b80600160006101000a81548173ffffffffffffffffffffffffffffffffffffffff021916908373ffffffffffffffffffffffffffffffffffffffff16021790555050565b6000806000600560009054906101000a900473ffffffffffffffffffffffffffffffffffffffff1673ffffffffffffffffffffffffffffffffffffffff1663f489d46b876040518263ffffffff167c010000000000000000000000000000000000000000000000000000000002815260040180828152602001915050608060405180830381600087803b15801561288e57600080fd5b505af11580156128a2573d6000803e3d6000fd5b505050506040513d60808110156128b857600080fd5b81019080805190602001909291908051906020019092919080519060200190929190805190602001909291905050509450505050600160009054906101000a900473ffffffffffffffffffffffffffffffffffffffff1673ffffffffffffffffffffffffffffffffffffffff1663bd02d0f56129a06040805190810160405280600381526020017f544352000000000000000000000000000000000000000000000000000000000081525089896040805190810160405280600681526020017f5354414b45440000000000000000000000000000000000000000000000000000815250614a08565b6040518263ffffffff167c0100000000000000000000000000000000000000000000000000000000028152600401808260001916600019168152602001915050602060405180830381600087803b1580156129fa57600080fd5b505af1158015612a0e573d6000803e3d6000fd5b505050506040513d6020811015612a2457600080fd5b8101908080519060200190929190505050905081612a4b8583614b5090919063ffffffff16565b10151515612a5857600080fd5b600260009054906101000a900473ffffffffffffffffffffffffffffffffffffffff1673ffffffffffffffffffffffffffffffffffffffff166323b872dd3330876040518463ffffffff167c0100000000000000000000000000000000000000000000000000000000028152600401808473ffffffffffffffffffffffffffffffffffffffff1673ffffffffffffffffffffffffffffffffffffffff1681526020018373ffffffffffffffffffffffffffffffffffffffff1673ffffffffffffffffffffffffffffffffffffffff1681526020018281526020019350505050602060405180830381600087803b158015612b5157600080fd5b505af1158015612b65573d6000803e3d6000fd5b505050506040513d6020811015612b7b57600080fd5b81019080805190602001909291905050501515612b9757600080fd5b600160009054906101000a900473ffffffffffffffffffffffffffffffffffffffff1673ffffffffffffffffffffffffffffffffffffffff1663e2a4853a612c4b6040805190810160405280600381526020017f544352000000000000000000000000000000000000000000000000000000000081525089896040805190810160405280600681526020017f5354414b45440000000000000000000000000000000000000000000000000000815250614a08565b612c5e8785614b5090919063ffffffff16565b6040518363ffffffff167c010000000000000000000000000000000000000000000000000000000002815260040180836000191660001916815260200182815260200192505050600060405180830381600087803b158015612cbf57600080fd5b505af1158015612cd3573d6000803e3d6000fd5b505050506001925050509392505050565b6000806000806002600160009054906101000a900473ffffffffffffffffffffffffffffffffffffffff1673ffffffffffffffffffffffffffffffffffffffff1663bd02d0f5612da06040805190810160405280600381526020017f54435200000000000000000000000000000000000000000000000000000000008152508c8c6040805190810160405280600581526020017f5354414745000000000000000000000000000000000000000000000000000000815250614a08565b6040518263ffffffff167c0100000000000000000000000000000000000000000000000000000000028152600401808260001916600019168152602001915050602060405180830381600087803b158015612dfa57600080fd5b505af1158015612e0e573d6000803e3d6000fd5b505050506040513d6020811015612e2457600080fd5b810190808051906020019092919050505014151515612e4257600080fd5b600560009054906101000a900473ffffffffffffffffffffffffffffffffffffffff1673ffffffffffffffffffffffffffffffffffffffff1663f489d46b896040518263ffffffff167c010000000000000000000000000000000000000000000000000000000002815260040180828152602001915050608060405180830381600087803b158015612ed357600080fd5b505af1158015612ee7573d6000803e3d6000fd5b505050506040513d6080811015612efd57600080fd5b810190808051906020019092919080519060200190929190805190602001909291908051906020019092919050505093509350935050600260009054906101000a900473ffffffffffffffffffffffffffffffffffffffff1673ffffffffffffffffffffffffffffffffffffffff166323b872dd3330846040518463ffffffff167c0100000000000000000000000000000000000000000000000000000000028152600401808473ffffffffffffffffffffffffffffffffffffffff1673ffffffffffffffffffffffffffffffffffffffff1681526020018373ffffffffffffffffffffffffffffffffffffffff1673ffffffffffffffffffffffffffffffffffffffff1681526020018281526020019350505050602060405180830381600087803b15801561302c57600080fd5b505af1158015613040573d6000803e3d6000fd5b505050506040513d602081101561305657600080fd5b8101908080519060200190929190505050151561307257600080fd5b600360009054906101000a900473ffffffffffffffffffffffffffffffffffffffff1673ffffffffffffffffffffffffffffffffffffffff1663bd002e1e8787600087876040518663ffffffff167c01000000000000000000000000000000000000000000000000000000000281526004018080602001858152602001848152602001838152602001828103825287878281815260200192508082843782019150509650505050505050602060405180830381600087803b15801561313657600080fd5b505af115801561314a573d6000803e3d6000fd5b505050506040513d602081101561316057600080fd5b8101908080519060200190929190505050935060008411151561318257600080fd5b600160009054906101000a900473ffffffffffffffffffffffffffffffffffffffff1673ffffffffffffffffffffffffffffffffffffffff1663e2a4853a6132356040805190810160405280600381526020017f5443520000000000000000000000000000000000000000000000000000000000815250876040805190810160405280601181526020017f4348414c4c454e4745525f5354414b4544000000000000000000000000000000815250615999565b836040518363ffffffff167c010000000000000000000000000000000000000000000000000000000002815260040180836000191660001916815260200182815260200192505050600060405180830381600087803b15801561329757600080fd5b505af11580156132ab573d6000803e3d6000fd5b50505050600160009054906101000a900473ffffffffffffffffffffffffffffffffffffffff1673ffffffffffffffffffffffffffffffffffffffff1663e2a4853a6133636040805190810160405280600381526020017f54435200000000000000000000000000000000000000000000000000000000008152508b8b6040805190810160405280600781526020017f504f4c4c5f494400000000000000000000000000000000000000000000000000815250614a08565b866040518363ffffffff167c010000000000000000000000000000000000000000000000000000000002815260040180836000191660001916815260200182815260200192505050600060405180830381600087803b1580156133c557600080fd5b505af11580156133d9573d6000803e3d6000fd5b50505050600160009054906101000a900473ffffffffffffffffffffffffffffffffffffffff1673ffffffffffffffffffffffffffffffffffffffff1663e2a4853a61345a6040805190810160405280600b81526020017f5443525f504f4c4c5f494400000000000000000000000000000000000000000081525087615ad0565b6134648b85615bb1565b6040518363ffffffff167c010000000000000000000000000000000000000000000000000000000002815260040180836000191660001916815260200182815260200192505050600060405180830381600087803b1580156134c557600080fd5b505af11580156134d9573d6000803e3d6000fd5b50505050600160009054906101000a900473ffffffffffffffffffffffffffffffffffffffff1673ffffffffffffffffffffffffffffffffffffffff1663ca446dd96135916040805190810160405280600381526020017f54435200000000000000000000000000000000000000000000000000000000008152508b8b6040805190810160405280600a81526020017f4348414c4c454e47455200000000000000000000000000000000000000000000815250614a08565b336040518363ffffffff167c01000000000000000000000000000000000000000000000000000000000281526004018083600019166000191681526020018273ffffffffffffffffffffffffffffffffffffffff1673ffffffffffffffffffffffffffffffffffffffff16815260200192505050600060405180830381600087803b15801561361f57600080fd5b505af1158015613633573d6000803e3d6000fd5b50505050600160009054906101000a900473ffffffffffffffffffffffffffffffffffffffff1673ffffffffffffffffffffffffffffffffffffffff1663e2a4853a6136eb6040805190810160405280600381526020017f54435200000000000000000000000000000000000000000000000000000000008152508b8b6040805190810160405280600581526020017f5354414745000000000000000000000000000000000000000000000000000000815250614a08565b60026040518363ffffffff167c010000000000000000000000000000000000000000000000000000000002815260040180836000191660001916815260200182815260200192505050600060405180830381600087803b15801561374e57600080fd5b505af1158015613762573d6000803e3d6000fd5b505050508660001916887f30c164cbd3e88f862f716336a0358e8aad9421f4054fa07be59d1703738f32168633604051808381526020018273ffffffffffffffffffffffffffffffffffffffff1673ffffffffffffffffffffffffffffffffffffffff1681526020019250505060405180910390a3505050949350505050565b6000801515600160009054906101000a900473ffffffffffffffffffffffffffffffffffffffff1673ffffffffffffffffffffffffffffffffffffffff16637ae1cfca6138656040805190810160405280601181526020017f5443525f564f5445525f434c41494d45440000000000000000000000000000008152508633615d40565b6040518263ffffffff167c0100000000000000000000000000000000000000000000000000000000028152600401808260001916600019168152602001915050602060405180830381600087803b1580156138bf57600080fd5b505af11580156138d3573d6000803e3d6000fd5b505050506040513d60208110156138e957600080fd5b8101908080519060200190929190505050151514151561390857600080fd5b6139123383613e10565b905060008111151561392357600080fd5b600260009054906101000a900473ffffffffffffffffffffffffffffffffffffffff1673ffffffffffffffffffffffffffffffffffffffff1663a9059cbb33836040518363ffffffff167c0100000000000000000000000000000000000000000000000000000000028152600401808373ffffffffffffffffffffffffffffffffffffffff1673ffffffffffffffffffffffffffffffffffffffff16815260200182815260200192505050602060405180830381600087803b1580156139e857600080fd5b505af11580156139fc573d6000803e3d6000fd5b505050506040513d6020811015613a1257600080fd5b81019080805190602001909291905050501515613a2b57fe5b600160009054906101000a900473ffffffffffffffffffffffffffffffffffffffff1673ffffffffffffffffffffffffffffffffffffffff1663abfdcced613aa96040805190810160405280601181526020017f5443525f564f5445525f434c41494d45440000000000000000000000000000008152508533615d40565b60016040518363ffffffff167c01000000000000000000000000000000000000000000000000000000000281526004018083600019166000191681526020018215151515815260200192505050600060405180830381600087803b158015613b1057600080fd5b505af1158015613b24573d6000803e3d6000fd5b505050505050565b6000806000600160009054906101000a900473ffffffffffffffffffffffffffffffffffffffff1673ffffffffffffffffffffffffffffffffffffffff1663bd02d0f5613be56040805190810160405280600381526020017f544352000000000000000000000000000000000000000000000000000000000081525088886040805190810160405280601381526020017f4150504c49434154494f4e5f454e4454494d4500000000000000000000000000815250614a08565b6040518263ffffffff167c0100000000000000000000000000000000000000000000000000000000028152600401808260001916600019168152602001915050602060405180830381600087803b158015613c3f57600080fd5b505af1158015613c53573d6000803e3d6000fd5b505050506040513d6020811015613c6957600080fd5b81019080805190602001909291905050509150600160009054906101000a900473ffffffffffffffffffffffffffffffffffffffff1673ffffffffffffffffffffffffffffffffffffffff1663bd02d0f5613d306040805190810160405280600381526020017f544352000000000000000000000000000000000000000000000000000000000081525088886040805190810160405280600581526020017f5354414745000000000000000000000000000000000000000000000000000000815250614a08565b6040518263ffffffff167c0100000000000000000000000000000000000000000000000000000000028152600401808260001916600019168152602001915050602060405180830381600087803b158015613d8a57600080fd5b505af1158015613d9e573d6000803e3d6000fd5b505050506040513d6020811015613db457600080fd5b81019080805190602001909291905050509050600082118015613dd657504282105b8015613de25750600181145b8015613df55750613df385856116ec565b155b15613e035760019250613e08565b600092505b505092915050565b60008060008060008060001515600160009054906101000a900473ffffffffffffffffffffffffffffffffffffffff1673ffffffffffffffffffffffffffffffffffffffff16637ae1cfca613e9b6040805190810160405280601181526020017f5443525f564f5445525f434c41494d45440000000000000000000000000000008152508b8d615d40565b6040518263ffffffff167c0100000000000000000000000000000000000000000000000000000000028152600401808260001916600019168152602001915050602060405180830381600087803b158015613ef557600080fd5b505af1158015613f09573d6000803e3d6000fd5b505050506040513d6020811015613f1f57600080fd5b81019080805190602001909291905050501515141561429857600460009054906101000a900473ffffffffffffffffffffffffffffffffffffffff1673ffffffffffffffffffffffffffffffffffffffff16630c03fbd789896040518363ffffffff167c0100000000000000000000000000000000000000000000000000000000028152600401808373ffffffffffffffffffffffffffffffffffffffff1673ffffffffffffffffffffffffffffffffffffffff16815260200182815260200192505050602060405180830381600087803b158015613ffd57600080fd5b505af1158015614011573d6000803e3d6000fd5b505050506040513d602081101561402757600080fd5b81019080805190602001909291905050509450600460009054906101000a900473ffffffffffffffffffffffffffffffffffffffff1673ffffffffffffffffffffffffffffffffffffffff1663b6990ee1886040518263ffffffff167c01000000000000000000000000000000000000000000000000000000000281526004018082815260200191505060a060405180830381600087803b1580156140cb57600080fd5b505af11580156140df573d6000803e3d6000fd5b505050506040513d60a08110156140f557600080fd5b81019080805190602001909291908051906020019092919080519060200190929190805190602001909291908051906020019092919050505095505094505093506001151584151514801561414a5750600085115b80156141565750603282115b1561429757600160009054906101000a900473ffffffffffffffffffffffffffffffffffffffff1673ffffffffffffffffffffffffffffffffffffffff1663bd02d0f56141d86040805190810160405280600b81526020017f5443525f504f4c4c5f49440000000000000000000000000000000000000000008152508a615ad0565b6040518263ffffffff167c0100000000000000000000000000000000000000000000000000000000028152600401808260001916600019168152602001915050602060405180830381600087803b15801561423257600080fd5b505af1158015614246573d6000803e3d6000fd5b505050506040513d602081101561425c57600080fd5b81019080805190602001909291905050509050614294836142868388615e6590919063ffffffff16565b615e9d90919063ffffffff16565b95505b5b505050505092915050565b600080600160009054906101000a900473ffffffffffffffffffffffffffffffffffffffff1673ffffffffffffffffffffffffffffffffffffffff166321f8a72161435a6040805190810160405280600381526020017f544352000000000000000000000000000000000000000000000000000000000081525087876040805190810160405280600581526020017f4f574e4552000000000000000000000000000000000000000000000000000000815250614a08565b6040518263ffffffff167c0100000000000000000000000000000000000000000000000000000000028152600401808260001916600019168152602001915050602060405180830381600087803b1580156143b457600080fd5b505af11580156143c8573d6000803e3d6000fd5b505050506040513d60208110156143de57600080fd5b810190808051906020019092919050505090503373ffffffffffffffffffffffffffffffffffffffff168173ffffffffffffffffffffffffffffffffffffffff161480156144595750600073ffffffffffffffffffffffffffffffffffffffff168173ffffffffffffffffffffffffffffffffffffffff1614155b91505092915050565b6000809054906101000a900473ffffffffffffffffffffffffffffffffffffffff1673ffffffffffffffffffffffffffffffffffffffff163373ffffffffffffffffffffffffffffffffffffffff161415156144bd57600080fd5b80600360006101000a81548173ffffffffffffffffffffffffffffffffffffffff021916908373ffffffffffffffffffffffffffffffffffffffff16021790555050565b6000806000600160009054906101000a900473ffffffffffffffffffffffffffffffffffffffff1673ffffffffffffffffffffffffffffffffffffffff1663bd02d0f56145b96040805190810160405280600381526020017f5443520000000000000000000000000000000000000000000000000000000000815250876040805190810160405280601181526020017f4348414c4c454e4745525f5354414b4544000000000000000000000000000000815250615999565b6040518263ffffffff167c0100000000000000000000000000000000000000000000000000000000028152600401808260001916600019168152602001915050602060405180830381600087803b15801561461357600080fd5b505af1158015614627573d6000803e3d6000fd5b505050506040513d602081101561463d57600080fd5b81019080805190602001909291905050509150600460009054906101000a900473ffffffffffffffffffffffffffffffffffffffff1673ffffffffffffffffffffffffffffffffffffffff1663b6990ee1856040518263ffffffff167c01000000000000000000000000000000000000000000000000000000000281526004018082815260200191505060a060405180830381600087803b1580156146e157600080fd5b505af11580156146f5573d6000803e3d6000fd5b505050506040513d60a081101561470b57600080fd5b810190808051906020019092919080519060200190929190805190602001909291908051906020019092919080519060200190929190505050509350505050600115158115151415156147635781600202925061487d565b600160009054906101000a900473ffffffffffffffffffffffffffffffffffffffff1673ffffffffffffffffffffffffffffffffffffffff1663bd02d0f56147e06040805190810160405280600b81526020017f5443525f504f4c4c5f494400000000000000000000000000000000000000000081525087615ad0565b6040518263ffffffff167c0100000000000000000000000000000000000000000000000000000000028152600401808260001916600019168152602001915050602060405180830381600087803b15801561483a57600080fd5b505af115801561484e573d6000803e3d6000fd5b505050506040513d602081101561486457600080fd5b8101908080519060200190929190505050826002020392505b5050919050565b6000809054906101000a900473ffffffffffffffffffffffffffffffffffffffff1673ffffffffffffffffffffffffffffffffffffffff163373ffffffffffffffffffffffffffffffffffffffff161415156148df57600080fd5b80600460006101000a81548173ffffffffffffffffffffffffffffffffffffffff021916908373ffffffffffffffffffffffffffffffffffffffff16021790555050565b600073ffffffffffffffffffffffffffffffffffffffff166000809054906101000a900473ffffffffffffffffffffffffffffffffffffffff1673ffffffffffffffffffffffffffffffffffffffff161415156149d6576000809054906101000a900473ffffffffffffffffffffffffffffffffffffffff1673ffffffffffffffffffffffffffffffffffffffff163373ffffffffffffffffffffffffffffffffffffffff161415156149d557600080fd5b5b6149df81615eb3565b50565b600360009054906101000a900473ffffffffffffffffffffffffffffffffffffffff1681565b6000848484846040516020018085805190602001908083835b602083101515614a465780518252602082019150602081019050602083039250614a21565b6001836020036101000a038019825116818451168082178552505050505050905001848152602001836000191660001916815260200182805190602001908083835b602083101515614aad5780518252602082019150602081019050602083039250614a88565b6001836020036101000a0380198251168184511680821785525050505050509050019450505050506040516020818303038152906040526040518082805190602001908083835b602083101515614b195780518252602082019150602081019050602083039250614af4565b6001836020036101000a03801982511681845116808217855250505050505090500191505060405180910390209050949350505050565b60008183019050828110151515614b6357fe5b80905092915050565b600160009054906101000a900473ffffffffffffffffffffffffffffffffffffffff1673ffffffffffffffffffffffffffffffffffffffff1663abfdcced614c206040805190810160405280600381526020017f544352000000000000000000000000000000000000000000000000000000000081525085856040805190810160405280600c81526020017f57484954455f4c49535445440000000000000000000000000000000000000000815250614a08565b60016040518363ffffffff167c01000000000000000000000000000000000000000000000000000000000281526004018083600019166000191681526020018215151515815260200192505050600060405180830381600087803b158015614c8757600080fd5b505af1158015614c9b573d6000803e3d6000fd5b50505050600160009054906101000a900473ffffffffffffffffffffffffffffffffffffffff1673ffffffffffffffffffffffffffffffffffffffff1663e2a4853a614d536040805190810160405280600381526020017f544352000000000000000000000000000000000000000000000000000000000081525085856040805190810160405280600581526020017f5354414745000000000000000000000000000000000000000000000000000000815250614a08565b60036040518363ffffffff167c010000000000000000000000000000000000000000000000000000000002815260040180836000191660001916815260200182815260200192505050600060405180830381600087803b158015614db657600080fd5b505af1158015614dca573d6000803e3d6000fd5b505050505050565b6000806000806000806000600160009054906101000a900473ffffffffffffffffffffffffffffffffffffffff1673ffffffffffffffffffffffffffffffffffffffff1663bd02d0f5614e916040805190810160405280600381526020017f54435200000000000000000000000000000000000000000000000000000000008152508c8c6040805190810160405280600781526020017f504f4c4c5f494400000000000000000000000000000000000000000000000000815250614a08565b6040518263ffffffff167c0100000000000000000000000000000000000000000000000000000000028152600401808260001916600019168152602001915050602060405180830381600087803b158015614eeb57600080fd5b505af1158015614eff573d6000803e3d6000fd5b505050506040513d6020811015614f1557600080fd5b81019080805190602001909291905050509650600460009054906101000a900473ffffffffffffffffffffffffffffffffffffffff1673ffffffffffffffffffffffffffffffffffffffff1663b6990ee1886040518263ffffffff167c01000000000000000000000000000000000000000000000000000000000281526004018082815260200191505060a060405180830381600087803b158015614fb957600080fd5b505af1158015614fcd573d6000803e3d6000fd5b505050506040513d60a0811015614fe357600080fd5b8101908080519060200190929190805190602001909291908051906020019092919080519060200190929190805190602001909291905050509750509650509550600160009054906101000a900473ffffffffffffffffffffffffffffffffffffffff1673ffffffffffffffffffffffffffffffffffffffff1663bd02d0f56150d76040805190810160405280600381526020017f54435200000000000000000000000000000000000000000000000000000000008152508c6040805190810160405280600681526020017f51554f52554d0000000000000000000000000000000000000000000000000000815250615999565b6040518263ffffffff167c0100000000000000000000000000000000000000000000000000000000028152600401808260001916600019168152602001915050602060405180830381600087803b15801561513157600080fd5b505af1158015615145573d6000803e3d6000fd5b505050506040513d602081101561515b57600080fd5b8101908080519060200190929190505050925061517787614501565b915082841015801561518d575060011515861515145b80156151995750600085115b15615438576151a88989614b6c565b600160009054906101000a900473ffffffffffffffffffffffffffffffffffffffff1673ffffffffffffffffffffffffffffffffffffffff1663bd02d0f561525c6040805190810160405280600381526020017f54435200000000000000000000000000000000000000000000000000000000008152508c8c6040805190810160405280600681526020017f5354414b45440000000000000000000000000000000000000000000000000000815250614a08565b6040518263ffffffff167c0100000000000000000000000000000000000000000000000000000000028152600401808260001916600019168152602001915050602060405180830381600087803b1580156152b657600080fd5b505af11580156152ca573d6000803e3d6000fd5b505050506040513d60208110156152e057600080fd5b81019080805190602001909291905050509050600160009054906101000a900473ffffffffffffffffffffffffffffffffffffffff1673ffffffffffffffffffffffffffffffffffffffff1663e2a4853a6153a76040805190810160405280600381526020017f54435200000000000000000000000000000000000000000000000000000000008152508c8c6040805190810160405280600681526020017f5354414b45440000000000000000000000000000000000000000000000000000815250614a08565b6153ba8585614b5090919063ffffffff16565b6040518363ffffffff167c010000000000000000000000000000000000000000000000000000000002815260040180836000191660001916815260200182815260200192505050600060405180830381600087803b15801561541b57600080fd5b505af115801561542f573d6000803e3d6000fd5b505050506157b8565b600160009054906101000a900473ffffffffffffffffffffffffffffffffffffffff1673ffffffffffffffffffffffffffffffffffffffff1663e2a4853a6154ec6040805190810160405280600381526020017f54435200000000000000000000000000000000000000000000000000000000008152508c8c6040805190810160405280600581526020017f5354414745000000000000000000000000000000000000000000000000000000815250614a08565b60006040518363ffffffff167c010000000000000000000000000000000000000000000000000000000002815260040180836000191660001916815260200182815260200192505050600060405180830381600087803b15801561554f57600080fd5b505af1158015615563573d6000803e3d6000fd5b50505050600260009054906101000a900473ffffffffffffffffffffffffffffffffffffffff1673ffffffffffffffffffffffffffffffffffffffff1663a9059cbb600160009054906101000a900473ffffffffffffffffffffffffffffffffffffffff1673ffffffffffffffffffffffffffffffffffffffff166321f8a7216156596040805190810160405280600381526020017f54435200000000000000000000000000000000000000000000000000000000008152508e8e6040805190810160405280600a81526020017f4348414c4c454e47455200000000000000000000000000000000000000000000815250614a08565b6040518263ffffffff167c0100000000000000000000000000000000000000000000000000000000028152600401808260001916600019168152602001915050602060405180830381600087803b1580156156b357600080fd5b505af11580156156c7573d6000803e3d6000fd5b505050506040513d60208110156156dd57600080fd5b8101908080519060200190929190505050846040518363ffffffff167c0100000000000000000000000000000000000000000000000000000000028152600401808373ffffffffffffffffffffffffffffffffffffffff1673ffffffffffffffffffffffffffffffffffffffff16815260200182815260200192505050602060405180830381600087803b15801561577457600080fd5b505af1158015615788573d6000803e3d6000fd5b505050506040513d602081101561579e57600080fd5b810190808051906020019092919050505015156157b757fe5b5b505050505050505050565b600080600160009054906101000a900473ffffffffffffffffffffffffffffffffffffffff1673ffffffffffffffffffffffffffffffffffffffff166321f8a72161587a6040805190810160405280600381526020017f544352000000000000000000000000000000000000000000000000000000000081525087876040805190810160405280600581526020017f4f574e4552000000000000000000000000000000000000000000000000000000815250614a08565b6040518263ffffffff167c0100000000000000000000000000000000000000000000000000000000028152600401808260001916600019168152602001915050602060405180830381600087803b1580156158d457600080fd5b505af11580156158e8573d6000803e3d6000fd5b505050506040513d60208110156158fe57600080fd5b810190808051906020019092919050505090503373ffffffffffffffffffffffffffffffffffffffff168173ffffffffffffffffffffffffffffffffffffffff1614806159775750600073ffffffffffffffffffffffffffffffffffffffff168173ffffffffffffffffffffffffffffffffffffffff16145b91505092915050565b600082821115151561598e57fe5b818303905092915050565b60008383836040516020018084805190602001908083835b6020831015156159d657805182526020820191506020810190506020830392506159b1565b6001836020036101000a03801982511681845116808217855250505050505090500183815260200182805190602001908083835b602083101515615a2f5780518252602082019150602081019050602083039250615a0a565b6001836020036101000a03801982511681845116808217855250505050505090500193505050506040516020818303038152906040526040518082805190602001908083835b602083101515615a9a5780518252602082019150602081019050602083039250615a75565b6001836020036101000a038019825116818451168082178552505050505050905001915050604051809103902090509392505050565b600082826040516020018083805190602001908083835b602083101515615b0c5780518252602082019150602081019050602083039250615ae7565b6001836020036101000a038019825116818451168082178552505050505050905001828152602001925050506040516020818303038152906040526040518082805190602001908083835b602083101515615b7c5780518252602082019150602081019050602083039250615b57565b6001836020036101000a0380198251168184511680821785525050505050509050019150506040518091039020905092915050565b60008060649050615d376064615d2985615d1b600160009054906101000a900473ffffffffffffffffffffffffffffffffffffffff1673ffffffffffffffffffffffffffffffffffffffff1663bd02d0f5615c776040805190810160405280600381526020017f54435200000000000000000000000000000000000000000000000000000000008152508c6040805190810160405280600c81526020017f4c4f53455f50455243454e540000000000000000000000000000000000000000815250615999565b6040518263ffffffff167c0100000000000000000000000000000000000000000000000000000000028152600401808260001916600019168152602001915050602060405180830381600087803b158015615cd157600080fd5b505af1158015615ce5573d6000803e3d6000fd5b505050506040513d6020811015615cfb57600080fd5b81019080805190602001909291905050508661598090919063ffffffff16565b615e6590919063ffffffff16565b615e9d90919063ffffffff16565b91505092915050565b60008383836040516020018084805190602001908083835b602083101515615d7d5780518252602082019150602081019050602083039250615d58565b6001836020036101000a0380198251168184511680821785525050505050509050018381526020018273ffffffffffffffffffffffffffffffffffffffff1673ffffffffffffffffffffffffffffffffffffffff166c0100000000000000000000000002815260140193505050506040516020818303038152906040526040518082805190602001908083835b602083101515615e2f5780518252602082019150602081019050602083039250615e0a565b6001836020036101000a038019825116818451168082178552505050505050905001915050604051809103902090509392505050565b600080831415615e785760009050615e97565b8183029050818382811515615e8957fe5b04141515615e9357fe5b8090505b92915050565b60008183811515615eaa57fe5b04905092915050565b600073ffffffffffffffffffffffffffffffffffffffff168173ffffffffffffffffffffffffffffffffffffffff1614151515615eef57600080fd5b8073ffffffffffffffffffffffffffffffffffffffff166000809054906101000a900473ffffffffffffffffffffffffffffffffffffffff1673ffffffffffffffffffffffffffffffffffffffff167f8be0079c531659141344cd1fd0a4f28419497f9722a3daafe3b4186f6b6457e060405160405180910390a3806000806101000a81548173ffffffffffffffffffffffffffffffffffffffff021916908373ffffffffffffffffffffffffffffffffffffffff160217905550505600a165627a7a723058209c941bac6b0d3071304fafb8f2842f704620e1d9ba51d547e5d23bbe2149d7e70029",
  "source": "  /**\n * Created on 2018-10-13 10:20\n * @summary: \n * @author: Chris Nguyen\n */\npragma solidity ^0.4.24;\n\nimport './BBStandard.sol';\nimport './BBLib.sol';\nimport './BBVoting.sol';\nimport './BBVotingHelper.sol';\nimport './BBTCRHelper.sol';\n\n\n\ncontract BBUnOrderedTCR is BBStandard{\n\t// events\n\tevent ItemApplied(uint256 indexed listID, bytes32 indexed itemHash, bytes data);\n    event Challenge(uint256 indexed listID, bytes32 indexed itemHash, uint256 pollID, address sender);\n    //\n    BBVoting public voting = BBVoting(0x0);\n    BBVotingHelper public votingHelper = BBVotingHelper(0x0);\n    BBTCRHelper public tcrHelper = BBTCRHelper(0x0);\n      \n    function setVoting(address p) onlyOwner public  {\n      voting = BBVoting(p);\n    }\n    function setVotingHelper(address p) onlyOwner public  {\n      votingHelper = BBVotingHelper(p);\n    }\n\n    function setTCRHelper(address p) onlyOwner public  {\n      tcrHelper = BBTCRHelper(p);\n    }\n\n\n    function isOwnerItem(uint256 listID, bytes32 itemHash) public constant returns (bool r){\n        address owner = bbs.getAddress(BBLib.toB32('TCR',listID, itemHash, 'OWNER'));\n         r = (owner == msg.sender && owner != address(0x0));\n    }\n\n     function canApply(uint256 listID, bytes32 itemHash) private constant returns (bool r){\n        address owner = bbs.getAddress(BBLib.toB32('TCR',listID, itemHash, 'OWNER'));\n         r = (owner == msg.sender || owner == address(0x0));\n    }\n\n    //Lam sao user bi remove, kiem tra so deposit\n    function depositToken(uint256 listID, bytes32 itemHash, uint amount) public returns(bool) {\n        (,,, uint256 minStake) = tcrHelper.getListParams(listID);\n        uint256 staked = bbs.getUint(BBLib.toB32('TCR', listID, itemHash, 'STAKED'));\n        require(staked.add(amount) >= minStake);\n        require (bbo.transferFrom(msg.sender, address(this), amount));\n        bbs.setUint(BBLib.toB32('TCR', listID, itemHash, 'STAKED'), staked.add(amount));\n        return true;\n    }\n    function apply(uint256 listID, uint256 amount, bytes32 itemHash, bytes data) public {\n    \t//TODO add index of item in the list\n        require(canApply(listID,itemHash));\n        //\n    \t(uint256 applicationDuration,,,) = tcrHelper.getListParams(listID);\n        require(depositToken(listID, itemHash,amount));\n        // save creator\n        bbs.setAddress(BBLib.toB32('TCR',listID, itemHash, 'OWNER'), msg.sender);\n        // save application endtime\n        bbs.setUint(BBLib.toB32('TCR', listID, itemHash, 'APPLICATION_ENDTIME'), block.timestamp.add(applicationDuration));\n        bbs.setUint(BBLib.toB32('TCR',listID, itemHash,'STAGE'), 1);\n        // emit event\n        emit ItemApplied(listID, itemHash, data);\n    }\n    \n    // lay balance - min stake >= _amount // set lai stake\n    function withdraw(uint256 listID, bytes32 itemHash, uint _amount) external {\n    \t//TODO allow withdraw unlocked token\n        require (isOwnerItem(listID, itemHash));\n        (,,, uint256 minStake) = tcrHelper.getListParams(listID);\n        uint256 staked = bbs.getUint(BBLib.toB32('TCR', listID, itemHash, 'STAKED'));\n        require(staked - minStake >= _amount);\n\n        bbs.setUint(BBLib.toB32('TCR', listID, itemHash, 'STAKED'), staked.sub(_amount));\n        assert(bbo.transfer(msg.sender, _amount));\n    \n    }\n    \n    function initExit(uint256 listID, bytes32 itemHash) external {\t\n    \t//TODO Initialize an exit timer for a listing to leave the whitelist\n        // exit timer \n        require (isOwnerItem(listID, itemHash));\n        require(bbs.getUint(BBLib.toB32('TCR',listID, itemHash,'STAGE')) == 3);\n        uint256 applicationExitDuration = bbs.getUint(BBLib.toB32('TCR', listID, itemHash, 'EXITDURATION'));\n        // save application exittime\n        bbs.setUint(BBLib.toB32('TCR', listID, itemHash, 'EXITTIME'), block.timestamp.add(applicationExitDuration));\n    }\n    // set state = 0, tra tien so huu\n    function finalizeExit(uint256 listID, bytes32 itemHash) external {\n        // TODO Allow a listing to leave the whitelist\n        // after x timer will \n        require (isOwnerItem(listID, itemHash));\n        require(bbs.getUint(BBLib.toB32('TCR',listID, itemHash,'STAGE')) == 3);\n        uint256 applicationExitTime= bbs.getUint(BBLib.toB32('TCR', listID, itemHash, 'EXITTIME'));\n        require(now > applicationExitTime);\n        bbs.setUint(BBLib.toB32('TCR',listID, itemHash,'STAGE'), 0);\n\n    }\n    function calcRewardPool(uint256 listID, uint256 stakedToken) internal constant returns(uint256){\n        uint oneHundred = 100; \n        return (oneHundred.sub(bbs.getUint(BBLib.toB32('TCR', listID, 'LOSE_PERCENT')))\n            .mul(stakedToken)).div(100);\n    }\n    function challenge(uint256 listID, bytes32 itemHash, bytes _data) external returns (uint pollID) {\n        // not in challenge stage\n        require(bbs.getUint(BBLib.toB32('TCR',listID, itemHash,'STAGE')) != 2);\n        // require deposit token        \n        (, uint256 commitDuration, uint256 revealDuration, uint256 minStake) = tcrHelper.getListParams(listID);\n        require (bbo.transferFrom(msg.sender, address(this), minStake));\n        \n        pollID = voting.startPoll(_data, 0 , commitDuration, revealDuration);\n        require(pollID > 0);\n        // save pollID \n        bbs.setUint(BBLib.toB32('TCR', pollID, 'CHALLENGER_STAKED'), minStake);\n\n        bbs.setUint(BBLib.toB32('TCR', listID, itemHash, 'POLL_ID'), pollID);\n        \n        bbs.setUint(BBLib.toB32('TCR_POLL_ID', pollID ), calcRewardPool(listID, minStake));\n        // save challenger\n        bbs.setAddress(BBLib.toB32('TCR', listID, itemHash, 'CHALLENGER'), msg.sender);\n        // in challenge stage\n        bbs.setUint(BBLib.toB32('TCR',listID, itemHash,'STAGE'), 2);\n        emit Challenge(listID, itemHash, pollID, msg.sender);\n    }\n\n    function updateStatus(uint256 listID, bytes32 itemHash) public {\n        if (canBeWhitelisted(listID, itemHash)) {\n            whitelistApplication(listID, itemHash);\n        } else if (challengeCanBeResolved(listID, itemHash)) {\n            resolveChallenge(listID, itemHash);\n        } else {\n         revert();\n        }\n    }\n\n    function claimReward(uint pollID) public {\n        require(bbs.getBool(BBLib.toB32('TCR_VOTER_CLAIMED', pollID, msg.sender)) == false);\n        uint256 numReward = voterReward(msg.sender, pollID);\n        require(numReward > 0);\n        assert(bbo.transfer(msg.sender, numReward));\n        bbs.setBool(BBLib.toB32('TCR_VOTER_CLAIMED', pollID, msg.sender), true);\n    }\n    function voterReward(address voter, uint pollID) public view returns (uint numReward) {\n        if(bbs.getBool(BBLib.toB32('TCR_VOTER_CLAIMED', pollID, voter)) == false){\n           uint256 userVotes =  votingHelper.getNumPassingTokens(voter, pollID);\n            (bool isFinished,, uint256 winnerVotes,, uint256 quorum) = votingHelper.getPollWinner(pollID);\n            if(isFinished==true && userVotes > 0 && quorum > 50){\n                uint256 rewardPool =  bbs.getUint(BBLib.toB32('TCR_POLL_ID', pollID ));\n                numReward = userVotes.mul(rewardPool).div(winnerVotes); // (vote/totalVotes) * staked\n            }\n        } \n        \n    }\n    function whitelistApplication(uint256 listID, bytes32 itemHash) private {\n        bbs.setBool(BBLib.toB32('TCR',listID, itemHash,'WHITE_LISTED'), true);\n        bbs.setUint(BBLib.toB32('TCR',listID, itemHash,'STAGE'), 3);\n    }\n    function canBeWhitelisted(uint256 listID, bytes32 itemHash) view public returns (bool) {\n        uint256 applicationEndtime = bbs.getUint(BBLib.toB32('TCR', listID, itemHash, 'APPLICATION_ENDTIME'));\n\t    uint256 stage = bbs.getUint(BBLib.toB32('TCR',listID, itemHash,'STAGE'));\n        if(applicationEndtime > 0 && applicationEndtime < now && stage == 1 && !isWhitelisted(listID, itemHash)){\n            return true;\n        }\n        return false;\n    }\n\tfunction isWhitelisted(uint256 listID, bytes32 itemHash) view public returns (bool whitelisted) {\n        return bbs.getBool(BBLib.toB32('TCR',listID, itemHash,'WHITE_LISTED'));\n\t}\n\n    function challengeCanBeResolved(uint256 listID, bytes32 itemHash) view public returns (bool) {\n        uint pollID = bbs.getUint(BBLib.toB32('TCR', listID, itemHash, 'POLL_ID'));\n        uint256 stage = bbs.getUint(BBLib.toB32('TCR',listID, itemHash,'STAGE'));\n        require(stage == 2);\n        (bool isFinished,,,,) = votingHelper.getPollWinner(pollID);\n        return isFinished;\n    }\n    function determineReward(uint pollID) public view returns (uint) {\n        uint256 minStake = bbs.getUint(BBLib.toB32('TCR', pollID, 'CHALLENGER_STAKED'));\n        // Edge case, nobody voted, give all tokens to the challenger.\n        // quorum 70 --> lose\n        // if nobody voted, ?? TODO\n        (,,, bool hasVote, ) = votingHelper.getPollWinner(pollID);\n        if (hasVote!=true) {\n            return 2 * minStake;//TODO ... should reward to voter\n        }\n\n        return (2 * minStake) - bbs.getUint(BBLib.toB32('TCR_POLL_ID', pollID ));\n    }\n    function resolveChallenge(uint256 listID, bytes32 itemHash) private {\n        uint pollID = bbs.getUint(BBLib.toB32('TCR', listID, itemHash, 'POLL_ID'));\n        (bool isFinished, , uint256 winnerVotes ,, uint256 quorum) = votingHelper.getPollWinner(pollID);\n        uint256 initQuorum = bbs.getUint(BBLib.toB32('TCR', listID, 'QUORUM'));\n        uint256 reward = determineReward(pollID);\n        if(quorum>= initQuorum && isFinished == true && winnerVotes > 0){\n            //pass vote\n            whitelistApplication(listID, itemHash);\n            uint256 staked = bbs.getUint(BBLib.toB32('TCR', listID, itemHash, 'STAKED'));\n            bbs.setUint(BBLib.toB32('TCR', listID, itemHash, 'STAKED'), staked.add(reward));\n        }else{\n            // did not pass // thang do khong pass, trang thai true -false,\n            //remove ra khoi list\n            bbs.setUint(BBLib.toB32('TCR',listID, itemHash,'STAGE'), 0);\n            assert(bbo.transfer(bbs.getAddress(BBLib.toB32('TCR', listID, itemHash, 'CHALLENGER')), reward));\n        }\n    }\n}",
  "sourcePath": "/Users/trantho/Code/SmartContract/digital-contracts/src/contracts/BBUnOrderedTCR.sol",
  "compiler": {
    "name": "solc",
    "version": "0.4.24+commit.e67f0147.Emscripten.clang"
  },
  "schemaVersion": "2.0.1",
  "updatedAt": "2018-11-21T07:42:25.473Z"
}