{
  "contractName": "BBUnOrderedTCR",
  "abi": [
    {
      "constant": true,
      "inputs": [],
      "name": "tcrHelper",
      "outputs": [
        {
          "name": "",
          "type": "address"
        }
      ],
      "payable": false,
      "stateMutability": "view",
      "type": "function"
    },
    {
      "constant": true,
      "inputs": [],
      "name": "bbo",
      "outputs": [
        {
          "name": "",
          "type": "address"
        }
      ],
      "payable": false,
      "stateMutability": "view",
      "type": "function"
    },
    {
      "constant": true,
      "inputs": [],
      "name": "bbs",
      "outputs": [
        {
          "name": "",
          "type": "address"
        }
      ],
      "payable": false,
      "stateMutability": "view",
      "type": "function"
    },
    {
      "constant": true,
      "inputs": [],
      "name": "votingHelper",
      "outputs": [
        {
          "name": "",
          "type": "address"
        }
      ],
      "payable": false,
      "stateMutability": "view",
      "type": "function"
    },
    {
      "constant": false,
      "inputs": [],
      "name": "renounceOwnership",
      "outputs": [],
      "payable": false,
      "stateMutability": "nonpayable",
      "type": "function"
    },
    {
      "constant": false,
      "inputs": [
        {
          "name": "BBOAddress",
          "type": "address"
        }
      ],
      "name": "setBBO",
      "outputs": [],
      "payable": false,
      "stateMutability": "nonpayable",
      "type": "function"
    },
    {
      "constant": true,
      "inputs": [],
      "name": "owner",
      "outputs": [
        {
          "name": "",
          "type": "address"
        }
      ],
      "payable": false,
      "stateMutability": "view",
      "type": "function"
    },
    {
      "constant": false,
      "inputs": [
        {
          "name": "anyToken",
          "type": "address"
        }
      ],
      "name": "emergencyERC20Drain",
      "outputs": [],
      "payable": false,
      "stateMutability": "nonpayable",
      "type": "function"
    },
    {
      "constant": false,
      "inputs": [
        {
          "name": "storageAddress",
          "type": "address"
        }
      ],
      "name": "setStorage",
      "outputs": [],
      "payable": false,
      "stateMutability": "nonpayable",
      "type": "function"
    },
    {
      "constant": false,
      "inputs": [
        {
          "name": "_newOwner",
          "type": "address"
        }
      ],
      "name": "transferOwnership",
      "outputs": [],
      "payable": false,
      "stateMutability": "nonpayable",
      "type": "function"
    },
    {
      "constant": true,
      "inputs": [],
      "name": "voting",
      "outputs": [
        {
          "name": "",
          "type": "address"
        }
      ],
      "payable": false,
      "stateMutability": "view",
      "type": "function"
    },
    {
      "anonymous": false,
      "inputs": [
        {
          "indexed": true,
          "name": "listID",
          "type": "uint256"
        },
        {
          "indexed": true,
          "name": "itemHash",
          "type": "bytes32"
        },
        {
          "indexed": false,
          "name": "data",
          "type": "bytes"
        }
      ],
      "name": "ItemApplied",
      "type": "event"
    },
    {
      "anonymous": false,
      "inputs": [
        {
          "indexed": true,
          "name": "listID",
          "type": "uint256"
        },
        {
          "indexed": true,
          "name": "itemHash",
          "type": "bytes32"
        },
        {
          "indexed": false,
          "name": "pollID",
          "type": "uint256"
        },
        {
          "indexed": false,
          "name": "sender",
          "type": "address"
        }
      ],
      "name": "Challenge",
      "type": "event"
    },
    {
      "anonymous": false,
      "inputs": [
        {
          "indexed": true,
          "name": "previousOwner",
          "type": "address"
        }
      ],
      "name": "OwnershipRenounced",
      "type": "event"
    },
    {
      "anonymous": false,
      "inputs": [
        {
          "indexed": true,
          "name": "previousOwner",
          "type": "address"
        },
        {
          "indexed": true,
          "name": "newOwner",
          "type": "address"
        }
      ],
      "name": "OwnershipTransferred",
      "type": "event"
    },
    {
      "constant": false,
      "inputs": [
        {
          "name": "p",
          "type": "address"
        }
      ],
      "name": "setVoting",
      "outputs": [],
      "payable": false,
      "stateMutability": "nonpayable",
      "type": "function"
    },
    {
      "constant": false,
      "inputs": [
        {
          "name": "p",
          "type": "address"
        }
      ],
      "name": "setVotingHelper",
      "outputs": [],
      "payable": false,
      "stateMutability": "nonpayable",
      "type": "function"
    },
    {
      "constant": false,
      "inputs": [
        {
          "name": "p",
          "type": "address"
        }
      ],
      "name": "setTCRHelper",
      "outputs": [],
      "payable": false,
      "stateMutability": "nonpayable",
      "type": "function"
    },
    {
      "constant": false,
      "inputs": [
        {
          "name": "listID",
          "type": "uint256"
        },
        {
          "name": "itemHash",
          "type": "bytes32"
        },
        {
          "name": "amount",
          "type": "uint256"
        }
      ],
      "name": "depositToken",
      "outputs": [
        {
          "name": "",
          "type": "bool"
        }
      ],
      "payable": false,
      "stateMutability": "nonpayable",
      "type": "function"
    },
    {
      "constant": false,
      "inputs": [
        {
          "name": "listID",
          "type": "uint256"
        },
        {
          "name": "amount",
          "type": "uint256"
        },
        {
          "name": "itemHash",
          "type": "bytes32"
        },
        {
          "name": "data",
          "type": "bytes"
        }
      ],
      "name": "apply",
      "outputs": [],
      "payable": false,
      "stateMutability": "nonpayable",
      "type": "function"
    },
    {
      "constant": false,
      "inputs": [
        {
          "name": "listID",
          "type": "uint256"
        },
        {
          "name": "itemHash",
          "type": "bytes32"
        },
        {
          "name": "_amount",
          "type": "uint256"
        }
      ],
      "name": "withdraw",
      "outputs": [],
      "payable": false,
      "stateMutability": "nonpayable",
      "type": "function"
    },
    {
      "constant": false,
      "inputs": [
        {
          "name": "listID",
          "type": "uint256"
        },
        {
          "name": "itemHash",
          "type": "bytes32"
        }
      ],
      "name": "initExit",
      "outputs": [],
      "payable": false,
      "stateMutability": "nonpayable",
      "type": "function"
    },
    {
      "constant": false,
      "inputs": [
        {
          "name": "listID",
          "type": "uint256"
        },
        {
          "name": "itemHash",
          "type": "bytes32"
        }
      ],
      "name": "finalizeExit",
      "outputs": [],
      "payable": false,
      "stateMutability": "nonpayable",
      "type": "function"
    },
    {
      "constant": false,
      "inputs": [
        {
          "name": "listID",
          "type": "uint256"
        },
        {
          "name": "itemHash",
          "type": "bytes32"
        },
        {
          "name": "_data",
          "type": "bytes"
        }
      ],
      "name": "challenge",
      "outputs": [
        {
          "name": "pollID",
          "type": "uint256"
        }
      ],
      "payable": false,
      "stateMutability": "nonpayable",
      "type": "function"
    },
    {
      "constant": false,
      "inputs": [
        {
          "name": "listID",
          "type": "uint256"
        },
        {
          "name": "itemHash",
          "type": "bytes32"
        }
      ],
      "name": "updateStatus",
      "outputs": [],
      "payable": false,
      "stateMutability": "nonpayable",
      "type": "function"
    },
    {
      "constant": false,
      "inputs": [
        {
          "name": "pollID",
          "type": "uint256"
        }
      ],
      "name": "claimReward",
      "outputs": [],
      "payable": false,
      "stateMutability": "nonpayable",
      "type": "function"
    },
    {
      "constant": true,
      "inputs": [
        {
          "name": "voter",
          "type": "address"
        },
        {
          "name": "pollID",
          "type": "uint256"
        }
      ],
      "name": "voterReward",
      "outputs": [
        {
          "name": "numReward",
          "type": "uint256"
        }
      ],
      "payable": false,
      "stateMutability": "view",
      "type": "function"
    },
    {
      "constant": true,
      "inputs": [
        {
          "name": "listID",
          "type": "uint256"
        },
        {
          "name": "itemHash",
          "type": "bytes32"
        }
      ],
      "name": "canBeWhitelisted",
      "outputs": [
        {
          "name": "",
          "type": "bool"
        }
      ],
      "payable": false,
      "stateMutability": "view",
      "type": "function"
    },
    {
      "constant": true,
      "inputs": [
        {
          "name": "listID",
          "type": "uint256"
        },
        {
          "name": "itemHash",
          "type": "bytes32"
        }
      ],
      "name": "isWhitelisted",
      "outputs": [
        {
          "name": "whitelisted",
          "type": "bool"
        }
      ],
      "payable": false,
      "stateMutability": "view",
      "type": "function"
    },
    {
      "constant": true,
      "inputs": [
        {
          "name": "listID",
          "type": "uint256"
        },
        {
          "name": "itemHash",
          "type": "bytes32"
        }
      ],
      "name": "challengeCanBeResolved",
      "outputs": [
        {
          "name": "",
          "type": "bool"
        }
      ],
      "payable": false,
      "stateMutability": "view",
      "type": "function"
    },
    {
      "constant": true,
      "inputs": [
        {
          "name": "pollID",
          "type": "uint256"
        }
      ],
      "name": "determineReward",
      "outputs": [
        {
          "name": "",
          "type": "uint256"
        }
      ],
      "payable": false,
      "stateMutability": "view",
      "type": "function"
    }
  ],
  "bytecode": "0x60806040526000600160006101000a81548173ffffffffffffffffffffffffffffffffffffffff021916908373ffffffffffffffffffffffffffffffffffffffff1602179055506000600260006101000a81548173ffffffffffffffffffffffffffffffffffffffff021916908373ffffffffffffffffffffffffffffffffffffffff1602179055506000600360006101000a81548173ffffffffffffffffffffffffffffffffffffffff021916908373ffffffffffffffffffffffffffffffffffffffff1602179055506000600460006101000a81548173ffffffffffffffffffffffffffffffffffffffff021916908373ffffffffffffffffffffffffffffffffffffffff1602179055506000600560006101000a81548173ffffffffffffffffffffffffffffffffffffffff021916908373ffffffffffffffffffffffffffffffffffffffff160217905550336000806101000a81548173ffffffffffffffffffffffffffffffffffffffff021916908373ffffffffffffffffffffffffffffffffffffffff160217905550615f7b8061019d6000396000f30060806040526004361061015f576000357c0100000000000000000000000000000000000000000000000000000000900463ffffffff1680630149ae4b1461016457806306ab34cf1461019f5780631b9680f1146101da5780631e89bf06146102315780631fde23a41461028857806343dc798b146102df57806344d1ef3b1461033657806345e971bf14610379578063536e2c75146103b45780636909fd44146104075780636b095ca11461045a5780636fd3db86146104e5578063715018a61461052a5780637937f46d146105415780638da5cb5b1461058457806390e8d82f146105db5780639137c1a71461061e578063a0fcd16114610661578063ab0ba5d4146106be578063ae169a5014610725578063ba63e25a14610752578063bd0ae405146107a5578063c4d0795114610806578063c8187cf114610849578063e193289f1461088a578063f2fde38b146108cd578063fce1ccca14610910575b600080fd5b34801561017057600080fd5b5061019d600480360381019080803590602001909291908035600019169060200190929190505050610967565b005b3480156101ab57600080fd5b506101d8600480360381019080803590602001909291908035600019169060200190929190505050610d62565b005b3480156101e657600080fd5b506101ef611160565b604051808273ffffffffffffffffffffffffffffffffffffffff1673ffffffffffffffffffffffffffffffffffffffff16815260200191505060405180910390f35b34801561023d57600080fd5b50610246611186565b604051808273ffffffffffffffffffffffffffffffffffffffff1673ffffffffffffffffffffffffffffffffffffffff16815260200191505060405180910390f35b34801561029457600080fd5b5061029d6111ac565b604051808273ffffffffffffffffffffffffffffffffffffffff1673ffffffffffffffffffffffffffffffffffffffff16815260200191505060405180910390f35b3480156102eb57600080fd5b506102f46111d2565b604051808273ffffffffffffffffffffffffffffffffffffffff1673ffffffffffffffffffffffffffffffffffffffff16815260200191505060405180910390f35b34801561034257600080fd5b50610377600480360381019080803573ffffffffffffffffffffffffffffffffffffffff1690602001909291905050506111f8565b005b34801561038557600080fd5b506103b2600480360381019080803590602001909291908035600019169060200190929190505050611297565b005b3480156103c057600080fd5b506103ed6004803603810190808035906020019092919080356000191690602001909291905050506112dd565b604051808215151515815260200191505060405180910390f35b34801561041357600080fd5b5061044060048036038101908080359060200190929190803560001916906020019092919050505061168e565b604051808215151515815260200191505060405180910390f35b34801561046657600080fd5b506104e360048036038101908080359060200190929190803590602001909291908035600019169060200190929190803590602001908201803590602001908080601f01602080910402602001604051908101604052809392919081815260200183838082843782019150505050505091929192905050506117e1565b005b3480156104f157600080fd5b5061052860048036038101908080359060200190929190803560001916906020019092919080359060200190929190505050611d6f565b005b34801561053657600080fd5b5061053f612221565b005b34801561054d57600080fd5b50610582600480360381019080803573ffffffffffffffffffffffffffffffffffffffff169060200190929190505050612323565b005b34801561059057600080fd5b506105996123c2565b604051808273ffffffffffffffffffffffffffffffffffffffff1673ffffffffffffffffffffffffffffffffffffffff16815260200191505060405180910390f35b3480156105e757600080fd5b5061061c600480360381019080803573ffffffffffffffffffffffffffffffffffffffff1690602001909291905050506123e7565b005b34801561062a57600080fd5b5061065f600480360381019080803573ffffffffffffffffffffffffffffffffffffffff1690602001909291905050506126fb565b005b34801561066d57600080fd5b506106a46004803603810190808035906020019092919080356000191690602001909291908035906020019092919050505061279a565b604051808215151515815260200191505060405180910390f35b3480156106ca57600080fd5b5061070f600480360381019080803590602001909291908035600019169060200190929190803590602001908201803590602001919091929391929390505050612c86565b6040518082815260200191505060405180910390f35b34801561073157600080fd5b5061075060048036038101908080359060200190929190505050613784565b005b34801561075e57600080fd5b5061078b600480360381019080803590602001909291908035600019169060200190929190505050613ace565b604051808215151515815260200191505060405180910390f35b3480156107b157600080fd5b506107f0600480360381019080803573ffffffffffffffffffffffffffffffffffffffff16906020019092919080359060200190929190505050613db2565b6040518082815260200191505060405180910390f35b34801561081257600080fd5b50610847600480360381019080803573ffffffffffffffffffffffffffffffffffffffff169060200190929190505050614245565b005b34801561085557600080fd5b50610874600480360381019080803590602001909291905050506142e4565b6040518082815260200191505060405180910390f35b34801561089657600080fd5b506108cb600480360381019080803573ffffffffffffffffffffffffffffffffffffffff169060200190929190505050614667565b005b3480156108d957600080fd5b5061090e600480360381019080803573ffffffffffffffffffffffffffffffffffffffff169060200190929190505050614706565b005b34801561091c57600080fd5b506109256147c5565b604051808273ffffffffffffffffffffffffffffffffffffffff1673ffffffffffffffffffffffffffffffffffffffff16815260200191505060405180910390f35b600061097383836147eb565b151561097e57600080fd5b6003600160009054906101000a900473ffffffffffffffffffffffffffffffffffffffff1673ffffffffffffffffffffffffffffffffffffffff1663bd02d0f5610a346040805190810160405280600381526020017f544352000000000000000000000000000000000000000000000000000000000081525087876040805190810160405280600581526020017f53544147450000000000000000000000000000000000000000000000000000008152506149aa565b6040518263ffffffff167c0100000000000000000000000000000000000000000000000000000000028152600401808260001916600019168152602001915050602060405180830381600087803b158015610a8e57600080fd5b505af1158015610aa2573d6000803e3d6000fd5b505050506040513d6020811015610ab857600080fd5b8101908080519060200190929190505050141515610ad557600080fd5b600160009054906101000a900473ffffffffffffffffffffffffffffffffffffffff1673ffffffffffffffffffffffffffffffffffffffff1663bd02d0f5610b896040805190810160405280600381526020017f544352000000000000000000000000000000000000000000000000000000000081525086866040805190810160405280600881526020017f4558495454494d450000000000000000000000000000000000000000000000008152506149aa565b6040518263ffffffff167c0100000000000000000000000000000000000000000000000000000000028152600401808260001916600019168152602001915050602060405180830381600087803b158015610be357600080fd5b505af1158015610bf7573d6000803e3d6000fd5b505050506040513d6020811015610c0d57600080fd5b810190808051906020019092919050505090508042111515610c2e57600080fd5b600160009054906101000a900473ffffffffffffffffffffffffffffffffffffffff1673ffffffffffffffffffffffffffffffffffffffff1663e2a4853a610ce26040805190810160405280600381526020017f544352000000000000000000000000000000000000000000000000000000000081525086866040805190810160405280600581526020017f53544147450000000000000000000000000000000000000000000000000000008152506149aa565b60006040518363ffffffff167c010000000000000000000000000000000000000000000000000000000002815260040180836000191660001916815260200182815260200192505050600060405180830381600087803b158015610d4557600080fd5b505af1158015610d59573d6000803e3d6000fd5b50505050505050565b6000610d6e83836147eb565b1515610d7957600080fd5b6003600160009054906101000a900473ffffffffffffffffffffffffffffffffffffffff1673ffffffffffffffffffffffffffffffffffffffff1663bd02d0f5610e2f6040805190810160405280600381526020017f544352000000000000000000000000000000000000000000000000000000000081525087876040805190810160405280600581526020017f53544147450000000000000000000000000000000000000000000000000000008152506149aa565b6040518263ffffffff167c0100000000000000000000000000000000000000000000000000000000028152600401808260001916600019168152602001915050602060405180830381600087803b158015610e8957600080fd5b505af1158015610e9d573d6000803e3d6000fd5b505050506040513d6020811015610eb357600080fd5b8101908080519060200190929190505050141515610ed057600080fd5b600160009054906101000a900473ffffffffffffffffffffffffffffffffffffffff1673ffffffffffffffffffffffffffffffffffffffff1663bd02d0f5610f846040805190810160405280600381526020017f544352000000000000000000000000000000000000000000000000000000000081525086866040805190810160405280600c81526020017f455849544455524154494f4e00000000000000000000000000000000000000008152506149aa565b6040518263ffffffff167c0100000000000000000000000000000000000000000000000000000000028152600401808260001916600019168152602001915050602060405180830381600087803b158015610fde57600080fd5b505af1158015610ff2573d6000803e3d6000fd5b505050506040513d602081101561100857600080fd5b81019080805190602001909291905050509050600160009054906101000a900473ffffffffffffffffffffffffffffffffffffffff1673ffffffffffffffffffffffffffffffffffffffff1663e2a4853a6110cf6040805190810160405280600381526020017f544352000000000000000000000000000000000000000000000000000000000081525086866040805190810160405280600881526020017f4558495454494d450000000000000000000000000000000000000000000000008152506149aa565b6110e28442614af290919063ffffffff16565b6040518363ffffffff167c010000000000000000000000000000000000000000000000000000000002815260040180836000191660001916815260200182815260200192505050600060405180830381600087803b15801561114357600080fd5b505af1158015611157573d6000803e3d6000fd5b50505050505050565b600560009054906101000a900473ffffffffffffffffffffffffffffffffffffffff1681565b600260009054906101000a900473ffffffffffffffffffffffffffffffffffffffff1681565b600160009054906101000a900473ffffffffffffffffffffffffffffffffffffffff1681565b600460009054906101000a900473ffffffffffffffffffffffffffffffffffffffff1681565b6000809054906101000a900473ffffffffffffffffffffffffffffffffffffffff1673ffffffffffffffffffffffffffffffffffffffff163373ffffffffffffffffffffffffffffffffffffffff1614151561125357600080fd5b80600560006101000a81548173ffffffffffffffffffffffffffffffffffffffff021916908373ffffffffffffffffffffffffffffffffffffffff16021790555050565b6112a18282613ace565b156112b5576112b08282614b0e565b6112d9565b6112bf82826112dd565b156112d3576112ce8282614d74565b6112d8565b600080fd5b5b5050565b600080600080600160009054906101000a900473ffffffffffffffffffffffffffffffffffffffff1673ffffffffffffffffffffffffffffffffffffffff1663bd02d0f56113976040805190810160405280600381526020017f544352000000000000000000000000000000000000000000000000000000000081525089896040805190810160405280600781526020017f504f4c4c5f4944000000000000000000000000000000000000000000000000008152506149aa565b6040518263ffffffff167c0100000000000000000000000000000000000000000000000000000000028152600401808260001916600019168152602001915050602060405180830381600087803b1580156113f157600080fd5b505af1158015611405573d6000803e3d6000fd5b505050506040513d602081101561141b57600080fd5b81019080805190602001909291905050509250600160009054906101000a900473ffffffffffffffffffffffffffffffffffffffff1673ffffffffffffffffffffffffffffffffffffffff1663bd02d0f56114e26040805190810160405280600381526020017f544352000000000000000000000000000000000000000000000000000000000081525089896040805190810160405280600581526020017f53544147450000000000000000000000000000000000000000000000000000008152506149aa565b6040518263ffffffff167c0100000000000000000000000000000000000000000000000000000000028152600401808260001916600019168152602001915050602060405180830381600087803b15801561153c57600080fd5b505af1158015611550573d6000803e3d6000fd5b505050506040513d602081101561156657600080fd5b8101908080519060200190929190505050915060028214151561158857600080fd5b600460009054906101000a900473ffffffffffffffffffffffffffffffffffffffff1673ffffffffffffffffffffffffffffffffffffffff1663b6990ee1846040518263ffffffff167c01000000000000000000000000000000000000000000000000000000000281526004018082815260200191505060a060405180830381600087803b15801561161957600080fd5b505af115801561162d573d6000803e3d6000fd5b505050506040513d60a081101561164357600080fd5b81019080805190602001909291908051906020019092919080519060200190929190805190602001909291908051906020019092919050505050505050905080935050505092915050565b6000600160009054906101000a900473ffffffffffffffffffffffffffffffffffffffff1673ffffffffffffffffffffffffffffffffffffffff16637ae1cfca6117446040805190810160405280600381526020017f544352000000000000000000000000000000000000000000000000000000000081525086866040805190810160405280600c81526020017f57484954455f4c495354454400000000000000000000000000000000000000008152506149aa565b6040518263ffffffff167c0100000000000000000000000000000000000000000000000000000000028152600401808260001916600019168152602001915050602060405180830381600087803b15801561179e57600080fd5b505af11580156117b2573d6000803e3d6000fd5b505050506040513d60208110156117c857600080fd5b8101908080519060200190929190505050905092915050565b60006117ed8584615765565b15156117f857600080fd5b600560009054906101000a900473ffffffffffffffffffffffffffffffffffffffff1673ffffffffffffffffffffffffffffffffffffffff1663e40cc359866040518263ffffffff167c010000000000000000000000000000000000000000000000000000000002815260040180828152602001915050608060405180830381600087803b15801561188957600080fd5b505af115801561189d573d6000803e3d6000fd5b505050506040513d60808110156118b357600080fd5b810190808051906020019092919080519060200190929190805190602001909291908051906020019092919050505050505090506118f285848661279a565b15156118fd57600080fd5b600160009054906101000a900473ffffffffffffffffffffffffffffffffffffffff1673ffffffffffffffffffffffffffffffffffffffff1663ca446dd96119b16040805190810160405280600381526020017f544352000000000000000000000000000000000000000000000000000000000081525088876040805190810160405280600581526020017f4f574e45520000000000000000000000000000000000000000000000000000008152506149aa565b336040518363ffffffff167c01000000000000000000000000000000000000000000000000000000000281526004018083600019166000191681526020018273ffffffffffffffffffffffffffffffffffffffff1673ffffffffffffffffffffffffffffffffffffffff16815260200192505050600060405180830381600087803b158015611a3f57600080fd5b505af1158015611a53573d6000803e3d6000fd5b50505050600160009054906101000a900473ffffffffffffffffffffffffffffffffffffffff1673ffffffffffffffffffffffffffffffffffffffff1663e2a4853a611b0b6040805190810160405280600381526020017f544352000000000000000000000000000000000000000000000000000000000081525088876040805190810160405280601381526020017f4150504c49434154494f4e5f454e4454494d45000000000000000000000000008152506149aa565b611b1e8442614af290919063ffffffff16565b6040518363ffffffff167c010000000000000000000000000000000000000000000000000000000002815260040180836000191660001916815260200182815260200192505050600060405180830381600087803b158015611b7f57600080fd5b505af1158015611b93573d6000803e3d6000fd5b50505050600160009054906101000a900473ffffffffffffffffffffffffffffffffffffffff1673ffffffffffffffffffffffffffffffffffffffff1663e2a4853a611c4b6040805190810160405280600381526020017f544352000000000000000000000000000000000000000000000000000000000081525088876040805190810160405280600581526020017f53544147450000000000000000000000000000000000000000000000000000008152506149aa565b60016040518363ffffffff167c010000000000000000000000000000000000000000000000000000000002815260040180836000191660001916815260200182815260200192505050600060405180830381600087803b158015611cae57600080fd5b505af1158015611cc2573d6000803e3d6000fd5b505050508260001916857f90bb7ffc3fe9af5712e4592590b22bf8db78ad5ced326d0ea4297d46a4467ee2846040518080602001828103825283818151815260200191508051906020019080838360005b83811015611d2e578082015181840152602081019050611d13565b50505050905090810190601f168015611d5b5780820380516001836020036101000a031916815260200191505b509250505060405180910390a35050505050565b600080611d7c85856147eb565b1515611d8757600080fd5b600560009054906101000a900473ffffffffffffffffffffffffffffffffffffffff1673ffffffffffffffffffffffffffffffffffffffff1663e40cc359866040518263ffffffff167c010000000000000000000000000000000000000000000000000000000002815260040180828152602001915050608060405180830381600087803b158015611e1857600080fd5b505af1158015611e2c573d6000803e3d6000fd5b505050506040513d6080811015611e4257600080fd5b81019080805190602001909291908051906020019092919080519060200190929190805190602001909291905050509450505050600160009054906101000a900473ffffffffffffffffffffffffffffffffffffffff1673ffffffffffffffffffffffffffffffffffffffff1663bd02d0f5611f2a6040805190810160405280600381526020017f544352000000000000000000000000000000000000000000000000000000000081525088886040805190810160405280600681526020017f5354414b454400000000000000000000000000000000000000000000000000008152506149aa565b6040518263ffffffff167c0100000000000000000000000000000000000000000000000000000000028152600401808260001916600019168152602001915050602060405180830381600087803b158015611f8457600080fd5b505af1158015611f98573d6000803e3d6000fd5b505050506040513d6020811015611fae57600080fd5b810190808051906020019092919050505090508282820310151515611fd257600080fd5b600160009054906101000a900473ffffffffffffffffffffffffffffffffffffffff1673ffffffffffffffffffffffffffffffffffffffff1663e2a4853a6120866040805190810160405280600381526020017f544352000000000000000000000000000000000000000000000000000000000081525088886040805190810160405280600681526020017f5354414b454400000000000000000000000000000000000000000000000000008152506149aa565b612099868561592290919063ffffffff16565b6040518363ffffffff167c010000000000000000000000000000000000000000000000000000000002815260040180836000191660001916815260200182815260200192505050600060405180830381600087803b1580156120fa57600080fd5b505af115801561210e573d6000803e3d6000fd5b50505050600260009054906101000a900473ffffffffffffffffffffffffffffffffffffffff1673ffffffffffffffffffffffffffffffffffffffff1663a9059cbb33856040518363ffffffff167c0100000000000000000000000000000000000000000000000000000000028152600401808373ffffffffffffffffffffffffffffffffffffffff1673ffffffffffffffffffffffffffffffffffffffff16815260200182815260200192505050602060405180830381600087803b1580156121d757600080fd5b505af11580156121eb573d6000803e3d6000fd5b505050506040513d602081101561220157600080fd5b8101908080519060200190929190505050151561221a57fe5b5050505050565b6000809054906101000a900473ffffffffffffffffffffffffffffffffffffffff1673ffffffffffffffffffffffffffffffffffffffff163373ffffffffffffffffffffffffffffffffffffffff1614151561227c57600080fd5b6000809054906101000a900473ffffffffffffffffffffffffffffffffffffffff1673ffffffffffffffffffffffffffffffffffffffff167ff8df31144d9c2f0f6b59d69b8b98abd5459d07f2742c4df920b25aae33c6482060405160405180910390a260008060006101000a81548173ffffffffffffffffffffffffffffffffffffffff021916908373ffffffffffffffffffffffffffffffffffffffff160217905550565b6000809054906101000a900473ffffffffffffffffffffffffffffffffffffffff1673ffffffffffffffffffffffffffffffffffffffff163373ffffffffffffffffffffffffffffffffffffffff1614151561237e57600080fd5b80600260006101000a81548173ffffffffffffffffffffffffffffffffffffffff021916908373ffffffffffffffffffffffffffffffffffffffff16021790555050565b6000809054906101000a900473ffffffffffffffffffffffffffffffffffffffff1681565b6000809054906101000a900473ffffffffffffffffffffffffffffffffffffffff1673ffffffffffffffffffffffffffffffffffffffff163373ffffffffffffffffffffffffffffffffffffffff1614151561244257600080fd5b60003073ffffffffffffffffffffffffffffffffffffffff163111156124e2576000809054906101000a900473ffffffffffffffffffffffffffffffffffffffff1673ffffffffffffffffffffffffffffffffffffffff166108fc3073ffffffffffffffffffffffffffffffffffffffff16319081150290604051600060405180830381858888f193505050501580156124e0573d6000803e3d6000fd5b505b600073ffffffffffffffffffffffffffffffffffffffff168173ffffffffffffffffffffffffffffffffffffffff161415156126f8578073ffffffffffffffffffffffffffffffffffffffff1663a9059cbb6000809054906101000a900473ffffffffffffffffffffffffffffffffffffffff168373ffffffffffffffffffffffffffffffffffffffff166370a08231306040518263ffffffff167c0100000000000000000000000000000000000000000000000000000000028152600401808273ffffffffffffffffffffffffffffffffffffffff1673ffffffffffffffffffffffffffffffffffffffff168152602001915050602060405180830381600087803b1580156125f157600080fd5b505af1158015612605573d6000803e3d6000fd5b505050506040513d602081101561261b57600080fd5b81019080805190602001909291905050506040518363ffffffff167c0100000000000000000000000000000000000000000000000000000000028152600401808373ffffffffffffffffffffffffffffffffffffffff1673ffffffffffffffffffffffffffffffffffffffff16815260200182815260200192505050602060405180830381600087803b1580156126b157600080fd5b505af11580156126c5573d6000803e3d6000fd5b505050506040513d60208110156126db57600080fd5b810190808051906020019092919050505015156126f757600080fd5b5b50565b6000809054906101000a900473ffffffffffffffffffffffffffffffffffffffff1673ffffffffffffffffffffffffffffffffffffffff163373ffffffffffffffffffffffffffffffffffffffff1614151561275657600080fd5b80600160006101000a81548173ffffffffffffffffffffffffffffffffffffffff021916908373ffffffffffffffffffffffffffffffffffffffff16021790555050565b6000806000600560009054906101000a900473ffffffffffffffffffffffffffffffffffffffff1673ffffffffffffffffffffffffffffffffffffffff1663e40cc359876040518263ffffffff167c010000000000000000000000000000000000000000000000000000000002815260040180828152602001915050608060405180830381600087803b15801561283057600080fd5b505af1158015612844573d6000803e3d6000fd5b505050506040513d608081101561285a57600080fd5b81019080805190602001909291908051906020019092919080519060200190929190805190602001909291905050509450505050600160009054906101000a900473ffffffffffffffffffffffffffffffffffffffff1673ffffffffffffffffffffffffffffffffffffffff1663bd02d0f56129426040805190810160405280600381526020017f544352000000000000000000000000000000000000000000000000000000000081525089896040805190810160405280600681526020017f5354414b454400000000000000000000000000000000000000000000000000008152506149aa565b6040518263ffffffff167c0100000000000000000000000000000000000000000000000000000000028152600401808260001916600019168152602001915050602060405180830381600087803b15801561299c57600080fd5b505af11580156129b0573d6000803e3d6000fd5b505050506040513d60208110156129c657600080fd5b81019080805190602001909291905050509050816129ed8583614af290919063ffffffff16565b101515156129fa57600080fd5b600260009054906101000a900473ffffffffffffffffffffffffffffffffffffffff1673ffffffffffffffffffffffffffffffffffffffff166323b872dd3330876040518463ffffffff167c0100000000000000000000000000000000000000000000000000000000028152600401808473ffffffffffffffffffffffffffffffffffffffff1673ffffffffffffffffffffffffffffffffffffffff1681526020018373ffffffffffffffffffffffffffffffffffffffff1673ffffffffffffffffffffffffffffffffffffffff1681526020018281526020019350505050602060405180830381600087803b158015612af357600080fd5b505af1158015612b07573d6000803e3d6000fd5b505050506040513d6020811015612b1d57600080fd5b81019080805190602001909291905050501515612b3957600080fd5b600160009054906101000a900473ffffffffffffffffffffffffffffffffffffffff1673ffffffffffffffffffffffffffffffffffffffff1663e2a4853a612bed6040805190810160405280600381526020017f544352000000000000000000000000000000000000000000000000000000000081525089896040805190810160405280600681526020017f5354414b454400000000000000000000000000000000000000000000000000008152506149aa565b612c008785614af290919063ffffffff16565b6040518363ffffffff167c010000000000000000000000000000000000000000000000000000000002815260040180836000191660001916815260200182815260200192505050600060405180830381600087803b158015612c6157600080fd5b505af1158015612c75573d6000803e3d6000fd5b505050506001925050509392505050565b6000806000806002600160009054906101000a900473ffffffffffffffffffffffffffffffffffffffff1673ffffffffffffffffffffffffffffffffffffffff1663bd02d0f5612d426040805190810160405280600381526020017f54435200000000000000000000000000000000000000000000000000000000008152508c8c6040805190810160405280600581526020017f53544147450000000000000000000000000000000000000000000000000000008152506149aa565b6040518263ffffffff167c0100000000000000000000000000000000000000000000000000000000028152600401808260001916600019168152602001915050602060405180830381600087803b158015612d9c57600080fd5b505af1158015612db0573d6000803e3d6000fd5b505050506040513d6020811015612dc657600080fd5b810190808051906020019092919050505014151515612de457600080fd5b600560009054906101000a900473ffffffffffffffffffffffffffffffffffffffff1673ffffffffffffffffffffffffffffffffffffffff1663e40cc359896040518263ffffffff167c010000000000000000000000000000000000000000000000000000000002815260040180828152602001915050608060405180830381600087803b158015612e7557600080fd5b505af1158015612e89573d6000803e3d6000fd5b505050506040513d6080811015612e9f57600080fd5b810190808051906020019092919080519060200190929190805190602001909291908051906020019092919050505093509350935050600260009054906101000a900473ffffffffffffffffffffffffffffffffffffffff1673ffffffffffffffffffffffffffffffffffffffff166323b872dd3330846040518463ffffffff167c0100000000000000000000000000000000000000000000000000000000028152600401808473ffffffffffffffffffffffffffffffffffffffff1673ffffffffffffffffffffffffffffffffffffffff1681526020018373ffffffffffffffffffffffffffffffffffffffff1673ffffffffffffffffffffffffffffffffffffffff1681526020018281526020019350505050602060405180830381600087803b158015612fce57600080fd5b505af1158015612fe2573d6000803e3d6000fd5b505050506040513d6020811015612ff857600080fd5b8101908080519060200190929190505050151561301457600080fd5b600360009054906101000a900473ffffffffffffffffffffffffffffffffffffffff1673ffffffffffffffffffffffffffffffffffffffff1663bd002e1e8787600087876040518663ffffffff167c01000000000000000000000000000000000000000000000000000000000281526004018080602001858152602001848152602001838152602001828103825287878281815260200192508082843782019150509650505050505050602060405180830381600087803b1580156130d857600080fd5b505af11580156130ec573d6000803e3d6000fd5b505050506040513d602081101561310257600080fd5b8101908080519060200190929190505050935060008411151561312457600080fd5b600160009054906101000a900473ffffffffffffffffffffffffffffffffffffffff1673ffffffffffffffffffffffffffffffffffffffff1663e2a4853a6131d76040805190810160405280600381526020017f5443520000000000000000000000000000000000000000000000000000000000815250876040805190810160405280601181526020017f4348414c4c454e4745525f5354414b454400000000000000000000000000000081525061593b565b836040518363ffffffff167c010000000000000000000000000000000000000000000000000000000002815260040180836000191660001916815260200182815260200192505050600060405180830381600087803b15801561323957600080fd5b505af115801561324d573d6000803e3d6000fd5b50505050600160009054906101000a900473ffffffffffffffffffffffffffffffffffffffff1673ffffffffffffffffffffffffffffffffffffffff1663e2a4853a6133056040805190810160405280600381526020017f54435200000000000000000000000000000000000000000000000000000000008152508b8b6040805190810160405280600781526020017f504f4c4c5f4944000000000000000000000000000000000000000000000000008152506149aa565b866040518363ffffffff167c010000000000000000000000000000000000000000000000000000000002815260040180836000191660001916815260200182815260200192505050600060405180830381600087803b15801561336757600080fd5b505af115801561337b573d6000803e3d6000fd5b50505050600160009054906101000a900473ffffffffffffffffffffffffffffffffffffffff1673ffffffffffffffffffffffffffffffffffffffff1663e2a4853a6133fc6040805190810160405280600b81526020017f5443525f504f4c4c5f494400000000000000000000000000000000000000000081525087615a72565b6134068b85615b53565b6040518363ffffffff167c010000000000000000000000000000000000000000000000000000000002815260040180836000191660001916815260200182815260200192505050600060405180830381600087803b15801561346757600080fd5b505af115801561347b573d6000803e3d6000fd5b50505050600160009054906101000a900473ffffffffffffffffffffffffffffffffffffffff1673ffffffffffffffffffffffffffffffffffffffff1663ca446dd96135336040805190810160405280600381526020017f54435200000000000000000000000000000000000000000000000000000000008152508b8b6040805190810160405280600a81526020017f4348414c4c454e474552000000000000000000000000000000000000000000008152506149aa565b336040518363ffffffff167c01000000000000000000000000000000000000000000000000000000000281526004018083600019166000191681526020018273ffffffffffffffffffffffffffffffffffffffff1673ffffffffffffffffffffffffffffffffffffffff16815260200192505050600060405180830381600087803b1580156135c157600080fd5b505af11580156135d5573d6000803e3d6000fd5b50505050600160009054906101000a900473ffffffffffffffffffffffffffffffffffffffff1673ffffffffffffffffffffffffffffffffffffffff1663e2a4853a61368d6040805190810160405280600381526020017f54435200000000000000000000000000000000000000000000000000000000008152508b8b6040805190810160405280600581526020017f53544147450000000000000000000000000000000000000000000000000000008152506149aa565b60026040518363ffffffff167c010000000000000000000000000000000000000000000000000000000002815260040180836000191660001916815260200182815260200192505050600060405180830381600087803b1580156136f057600080fd5b505af1158015613704573d6000803e3d6000fd5b505050508660001916887f30c164cbd3e88f862f716336a0358e8aad9421f4054fa07be59d1703738f32168633604051808381526020018273ffffffffffffffffffffffffffffffffffffffff1673ffffffffffffffffffffffffffffffffffffffff1681526020019250505060405180910390a3505050949350505050565b6000801515600160009054906101000a900473ffffffffffffffffffffffffffffffffffffffff1673ffffffffffffffffffffffffffffffffffffffff16637ae1cfca6138076040805190810160405280601181526020017f5443525f564f5445525f434c41494d45440000000000000000000000000000008152508633615ce2565b6040518263ffffffff167c0100000000000000000000000000000000000000000000000000000000028152600401808260001916600019168152602001915050602060405180830381600087803b15801561386157600080fd5b505af1158015613875573d6000803e3d6000fd5b505050506040513d602081101561388b57600080fd5b810190808051906020019092919050505015151415156138aa57600080fd5b6138b43383613db2565b90506000811115156138c557600080fd5b600260009054906101000a900473ffffffffffffffffffffffffffffffffffffffff1673ffffffffffffffffffffffffffffffffffffffff1663a9059cbb33836040518363ffffffff167c0100000000000000000000000000000000000000000000000000000000028152600401808373ffffffffffffffffffffffffffffffffffffffff1673ffffffffffffffffffffffffffffffffffffffff16815260200182815260200192505050602060405180830381600087803b15801561398a57600080fd5b505af115801561399e573d6000803e3d6000fd5b505050506040513d60208110156139b457600080fd5b810190808051906020019092919050505015156139cd57fe5b600160009054906101000a900473ffffffffffffffffffffffffffffffffffffffff1673ffffffffffffffffffffffffffffffffffffffff1663abfdcced613a4b6040805190810160405280601181526020017f5443525f564f5445525f434c41494d45440000000000000000000000000000008152508533615ce2565b60016040518363ffffffff167c01000000000000000000000000000000000000000000000000000000000281526004018083600019166000191681526020018215151515815260200192505050600060405180830381600087803b158015613ab257600080fd5b505af1158015613ac6573d6000803e3d6000fd5b505050505050565b6000806000600160009054906101000a900473ffffffffffffffffffffffffffffffffffffffff1673ffffffffffffffffffffffffffffffffffffffff1663bd02d0f5613b876040805190810160405280600381526020017f544352000000000000000000000000000000000000000000000000000000000081525088886040805190810160405280601381526020017f4150504c49434154494f4e5f454e4454494d45000000000000000000000000008152506149aa565b6040518263ffffffff167c0100000000000000000000000000000000000000000000000000000000028152600401808260001916600019168152602001915050602060405180830381600087803b158015613be157600080fd5b505af1158015613bf5573d6000803e3d6000fd5b505050506040513d6020811015613c0b57600080fd5b81019080805190602001909291905050509150600160009054906101000a900473ffffffffffffffffffffffffffffffffffffffff1673ffffffffffffffffffffffffffffffffffffffff1663bd02d0f5613cd26040805190810160405280600381526020017f544352000000000000000000000000000000000000000000000000000000000081525088886040805190810160405280600581526020017f53544147450000000000000000000000000000000000000000000000000000008152506149aa565b6040518263ffffffff167c0100000000000000000000000000000000000000000000000000000000028152600401808260001916600019168152602001915050602060405180830381600087803b158015613d2c57600080fd5b505af1158015613d40573d6000803e3d6000fd5b505050506040513d6020811015613d5657600080fd5b81019080805190602001909291905050509050600082118015613d7857504282105b8015613d845750600181145b8015613d975750613d95858561168e565b155b15613da55760019250613daa565b600092505b505092915050565b60008060008060008060001515600160009054906101000a900473ffffffffffffffffffffffffffffffffffffffff1673ffffffffffffffffffffffffffffffffffffffff16637ae1cfca613e3d6040805190810160405280601181526020017f5443525f564f5445525f434c41494d45440000000000000000000000000000008152508b8d615ce2565b6040518263ffffffff167c0100000000000000000000000000000000000000000000000000000000028152600401808260001916600019168152602001915050602060405180830381600087803b158015613e9757600080fd5b505af1158015613eab573d6000803e3d6000fd5b505050506040513d6020811015613ec157600080fd5b81019080805190602001909291905050501515141561423a57600460009054906101000a900473ffffffffffffffffffffffffffffffffffffffff1673ffffffffffffffffffffffffffffffffffffffff16630c03fbd789896040518363ffffffff167c0100000000000000000000000000000000000000000000000000000000028152600401808373ffffffffffffffffffffffffffffffffffffffff1673ffffffffffffffffffffffffffffffffffffffff16815260200182815260200192505050602060405180830381600087803b158015613f9f57600080fd5b505af1158015613fb3573d6000803e3d6000fd5b505050506040513d6020811015613fc957600080fd5b81019080805190602001909291905050509450600460009054906101000a900473ffffffffffffffffffffffffffffffffffffffff1673ffffffffffffffffffffffffffffffffffffffff1663b6990ee1886040518263ffffffff167c01000000000000000000000000000000000000000000000000000000000281526004018082815260200191505060a060405180830381600087803b15801561406d57600080fd5b505af1158015614081573d6000803e3d6000fd5b505050506040513d60a081101561409757600080fd5b8101908080519060200190929190805190602001909291908051906020019092919080519060200190929190805190602001909291905050509550509450509350600115158415151480156140ec5750600085115b80156140f85750603282115b1561423957600160009054906101000a900473ffffffffffffffffffffffffffffffffffffffff1673ffffffffffffffffffffffffffffffffffffffff1663bd02d0f561417a6040805190810160405280600b81526020017f5443525f504f4c4c5f49440000000000000000000000000000000000000000008152508a615a72565b6040518263ffffffff167c0100000000000000000000000000000000000000000000000000000000028152600401808260001916600019168152602001915050602060405180830381600087803b1580156141d457600080fd5b505af11580156141e8573d6000803e3d6000fd5b505050506040513d60208110156141fe57600080fd5b81019080805190602001909291905050509050614236836142288388615e0790919063ffffffff16565b615e3f90919063ffffffff16565b95505b5b505050505092915050565b6000809054906101000a900473ffffffffffffffffffffffffffffffffffffffff1673ffffffffffffffffffffffffffffffffffffffff163373ffffffffffffffffffffffffffffffffffffffff161415156142a057600080fd5b80600360006101000a81548173ffffffffffffffffffffffffffffffffffffffff021916908373ffffffffffffffffffffffffffffffffffffffff16021790555050565b6000806000600160009054906101000a900473ffffffffffffffffffffffffffffffffffffffff1673ffffffffffffffffffffffffffffffffffffffff1663bd02d0f561439c6040805190810160405280600381526020017f5443520000000000000000000000000000000000000000000000000000000000815250876040805190810160405280601181526020017f4348414c4c454e4745525f5354414b454400000000000000000000000000000081525061593b565b6040518263ffffffff167c0100000000000000000000000000000000000000000000000000000000028152600401808260001916600019168152602001915050602060405180830381600087803b1580156143f657600080fd5b505af115801561440a573d6000803e3d6000fd5b505050506040513d602081101561442057600080fd5b81019080805190602001909291905050509150600460009054906101000a900473ffffffffffffffffffffffffffffffffffffffff1673ffffffffffffffffffffffffffffffffffffffff1663b6990ee1856040518263ffffffff167c01000000000000000000000000000000000000000000000000000000000281526004018082815260200191505060a060405180830381600087803b1580156144c457600080fd5b505af11580156144d8573d6000803e3d6000fd5b505050506040513d60a08110156144ee57600080fd5b8101908080519060200190929190805190602001909291908051906020019092919080519060200190929190805190602001909291905050505093505050506001151581151514151561454657816002029250614660565b600160009054906101000a900473ffffffffffffffffffffffffffffffffffffffff1673ffffffffffffffffffffffffffffffffffffffff1663bd02d0f56145c36040805190810160405280600b81526020017f5443525f504f4c4c5f494400000000000000000000000000000000000000000081525087615a72565b6040518263ffffffff167c0100000000000000000000000000000000000000000000000000000000028152600401808260001916600019168152602001915050602060405180830381600087803b15801561461d57600080fd5b505af1158015614631573d6000803e3d6000fd5b505050506040513d602081101561464757600080fd5b8101908080519060200190929190505050826002020392505b5050919050565b6000809054906101000a900473ffffffffffffffffffffffffffffffffffffffff1673ffffffffffffffffffffffffffffffffffffffff163373ffffffffffffffffffffffffffffffffffffffff161415156146c257600080fd5b80600460006101000a81548173ffffffffffffffffffffffffffffffffffffffff021916908373ffffffffffffffffffffffffffffffffffffffff16021790555050565b600073ffffffffffffffffffffffffffffffffffffffff166000809054906101000a900473ffffffffffffffffffffffffffffffffffffffff1673ffffffffffffffffffffffffffffffffffffffff161415156147b9576000809054906101000a900473ffffffffffffffffffffffffffffffffffffffff1673ffffffffffffffffffffffffffffffffffffffff163373ffffffffffffffffffffffffffffffffffffffff161415156147b857600080fd5b5b6147c281615e55565b50565b600360009054906101000a900473ffffffffffffffffffffffffffffffffffffffff1681565b600080600160009054906101000a900473ffffffffffffffffffffffffffffffffffffffff1673ffffffffffffffffffffffffffffffffffffffff166321f8a7216148a26040805190810160405280600381526020017f544352000000000000000000000000000000000000000000000000000000000081525087876040805190810160405280600581526020017f4f574e45520000000000000000000000000000000000000000000000000000008152506149aa565b6040518263ffffffff167c0100000000000000000000000000000000000000000000000000000000028152600401808260001916600019168152602001915050602060405180830381600087803b1580156148fc57600080fd5b505af1158015614910573d6000803e3d6000fd5b505050506040513d602081101561492657600080fd5b810190808051906020019092919050505090503373ffffffffffffffffffffffffffffffffffffffff168173ffffffffffffffffffffffffffffffffffffffff161480156149a15750600073ffffffffffffffffffffffffffffffffffffffff168173ffffffffffffffffffffffffffffffffffffffff1614155b91505092915050565b6000848484846040516020018085805190602001908083835b6020831015156149e857805182526020820191506020810190506020830392506149c3565b6001836020036101000a038019825116818451168082178552505050505050905001848152602001836000191660001916815260200182805190602001908083835b602083101515614a4f5780518252602082019150602081019050602083039250614a2a565b6001836020036101000a0380198251168184511680821785525050505050509050019450505050506040516020818303038152906040526040518082805190602001908083835b602083101515614abb5780518252602082019150602081019050602083039250614a96565b6001836020036101000a03801982511681845116808217855250505050505090500191505060405180910390209050949350505050565b60008183019050828110151515614b0557fe5b80905092915050565b600160009054906101000a900473ffffffffffffffffffffffffffffffffffffffff1673ffffffffffffffffffffffffffffffffffffffff1663abfdcced614bc26040805190810160405280600381526020017f544352000000000000000000000000000000000000000000000000000000000081525085856040805190810160405280600c81526020017f57484954455f4c495354454400000000000000000000000000000000000000008152506149aa565b60016040518363ffffffff167c01000000000000000000000000000000000000000000000000000000000281526004018083600019166000191681526020018215151515815260200192505050600060405180830381600087803b158015614c2957600080fd5b505af1158015614c3d573d6000803e3d6000fd5b50505050600160009054906101000a900473ffffffffffffffffffffffffffffffffffffffff1673ffffffffffffffffffffffffffffffffffffffff1663e2a4853a614cf56040805190810160405280600381526020017f544352000000000000000000000000000000000000000000000000000000000081525085856040805190810160405280600581526020017f53544147450000000000000000000000000000000000000000000000000000008152506149aa565b60036040518363ffffffff167c010000000000000000000000000000000000000000000000000000000002815260040180836000191660001916815260200182815260200192505050600060405180830381600087803b158015614d5857600080fd5b505af1158015614d6c573d6000803e3d6000fd5b505050505050565b6000806000806000806000600160009054906101000a900473ffffffffffffffffffffffffffffffffffffffff1673ffffffffffffffffffffffffffffffffffffffff1663bd02d0f5614e336040805190810160405280600381526020017f54435200000000000000000000000000000000000000000000000000000000008152508c8c6040805190810160405280600781526020017f504f4c4c5f4944000000000000000000000000000000000000000000000000008152506149aa565b6040518263ffffffff167c0100000000000000000000000000000000000000000000000000000000028152600401808260001916600019168152602001915050602060405180830381600087803b158015614e8d57600080fd5b505af1158015614ea1573d6000803e3d6000fd5b505050506040513d6020811015614eb757600080fd5b81019080805190602001909291905050509650600460009054906101000a900473ffffffffffffffffffffffffffffffffffffffff1673ffffffffffffffffffffffffffffffffffffffff1663b6990ee1886040518263ffffffff167c01000000000000000000000000000000000000000000000000000000000281526004018082815260200191505060a060405180830381600087803b158015614f5b57600080fd5b505af1158015614f6f573d6000803e3d6000fd5b505050506040513d60a0811015614f8557600080fd5b8101908080519060200190929190805190602001909291908051906020019092919080519060200190929190805190602001909291905050509750509650509550600160009054906101000a900473ffffffffffffffffffffffffffffffffffffffff1673ffffffffffffffffffffffffffffffffffffffff1663bd02d0f56150796040805190810160405280600381526020017f54435200000000000000000000000000000000000000000000000000000000008152508c6040805190810160405280600681526020017f51554f52554d000000000000000000000000000000000000000000000000000081525061593b565b6040518263ffffffff167c0100000000000000000000000000000000000000000000000000000000028152600401808260001916600019168152602001915050602060405180830381600087803b1580156150d357600080fd5b505af11580156150e7573d6000803e3d6000fd5b505050506040513d60208110156150fd57600080fd5b81019080805190602001909291905050509250615119876142e4565b915082841015801561512f575060011515861515145b801561513b5750600085115b156153da5761514a8989614b0e565b600160009054906101000a900473ffffffffffffffffffffffffffffffffffffffff1673ffffffffffffffffffffffffffffffffffffffff1663bd02d0f56151fe6040805190810160405280600381526020017f54435200000000000000000000000000000000000000000000000000000000008152508c8c6040805190810160405280600681526020017f5354414b454400000000000000000000000000000000000000000000000000008152506149aa565b6040518263ffffffff167c0100000000000000000000000000000000000000000000000000000000028152600401808260001916600019168152602001915050602060405180830381600087803b15801561525857600080fd5b505af115801561526c573d6000803e3d6000fd5b505050506040513d602081101561528257600080fd5b81019080805190602001909291905050509050600160009054906101000a900473ffffffffffffffffffffffffffffffffffffffff1673ffffffffffffffffffffffffffffffffffffffff1663e2a4853a6153496040805190810160405280600381526020017f54435200000000000000000000000000000000000000000000000000000000008152508c8c6040805190810160405280600681526020017f5354414b454400000000000000000000000000000000000000000000000000008152506149aa565b61535c8585614af290919063ffffffff16565b6040518363ffffffff167c010000000000000000000000000000000000000000000000000000000002815260040180836000191660001916815260200182815260200192505050600060405180830381600087803b1580156153bd57600080fd5b505af11580156153d1573d6000803e3d6000fd5b5050505061575a565b600160009054906101000a900473ffffffffffffffffffffffffffffffffffffffff1673ffffffffffffffffffffffffffffffffffffffff1663e2a4853a61548e6040805190810160405280600381526020017f54435200000000000000000000000000000000000000000000000000000000008152508c8c6040805190810160405280600581526020017f53544147450000000000000000000000000000000000000000000000000000008152506149aa565b60006040518363ffffffff167c010000000000000000000000000000000000000000000000000000000002815260040180836000191660001916815260200182815260200192505050600060405180830381600087803b1580156154f157600080fd5b505af1158015615505573d6000803e3d6000fd5b50505050600260009054906101000a900473ffffffffffffffffffffffffffffffffffffffff1673ffffffffffffffffffffffffffffffffffffffff1663a9059cbb600160009054906101000a900473ffffffffffffffffffffffffffffffffffffffff1673ffffffffffffffffffffffffffffffffffffffff166321f8a7216155fb6040805190810160405280600381526020017f54435200000000000000000000000000000000000000000000000000000000008152508e8e6040805190810160405280600a81526020017f4348414c4c454e474552000000000000000000000000000000000000000000008152506149aa565b6040518263ffffffff167c0100000000000000000000000000000000000000000000000000000000028152600401808260001916600019168152602001915050602060405180830381600087803b15801561565557600080fd5b505af1158015615669573d6000803e3d6000fd5b505050506040513d602081101561567f57600080fd5b8101908080519060200190929190505050846040518363ffffffff167c0100000000000000000000000000000000000000000000000000000000028152600401808373ffffffffffffffffffffffffffffffffffffffff1673ffffffffffffffffffffffffffffffffffffffff16815260200182815260200192505050602060405180830381600087803b15801561571657600080fd5b505af115801561572a573d6000803e3d6000fd5b505050506040513d602081101561574057600080fd5b8101908080519060200190929190505050151561575957fe5b5b505050505050505050565b600080600160009054906101000a900473ffffffffffffffffffffffffffffffffffffffff1673ffffffffffffffffffffffffffffffffffffffff166321f8a72161581c6040805190810160405280600381526020017f544352000000000000000000000000000000000000000000000000000000000081525087876040805190810160405280600581526020017f4f574e45520000000000000000000000000000000000000000000000000000008152506149aa565b6040518263ffffffff167c0100000000000000000000000000000000000000000000000000000000028152600401808260001916600019168152602001915050602060405180830381600087803b15801561587657600080fd5b505af115801561588a573d6000803e3d6000fd5b505050506040513d60208110156158a057600080fd5b810190808051906020019092919050505090503373ffffffffffffffffffffffffffffffffffffffff168173ffffffffffffffffffffffffffffffffffffffff1614806159195750600073ffffffffffffffffffffffffffffffffffffffff168173ffffffffffffffffffffffffffffffffffffffff16145b91505092915050565b600082821115151561593057fe5b818303905092915050565b60008383836040516020018084805190602001908083835b6020831015156159785780518252602082019150602081019050602083039250615953565b6001836020036101000a03801982511681845116808217855250505050505090500183815260200182805190602001908083835b6020831015156159d157805182526020820191506020810190506020830392506159ac565b6001836020036101000a03801982511681845116808217855250505050505090500193505050506040516020818303038152906040526040518082805190602001908083835b602083101515615a3c5780518252602082019150602081019050602083039250615a17565b6001836020036101000a038019825116818451168082178552505050505050905001915050604051809103902090509392505050565b600082826040516020018083805190602001908083835b602083101515615aae5780518252602082019150602081019050602083039250615a89565b6001836020036101000a038019825116818451168082178552505050505050905001828152602001925050506040516020818303038152906040526040518082805190602001908083835b602083101515615b1e5780518252602082019150602081019050602083039250615af9565b6001836020036101000a0380198251168184511680821785525050505050509050019150506040518091039020905092915050565b60008060649050615cd96064615ccb85615cbd600160009054906101000a900473ffffffffffffffffffffffffffffffffffffffff1673ffffffffffffffffffffffffffffffffffffffff1663bd02d0f5615c196040805190810160405280600381526020017f54435200000000000000000000000000000000000000000000000000000000008152508c6040805190810160405280600c81526020017f4c4f53455f50455243454e54000000000000000000000000000000000000000081525061593b565b6040518263ffffffff167c0100000000000000000000000000000000000000000000000000000000028152600401808260001916600019168152602001915050602060405180830381600087803b158015615c7357600080fd5b505af1158015615c87573d6000803e3d6000fd5b505050506040513d6020811015615c9d57600080fd5b81019080805190602001909291905050508661592290919063ffffffff16565b615e0790919063ffffffff16565b615e3f90919063ffffffff16565b91505092915050565b60008383836040516020018084805190602001908083835b602083101515615d1f5780518252602082019150602081019050602083039250615cfa565b6001836020036101000a0380198251168184511680821785525050505050509050018381526020018273ffffffffffffffffffffffffffffffffffffffff1673ffffffffffffffffffffffffffffffffffffffff166c0100000000000000000000000002815260140193505050506040516020818303038152906040526040518082805190602001908083835b602083101515615dd15780518252602082019150602081019050602083039250615dac565b6001836020036101000a038019825116818451168082178552505050505050905001915050604051809103902090509392505050565b600080831415615e1a5760009050615e39565b8183029050818382811515615e2b57fe5b04141515615e3557fe5b8090505b92915050565b60008183811515615e4c57fe5b04905092915050565b600073ffffffffffffffffffffffffffffffffffffffff168173ffffffffffffffffffffffffffffffffffffffff1614151515615e9157600080fd5b8073ffffffffffffffffffffffffffffffffffffffff166000809054906101000a900473ffffffffffffffffffffffffffffffffffffffff1673ffffffffffffffffffffffffffffffffffffffff167f8be0079c531659141344cd1fd0a4f28419497f9722a3daafe3b4186f6b6457e060405160405180910390a3806000806101000a81548173ffffffffffffffffffffffffffffffffffffffff021916908373ffffffffffffffffffffffffffffffffffffffff160217905550505600a165627a7a72305820bf80e6602ff5c4b9fa74f2c49ca62be5e2d91d80a246d385e5282ab545d069510029",
  "source": "  /**\n * Created on 2018-10-13 10:20\n * @summary: \n * @author: Chris Nguyen\n */\npragma solidity ^0.4.24;\n\nimport './BBStandard.sol';\nimport './BBLib.sol';\nimport './BBVoting.sol';\nimport './BBVotingHelper.sol';\nimport './BBTCRHelper.sol';\n\n\n\ncontract BBUnOrderedTCR is BBStandard{\n\t// events\n\tevent ItemApplied(uint256 indexed listID, bytes32 indexed itemHash, bytes data);\n    event Challenge(uint256 indexed listID, bytes32 indexed itemHash, uint256 pollID, address sender);\n    //\n    BBVoting public voting = BBVoting(0x0);\n    BBVotingHelper public votingHelper = BBVotingHelper(0x0);\n    BBTCRHelper public tcrHelper = BBTCRHelper(0x0);\n      \n    function setVoting(address p) onlyOwner public  {\n      voting = BBVoting(p);\n    }\n    function setVotingHelper(address p) onlyOwner public  {\n      votingHelper = BBVotingHelper(p);\n    }\n\n    function setTCRHelper(address p) onlyOwner public  {\n      tcrHelper = BBTCRHelper(p);\n    }\n\n\n    function isOwnerItem(uint256 listID, bytes32 itemHash) private constant returns (bool r){\n        address owner = bbs.getAddress(BBLib.toB32('TCR',listID, itemHash, 'OWNER'));\n         r = (owner == msg.sender && owner != address(0x0));\n    }\n\n     function canApply(uint256 listID, bytes32 itemHash) private constant returns (bool r){\n        address owner = bbs.getAddress(BBLib.toB32('TCR',listID, itemHash, 'OWNER'));\n         r = (owner == msg.sender || owner == address(0x0));\n    }\n\n    //Lam sao user bi remove, kiem tra so deposit\n    function depositToken(uint256 listID, bytes32 itemHash, uint amount) public returns(bool) {\n        (,,, uint256 minStake) = tcrHelper.getListParamsUnOrdered(listID);\n        uint256 staked = bbs.getUint(BBLib.toB32('TCR', listID, itemHash, 'STAKED'));\n        require(staked.add(amount) >= minStake);\n        require (bbo.transferFrom(msg.sender, address(this), amount));\n        bbs.setUint(BBLib.toB32('TCR', listID, itemHash, 'STAKED'), staked.add(amount));\n        return true;\n    }\n    function apply(uint256 listID, uint256 amount, bytes32 itemHash, bytes data) public {\n    \t//TODO add index of item in the list\n        require(canApply(listID,itemHash));\n        //\n    \t(uint256 applicationDuration,,,) = tcrHelper.getListParamsUnOrdered(listID);\n        require(depositToken(listID, itemHash,amount));\n        // save creator\n        bbs.setAddress(BBLib.toB32('TCR',listID, itemHash, 'OWNER'), msg.sender);\n        // save application endtime\n        bbs.setUint(BBLib.toB32('TCR', listID, itemHash, 'APPLICATION_ENDTIME'), block.timestamp.add(applicationDuration));\n        bbs.setUint(BBLib.toB32('TCR',listID, itemHash,'STAGE'), 1);\n        // emit event\n        emit ItemApplied(listID, itemHash, data);\n    }\n    \n    // lay balance - min stake >= _amount // set lai stake\n    function withdraw(uint256 listID, bytes32 itemHash, uint _amount) external {\n    \t//TODO allow withdraw unlocked token\n        require (isOwnerItem(listID, itemHash));\n        (,,, uint256 minStake) = tcrHelper.getListParamsUnOrdered(listID);\n        uint256 staked = bbs.getUint(BBLib.toB32('TCR', listID, itemHash, 'STAKED'));\n        require(staked - minStake >= _amount);\n\n        bbs.setUint(BBLib.toB32('TCR', listID, itemHash, 'STAKED'), staked.sub(_amount));\n        assert(bbo.transfer(msg.sender, _amount));\n    \n    }\n    \n    function initExit(uint256 listID, bytes32 itemHash) external {\t\n    \t//TODO Initialize an exit timer for a listing to leave the whitelist\n        // exit timer \n        require (isOwnerItem(listID, itemHash));\n        require(bbs.getUint(BBLib.toB32('TCR',listID, itemHash,'STAGE')) == 3);\n        uint256 applicationExitDuration = bbs.getUint(BBLib.toB32('TCR', listID, itemHash, 'EXITDURATION'));\n        // save application exittime\n        bbs.setUint(BBLib.toB32('TCR', listID, itemHash, 'EXITTIME'), block.timestamp.add(applicationExitDuration));\n\n    }\n    // set state = 0, tra tien so huu\n    function finalizeExit(uint256 listID, bytes32 itemHash) external {\n        // TODO Allow a listing to leave the whitelist\n        // after x timer will \n        require (isOwnerItem(listID, itemHash));\n        require(bbs.getUint(BBLib.toB32('TCR',listID, itemHash,'STAGE')) == 3);\n        uint256 applicationExitTime= bbs.getUint(BBLib.toB32('TCR', listID, itemHash, 'EXITTIME'));\n        require(now > applicationExitTime);\n        bbs.setUint(BBLib.toB32('TCR',listID, itemHash,'STAGE'), 0);\n\n    }\n    function calcRewardPool(uint256 listID, uint256 stakedToken) internal constant returns(uint256){\n        uint oneHundred = 100; \n        return (oneHundred.sub(bbs.getUint(BBLib.toB32('TCR', listID, 'LOSE_PERCENT')))\n            .mul(stakedToken)).div(100);\n    }\n    function challenge(uint256 listID, bytes32 itemHash, bytes _data) external returns (uint pollID) {\n        // not in challenge stage\n        require(bbs.getUint(BBLib.toB32('TCR',listID, itemHash,'STAGE')) != 2);\n        // require deposit token        \n        (, uint256 commitDuration, uint256 revealDuration, uint256 minStake) = tcrHelper.getListParamsUnOrdered(listID);\n        require (bbo.transferFrom(msg.sender, address(this), minStake));\n        \n        pollID = voting.startPoll(_data, 0 , commitDuration, revealDuration);\n        require(pollID > 0);\n        // save pollID \n        bbs.setUint(BBLib.toB32('TCR', pollID, 'CHALLENGER_STAKED'), minStake);\n\n        bbs.setUint(BBLib.toB32('TCR', listID, itemHash, 'POLL_ID'), pollID);\n        \n        bbs.setUint(BBLib.toB32('TCR_POLL_ID', pollID ), calcRewardPool(listID, minStake));\n        // save challenger\n        bbs.setAddress(BBLib.toB32('TCR', listID, itemHash, 'CHALLENGER'), msg.sender);\n        // in challenge stage\n        bbs.setUint(BBLib.toB32('TCR',listID, itemHash,'STAGE'), 2);\n        emit Challenge(listID, itemHash, pollID, msg.sender);\n    }\n\n    function updateStatus(uint256 listID, bytes32 itemHash) public {\n        if (canBeWhitelisted(listID, itemHash)) {\n            whitelistApplication(listID, itemHash);\n        } else if (challengeCanBeResolved(listID, itemHash)) {\n            resolveChallenge(listID, itemHash);\n        } else {\n         revert();\n        }\n    }\n\n    function claimReward(uint pollID) public {\n        require(bbs.getBool(BBLib.toB32('TCR_VOTER_CLAIMED', pollID, msg.sender)) == false);\n        uint256 numReward = voterReward(msg.sender, pollID);\n        require(numReward > 0);\n        assert(bbo.transfer(msg.sender, numReward));\n        bbs.setBool(BBLib.toB32('TCR_VOTER_CLAIMED', pollID, msg.sender), true);\n    }\n    function voterReward(address voter, uint pollID) public view returns (uint numReward) {\n        if(bbs.getBool(BBLib.toB32('TCR_VOTER_CLAIMED', pollID, voter)) == false){\n           uint256 userVotes =  votingHelper.getNumPassingTokens(voter, pollID);\n            (bool isFinished,, uint256 winnerVotes,, uint256 quorum) = votingHelper.getPollWinner(pollID);\n            if(isFinished==true && userVotes > 0 && quorum > 50){\n                uint256 rewardPool =  bbs.getUint(BBLib.toB32('TCR_POLL_ID', pollID ));\n                numReward = userVotes.mul(rewardPool).div(winnerVotes); // (vote/totalVotes) * staked\n            }\n        } \n        \n    }\n    function whitelistApplication(uint256 listID, bytes32 itemHash) private {\n        bbs.setBool(BBLib.toB32('TCR',listID, itemHash,'WHITE_LISTED'), true);\n        bbs.setUint(BBLib.toB32('TCR',listID, itemHash,'STAGE'), 3);\n    }\n    function canBeWhitelisted(uint256 listID, bytes32 itemHash) view public returns (bool) {\n        uint256 applicationEndtime = bbs.getUint(BBLib.toB32('TCR', listID, itemHash, 'APPLICATION_ENDTIME'));\n\t    uint256 stage = bbs.getUint(BBLib.toB32('TCR',listID, itemHash,'STAGE'));\n        if(applicationEndtime > 0 && applicationEndtime < now && stage == 1 && !isWhitelisted(listID, itemHash)){\n            return true;\n        }\n        return false;\n    }\n\tfunction isWhitelisted(uint256 listID, bytes32 itemHash) view public returns (bool whitelisted) {\n        return bbs.getBool(BBLib.toB32('TCR',listID, itemHash,'WHITE_LISTED'));\n\t}\n\n    function challengeCanBeResolved(uint256 listID, bytes32 itemHash) view public returns (bool) {\n        uint pollID = bbs.getUint(BBLib.toB32('TCR', listID, itemHash, 'POLL_ID'));\n        uint256 stage = bbs.getUint(BBLib.toB32('TCR',listID, itemHash,'STAGE'));\n        require(stage == 2);\n        (bool isFinished,,,,) = votingHelper.getPollWinner(pollID);\n        return isFinished;\n    }\n    function determineReward(uint pollID) public view returns (uint) {\n        uint256 minStake = bbs.getUint(BBLib.toB32('TCR', pollID, 'CHALLENGER_STAKED'));\n        // Edge case, nobody voted, give all tokens to the challenger.\n        // quorum 70 --> lose\n        // if nobody voted, ?? TODO\n        (,,, bool hasVote, ) = votingHelper.getPollWinner(pollID);\n        if (hasVote!=true) {\n            return 2 * minStake;//TODO ... should reward to voter\n        }\n\n        return (2 * minStake) - bbs.getUint(BBLib.toB32('TCR_POLL_ID', pollID ));\n    }\n    function resolveChallenge(uint256 listID, bytes32 itemHash) private {\n        uint pollID = bbs.getUint(BBLib.toB32('TCR', listID, itemHash, 'POLL_ID'));\n        (bool isFinished, , uint256 winnerVotes ,, uint256 quorum) = votingHelper.getPollWinner(pollID);\n        uint256 initQuorum = bbs.getUint(BBLib.toB32('TCR', listID, 'QUORUM'));\n        uint256 reward = determineReward(pollID);\n        if(quorum>= initQuorum && isFinished == true && winnerVotes > 0){\n            //pass vote\n            whitelistApplication(listID, itemHash);\n            uint256 staked = bbs.getUint(BBLib.toB32('TCR', listID, itemHash, 'STAKED'));\n            bbs.setUint(BBLib.toB32('TCR', listID, itemHash, 'STAKED'), staked.add(reward));\n        }else{\n            // did not pass // thang do khong pass, trang thai true -false,\n            //remove ra khoi list\n            bbs.setUint(BBLib.toB32('TCR',listID, itemHash,'STAGE'), 0);\n            assert(bbo.transfer(bbs.getAddress(BBLib.toB32('TCR', listID, itemHash, 'CHALLENGER')), reward));\n        }\n    }\n}",
  "sourcePath": "/Users/trantho/Code/SmartContract/digital-contracts/src/contracts/BBUnOrderedTCR.sol",
  "compiler": {
    "name": "solc",
    "version": "0.4.24+commit.e67f0147.Emscripten.clang"
  },
  "schemaVersion": "2.0.1",
  "updatedAt": "2018-11-13T03:47:25.652Z"
}